{
  "abi": [
    {
      "inputs": [
        {
          "internalType": "address",
          "name": "_cToken",
          "type": "address"
        },
        {
          "internalType": "contract IOracleRelay",
          "name": "_anchoredViewUnderlying",
          "type": "address"
        }
      ],
      "stateMutability": "nonpayable",
      "type": "constructor"
    },
    {
      "inputs": [],
      "name": "OracleRelay_DifferentUnderlyings",
      "type": "error"
    },
    {
      "anonymous": false,
      "inputs": [
        {
          "indexed": true,
          "internalType": "address",
          "name": "previousOwner",
          "type": "address"
        },
        {
          "indexed": true,
          "internalType": "address",
          "name": "newOwner",
          "type": "address"
        }
      ],
      "name": "OwnershipTransferred",
      "type": "event"
    },
    {
      "inputs": [],
      "name": "anchoredViewUnderlying",
      "outputs": [
        {
          "internalType": "contract IOracleRelay",
          "name": "",
          "type": "address"
        }
      ],
      "stateMutability": "view",
      "type": "function"
    },
    {
      "inputs": [],
      "name": "cETH_ADDRESS",
      "outputs": [
        {
          "internalType": "address",
          "name": "",
          "type": "address"
        }
      ],
      "stateMutability": "view",
      "type": "function"
    },
    {
      "inputs": [],
      "name": "cToken",
      "outputs": [
        {
          "internalType": "contract ICToken",
          "name": "",
          "type": "address"
        }
      ],
      "stateMutability": "view",
      "type": "function"
    },
    {
      "inputs": [
        {
          "internalType": "address",
          "name": "_anchoredViewUnderlying",
          "type": "address"
        }
      ],
      "name": "changeAnchoredView",
      "outputs": [],
      "stateMutability": "nonpayable",
      "type": "function"
    },
    {
      "inputs": [],
      "name": "currentValue",
      "outputs": [
        {
          "internalType": "uint256",
          "name": "_currentValue",
          "type": "uint256"
        }
      ],
      "stateMutability": "nonpayable",
      "type": "function"
    },
    {
      "inputs": [],
      "name": "div",
      "outputs": [
        {
          "internalType": "uint256",
          "name": "",
          "type": "uint256"
        }
      ],
      "stateMutability": "view",
      "type": "function"
    },
    {
      "inputs": [],
      "name": "oracleType",
      "outputs": [
        {
          "internalType": "enum IOracleRelay.OracleType",
          "name": "",
          "type": "uint8"
        }
      ],
      "stateMutability": "view",
      "type": "function"
    },
    {
      "inputs": [],
      "name": "owner",
      "outputs": [
        {
          "internalType": "address",
          "name": "",
          "type": "address"
        }
      ],
      "stateMutability": "view",
      "type": "function"
    },
    {
      "inputs": [],
      "name": "peekValue",
      "outputs": [
        {
          "internalType": "uint256",
          "name": "_price",
          "type": "uint256"
        }
      ],
      "stateMutability": "view",
      "type": "function"
    },
    {
      "inputs": [],
      "name": "renounceOwnership",
      "outputs": [],
      "stateMutability": "nonpayable",
      "type": "function"
    },
    {
      "inputs": [
        {
          "internalType": "address",
          "name": "newOwner",
          "type": "address"
        }
      ],
      "name": "transferOwnership",
      "outputs": [],
      "stateMutability": "nonpayable",
      "type": "function"
    },
    {
      "inputs": [],
      "name": "underlying",
      "outputs": [
        {
          "internalType": "address",
          "name": "",
          "type": "address"
        }
      ],
      "stateMutability": "view",
      "type": "function"
    },
    {
      "inputs": [],
      "name": "wETH_ADDRESS",
      "outputs": [
        {
          "internalType": "address",
          "name": "",
          "type": "address"
        }
      ],
      "stateMutability": "view",
      "type": "function"
    }
  ],
  "bytecode": {
    "object": "0x60806040523480156200001157600080fd5b5060405162000d3c38038062000d3c833981016040819052620000349162000427565b6000805460ff191690556200004933620003bc565b600280546001600160a01b038085166001600160a01b031992831681179093556003805491851691909216179055600090734ddc2d193948926d02f9b1fe9e1daa0718270ed5146200017957600260009054906101000a90046001600160a01b03166001600160a01b0316636f307dc36040518163ffffffff1660e01b8152600401602060405180830381865afa158015620000e9573d6000803e3d6000fd5b505050506040513d601f19601f820116820180604052508101906200010f919062000466565b6001600160a01b031663313ce5676040518163ffffffff1660e01b8152600401602060405180830381865afa1580156200014d573d6000803e3d6000fd5b505050506040513d601f19601f820116820180604052508101906200017391906200048d565b6200017c565b60125b60ff169050600260009054906101000a90046001600160a01b03166001600160a01b031663313ce5676040518163ffffffff1660e01b8152600401602060405180830381865afa158015620001d5573d6000803e3d6000fd5b505050506040513d601f19601f82011682018060405250810190620001fb91906200048d565b60ff166200020b826012620004c8565b620002179190620004e3565b6200022490600a620005fc565b6004556000734ddc2d193948926d02f9b1fe9e1daa0718270ed56001600160a01b03851614620002ce57600260009054906101000a90046001600160a01b03166001600160a01b0316636f307dc36040518163ffffffff1660e01b8152600401602060405180830381865afa158015620002a2573d6000803e3d6000fd5b505050506040513d601f19601f82011682018060405250810190620002c8919062000466565b620002e4565b73c02aaa39b223fe8d0a0e5c4f27ead9083c756cc25b9050600360009054906101000a90046001600160a01b03166001600160a01b0316636f307dc36040518163ffffffff1660e01b8152600401602060405180830381865afa1580156200033a573d6000803e3d6000fd5b505050506040513d601f19601f8201168201806040525081019062000360919062000466565b6001600160a01b0316816001600160a01b0316146200039257604051631f020a2d60e11b815260040160405180910390fd5b60008054610100600160a81b0319166101006001600160a01b03871602179055505050506200060a565b600180546001600160a01b038381166001600160a01b0319831681179093556040519116919082907f8be0079c531659141344cd1fd0a4f28419497f9722a3daafe3b4186f6b6457e090600090a35050565b6001600160a01b03811681146200042457600080fd5b50565b600080604083850312156200043b57600080fd5b825162000448816200040e565b60208401519092506200045b816200040e565b809150509250929050565b6000602082840312156200047957600080fd5b815162000486816200040e565b9392505050565b600060208284031215620004a057600080fd5b815160ff811681146200048657600080fd5b634e487b7160e01b600052601160045260246000fd5b60008219821115620004de57620004de620004b2565b500190565b600082821015620004f857620004f8620004b2565b500390565b600181815b808511156200053e578160001904821115620005225762000522620004b2565b808516156200053057918102915b93841c939080029062000502565b509250929050565b6000826200055757506001620005f6565b816200056657506000620005f6565b81600181146200057f57600281146200058a57620005aa565b6001915050620005f6565b60ff8411156200059e576200059e620004b2565b50506001821b620005f6565b5060208310610133831016604e8410600b8410161715620005cf575081810a620005f6565b620005db8383620004fd565b8060001904821115620005f257620005f2620004b2565b0290505b92915050565b600062000486838362000546565b610722806200061a6000396000f3fe608060405234801561001057600080fd5b50600436106100df5760003560e01c8063715018a61161008c57806397eacf091161006657806397eacf09146101fd578063f2ed998214610205578063f2fde38b14610220578063f9fa48c31461023357600080fd5b8063715018a6146101c25780638c013871146101cc5780638da5cb5b146101df57600080fd5b8063698996f8116100bd578063698996f81461016757806369e527da1461017d5780636f307dc31461019d57600080fd5b80630d623e10146100e457806315e303e41461010757806345a6975914610147575b600080fd5b6000546100f19060ff1681565b6040516100fe91906105b6565b60405180910390f35b61012273c02aaa39b223fe8d0a0e5c4f27ead9083c756cc281565b60405173ffffffffffffffffffffffffffffffffffffffff90911681526020016100fe565b6003546101229073ffffffffffffffffffffffffffffffffffffffff1681565b61016f61023c565b6040519081526020016100fe565b6002546101229073ffffffffffffffffffffffffffffffffffffffff1681565b60005461012290610100900473ffffffffffffffffffffffffffffffffffffffff1681565b6101ca61024b565b005b6101ca6101da3660046105f7565b61025f565b60015473ffffffffffffffffffffffffffffffffffffffff16610122565b61016f6102ae565b610122734ddc2d193948926d02f9b1fe9e1daa0718270ed581565b6101ca61022e3660046105f7565b6102b8565b61016f60045481565b60006102466102ae565b905090565b610253610374565b61025d60006103f5565b565b610267610374565b600380547fffffffffffffffffffffffff00000000000000000000000000000000000000001673ffffffffffffffffffffffffffffffffffffffff92909216919091179055565b600061024661046c565b6102c0610374565b73ffffffffffffffffffffffffffffffffffffffff8116610368576040517f08c379a000000000000000000000000000000000000000000000000000000000815260206004820152602660248201527f4f776e61626c653a206e6577206f776e657220697320746865207a65726f206160448201527f646472657373000000000000000000000000000000000000000000000000000060648201526084015b60405180910390fd5b610371816103f5565b50565b60015473ffffffffffffffffffffffffffffffffffffffff16331461025d576040517f08c379a000000000000000000000000000000000000000000000000000000000815260206004820181905260248201527f4f776e61626c653a2063616c6c6572206973206e6f7420746865206f776e6572604482015260640161035f565b6001805473ffffffffffffffffffffffffffffffffffffffff8381167fffffffffffffffffffffffff0000000000000000000000000000000000000000831681179093556040519116919082907f8be0079c531659141344cd1fd0a4f28419497f9722a3daafe3b4186f6b6457e090600090a35050565b600080600260009054906101000a900473ffffffffffffffffffffffffffffffffffffffff1673ffffffffffffffffffffffffffffffffffffffff1663182df0f56040518163ffffffff1660e01b8152600401602060405180830381865afa1580156104dc573d6000803e3d6000fd5b505050506040513d601f19601f820116820180604052508101906105009190610634565b90506000600360009054906101000a900473ffffffffffffffffffffffffffffffffffffffff1673ffffffffffffffffffffffffffffffffffffffff166397eacf096040518163ffffffff1660e01b8152600401602060405180830381865afa158015610571573d6000803e3d6000fd5b505050506040513d601f19601f820116820180604052508101906105959190610634565b6004549091506105a5838361064d565b6105af91906106b1565b9250505090565b60208101600383106105f1577f4e487b7100000000000000000000000000000000000000000000000000000000600052602160045260246000fd5b91905290565b60006020828403121561060957600080fd5b813573ffffffffffffffffffffffffffffffffffffffff8116811461062d57600080fd5b9392505050565b60006020828403121561064657600080fd5b5051919050565b6000817fffffffffffffffffffffffffffffffffffffffffffffffffffffffffffffffff04831182151516156106ac577f4e487b7100000000000000000000000000000000000000000000000000000000600052601160045260246000fd5b500290565b6000826106e7577f4e487b7100000000000000000000000000000000000000000000000000000000600052601260045260246000fd5b50049056fea2646970667358221220d556b06c29745f812ec3ac1a71fd70d10c3c76f24ecbd72f60a6081eca6fb56d64736f6c634300080e0033",
    "linkReferences": {}
  },
  "methodIdentifiers": {
    "anchoredViewUnderlying()": "45a69759",
    "cETH_ADDRESS()": "f2ed9982",
    "cToken()": "69e527da",
    "changeAnchoredView(address)": "8c013871",
    "currentValue()": "698996f8",
    "div()": "f9fa48c3",
    "oracleType()": "0d623e10",
    "owner()": "8da5cb5b",
    "peekValue()": "97eacf09",
    "renounceOwnership()": "715018a6",
    "transferOwnership(address)": "f2fde38b",
    "underlying()": "6f307dc3",
    "wETH_ADDRESS()": "15e303e4"
  },
  "id": 71
}