{
  "abi": [
    {
      "inputs": [],
      "name": "AAVE_ADDRESS",
      "outputs": [
        {
          "internalType": "address",
          "name": "",
          "type": "address"
        }
      ],
      "stateMutability": "view",
      "type": "function"
    },
    {
      "inputs": [],
      "name": "AAVE_CAP",
      "outputs": [
        {
          "internalType": "uint256",
          "name": "",
          "type": "uint256"
        }
      ],
      "stateMutability": "view",
      "type": "function"
    },
    {
      "inputs": [],
      "name": "AAVE_LTV",
      "outputs": [
        {
          "internalType": "uint256",
          "name": "",
          "type": "uint256"
        }
      ],
      "stateMutability": "view",
      "type": "function"
    },
    {
      "inputs": [],
      "name": "AAVE_WETH_POOL_ADDRESS",
      "outputs": [
        {
          "internalType": "address",
          "name": "",
          "type": "address"
        }
      ],
      "stateMutability": "view",
      "type": "function"
    },
    {
      "inputs": [],
      "name": "BOOSTER",
      "outputs": [
        {
          "internalType": "address",
          "name": "",
          "type": "address"
        }
      ],
      "stateMutability": "view",
      "type": "function"
    },
    {
      "inputs": [],
      "name": "CBETH_ADDRESS",
      "outputs": [
        {
          "internalType": "address",
          "name": "",
          "type": "address"
        }
      ],
      "stateMutability": "view",
      "type": "function"
    },
    {
      "inputs": [],
      "name": "CBETH_ETH_CRV_POOL_ADDRESS",
      "outputs": [
        {
          "internalType": "address",
          "name": "",
          "type": "address"
        }
      ],
      "stateMutability": "view",
      "type": "function"
    },
    {
      "inputs": [],
      "name": "CBETH_ETH_POOL_ADDRESS",
      "outputs": [
        {
          "internalType": "address",
          "name": "",
          "type": "address"
        }
      ],
      "stateMutability": "view",
      "type": "function"
    },
    {
      "inputs": [],
      "name": "CHAINLINK_AAVE_FEED_ADDRESS",
      "outputs": [
        {
          "internalType": "address",
          "name": "",
          "type": "address"
        }
      ],
      "stateMutability": "view",
      "type": "function"
    },
    {
      "inputs": [],
      "name": "CHAINLINK_BTC_FEED_ADDRESS",
      "outputs": [
        {
          "internalType": "address",
          "name": "",
          "type": "address"
        }
      ],
      "stateMutability": "view",
      "type": "function"
    },
    {
      "inputs": [],
      "name": "CHAINLINK_CBETH_ETH_FEED_ADDRESS",
      "outputs": [
        {
          "internalType": "address",
          "name": "",
          "type": "address"
        }
      ],
      "stateMutability": "view",
      "type": "function"
    },
    {
      "inputs": [],
      "name": "CHAINLINK_DAI_FEED_ADDRESS",
      "outputs": [
        {
          "internalType": "address",
          "name": "",
          "type": "address"
        }
      ],
      "stateMutability": "view",
      "type": "function"
    },
    {
      "inputs": [],
      "name": "CHAINLINK_DYDX_FEED_ADDRESS",
      "outputs": [
        {
          "internalType": "address",
          "name": "",
          "type": "address"
        }
      ],
      "stateMutability": "view",
      "type": "function"
    },
    {
      "inputs": [],
      "name": "CHAINLINK_ETH_FEED_ADDRESS",
      "outputs": [
        {
          "internalType": "address",
          "name": "",
          "type": "address"
        }
      ],
      "stateMutability": "view",
      "type": "function"
    },
    {
      "inputs": [],
      "name": "CHAINLINK_FRAX_FEED_ADDRESS",
      "outputs": [
        {
          "internalType": "address",
          "name": "",
          "type": "address"
        }
      ],
      "stateMutability": "view",
      "type": "function"
    },
    {
      "inputs": [],
      "name": "CHAINLINK_SNX_FEED_ADDRESS",
      "outputs": [
        {
          "internalType": "address",
          "name": "",
          "type": "address"
        }
      ],
      "stateMutability": "view",
      "type": "function"
    },
    {
      "inputs": [],
      "name": "CHAINLINK_STETH_USD_FEED_ADDRESS",
      "outputs": [
        {
          "internalType": "address",
          "name": "",
          "type": "address"
        }
      ],
      "stateMutability": "view",
      "type": "function"
    },
    {
      "inputs": [],
      "name": "CHAINLINK_SUSD_FEED_ADDRESS",
      "outputs": [
        {
          "internalType": "address",
          "name": "",
          "type": "address"
        }
      ],
      "stateMutability": "view",
      "type": "function"
    },
    {
      "inputs": [],
      "name": "CHAINLINK_UNI_FEED_ADDRESS",
      "outputs": [
        {
          "internalType": "address",
          "name": "",
          "type": "address"
        }
      ],
      "stateMutability": "view",
      "type": "function"
    },
    {
      "inputs": [],
      "name": "CHAINLINK_USDC_FEED_ADDRESS",
      "outputs": [
        {
          "internalType": "address",
          "name": "",
          "type": "address"
        }
      ],
      "stateMutability": "view",
      "type": "function"
    },
    {
      "inputs": [],
      "name": "CHAINLINK_USDT_FEED_ADDRESS",
      "outputs": [
        {
          "internalType": "address",
          "name": "",
          "type": "address"
        }
      ],
      "stateMutability": "view",
      "type": "function"
    },
    {
      "inputs": [],
      "name": "CHAINLINK_WBTC_BTC_FEED_ADDRESS",
      "outputs": [
        {
          "internalType": "address",
          "name": "",
          "type": "address"
        }
      ],
      "stateMutability": "view",
      "type": "function"
    },
    {
      "inputs": [],
      "name": "CRV_ADDRESS",
      "outputs": [
        {
          "internalType": "address",
          "name": "",
          "type": "address"
        }
      ],
      "stateMutability": "view",
      "type": "function"
    },
    {
      "inputs": [],
      "name": "CVX_ADDRESS",
      "outputs": [
        {
          "internalType": "address",
          "name": "",
          "type": "address"
        }
      ],
      "stateMutability": "view",
      "type": "function"
    },
    {
      "inputs": [],
      "name": "DAI_ADDRESS",
      "outputs": [
        {
          "internalType": "address",
          "name": "",
          "type": "address"
        }
      ],
      "stateMutability": "view",
      "type": "function"
    },
    {
      "inputs": [],
      "name": "DAI_USDC_POOL_ADDRESS",
      "outputs": [
        {
          "internalType": "address",
          "name": "",
          "type": "address"
        }
      ],
      "stateMutability": "view",
      "type": "function"
    },
    {
      "inputs": [],
      "name": "DYDX_ADDRESS",
      "outputs": [
        {
          "internalType": "address",
          "name": "",
          "type": "address"
        }
      ],
      "stateMutability": "view",
      "type": "function"
    },
    {
      "inputs": [],
      "name": "DYDX_CAP",
      "outputs": [
        {
          "internalType": "uint256",
          "name": "",
          "type": "uint256"
        }
      ],
      "stateMutability": "view",
      "type": "function"
    },
    {
      "inputs": [],
      "name": "DYDX_LTV",
      "outputs": [
        {
          "internalType": "uint256",
          "name": "",
          "type": "uint256"
        }
      ],
      "stateMutability": "view",
      "type": "function"
    },
    {
      "inputs": [],
      "name": "DYDX_WETH_POOL_ADDRESS",
      "outputs": [
        {
          "internalType": "address",
          "name": "",
          "type": "address"
        }
      ],
      "stateMutability": "view",
      "type": "function"
    },
    {
      "inputs": [],
      "name": "FRAX_3CRV_META_POOL_ADDRESS",
      "outputs": [
        {
          "internalType": "address",
          "name": "",
          "type": "address"
        }
      ],
      "stateMutability": "view",
      "type": "function"
    },
    {
      "inputs": [],
      "name": "FRAX_ADDRESS",
      "outputs": [
        {
          "internalType": "address",
          "name": "",
          "type": "address"
        }
      ],
      "stateMutability": "view",
      "type": "function"
    },
    {
      "inputs": [],
      "name": "FRAX_USDC_CRV_POOL_ADDRESS",
      "outputs": [
        {
          "internalType": "address",
          "name": "",
          "type": "address"
        }
      ],
      "stateMutability": "view",
      "type": "function"
    },
    {
      "inputs": [],
      "name": "FRAX_USDC_POOL_ADDRESS",
      "outputs": [
        {
          "internalType": "address",
          "name": "",
          "type": "address"
        }
      ],
      "stateMutability": "view",
      "type": "function"
    },
    {
      "inputs": [],
      "name": "GEAR_ADDRESS",
      "outputs": [
        {
          "internalType": "address",
          "name": "",
          "type": "address"
        }
      ],
      "stateMutability": "view",
      "type": "function"
    },
    {
      "inputs": [],
      "name": "GEAR_LP_ADDRESS",
      "outputs": [
        {
          "internalType": "address",
          "name": "",
          "type": "address"
        }
      ],
      "stateMutability": "view",
      "type": "function"
    },
    {
      "inputs": [],
      "name": "GEAR_LP_REWARDS_ADDRESS",
      "outputs": [
        {
          "internalType": "address",
          "name": "",
          "type": "address"
        }
      ],
      "stateMutability": "view",
      "type": "function"
    },
    {
      "inputs": [],
      "name": "GEAR_LP_VIRTUAL_REWARDS_CONTRACT",
      "outputs": [
        {
          "internalType": "address",
          "name": "",
          "type": "address"
        }
      ],
      "stateMutability": "view",
      "type": "function"
    },
    {
      "inputs": [],
      "name": "GEAR_VIRTUAL_REWARDS_OPERATOR_CONTRACT",
      "outputs": [
        {
          "internalType": "address",
          "name": "",
          "type": "address"
        }
      ],
      "stateMutability": "view",
      "type": "function"
    },
    {
      "inputs": [],
      "name": "LIQUIDATION_INCENTIVE",
      "outputs": [
        {
          "internalType": "uint256",
          "name": "",
          "type": "uint256"
        }
      ],
      "stateMutability": "view",
      "type": "function"
    },
    {
      "inputs": [],
      "name": "OTHER_LTV",
      "outputs": [
        {
          "internalType": "uint256",
          "name": "",
          "type": "uint256"
        }
      ],
      "stateMutability": "view",
      "type": "function"
    },
    {
      "inputs": [],
      "name": "SNX_ADDRESS",
      "outputs": [
        {
          "internalType": "address",
          "name": "",
          "type": "address"
        }
      ],
      "stateMutability": "view",
      "type": "function"
    },
    {
      "inputs": [],
      "name": "SNX_ETH_POOL_ADDRESS",
      "outputs": [
        {
          "internalType": "address",
          "name": "",
          "type": "address"
        }
      ],
      "stateMutability": "view",
      "type": "function"
    },
    {
      "inputs": [],
      "name": "STE_CRV_POOL_ADDRESS",
      "outputs": [
        {
          "internalType": "address",
          "name": "",
          "type": "address"
        }
      ],
      "stateMutability": "view",
      "type": "function"
    },
    {
      "inputs": [],
      "name": "SUSD_ADDRESS",
      "outputs": [
        {
          "internalType": "address",
          "name": "",
          "type": "address"
        }
      ],
      "stateMutability": "view",
      "type": "function"
    },
    {
      "inputs": [],
      "name": "SUSD_DAI_USDT_USDC_CRV_POOL_ADDRESS",
      "outputs": [
        {
          "internalType": "address",
          "name": "",
          "type": "address"
        }
      ],
      "stateMutability": "view",
      "type": "function"
    },
    {
      "inputs": [],
      "name": "SUSD_FRAX_CRV_POOL_ADDRESS",
      "outputs": [
        {
          "internalType": "address",
          "name": "",
          "type": "address"
        }
      ],
      "stateMutability": "view",
      "type": "function"
    },
    {
      "inputs": [],
      "name": "SUSD_FRAX_POOL_ADDRESS",
      "outputs": [
        {
          "internalType": "address",
          "name": "",
          "type": "address"
        }
      ],
      "stateMutability": "view",
      "type": "function"
    },
    {
      "inputs": [],
      "name": "SUSD_TOKEN_STATE",
      "outputs": [
        {
          "internalType": "address",
          "name": "",
          "type": "address"
        }
      ],
      "stateMutability": "view",
      "type": "function"
    },
    {
      "inputs": [],
      "name": "THREE_CRV_LP_ADDRESS",
      "outputs": [
        {
          "internalType": "address",
          "name": "",
          "type": "address"
        }
      ],
      "stateMutability": "view",
      "type": "function"
    },
    {
      "inputs": [],
      "name": "THREE_CRV_LP_REWARDS_ADDRESS",
      "outputs": [
        {
          "internalType": "address",
          "name": "",
          "type": "address"
        }
      ],
      "stateMutability": "view",
      "type": "function"
    },
    {
      "inputs": [],
      "name": "THREE_CRV_LP_STAKED_CONTRACT",
      "outputs": [
        {
          "internalType": "address",
          "name": "",
          "type": "address"
        }
      ],
      "stateMutability": "view",
      "type": "function"
    },
    {
      "inputs": [],
      "name": "THREE_CRV_POOL_ADDRESS",
      "outputs": [
        {
          "internalType": "address",
          "name": "",
          "type": "address"
        }
      ],
      "stateMutability": "view",
      "type": "function"
    },
    {
      "inputs": [],
      "name": "TRI_CRYPTO_2_POOL_ADDRESS",
      "outputs": [
        {
          "internalType": "address",
          "name": "",
          "type": "address"
        }
      ],
      "stateMutability": "view",
      "type": "function"
    },
    {
      "inputs": [],
      "name": "TRI_CRYPTO_LP_TOKEN",
      "outputs": [
        {
          "internalType": "address",
          "name": "",
          "type": "address"
        }
      ],
      "stateMutability": "view",
      "type": "function"
    },
    {
      "inputs": [],
      "name": "UNI_ADDRESS",
      "outputs": [
        {
          "internalType": "address",
          "name": "",
          "type": "address"
        }
      ],
      "stateMutability": "view",
      "type": "function"
    },
    {
      "inputs": [],
      "name": "UNI_LTV",
      "outputs": [
        {
          "internalType": "uint256",
          "name": "",
          "type": "uint256"
        }
      ],
      "stateMutability": "view",
      "type": "function"
    },
    {
      "inputs": [],
      "name": "UNI_V2_ROUTER",
      "outputs": [
        {
          "internalType": "address",
          "name": "",
          "type": "address"
        }
      ],
      "stateMutability": "view",
      "type": "function"
    },
    {
      "inputs": [],
      "name": "UNI_V3_FACTORY",
      "outputs": [
        {
          "internalType": "address",
          "name": "",
          "type": "address"
        }
      ],
      "stateMutability": "view",
      "type": "function"
    },
    {
      "inputs": [],
      "name": "UNI_V3_NFP_MANAGER",
      "outputs": [
        {
          "internalType": "address",
          "name": "",
          "type": "address"
        }
      ],
      "stateMutability": "view",
      "type": "function"
    },
    {
      "inputs": [],
      "name": "UNI_V3_SWAP_ROUTER",
      "outputs": [
        {
          "internalType": "address",
          "name": "",
          "type": "address"
        }
      ],
      "stateMutability": "view",
      "type": "function"
    },
    {
      "inputs": [],
      "name": "USDA_ADDRESS",
      "outputs": [
        {
          "internalType": "address",
          "name": "",
          "type": "address"
        }
      ],
      "stateMutability": "view",
      "type": "function"
    },
    {
      "inputs": [],
      "name": "USDC_ADDRESS",
      "outputs": [
        {
          "internalType": "address",
          "name": "",
          "type": "address"
        }
      ],
      "stateMutability": "view",
      "type": "function"
    },
    {
      "inputs": [],
      "name": "USDC_UNI_POOL_ADDRESS",
      "outputs": [
        {
          "internalType": "address",
          "name": "",
          "type": "address"
        }
      ],
      "stateMutability": "view",
      "type": "function"
    },
    {
      "inputs": [],
      "name": "USDC_USDT_POOL_ADDRESS",
      "outputs": [
        {
          "internalType": "address",
          "name": "",
          "type": "address"
        }
      ],
      "stateMutability": "view",
      "type": "function"
    },
    {
      "inputs": [],
      "name": "USDC_WBTC_POOL_ADDRESS",
      "outputs": [
        {
          "internalType": "address",
          "name": "",
          "type": "address"
        }
      ],
      "stateMutability": "view",
      "type": "function"
    },
    {
      "inputs": [],
      "name": "USDC_WETH_POOL_ADDRESS",
      "outputs": [
        {
          "internalType": "address",
          "name": "",
          "type": "address"
        }
      ],
      "stateMutability": "view",
      "type": "function"
    },
    {
      "inputs": [],
      "name": "USDT_ADDRESS",
      "outputs": [
        {
          "internalType": "address",
          "name": "",
          "type": "address"
        }
      ],
      "stateMutability": "view",
      "type": "function"
    },
    {
      "inputs": [],
      "name": "USDT_LP_ADDRESS",
      "outputs": [
        {
          "internalType": "address",
          "name": "",
          "type": "address"
        }
      ],
      "stateMutability": "view",
      "type": "function"
    },
    {
      "inputs": [],
      "name": "USDT_LP_REWARDS_ADDRESS",
      "outputs": [
        {
          "internalType": "address",
          "name": "",
          "type": "address"
        }
      ],
      "stateMutability": "view",
      "type": "function"
    },
    {
      "inputs": [],
      "name": "USDT_LP_STAKED_CONTRACT",
      "outputs": [
        {
          "internalType": "address",
          "name": "",
          "type": "address"
        }
      ],
      "stateMutability": "view",
      "type": "function"
    },
    {
      "inputs": [],
      "name": "USDT_USDC_POOL_ADDRESS",
      "outputs": [
        {
          "internalType": "address",
          "name": "",
          "type": "address"
        }
      ],
      "stateMutability": "view",
      "type": "function"
    },
    {
      "inputs": [],
      "name": "VAULT_CONTROLLER_ADDRESS",
      "outputs": [
        {
          "internalType": "address",
          "name": "",
          "type": "address"
        }
      ],
      "stateMutability": "view",
      "type": "function"
    },
    {
      "inputs": [],
      "name": "WBTC_ADDRESS",
      "outputs": [
        {
          "internalType": "address",
          "name": "",
          "type": "address"
        }
      ],
      "stateMutability": "view",
      "type": "function"
    },
    {
      "inputs": [],
      "name": "WBTC_ETH_POOL_ADDRESS",
      "outputs": [
        {
          "internalType": "address",
          "name": "",
          "type": "address"
        }
      ],
      "stateMutability": "view",
      "type": "function"
    },
    {
      "inputs": [],
      "name": "WBTC_LTV",
      "outputs": [
        {
          "internalType": "uint256",
          "name": "",
          "type": "uint256"
        }
      ],
      "stateMutability": "view",
      "type": "function"
    },
    {
      "inputs": [],
      "name": "WETH_ADDRESS",
      "outputs": [
        {
          "internalType": "address",
          "name": "",
          "type": "address"
        }
      ],
      "stateMutability": "view",
      "type": "function"
    },
    {
      "inputs": [],
      "name": "WETH_LTV",
      "outputs": [
        {
          "internalType": "uint256",
          "name": "",
          "type": "uint256"
        }
      ],
      "stateMutability": "view",
      "type": "function"
    },
    {
      "inputs": [],
      "name": "WSETH_ADDRESS",
      "outputs": [
        {
          "internalType": "address",
          "name": "",
          "type": "address"
        }
      ],
      "stateMutability": "view",
      "type": "function"
    },
    {
      "inputs": [],
      "name": "WSTETH_WETH_POOL_ADDRESS",
      "outputs": [
        {
          "internalType": "address",
          "name": "",
          "type": "address"
        }
      ],
      "stateMutability": "view",
      "type": "function"
    },
    {
      "inputs": [],
      "name": "cDAI_ADDRESS",
      "outputs": [
        {
          "internalType": "address",
          "name": "",
          "type": "address"
        }
      ],
      "stateMutability": "view",
      "type": "function"
    },
    {
      "inputs": [],
      "name": "cETH_ADDRESS",
      "outputs": [
        {
          "internalType": "address",
          "name": "",
          "type": "address"
        }
      ],
      "stateMutability": "view",
      "type": "function"
    },
    {
      "inputs": [],
      "name": "cUSDC_ADDRESS",
      "outputs": [
        {
          "internalType": "address",
          "name": "",
          "type": "address"
        }
      ],
      "stateMutability": "view",
      "type": "function"
    },
    {
      "inputs": [],
      "name": "cUSDT_ADDRESS",
      "outputs": [
        {
          "internalType": "address",
          "name": "",
          "type": "address"
        }
      ],
      "stateMutability": "view",
      "type": "function"
    }
  ],
  "bytecode": {
    "object": "0x608060405234801561001057600080fd5b50610e1a806100206000396000f3fe608060405234801561001057600080fd5b50600436106105ac5760003560e01c806393cb0e8b116102ed578063c16da82b11610191578063d3accc4a116100ee578063e7c10c82116100a2578063ed1c1e001161007c578063ed1c1e0014610d93578063ed9a9d0914610dae578063f2ed998214610dc957600080fd5b8063e7c10c8214610b61578063e96f6b2514610d5d578063eaf9a7b514610d7857600080fd5b8063dabad4b4116100d3578063dabad4b414610b69578063dcaa8cd714610d27578063e5516b0f14610d4257600080fd5b8063d3accc4a14610cf1578063d5bb022614610d0c57600080fd5b8063c43d14cf11610145578063c906de881161012a578063c906de8814610ca0578063ca48d04714610cbb578063ca68970f14610cd657600080fd5b8063c43d14cf14610c77578063c66c144a14610c9257600080fd5b8063c1c6d84111610176578063c1c6d84114610c26578063c26f6ccd14610c41578063c3200dbd14610c5c57600080fd5b8063c16da82b14610bf0578063c189205814610c0b57600080fd5b8063b1e786461161024a578063ba4a1b50116101fe578063bdd5915f116101d8578063bdd5915f14610bba578063bff35ba514610bd5578063c0e5d64d146108fc57600080fd5b8063ba4a1b5014610b69578063bb09d9b714610b84578063bb9059ce14610b9f57600080fd5b8063b8090e8a1161022f578063b8090e8a14610b52578063ba0dc28a14610b61578063ba43b39f146108fc57600080fd5b8063b1e7864614610b1c578063b2118a1314610b3757600080fd5b8063a956f471116102a1578063ac573f9411610286578063ac573f9414610ae6578063ae2ac61314610b01578063b1afae7b146108fc57600080fd5b8063a956f47114610ab0578063aa05414314610acb57600080fd5b80639a2ce7d5116102d25780639a2ce7d514610a5f5780639c8380d814610a7a578063a89d948b14610a9557600080fd5b806393cb0e8b14610a3457806396b58a4214610a4457600080fd5b806350387516116104545780636e3a8af2116103b15780637b0358ee1161036557806381d2d3191161033f57806381d2d319146109e35780638c962fc6146109fe5780638ec12c0c14610a1957600080fd5b80637b0358ee146109925780637f8f602d146109ad5780638175ae1c146109c857600080fd5b806375b0ffd11161039657806375b0ffd114610941578063775a7d5f1461095c57806379d0c09c1461097757600080fd5b80636e3a8af21461090b578063700f8f1a1461092657600080fd5b806362b854b3116104085780636a0b3bc5116103ed5780636a0b3bc5146108c65780636a851253146108e15780636e31f687146108fc57600080fd5b806362b854b31461089057806364e6efb4146108ab57600080fd5b80635a84d57b116104395780635a84d57b1461083f5780635b8d959b1461085a5780635c3a6b441461087557600080fd5b80635038751614610809578063545c12911461082457600080fd5b80632a4c0a1a1161050d5780632f2eec37116104c15780633aaa452f1161049b5780633aaa452f146107b85780634423aa3b146107d35780634cc99d4a146107ee57600080fd5b80632f2eec371461076757806331ae6ec514610782578063391d2c6b1461079d57600080fd5b80632b4e2b63116104f25780632b4e2b63146107165780632d76d63c146107315780632daabc621461074c57600080fd5b80632a4c0a1a146106e05780632b0f7467146106fb57600080fd5b8063125aec3e1161056457806316c190a81161054957806316c190a81461068f57806320302ab7146106aa57806321b3fa24146106c557600080fd5b8063125aec3e14610659578063160f1ae91461067457600080fd5b80630712bc3e116105955780630712bc3e146106115780630e2569bc1461062c5780630e74dc701461064a57600080fd5b8063012d9806146105b1578063040141e5146105f6575b600080fd5b6105cc73c4ad29ba4b3c580e6d59105fff484999997675ff81565b60405173ffffffffffffffffffffffffffffffffffffffff90911681526020015b60405180910390f35b6105cc73c02aaa39b223fe8d0a0e5c4f27ead9083c756cc281565b6105cc73853d955acef822db058eb8505911ed77f175b99e81565b61063c6802b5e3af16b188000081565b6040519081526020016105ed565b61063c670bcbce7f1b15000081565b6105cc735f4ec3df9cbd43714fe2740f5e3616155c5b841981565b6105cc73a5407eae9ba41422680e2e00537571bcc53efbfd81565b6105cc73553303d460ee0afb37edff9be42922d8ff63220e81565b6105cc735d3a536e4d6dbd6114cc1ead35777bab948e364381565b6105cc735777d92f208679db4b9778590fa3cab3ac9e216881565b6105cc736b175474e89094c44da98b954eedeac495271d0f81565b6105cc73e592427a0aece92de3edee1f18e0157c0586156481565b6105cc73c63b0708e2f7e69cb8a1df0e1389a98c35a76d5281565b6105cc73ede8dd046586d22625ae7ff2708f879ef7bdb8cf81565b6105cc73bc89cd85491d81c6ad2954e6d0362ee29fca8f5381565b6105cc731f98431c8ad98523631ae4a59f267346ea31f98481565b6105cc73d0fc8ba7e267f2bc56044a7715a489d851dc6d7881565b6105cc73689440f2ff927e1f24c72f1087e1faf471ece1c881565b6105cc73cfe54b5cd566ab89272946f602d76ea879cab4a881565b6105cc738ad599c3a0ff1de082011efddc58f1908eb6e6d881565b6105cc733e7d1eab13ad0104d2750b8863b489d65364e32d81565b6105cc738b55351ea358e5eda371575b031ee24f462d503e81565b6105cc73e0cfa17aa9b8f930fd936633c0252d5cb745c2c381565b6105cc73d632f22692fac7611d2aa1c0d552930d43caed3b81565b6105cc73f4030086522a5beea4988f8ca5b36dbc97bee88c81565b6105cc73502cc0d946e79cea4daafcf21f374c6bce76306781565b6105cc73aed0c38402a5d19df6e4c03f4e2dced6e29c1ee981565b6105cc73cbcdf9626bc03e24f779434178a73a0b4bad62ed81565b6105cc7334ff465ee92516e9855eb60f520df0384f410b4581565b6105cc73478909d4d798f3a1f11ffb25e4920c959b4ade0b81565b61063c670a688906bd8b000081565b6105cc73bebc44782c7db0a1a60cb6fe97d0b483032ff1c781565b6105cc73bfcf63294ad7105dea65aa58f8ae5be2d9d0952a81565b6105cc73f403c135812408bfbe8713b5a23a04b3d48aae3181565b6105cc73ba3335588d9403515223f109edc4eb7269a9ab5d81565b6105cc73547a514d5e3769680ce22b2361c10ea13619e8a981565b6105cc73d51a44d3fae010294c616388b506acda1bfaae4681565b6105cc739fc689ccada600b6df723d9e47d84d76664a1f2381565b6105cc737fc66500c84a76ad7e9c93437bfc5ac33e2ddae981565b6105cc735fae7e604fc3e24fd43a72867cebac94c65b404a81565b6105cc73f650c3d88d12db855b8bf7d11be6c55a4e07dcc981565b6105cc73dc3ea94cd0ac27d9a86c180091e7f78c683d369981565b61063c681b1ae4d6e2ef50000081565b6105cc73fdfd9c85ad200c506cf9e21f1fd8dd01932fbb2381565b6105cc7357ab1ec28d129707052df4df418d58a2d46d5f5181565b6105cc73f017fcb346a1885194689ba23eff2fe6fa5c483b81565b6105cc73840deeef2f115cf50da625f7368c24af6fe7441081565b6105cc73b9e1e3a9feff48998e45fa90847ed4d467e8bcfd81565b6105cc7339aa39c021dfbae8fac545936693ac917d5e756381565b6105cc73dc24316b9ae028f1497c275eb9192a3ea0f6702281565b6105cc738fffffd4afb6115b954bd326cbe7b4ba576818f681565b6105cc733605af97dfd67a6c73cfc517b9481a2fe4bf050b81565b6105cc73d340b57aacdd10f96fc1cf10e15921936f41e29c81565b61063c670b1a2bc2ec50000081565b6105cc600081565b6105cc733416cf6c708da44db2624d63ea0aaef7113527c681565b6105cc73a0b86991c6218b36c1d19d4a2e9eb0ce3606eb4881565b6105cc73c011a73ee8576fb46f5e1c5751ca3b9fe0af2a6f81565b6105cc732260fac5e5542a773aa44fbcfedf7c193bc2c59981565b6105cc7392d6c1e31e14520e676a687f0a93788b716beff581565b6105cc734d3cc2d219bdb74973fb9fa2f7157e29bcccba0581565b6105cc73dac17f958d2ee523a2206206994597c13d831ec781565b6105cc735ab53ee1d50eef2c1dd3d5402789cd27bb52c1bb81565b6105cc73dcef968d416a41cdac0ed8702fac8128a64241a281565b6105cc73c36442b4a4522e871399cd717abdd847ab11fe8881565b6105cc734e3fbd56cd56c3e72c1403e103b45db9da5b9d2b81565b61063c66b1a2bc2ec5000081565b6105cc7305a9cbe762b36632b3594da4f082340e0e5343e881565b6105cc73e3c190c57b5959ae62efe3b6797058b76ba2f5ef81565b6105cc731f9840a85d5af5bf1d1762f925bdaddc4201f98481565b6105cc735be6c45e2d074faa20700c49ada3e88a1cc0025d81565b6105cc737a250d5630b4cf539739df2c5dacb4c659f2488d81565b6105cc73ad35bd71b9afe6e4bdc266b345c198eadef9ad9481565b6105cc736c3f90f043a72fa612cbac8115ee7e52bde6e49081565b6105cc73be9895146f7af43049ca1c1ae358b0541ea4970481565b6105cc7399ac8ca7087fa4a2a1fb6357269965a2014abc3581565b6105cc73d533a949740bb3306d119cc777fa900ba034cd5281565b6105cc737f39c581f595b53c5cb19bd0b3f8da6c935e2ca081565b6105cc734ddc2d193948926d02f9b1fe9e1daa0718270ed58156fea2646970667358221220f646518ad38e24a8a13be6f0e2b364a41b87a1efb32679f8953ce6dc7b83266e64736f6c634300080e0033",
    "linkReferences": {}
  },
  "methodIdentifiers": {
    "AAVE_ADDRESS()": "8175ae1c",
    "AAVE_CAP()": "93cb0e8b",
    "AAVE_LTV()": "c0e5d64d",
    "AAVE_WETH_POOL_ADDRESS()": "c1c6d841",
    "BOOSTER()": "75b0ffd1",
    "CBETH_ADDRESS()": "e96f6b25",
    "CBETH_ETH_CRV_POOL_ADDRESS()": "81d2d319",
    "CBETH_ETH_POOL_ADDRESS()": "a89d948b",
    "CHAINLINK_AAVE_FEED_ADDRESS()": "79d0c09c",
    "CHAINLINK_BTC_FEED_ADDRESS()": "5b8d959b",
    "CHAINLINK_CBETH_ETH_FEED_ADDRESS()": "9c8380d8",
    "CHAINLINK_DAI_FEED_ADDRESS()": "62b854b3",
    "CHAINLINK_DYDX_FEED_ADDRESS()": "6a851253",
    "CHAINLINK_ETH_FEED_ADDRESS()": "125aec3e",
    "CHAINLINK_FRAX_FEED_ADDRESS()": "a956f471",
    "CHAINLINK_SNX_FEED_ADDRESS()": "8ec12c0c",
    "CHAINLINK_STETH_USD_FEED_ADDRESS()": "3aaa452f",
    "CHAINLINK_SUSD_FEED_ADDRESS()": "dcaa8cd7",
    "CHAINLINK_UNI_FEED_ADDRESS()": "16c190a8",
    "CHAINLINK_USDC_FEED_ADDRESS()": "ae2ac613",
    "CHAINLINK_USDT_FEED_ADDRESS()": "4cc99d4a",
    "CHAINLINK_WBTC_BTC_FEED_ADDRESS()": "96b58a42",
    "CRV_ADDRESS()": "ed1c1e00",
    "CVX_ADDRESS()": "c43d14cf",
    "DAI_ADDRESS()": "2a4c0a1a",
    "DAI_USDC_POOL_ADDRESS()": "21b3fa24",
    "DYDX_ADDRESS()": "bff35ba5",
    "DYDX_CAP()": "0e2569bc",
    "DYDX_LTV()": "ba43b39f",
    "DYDX_WETH_POOL_ADDRESS()": "545c1291",
    "FRAX_3CRV_META_POOL_ADDRESS()": "5a84d57b",
    "FRAX_ADDRESS()": "0712bc3e",
    "FRAX_USDC_CRV_POOL_ADDRESS()": "c26f6ccd",
    "FRAX_USDC_POOL_ADDRESS()": "2b4e2b63",
    "GEAR_ADDRESS()": "775a7d5f",
    "GEAR_LP_ADDRESS()": "d3accc4a",
    "GEAR_LP_REWARDS_ADDRESS()": "5c3a6b44",
    "GEAR_LP_VIRTUAL_REWARDS_CONTRACT()": "b1e78646",
    "GEAR_VIRTUAL_REWARDS_OPERATOR_CONTRACT()": "c16da82b",
    "LIQUIDATION_INCENTIVE()": "c66c144a",
    "OTHER_LTV()": "6e31f687",
    "SNX_ADDRESS()": "bb9059ce",
    "SNX_ETH_POOL_ADDRESS()": "2d76d63c",
    "STE_CRV_POOL_ADDRESS()": "ac573f94",
    "SUSD_ADDRESS()": "9a2ce7d5",
    "SUSD_DAI_USDT_USDC_CRV_POOL_ADDRESS()": "160f1ae9",
    "SUSD_FRAX_CRV_POOL_ADDRESS()": "ca48d047",
    "SUSD_FRAX_POOL_ADDRESS()": "6a0b3bc5",
    "SUSD_TOKEN_STATE()": "c906de88",
    "THREE_CRV_LP_ADDRESS()": "e5516b0f",
    "THREE_CRV_LP_REWARDS_ADDRESS()": "391d2c6b",
    "THREE_CRV_LP_STAKED_CONTRACT()": "700f8f1a",
    "THREE_CRV_POOL_ADDRESS()": "6e3a8af2",
    "TRI_CRYPTO_2_POOL_ADDRESS()": "7b0358ee",
    "TRI_CRYPTO_LP_TOKEN()": "012d9806",
    "UNI_ADDRESS()": "ca68970f",
    "UNI_LTV()": "b1afae7b",
    "UNI_V2_ROUTER()": "d5bb0226",
    "UNI_V3_FACTORY()": "2f2eec37",
    "UNI_V3_NFP_MANAGER()": "c3200dbd",
    "UNI_V3_SWAP_ROUTER()": "2b0f7467",
    "USDA_ADDRESS()": "ba0dc28a",
    "USDC_ADDRESS()": "bb09d9b7",
    "USDC_UNI_POOL_ADDRESS()": "31ae6ec5",
    "USDC_USDT_POOL_ADDRESS()": "dabad4b4",
    "USDC_WBTC_POOL_ADDRESS()": "eaf9a7b5",
    "USDC_WETH_POOL_ADDRESS()": "4423aa3b",
    "USDT_ADDRESS()": "c1892058",
    "USDT_LP_ADDRESS()": "7f8f602d",
    "USDT_LP_REWARDS_ADDRESS()": "50387516",
    "USDT_LP_STAKED_CONTRACT()": "2daabc62",
    "USDT_USDC_POOL_ADDRESS()": "ba4a1b50",
    "VAULT_CONTROLLER_ADDRESS()": "e7c10c82",
    "WBTC_ADDRESS()": "bdd5915f",
    "WBTC_ETH_POOL_ADDRESS()": "64e6efb4",
    "WBTC_LTV()": "b8090e8a",
    "WETH_ADDRESS()": "040141e5",
    "WETH_LTV()": "0e74dc70",
    "WSETH_ADDRESS()": "ed9a9d09",
    "WSTETH_WETH_POOL_ADDRESS()": "b2118a13",
    "cDAI_ADDRESS()": "20302ab7",
    "cETH_ADDRESS()": "f2ed9982",
    "cUSDC_ADDRESS()": "aa054143",
    "cUSDT_ADDRESS()": "8c962fc6"
  },
  "id": 126
}