{
  "abi": [
    {
      "inputs": [],
      "name": "DOUBLE_SCALE",
      "outputs": [
        {
          "internalType": "uint256",
          "name": "",
          "type": "uint256"
        }
      ],
      "stateMutability": "view",
      "type": "function"
    },
    {
      "inputs": [],
      "name": "EXP_SCALE",
      "outputs": [
        {
          "internalType": "uint256",
          "name": "",
          "type": "uint256"
        }
      ],
      "stateMutability": "view",
      "type": "function"
    },
    {
      "inputs": [],
      "name": "HALF_EXP_SCALE",
      "outputs": [
        {
          "internalType": "uint256",
          "name": "",
          "type": "uint256"
        }
      ],
      "stateMutability": "view",
      "type": "function"
    },
    {
      "inputs": [],
      "name": "MANTISSA_ONE",
      "outputs": [
        {
          "internalType": "uint256",
          "name": "",
          "type": "uint256"
        }
      ],
      "stateMutability": "view",
      "type": "function"
    },
    {
      "inputs": [],
      "name": "UINT128_MAX",
      "outputs": [
        {
          "internalType": "uint256",
          "name": "",
          "type": "uint256"
        }
      ],
      "stateMutability": "view",
      "type": "function"
    },
    {
      "inputs": [],
      "name": "UINT192_MAX",
      "outputs": [
        {
          "internalType": "uint256",
          "name": "",
          "type": "uint256"
        }
      ],
      "stateMutability": "view",
      "type": "function"
    }
  ],
  "bytecode": {
    "object": "0x608060405234801561001057600080fd5b50610173806100206000396000f3fe608060405234801561001057600080fd5b50600436106100725760003560e01c8063bbba205d11610050578063bbba205d146100be578063d5e0d1b2146100cd578063f23c0f40146100be57600080fd5b806308fb064a1461007757806329d7eef11461009f578063acb7da70146100a7575b600080fd5b61008d6ec097ce7bc90715b34b9f100000000081565b60405190815260200160405180910390f35b61008d6100ec565b61008d6fffffffffffffffffffffffffffffffff81565b61008d670de0b6b3a764000081565b61008d77ffffffffffffffffffffffffffffffffffffffffffffffff81565b6100ff6002670de0b6b3a7640000610102565b81565b600082610138577f4e487b7100000000000000000000000000000000000000000000000000000000600052601260045260246000fd5b50049056fea26469706673582212204a665f0d150f4dc56696c0b5b293c860abedd5ee01ffca76a4b337adfb9e820c64736f6c634300080e0033",
    "linkReferences": {}
  },
  "methodIdentifiers": {
    "DOUBLE_SCALE()": "08fb064a",
    "EXP_SCALE()": "bbba205d",
    "HALF_EXP_SCALE()": "29d7eef1",
    "MANTISSA_ONE()": "f23c0f40",
    "UINT128_MAX()": "acb7da70",
    "UINT192_MAX()": "d5e0d1b2"
  },
  "id": 84
}