{
  "abi": [
    {
      "inputs": [],
      "name": "CBETH_ETH_CRV_POOL_ADDRESS",
      "outputs": [
        {
          "internalType": "address",
          "name": "",
          "type": "address"
        }
      ],
      "stateMutability": "view",
      "type": "function"
    },
    {
      "inputs": [],
      "name": "FRAX_3CRV_META_POOL_ADDRESS",
      "outputs": [
        {
          "internalType": "address",
          "name": "",
          "type": "address"
        }
      ],
      "stateMutability": "view",
      "type": "function"
    },
    {
      "inputs": [],
      "name": "FRAX_USDC_CRV_POOL_ADDRESS",
      "outputs": [
        {
          "internalType": "address",
          "name": "",
          "type": "address"
        }
      ],
      "stateMutability": "view",
      "type": "function"
    },
    {
      "inputs": [],
      "name": "STE_CRV_POOL_ADDRESS",
      "outputs": [
        {
          "internalType": "address",
          "name": "",
          "type": "address"
        }
      ],
      "stateMutability": "view",
      "type": "function"
    },
    {
      "inputs": [],
      "name": "SUSD_DAI_USDT_USDC_CRV_POOL_ADDRESS",
      "outputs": [
        {
          "internalType": "address",
          "name": "",
          "type": "address"
        }
      ],
      "stateMutability": "view",
      "type": "function"
    },
    {
      "inputs": [],
      "name": "SUSD_FRAX_CRV_POOL_ADDRESS",
      "outputs": [
        {
          "internalType": "address",
          "name": "",
          "type": "address"
        }
      ],
      "stateMutability": "view",
      "type": "function"
    },
    {
      "inputs": [],
      "name": "THREE_CRV_POOL_ADDRESS",
      "outputs": [
        {
          "internalType": "address",
          "name": "",
          "type": "address"
        }
      ],
      "stateMutability": "view",
      "type": "function"
    },
    {
      "inputs": [],
      "name": "TRI_CRYPTO_2_POOL_ADDRESS",
      "outputs": [
        {
          "internalType": "address",
          "name": "",
          "type": "address"
        }
      ],
      "stateMutability": "view",
      "type": "function"
    }
  ],
  "bytecode": {
    "object": "0x608060405234801561001057600080fd5b506101c4806100206000396000f3fe608060405234801561001057600080fd5b50600436106100885760003560e01c806381d2d3191161005b57806381d2d31914610122578063ac573f941461013d578063c26f6ccd14610158578063ca48d0471461017357600080fd5b8063160f1ae91461008d5780635a84d57b146100d15780636e3a8af2146100ec5780637b0358ee14610107575b600080fd5b6100a873a5407eae9ba41422680e2e00537571bcc53efbfd81565b60405173ffffffffffffffffffffffffffffffffffffffff909116815260200160405180910390f35b6100a873d632f22692fac7611d2aa1c0d552930d43caed3b81565b6100a873bebc44782c7db0a1a60cb6fe97d0b483032ff1c781565b6100a873d51a44d3fae010294c616388b506acda1bfaae4681565b6100a8735fae7e604fc3e24fd43a72867cebac94c65b404a81565b6100a873dc24316b9ae028f1497c275eb9192a3ea0f6702281565b6100a873dcef968d416a41cdac0ed8702fac8128a64241a281565b6100a873e3c190c57b5959ae62efe3b6797058b76ba2f5ef8156fea2646970667358221220c4f569b91521c24d2e0c20185d2ece52b3654d3cd46fb2db3945c2e25e8e749464736f6c634300080e0033",
    "linkReferences": {}
  },
  "methodIdentifiers": {
    "CBETH_ETH_CRV_POOL_ADDRESS()": "81d2d319",
    "FRAX_3CRV_META_POOL_ADDRESS()": "5a84d57b",
    "FRAX_USDC_CRV_POOL_ADDRESS()": "c26f6ccd",
    "STE_CRV_POOL_ADDRESS()": "ac573f94",
    "SUSD_DAI_USDT_USDC_CRV_POOL_ADDRESS()": "160f1ae9",
    "SUSD_FRAX_CRV_POOL_ADDRESS()": "ca48d047",
    "THREE_CRV_POOL_ADDRESS()": "6e3a8af2",
    "TRI_CRYPTO_2_POOL_ADDRESS()": "7b0358ee"
  },
  "id": 124
}