{
  "abi": [
    {
      "inputs": [],
      "name": "AAVE_ADDRESS",
      "outputs": [
        {
          "internalType": "address",
          "name": "",
          "type": "address"
        }
      ],
      "stateMutability": "view",
      "type": "function"
    },
    {
      "inputs": [],
      "name": "CBETH_ADDRESS",
      "outputs": [
        {
          "internalType": "address",
          "name": "",
          "type": "address"
        }
      ],
      "stateMutability": "view",
      "type": "function"
    },
    {
      "inputs": [],
      "name": "CRV_ADDRESS",
      "outputs": [
        {
          "internalType": "address",
          "name": "",
          "type": "address"
        }
      ],
      "stateMutability": "view",
      "type": "function"
    },
    {
      "inputs": [],
      "name": "CVX_ADDRESS",
      "outputs": [
        {
          "internalType": "address",
          "name": "",
          "type": "address"
        }
      ],
      "stateMutability": "view",
      "type": "function"
    },
    {
      "inputs": [],
      "name": "DAI_ADDRESS",
      "outputs": [
        {
          "internalType": "address",
          "name": "",
          "type": "address"
        }
      ],
      "stateMutability": "view",
      "type": "function"
    },
    {
      "inputs": [],
      "name": "DYDX_ADDRESS",
      "outputs": [
        {
          "internalType": "address",
          "name": "",
          "type": "address"
        }
      ],
      "stateMutability": "view",
      "type": "function"
    },
    {
      "inputs": [],
      "name": "FRAX_ADDRESS",
      "outputs": [
        {
          "internalType": "address",
          "name": "",
          "type": "address"
        }
      ],
      "stateMutability": "view",
      "type": "function"
    },
    {
      "inputs": [],
      "name": "GEAR_ADDRESS",
      "outputs": [
        {
          "internalType": "address",
          "name": "",
          "type": "address"
        }
      ],
      "stateMutability": "view",
      "type": "function"
    },
    {
      "inputs": [],
      "name": "GEAR_LP_ADDRESS",
      "outputs": [
        {
          "internalType": "address",
          "name": "",
          "type": "address"
        }
      ],
      "stateMutability": "view",
      "type": "function"
    },
    {
      "inputs": [],
      "name": "SNX_ADDRESS",
      "outputs": [
        {
          "internalType": "address",
          "name": "",
          "type": "address"
        }
      ],
      "stateMutability": "view",
      "type": "function"
    },
    {
      "inputs": [],
      "name": "SUSD_ADDRESS",
      "outputs": [
        {
          "internalType": "address",
          "name": "",
          "type": "address"
        }
      ],
      "stateMutability": "view",
      "type": "function"
    },
    {
      "inputs": [],
      "name": "THREE_CRV_LP_ADDRESS",
      "outputs": [
        {
          "internalType": "address",
          "name": "",
          "type": "address"
        }
      ],
      "stateMutability": "view",
      "type": "function"
    },
    {
      "inputs": [],
      "name": "TRI_CRYPTO_LP_TOKEN",
      "outputs": [
        {
          "internalType": "address",
          "name": "",
          "type": "address"
        }
      ],
      "stateMutability": "view",
      "type": "function"
    },
    {
      "inputs": [],
      "name": "UNI_ADDRESS",
      "outputs": [
        {
          "internalType": "address",
          "name": "",
          "type": "address"
        }
      ],
      "stateMutability": "view",
      "type": "function"
    },
    {
      "inputs": [],
      "name": "USDC_ADDRESS",
      "outputs": [
        {
          "internalType": "address",
          "name": "",
          "type": "address"
        }
      ],
      "stateMutability": "view",
      "type": "function"
    },
    {
      "inputs": [],
      "name": "USDT_ADDRESS",
      "outputs": [
        {
          "internalType": "address",
          "name": "",
          "type": "address"
        }
      ],
      "stateMutability": "view",
      "type": "function"
    },
    {
      "inputs": [],
      "name": "USDT_LP_ADDRESS",
      "outputs": [
        {
          "internalType": "address",
          "name": "",
          "type": "address"
        }
      ],
      "stateMutability": "view",
      "type": "function"
    },
    {
      "inputs": [],
      "name": "WBTC_ADDRESS",
      "outputs": [
        {
          "internalType": "address",
          "name": "",
          "type": "address"
        }
      ],
      "stateMutability": "view",
      "type": "function"
    },
    {
      "inputs": [],
      "name": "WETH_ADDRESS",
      "outputs": [
        {
          "internalType": "address",
          "name": "",
          "type": "address"
        }
      ],
      "stateMutability": "view",
      "type": "function"
    },
    {
      "inputs": [],
      "name": "WSETH_ADDRESS",
      "outputs": [
        {
          "internalType": "address",
          "name": "",
          "type": "address"
        }
      ],
      "stateMutability": "view",
      "type": "function"
    },
    {
      "inputs": [],
      "name": "cDAI_ADDRESS",
      "outputs": [
        {
          "internalType": "address",
          "name": "",
          "type": "address"
        }
      ],
      "stateMutability": "view",
      "type": "function"
    },
    {
      "inputs": [],
      "name": "cETH_ADDRESS",
      "outputs": [
        {
          "internalType": "address",
          "name": "",
          "type": "address"
        }
      ],
      "stateMutability": "view",
      "type": "function"
    },
    {
      "inputs": [],
      "name": "cUSDC_ADDRESS",
      "outputs": [
        {
          "internalType": "address",
          "name": "",
          "type": "address"
        }
      ],
      "stateMutability": "view",
      "type": "function"
    },
    {
      "inputs": [],
      "name": "cUSDT_ADDRESS",
      "outputs": [
        {
          "internalType": "address",
          "name": "",
          "type": "address"
        }
      ],
      "stateMutability": "view",
      "type": "function"
    }
  ],
  "bytecode": {
    "object": "0x608060405234801561001057600080fd5b50610484806100206000396000f3fe608060405234801561001057600080fd5b50600436106101985760003560e01c8063bb9059ce116100e3578063d3accc4a1161008c578063ed1c1e0011610066578063ed1c1e00146103fd578063ed9a9d0914610418578063f2ed99821461043357600080fd5b8063d3accc4a146103ac578063e5516b0f146103c7578063e96f6b25146103e257600080fd5b8063c1892058116100bd578063c18920581461035b578063c43d14cf14610376578063ca68970f1461039157600080fd5b8063bb9059ce1461030a578063bdd5915f14610325578063bff35ba51461034057600080fd5b80637f8f602d116101455780639a2ce7d51161011f5780639a2ce7d5146102b9578063aa054143146102d4578063bb09d9b7146102ef57600080fd5b80637f8f602d146102685780638175ae1c146102835780638c962fc61461029e57600080fd5b806320302ab71161017657806320302ab7146102175780632a4c0a1a14610232578063775a7d5f1461024d57600080fd5b8063012d98061461019d578063040141e5146101e15780630712bc3e146101fc575b600080fd5b6101b873c4ad29ba4b3c580e6d59105fff484999997675ff81565b60405173ffffffffffffffffffffffffffffffffffffffff909116815260200160405180910390f35b6101b873c02aaa39b223fe8d0a0e5c4f27ead9083c756cc281565b6101b873853d955acef822db058eb8505911ed77f175b99e81565b6101b8735d3a536e4d6dbd6114cc1ead35777bab948e364381565b6101b8736b175474e89094c44da98b954eedeac495271d0f81565b6101b873ba3335588d9403515223f109edc4eb7269a9ab5d81565b6101b8739fc689ccada600b6df723d9e47d84d76664a1f2381565b6101b8737fc66500c84a76ad7e9c93437bfc5ac33e2ddae981565b6101b873f650c3d88d12db855b8bf7d11be6c55a4e07dcc981565b6101b87357ab1ec28d129707052df4df418d58a2d46d5f5181565b6101b87339aa39c021dfbae8fac545936693ac917d5e756381565b6101b873a0b86991c6218b36c1d19d4a2e9eb0ce3606eb4881565b6101b873c011a73ee8576fb46f5e1c5751ca3b9fe0af2a6f81565b6101b8732260fac5e5542a773aa44fbcfedf7c193bc2c59981565b6101b87392d6c1e31e14520e676a687f0a93788b716beff581565b6101b873dac17f958d2ee523a2206206994597c13d831ec781565b6101b8734e3fbd56cd56c3e72c1403e103b45db9da5b9d2b81565b6101b8731f9840a85d5af5bf1d1762f925bdaddc4201f98481565b6101b8735be6c45e2d074faa20700c49ada3e88a1cc0025d81565b6101b8736c3f90f043a72fa612cbac8115ee7e52bde6e49081565b6101b873be9895146f7af43049ca1c1ae358b0541ea4970481565b6101b873d533a949740bb3306d119cc777fa900ba034cd5281565b6101b8737f39c581f595b53c5cb19bd0b3f8da6c935e2ca081565b6101b8734ddc2d193948926d02f9b1fe9e1daa0718270ed58156fea2646970667358221220401fb94ed20120b3300f4dba819e90d3b81aa4fe77e68d387e019422f262210664736f6c634300080e0033",
    "linkReferences": {}
  },
  "methodIdentifiers": {
    "AAVE_ADDRESS()": "8175ae1c",
    "CBETH_ADDRESS()": "e96f6b25",
    "CRV_ADDRESS()": "ed1c1e00",
    "CVX_ADDRESS()": "c43d14cf",
    "DAI_ADDRESS()": "2a4c0a1a",
    "DYDX_ADDRESS()": "bff35ba5",
    "FRAX_ADDRESS()": "0712bc3e",
    "GEAR_ADDRESS()": "775a7d5f",
    "GEAR_LP_ADDRESS()": "d3accc4a",
    "SNX_ADDRESS()": "bb9059ce",
    "SUSD_ADDRESS()": "9a2ce7d5",
    "THREE_CRV_LP_ADDRESS()": "e5516b0f",
    "TRI_CRYPTO_LP_TOKEN()": "012d9806",
    "UNI_ADDRESS()": "ca68970f",
    "USDC_ADDRESS()": "bb09d9b7",
    "USDT_ADDRESS()": "c1892058",
    "USDT_LP_ADDRESS()": "7f8f602d",
    "WBTC_ADDRESS()": "bdd5915f",
    "WETH_ADDRESS()": "040141e5",
    "WSETH_ADDRESS()": "ed9a9d09",
    "cDAI_ADDRESS()": "20302ab7",
    "cETH_ADDRESS()": "f2ed9982",
    "cUSDC_ADDRESS()": "aa054143",
    "cUSDT_ADDRESS()": "8c962fc6"
  },
  "id": 127
}