{
  "abi": [
    {
      "inputs": [],
      "name": "CHAINLINK_AAVE_FEED_ADDRESS",
      "outputs": [
        {
          "internalType": "address",
          "name": "",
          "type": "address"
        }
      ],
      "stateMutability": "view",
      "type": "function"
    },
    {
      "inputs": [],
      "name": "CHAINLINK_BTC_FEED_ADDRESS",
      "outputs": [
        {
          "internalType": "address",
          "name": "",
          "type": "address"
        }
      ],
      "stateMutability": "view",
      "type": "function"
    },
    {
      "inputs": [],
      "name": "CHAINLINK_CBETH_ETH_FEED_ADDRESS",
      "outputs": [
        {
          "internalType": "address",
          "name": "",
          "type": "address"
        }
      ],
      "stateMutability": "view",
      "type": "function"
    },
    {
      "inputs": [],
      "name": "CHAINLINK_DAI_FEED_ADDRESS",
      "outputs": [
        {
          "internalType": "address",
          "name": "",
          "type": "address"
        }
      ],
      "stateMutability": "view",
      "type": "function"
    },
    {
      "inputs": [],
      "name": "CHAINLINK_DYDX_FEED_ADDRESS",
      "outputs": [
        {
          "internalType": "address",
          "name": "",
          "type": "address"
        }
      ],
      "stateMutability": "view",
      "type": "function"
    },
    {
      "inputs": [],
      "name": "CHAINLINK_ETH_FEED_ADDRESS",
      "outputs": [
        {
          "internalType": "address",
          "name": "",
          "type": "address"
        }
      ],
      "stateMutability": "view",
      "type": "function"
    },
    {
      "inputs": [],
      "name": "CHAINLINK_FRAX_FEED_ADDRESS",
      "outputs": [
        {
          "internalType": "address",
          "name": "",
          "type": "address"
        }
      ],
      "stateMutability": "view",
      "type": "function"
    },
    {
      "inputs": [],
      "name": "CHAINLINK_SNX_FEED_ADDRESS",
      "outputs": [
        {
          "internalType": "address",
          "name": "",
          "type": "address"
        }
      ],
      "stateMutability": "view",
      "type": "function"
    },
    {
      "inputs": [],
      "name": "CHAINLINK_STETH_USD_FEED_ADDRESS",
      "outputs": [
        {
          "internalType": "address",
          "name": "",
          "type": "address"
        }
      ],
      "stateMutability": "view",
      "type": "function"
    },
    {
      "inputs": [],
      "name": "CHAINLINK_SUSD_FEED_ADDRESS",
      "outputs": [
        {
          "internalType": "address",
          "name": "",
          "type": "address"
        }
      ],
      "stateMutability": "view",
      "type": "function"
    },
    {
      "inputs": [],
      "name": "CHAINLINK_UNI_FEED_ADDRESS",
      "outputs": [
        {
          "internalType": "address",
          "name": "",
          "type": "address"
        }
      ],
      "stateMutability": "view",
      "type": "function"
    },
    {
      "inputs": [],
      "name": "CHAINLINK_USDC_FEED_ADDRESS",
      "outputs": [
        {
          "internalType": "address",
          "name": "",
          "type": "address"
        }
      ],
      "stateMutability": "view",
      "type": "function"
    },
    {
      "inputs": [],
      "name": "CHAINLINK_USDT_FEED_ADDRESS",
      "outputs": [
        {
          "internalType": "address",
          "name": "",
          "type": "address"
        }
      ],
      "stateMutability": "view",
      "type": "function"
    },
    {
      "inputs": [],
      "name": "CHAINLINK_WBTC_BTC_FEED_ADDRESS",
      "outputs": [
        {
          "internalType": "address",
          "name": "",
          "type": "address"
        }
      ],
      "stateMutability": "view",
      "type": "function"
    }
  ],
  "bytecode": {
    "object": "0x608060405234801561001057600080fd5b506102c8806100206000396000f3fe608060405234801561001057600080fd5b50600436106100ea5760003560e01c806379d0c09c1161008c5780639c8380d8116100665780639c8380d814610226578063a956f47114610241578063ae2ac6131461025c578063dcaa8cd71461027757600080fd5b806379d0c09c146101d55780638ec12c0c146101f057806396b58a421461020b57600080fd5b80634cc99d4a116100c85780634cc99d4a146101695780635b8d959b1461018457806362b854b31461019f5780636a851253146101ba57600080fd5b8063125aec3e146100ef57806316c190a8146101335780633aaa452f1461014e575b600080fd5b61010a735f4ec3df9cbd43714fe2740f5e3616155c5b841981565b60405173ffffffffffffffffffffffffffffffffffffffff909116815260200160405180910390f35b61010a73553303d460ee0afb37edff9be42922d8ff63220e81565b61010a73cfe54b5cd566ab89272946f602d76ea879cab4a881565b61010a733e7d1eab13ad0104d2750b8863b489d65364e32d81565b61010a73f4030086522a5beea4988f8ca5b36dbc97bee88c81565b61010a73aed0c38402a5d19df6e4c03f4e2dced6e29c1ee981565b61010a73478909d4d798f3a1f11ffb25e4920c959b4ade0b81565b61010a73547a514d5e3769680ce22b2361c10ea13619e8a981565b61010a73dc3ea94cd0ac27d9a86c180091e7f78c683d369981565b61010a73fdfd9c85ad200c506cf9e21f1fd8dd01932fbb2381565b61010a73f017fcb346a1885194689ba23eff2fe6fa5c483b81565b61010a73b9e1e3a9feff48998e45fa90847ed4d467e8bcfd81565b61010a738fffffd4afb6115b954bd326cbe7b4ba576818f681565b61010a73ad35bd71b9afe6e4bdc266b345c198eadef9ad948156fea2646970667358221220007712d70f96b414815cd21bb9142677cd9296698ed55b8ab0c5552680e4fddf64736f6c634300080e0033",
    "linkReferences": {}
  },
  "methodIdentifiers": {
    "CHAINLINK_AAVE_FEED_ADDRESS()": "79d0c09c",
    "CHAINLINK_BTC_FEED_ADDRESS()": "5b8d959b",
    "CHAINLINK_CBETH_ETH_FEED_ADDRESS()": "9c8380d8",
    "CHAINLINK_DAI_FEED_ADDRESS()": "62b854b3",
    "CHAINLINK_DYDX_FEED_ADDRESS()": "6a851253",
    "CHAINLINK_ETH_FEED_ADDRESS()": "125aec3e",
    "CHAINLINK_FRAX_FEED_ADDRESS()": "a956f471",
    "CHAINLINK_SNX_FEED_ADDRESS()": "8ec12c0c",
    "CHAINLINK_STETH_USD_FEED_ADDRESS()": "3aaa452f",
    "CHAINLINK_SUSD_FEED_ADDRESS()": "dcaa8cd7",
    "CHAINLINK_UNI_FEED_ADDRESS()": "16c190a8",
    "CHAINLINK_USDC_FEED_ADDRESS()": "ae2ac613",
    "CHAINLINK_USDT_FEED_ADDRESS()": "4cc99d4a",
    "CHAINLINK_WBTC_BTC_FEED_ADDRESS()": "96b58a42"
  },
  "id": 123
}