{
  "abi": [
    {
      "inputs": [
        {
          "internalType": "address",
          "name": "_booster",
          "type": "address"
        },
        {
          "internalType": "contract IERC20",
          "name": "_rewardToken",
          "type": "address"
        },
        {
          "internalType": "uint256",
          "name": "_rewardsPerSecondPerToken",
          "type": "uint256"
        },
        {
          "internalType": "address",
          "name": "_lptoken",
          "type": "address"
        }
      ],
      "stateMutability": "nonpayable",
      "type": "constructor"
    },
    {
      "inputs": [
        {
          "internalType": "contract IVirtualBalanceRewardPool",
          "name": "_extraReward",
          "type": "address"
        }
      ],
      "name": "addExtraReward",
      "outputs": [],
      "stateMutability": "nonpayable",
      "type": "function"
    },
    {
      "inputs": [
        {
          "internalType": "address",
          "name": "",
          "type": "address"
        }
      ],
      "name": "balances",
      "outputs": [
        {
          "internalType": "uint256",
          "name": "",
          "type": "uint256"
        }
      ],
      "stateMutability": "view",
      "type": "function"
    },
    {
      "inputs": [],
      "name": "booster",
      "outputs": [
        {
          "internalType": "address",
          "name": "",
          "type": "address"
        }
      ],
      "stateMutability": "view",
      "type": "function"
    },
    {
      "inputs": [
        {
          "internalType": "address",
          "name": "_ad",
          "type": "address"
        }
      ],
      "name": "earned",
      "outputs": [
        {
          "internalType": "uint256",
          "name": "_reward",
          "type": "uint256"
        }
      ],
      "stateMutability": "view",
      "type": "function"
    },
    {
      "inputs": [
        {
          "internalType": "uint256",
          "name": "",
          "type": "uint256"
        }
      ],
      "name": "extraRewards",
      "outputs": [
        {
          "internalType": "contract IVirtualBalanceRewardPool",
          "name": "",
          "type": "address"
        }
      ],
      "stateMutability": "view",
      "type": "function"
    },
    {
      "inputs": [],
      "name": "extraRewardsLength",
      "outputs": [
        {
          "internalType": "uint256",
          "name": "_extraRewardsLength",
          "type": "uint256"
        }
      ],
      "stateMutability": "view",
      "type": "function"
    },
    {
      "inputs": [
        {
          "internalType": "address",
          "name": "_account",
          "type": "address"
        },
        {
          "internalType": "bool",
          "name": "",
          "type": "bool"
        }
      ],
      "name": "getReward",
      "outputs": [
        {
          "internalType": "bool",
          "name": "_success",
          "type": "bool"
        }
      ],
      "stateMutability": "nonpayable",
      "type": "function"
    },
    {
      "inputs": [],
      "name": "lptoken",
      "outputs": [
        {
          "internalType": "contract IERC20",
          "name": "",
          "type": "address"
        }
      ],
      "stateMutability": "view",
      "type": "function"
    },
    {
      "inputs": [],
      "name": "owner",
      "outputs": [
        {
          "internalType": "address",
          "name": "",
          "type": "address"
        }
      ],
      "stateMutability": "view",
      "type": "function"
    },
    {
      "inputs": [
        {
          "internalType": "uint256",
          "name": "",
          "type": "uint256"
        }
      ],
      "name": "queueNewRewards",
      "outputs": [
        {
          "internalType": "bool",
          "name": "_success",
          "type": "bool"
        }
      ],
      "stateMutability": "pure",
      "type": "function"
    },
    {
      "inputs": [],
      "name": "rewardToken",
      "outputs": [
        {
          "internalType": "contract IERC20",
          "name": "",
          "type": "address"
        }
      ],
      "stateMutability": "view",
      "type": "function"
    },
    {
      "inputs": [
        {
          "internalType": "address",
          "name": "",
          "type": "address"
        }
      ],
      "name": "rewards",
      "outputs": [
        {
          "internalType": "uint256",
          "name": "lastClaimTime",
          "type": "uint256"
        },
        {
          "internalType": "uint256",
          "name": "rewardsToPay",
          "type": "uint256"
        }
      ],
      "stateMutability": "view",
      "type": "function"
    },
    {
      "inputs": [],
      "name": "rewardsPerSecondPerToken",
      "outputs": [
        {
          "internalType": "uint256",
          "name": "",
          "type": "uint256"
        }
      ],
      "stateMutability": "view",
      "type": "function"
    },
    {
      "inputs": [
        {
          "internalType": "uint256",
          "name": "",
          "type": "uint256"
        }
      ],
      "name": "stake",
      "outputs": [
        {
          "internalType": "bool",
          "name": "_staked",
          "type": "bool"
        }
      ],
      "stateMutability": "pure",
      "type": "function"
    },
    {
      "inputs": [
        {
          "internalType": "address",
          "name": "",
          "type": "address"
        },
        {
          "internalType": "uint256",
          "name": "",
          "type": "uint256"
        }
      ],
      "name": "stakeFor",
      "outputs": [
        {
          "internalType": "bool",
          "name": "_staked",
          "type": "bool"
        }
      ],
      "stateMutability": "pure",
      "type": "function"
    },
    {
      "inputs": [
        {
          "internalType": "uint256",
          "name": "_amount",
          "type": "uint256"
        },
        {
          "internalType": "address",
          "name": "_user",
          "type": "address"
        }
      ],
      "name": "stakeForUser",
      "outputs": [],
      "stateMutability": "nonpayable",
      "type": "function"
    },
    {
      "inputs": [
        {
          "internalType": "uint256",
          "name": "",
          "type": "uint256"
        },
        {
          "internalType": "bool",
          "name": "",
          "type": "bool"
        }
      ],
      "name": "withdraw",
      "outputs": [
        {
          "internalType": "bool",
          "name": "_success",
          "type": "bool"
        }
      ],
      "stateMutability": "pure",
      "type": "function"
    },
    {
      "inputs": [
        {
          "internalType": "uint256",
          "name": "_amount",
          "type": "uint256"
        },
        {
          "internalType": "bool",
          "name": "",
          "type": "bool"
        }
      ],
      "name": "withdrawAndUnwrap",
      "outputs": [
        {
          "internalType": "bool",
          "name": "_success",
          "type": "bool"
        }
      ],
      "stateMutability": "nonpayable",
      "type": "function"
    }
  ],
  "bytecode": {
    "object": "0x608060405234801561001057600080fd5b50604051610d83380380610d8383398101604081905261002f91610099565b600080546001600160a01b039586166001600160a01b031991821617909155600280549486169482169490941790935560049190915560068054831633179055600780549190931691161790556100ee565b6001600160a01b038116811461009657600080fd5b50565b600080600080608085870312156100af57600080fd5b84516100ba81610081565b60208601519094506100cb81610081565b6040860151606087015191945092506100e381610081565b939692955090935050565b610c86806100fd6000396000f3fe608060405234801561001057600080fd5b50600436106101355760003560e01c80637050ccd9116100b2578063c32e720211610081578063d55a23f411610066578063d55a23f4146102d3578063f363393b146102db578063f7c618c1146102fb57600080fd5b8063c32e7202146102a0578063c6def076146102b357600080fd5b80637050ccd91461025a57806370607f5d1461026d5780638da5cb5b14610280578063a694fc3a1461022857600080fd5b806338d0743611610109578063590a41f5116100ee578063590a41f5146102285780635e43c47b1461023c5780636faee2151461025157600080fd5b806338d07436146101e257806340c35446146101f057600080fd5b80628cc2621461013a5780630700037d1461016057806327e235e31461019c5780632ee40908146101bc575b600080fd5b61014d610148366004610a03565b61031b565b6040519081526020015b60405180910390f35b61018761016e366004610a03565b6003602052600090815260409020805460019091015482565b60408051928352602083019190915201610157565b61014d6101aa366004610a03565b60016020526000908152604090205481565b6101d26101ca366004610a20565b600192915050565b6040519015158152602001610157565b6101d26101ca366004610a5a565b6102036101fe366004610a8a565b61035f565b60405173ffffffffffffffffffffffffffffffffffffffff9091168152602001610157565b6101d2610236366004610a8a565b50600190565b61024f61024a366004610a03565b610396565b005b61014d60045481565b6101d2610268366004610aa3565b610493565b61024f61027b366004610ad1565b6105a8565b6006546102039073ffffffffffffffffffffffffffffffffffffffff1681565b6101d26102ae366004610a5a565b610782565b6000546102039073ffffffffffffffffffffffffffffffffffffffff1681565b60055461014d565b6007546102039073ffffffffffffffffffffffffffffffffffffffff1681565b6002546102039073ffffffffffffffffffffffffffffffffffffffff1681565b600061032682610950565b73ffffffffffffffffffffffffffffffffffffffff83166000908152600360205260409020600101546103599190610b25565b92915050565b6005818154811061036f57600080fd5b60009182526020909120015473ffffffffffffffffffffffffffffffffffffffff16905081565b60065473ffffffffffffffffffffffffffffffffffffffff16331461041c576040517f08c379a000000000000000000000000000000000000000000000000000000000815260206004820152600a60248201527f6f6e6c79206f776e65720000000000000000000000000000000000000000000060448201526064015b60405180910390fd5b600580546001810182556000919091527f036b6384b5eca791c62761152d0c79bb0604c104a5fb6f4eb0703f3154bb3db00180547fffffffffffffffffffffffff00000000000000000000000000000000000000001673ffffffffffffffffffffffffffffffffffffffff92909216919091179055565b60008061049f84610950565b73ffffffffffffffffffffffffffffffffffffffff85166000908152600360205260409020600101546104d29190610b25565b6002546040517fa9059cbb00000000000000000000000000000000000000000000000000000000815273ffffffffffffffffffffffffffffffffffffffff87811660048301526024820184905292935091169063a9059cbb906044016020604051808303816000875af115801561054d573d6000803e3d6000fd5b505050506040513d601f19601f820116820180604052508101906105719190610b3d565b5050505073ffffffffffffffffffffffffffffffffffffffff16600090815260036020526040812042815560019081019190915590565b60005473ffffffffffffffffffffffffffffffffffffffff163314610629576040517f08c379a000000000000000000000000000000000000000000000000000000000815260206004820152600c60248201527f6f6e6c7920626f6f7374657200000000000000000000000000000000000000006044820152606401610413565b61063281610950565b73ffffffffffffffffffffffffffffffffffffffff82166000908152600360205260409020600101546106659190610b25565b73ffffffffffffffffffffffffffffffffffffffff8216600090815260036020908152604080832060018082019590955542905592905290812080548492906106af908490610b25565b90915550600090505b60055481101561077d57600581815481106106d5576106d5610b5a565b6000918252602090912001546040517fadc9772e00000000000000000000000000000000000000000000000000000000815273ffffffffffffffffffffffffffffffffffffffff8481166004830152602482018690529091169063adc9772e90604401600060405180830381600087803b15801561075257600080fd5b505af1158015610766573d6000803e3d6000fd5b50505050808061077590610b89565b9150506106b8565b505050565b600061078d33610950565b336000908152600360205260409020600101546107aa9190610b25565b33600090815260036020908152604080832060018082019590955542905592905290812080548592906107de908490610bc1565b90915550600090505b6005548110156108aa576005818154811061080457610804610b5a565b6000918252602090912001546040517fc2a672e00000000000000000000000000000000000000000000000000000000081523360048201526024810186905273ffffffffffffffffffffffffffffffffffffffff9091169063c2a672e090604401600060405180830381600087803b15801561087f57600080fd5b505af1158015610893573d6000803e3d6000fd5b5050505080806108a290610b89565b9150506107e7565b506007546040517fa9059cbb0000000000000000000000000000000000000000000000000000000081523360048201526024810185905273ffffffffffffffffffffffffffffffffffffffff9091169063a9059cbb906044016020604051808303816000875af1158015610922573d6000803e3d6000fd5b505050506040513d601f19601f820116820180604052508101906109469190610b3d565b5060019392505050565b73ffffffffffffffffffffffffffffffffffffffff811660009081526003602052604081205481906109829042610bc1565b73ffffffffffffffffffffffffffffffffffffffff8416600090815260016020526040902054600454919250670de0b6b3a7640000916109c3908490610bd8565b6109cd9190610bd8565b6109d79190610c15565b9392505050565b73ffffffffffffffffffffffffffffffffffffffff81168114610a0057600080fd5b50565b600060208284031215610a1557600080fd5b81356109d7816109de565b60008060408385031215610a3357600080fd5b8235610a3e816109de565b946020939093013593505050565b8015158114610a0057600080fd5b60008060408385031215610a6d57600080fd5b823591506020830135610a7f81610a4c565b809150509250929050565b600060208284031215610a9c57600080fd5b5035919050565b60008060408385031215610ab657600080fd5b8235610ac1816109de565b91506020830135610a7f81610a4c565b60008060408385031215610ae457600080fd5b823591506020830135610a7f816109de565b7f4e487b7100000000000000000000000000000000000000000000000000000000600052601160045260246000fd5b60008219821115610b3857610b38610af6565b500190565b600060208284031215610b4f57600080fd5b81516109d781610a4c565b7f4e487b7100000000000000000000000000000000000000000000000000000000600052603260045260246000fd5b60007fffffffffffffffffffffffffffffffffffffffffffffffffffffffffffffffff8203610bba57610bba610af6565b5060010190565b600082821015610bd357610bd3610af6565b500390565b6000817fffffffffffffffffffffffffffffffffffffffffffffffffffffffffffffffff0483118215151615610c1057610c10610af6565b500290565b600082610c4b577f4e487b7100000000000000000000000000000000000000000000000000000000600052601260045260246000fd5b50049056fea2646970667358221220fba3c89c531040e6ed76cf0014f3563ed977a54701334917987233939c07f31c64736f6c634300080e0033",
    "linkReferences": {}
  },
  "methodIdentifiers": {
    "addExtraReward(address)": "5e43c47b",
    "balances(address)": "27e235e3",
    "booster()": "c6def076",
    "earned(address)": "008cc262",
    "extraRewards(uint256)": "40c35446",
    "extraRewardsLength()": "d55a23f4",
    "getReward(address,bool)": "7050ccd9",
    "lptoken()": "f363393b",
    "owner()": "8da5cb5b",
    "queueNewRewards(uint256)": "590a41f5",
    "rewardToken()": "f7c618c1",
    "rewards(address)": "0700037d",
    "rewardsPerSecondPerToken()": "6faee215",
    "stake(uint256)": "a694fc3a",
    "stakeFor(address,uint256)": "2ee40908",
    "stakeForUser(uint256,address)": "70607f5d",
    "withdraw(uint256,bool)": "38d07436",
    "withdrawAndUnwrap(uint256,bool)": "c32e7202"
  },
  "id": 116
}