{
  "abi": [
    {
      "inputs": [
        {
          "internalType": "contract IERC20",
          "name": "_sUSDAddr",
          "type": "address"
        }
      ],
      "stateMutability": "nonpayable",
      "type": "constructor"
    },
    {
      "inputs": [
        {
          "internalType": "address",
          "name": "_account",
          "type": "address"
        },
        {
          "internalType": "bytes32",
          "name": "_role",
          "type": "bytes32"
        }
      ],
      "name": "Roles_Unauthorized",
      "type": "error"
    },
    {
      "inputs": [],
      "name": "UFragments_InvalidRecipient",
      "type": "error"
    },
    {
      "inputs": [],
      "name": "UFragments_InvalidSignature",
      "type": "error"
    },
    {
      "inputs": [],
      "name": "USDA_EmptyReserve",
      "type": "error"
    },
    {
      "inputs": [],
      "name": "USDA_InsufficientFunds",
      "type": "error"
    },
    {
      "inputs": [],
      "name": "USDA_NotEnoughBalance",
      "type": "error"
    },
    {
      "inputs": [],
      "name": "USDA_OnlyPauser",
      "type": "error"
    },
    {
      "inputs": [],
      "name": "USDA_ZeroAmount",
      "type": "error"
    },
    {
      "anonymous": false,
      "inputs": [
        {
          "indexed": true,
          "internalType": "address",
          "name": "owner",
          "type": "address"
        },
        {
          "indexed": true,
          "internalType": "address",
          "name": "spender",
          "type": "address"
        },
        {
          "indexed": false,
          "internalType": "uint256",
          "name": "value",
          "type": "uint256"
        }
      ],
      "name": "Approval",
      "type": "event"
    },
    {
      "anonymous": false,
      "inputs": [
        {
          "indexed": false,
          "internalType": "address",
          "name": "_from",
          "type": "address"
        },
        {
          "indexed": false,
          "internalType": "uint256",
          "name": "_value",
          "type": "uint256"
        }
      ],
      "name": "Burn",
      "type": "event"
    },
    {
      "anonymous": false,
      "inputs": [
        {
          "indexed": true,
          "internalType": "address",
          "name": "_from",
          "type": "address"
        },
        {
          "indexed": false,
          "internalType": "uint256",
          "name": "_value",
          "type": "uint256"
        }
      ],
      "name": "Deposit",
      "type": "event"
    },
    {
      "anonymous": false,
      "inputs": [
        {
          "indexed": true,
          "internalType": "address",
          "name": "_from",
          "type": "address"
        },
        {
          "indexed": false,
          "internalType": "uint256",
          "name": "_value",
          "type": "uint256"
        },
        {
          "indexed": false,
          "internalType": "uint256",
          "name": "_totalSupply",
          "type": "uint256"
        }
      ],
      "name": "Donation",
      "type": "event"
    },
    {
      "anonymous": false,
      "inputs": [
        {
          "indexed": false,
          "internalType": "address",
          "name": "monetaryPolicy",
          "type": "address"
        }
      ],
      "name": "LogMonetaryPolicyUpdated",
      "type": "event"
    },
    {
      "anonymous": false,
      "inputs": [
        {
          "indexed": true,
          "internalType": "uint256",
          "name": "epoch",
          "type": "uint256"
        },
        {
          "indexed": false,
          "internalType": "uint256",
          "name": "totalSupply",
          "type": "uint256"
        }
      ],
      "name": "LogRebase",
      "type": "event"
    },
    {
      "anonymous": false,
      "inputs": [
        {
          "indexed": false,
          "internalType": "address",
          "name": "_to",
          "type": "address"
        },
        {
          "indexed": false,
          "internalType": "uint256",
          "name": "_value",
          "type": "uint256"
        }
      ],
      "name": "Mint",
      "type": "event"
    },
    {
      "anonymous": false,
      "inputs": [
        {
          "indexed": true,
          "internalType": "address",
          "name": "previousOwner",
          "type": "address"
        },
        {
          "indexed": true,
          "internalType": "address",
          "name": "newOwner",
          "type": "address"
        }
      ],
      "name": "OwnershipTransferred",
      "type": "event"
    },
    {
      "anonymous": false,
      "inputs": [
        {
          "indexed": false,
          "internalType": "address",
          "name": "account",
          "type": "address"
        }
      ],
      "name": "Paused",
      "type": "event"
    },
    {
      "anonymous": false,
      "inputs": [
        {
          "indexed": true,
          "internalType": "address",
          "name": "_pauser",
          "type": "address"
        }
      ],
      "name": "PauserSet",
      "type": "event"
    },
    {
      "anonymous": false,
      "inputs": [
        {
          "indexed": true,
          "internalType": "address",
          "name": "_receiver",
          "type": "address"
        },
        {
          "indexed": false,
          "internalType": "uint256",
          "name": "_amount",
          "type": "uint256"
        }
      ],
      "name": "RecoveredDust",
      "type": "event"
    },
    {
      "anonymous": false,
      "inputs": [
        {
          "indexed": true,
          "internalType": "bytes32",
          "name": "role",
          "type": "bytes32"
        },
        {
          "indexed": true,
          "internalType": "bytes32",
          "name": "previousAdminRole",
          "type": "bytes32"
        },
        {
          "indexed": true,
          "internalType": "bytes32",
          "name": "newAdminRole",
          "type": "bytes32"
        }
      ],
      "name": "RoleAdminChanged",
      "type": "event"
    },
    {
      "anonymous": false,
      "inputs": [
        {
          "indexed": true,
          "internalType": "bytes32",
          "name": "role",
          "type": "bytes32"
        },
        {
          "indexed": true,
          "internalType": "address",
          "name": "account",
          "type": "address"
        },
        {
          "indexed": true,
          "internalType": "address",
          "name": "sender",
          "type": "address"
        }
      ],
      "name": "RoleGranted",
      "type": "event"
    },
    {
      "anonymous": false,
      "inputs": [
        {
          "indexed": true,
          "internalType": "bytes32",
          "name": "role",
          "type": "bytes32"
        },
        {
          "indexed": true,
          "internalType": "address",
          "name": "account",
          "type": "address"
        },
        {
          "indexed": true,
          "internalType": "address",
          "name": "sender",
          "type": "address"
        }
      ],
      "name": "RoleRevoked",
      "type": "event"
    },
    {
      "anonymous": false,
      "inputs": [
        {
          "indexed": true,
          "internalType": "address",
          "name": "from",
          "type": "address"
        },
        {
          "indexed": true,
          "internalType": "address",
          "name": "to",
          "type": "address"
        },
        {
          "indexed": false,
          "internalType": "uint256",
          "name": "value",
          "type": "uint256"
        }
      ],
      "name": "Transfer",
      "type": "event"
    },
    {
      "anonymous": false,
      "inputs": [
        {
          "indexed": false,
          "internalType": "address",
          "name": "account",
          "type": "address"
        }
      ],
      "name": "Unpaused",
      "type": "event"
    },
    {
      "anonymous": false,
      "inputs": [
        {
          "indexed": true,
          "internalType": "address",
          "name": "_vaultController",
          "type": "address"
        }
      ],
      "name": "VaultControllerAdded",
      "type": "event"
    },
    {
      "anonymous": false,
      "inputs": [
        {
          "indexed": true,
          "internalType": "address",
          "name": "_vaultController",
          "type": "address"
        }
      ],
      "name": "VaultControllerRemoved",
      "type": "event"
    },
    {
      "anonymous": false,
      "inputs": [
        {
          "indexed": true,
          "internalType": "address",
          "name": "_vaultController",
          "type": "address"
        }
      ],
      "name": "VaultControllerRemovedFromList",
      "type": "event"
    },
    {
      "anonymous": false,
      "inputs": [
        {
          "indexed": false,
          "internalType": "address",
          "name": "_target",
          "type": "address"
        },
        {
          "indexed": false,
          "internalType": "uint256",
          "name": "_susdAmount",
          "type": "uint256"
        }
      ],
      "name": "VaultControllerTransfer",
      "type": "event"
    },
    {
      "anonymous": false,
      "inputs": [
        {
          "indexed": true,
          "internalType": "address",
          "name": "_from",
          "type": "address"
        },
        {
          "indexed": false,
          "internalType": "uint256",
          "name": "_value",
          "type": "uint256"
        }
      ],
      "name": "Withdraw",
      "type": "event"
    },
    {
      "inputs": [],
      "name": "DEFAULT_ADMIN_ROLE",
      "outputs": [
        {
          "internalType": "bytes32",
          "name": "",
          "type": "bytes32"
        }
      ],
      "stateMutability": "view",
      "type": "function"
    },
    {
      "inputs": [],
      "name": "DOMAIN_SEPARATOR",
      "outputs": [
        {
          "internalType": "bytes32",
          "name": "_domainSeparator",
          "type": "bytes32"
        }
      ],
      "stateMutability": "view",
      "type": "function"
    },
    {
      "inputs": [],
      "name": "DOUBLE_SCALE",
      "outputs": [
        {
          "internalType": "uint256",
          "name": "",
          "type": "uint256"
        }
      ],
      "stateMutability": "view",
      "type": "function"
    },
    {
      "inputs": [],
      "name": "EIP712_DOMAIN",
      "outputs": [
        {
          "internalType": "bytes32",
          "name": "",
          "type": "bytes32"
        }
      ],
      "stateMutability": "view",
      "type": "function"
    },
    {
      "inputs": [],
      "name": "EIP712_REVISION",
      "outputs": [
        {
          "internalType": "string",
          "name": "",
          "type": "string"
        }
      ],
      "stateMutability": "view",
      "type": "function"
    },
    {
      "inputs": [],
      "name": "EXP_SCALE",
      "outputs": [
        {
          "internalType": "uint256",
          "name": "",
          "type": "uint256"
        }
      ],
      "stateMutability": "view",
      "type": "function"
    },
    {
      "inputs": [],
      "name": "HALF_EXP_SCALE",
      "outputs": [
        {
          "internalType": "uint256",
          "name": "",
          "type": "uint256"
        }
      ],
      "stateMutability": "view",
      "type": "function"
    },
    {
      "inputs": [],
      "name": "MANTISSA_ONE",
      "outputs": [
        {
          "internalType": "uint256",
          "name": "",
          "type": "uint256"
        }
      ],
      "stateMutability": "view",
      "type": "function"
    },
    {
      "inputs": [],
      "name": "MAX_SUPPLY",
      "outputs": [
        {
          "internalType": "uint256",
          "name": "",
          "type": "uint256"
        }
      ],
      "stateMutability": "view",
      "type": "function"
    },
    {
      "inputs": [],
      "name": "PERMIT_TYPEHASH",
      "outputs": [
        {
          "internalType": "bytes32",
          "name": "",
          "type": "bytes32"
        }
      ],
      "stateMutability": "view",
      "type": "function"
    },
    {
      "inputs": [],
      "name": "UINT128_MAX",
      "outputs": [
        {
          "internalType": "uint256",
          "name": "",
          "type": "uint256"
        }
      ],
      "stateMutability": "view",
      "type": "function"
    },
    {
      "inputs": [],
      "name": "UINT192_MAX",
      "outputs": [
        {
          "internalType": "uint256",
          "name": "",
          "type": "uint256"
        }
      ],
      "stateMutability": "view",
      "type": "function"
    },
    {
      "inputs": [],
      "name": "VAULT_CONTROLLER_ROLE",
      "outputs": [
        {
          "internalType": "bytes32",
          "name": "",
          "type": "bytes32"
        }
      ],
      "stateMutability": "view",
      "type": "function"
    },
    {
      "inputs": [
        {
          "internalType": "address",
          "name": "",
          "type": "address"
        }
      ],
      "name": "_gonBalances",
      "outputs": [
        {
          "internalType": "uint256",
          "name": "",
          "type": "uint256"
        }
      ],
      "stateMutability": "view",
      "type": "function"
    },
    {
      "inputs": [],
      "name": "_gonsPerFragment",
      "outputs": [
        {
          "internalType": "uint256",
          "name": "",
          "type": "uint256"
        }
      ],
      "stateMutability": "view",
      "type": "function"
    },
    {
      "inputs": [],
      "name": "_totalGons",
      "outputs": [
        {
          "internalType": "uint256",
          "name": "",
          "type": "uint256"
        }
      ],
      "stateMutability": "view",
      "type": "function"
    },
    {
      "inputs": [],
      "name": "_totalSupply",
      "outputs": [
        {
          "internalType": "uint256",
          "name": "",
          "type": "uint256"
        }
      ],
      "stateMutability": "view",
      "type": "function"
    },
    {
      "inputs": [
        {
          "internalType": "address",
          "name": "_vaultController",
          "type": "address"
        }
      ],
      "name": "addVaultController",
      "outputs": [],
      "stateMutability": "nonpayable",
      "type": "function"
    },
    {
      "inputs": [
        {
          "internalType": "address",
          "name": "_owner",
          "type": "address"
        },
        {
          "internalType": "address",
          "name": "_spender",
          "type": "address"
        }
      ],
      "name": "allowance",
      "outputs": [
        {
          "internalType": "uint256",
          "name": "_remaining",
          "type": "uint256"
        }
      ],
      "stateMutability": "view",
      "type": "function"
    },
    {
      "inputs": [
        {
          "internalType": "address",
          "name": "_spender",
          "type": "address"
        },
        {
          "internalType": "uint256",
          "name": "_value",
          "type": "uint256"
        }
      ],
      "name": "approve",
      "outputs": [
        {
          "internalType": "bool",
          "name": "_success",
          "type": "bool"
        }
      ],
      "stateMutability": "nonpayable",
      "type": "function"
    },
    {
      "inputs": [
        {
          "internalType": "address",
          "name": "_who",
          "type": "address"
        }
      ],
      "name": "balanceOf",
      "outputs": [
        {
          "internalType": "uint256",
          "name": "_balance",
          "type": "uint256"
        }
      ],
      "stateMutability": "view",
      "type": "function"
    },
    {
      "inputs": [
        {
          "internalType": "uint256",
          "name": "_susdAmount",
          "type": "uint256"
        }
      ],
      "name": "burn",
      "outputs": [],
      "stateMutability": "nonpayable",
      "type": "function"
    },
    {
      "inputs": [],
      "name": "decimals",
      "outputs": [
        {
          "internalType": "uint8",
          "name": "",
          "type": "uint8"
        }
      ],
      "stateMutability": "view",
      "type": "function"
    },
    {
      "inputs": [
        {
          "internalType": "address",
          "name": "_spender",
          "type": "address"
        },
        {
          "internalType": "uint256",
          "name": "_subtractedValue",
          "type": "uint256"
        }
      ],
      "name": "decreaseAllowance",
      "outputs": [
        {
          "internalType": "bool",
          "name": "_success",
          "type": "bool"
        }
      ],
      "stateMutability": "nonpayable",
      "type": "function"
    },
    {
      "inputs": [
        {
          "internalType": "uint256",
          "name": "_susdAmount",
          "type": "uint256"
        }
      ],
      "name": "deposit",
      "outputs": [],
      "stateMutability": "nonpayable",
      "type": "function"
    },
    {
      "inputs": [
        {
          "internalType": "uint256",
          "name": "_susdAmount",
          "type": "uint256"
        },
        {
          "internalType": "address",
          "name": "_target",
          "type": "address"
        }
      ],
      "name": "depositTo",
      "outputs": [],
      "stateMutability": "nonpayable",
      "type": "function"
    },
    {
      "inputs": [
        {
          "internalType": "uint256",
          "name": "_susdAmount",
          "type": "uint256"
        }
      ],
      "name": "donate",
      "outputs": [],
      "stateMutability": "nonpayable",
      "type": "function"
    },
    {
      "inputs": [
        {
          "internalType": "bytes32",
          "name": "role",
          "type": "bytes32"
        }
      ],
      "name": "getRoleAdmin",
      "outputs": [
        {
          "internalType": "bytes32",
          "name": "",
          "type": "bytes32"
        }
      ],
      "stateMutability": "view",
      "type": "function"
    },
    {
      "inputs": [
        {
          "internalType": "bytes32",
          "name": "role",
          "type": "bytes32"
        },
        {
          "internalType": "address",
          "name": "account",
          "type": "address"
        }
      ],
      "name": "grantRole",
      "outputs": [],
      "stateMutability": "nonpayable",
      "type": "function"
    },
    {
      "inputs": [
        {
          "internalType": "bytes32",
          "name": "role",
          "type": "bytes32"
        },
        {
          "internalType": "address",
          "name": "account",
          "type": "address"
        }
      ],
      "name": "hasRole",
      "outputs": [
        {
          "internalType": "bool",
          "name": "",
          "type": "bool"
        }
      ],
      "stateMutability": "view",
      "type": "function"
    },
    {
      "inputs": [
        {
          "internalType": "address",
          "name": "_spender",
          "type": "address"
        },
        {
          "internalType": "uint256",
          "name": "_addedValue",
          "type": "uint256"
        }
      ],
      "name": "increaseAllowance",
      "outputs": [
        {
          "internalType": "bool",
          "name": "_success",
          "type": "bool"
        }
      ],
      "stateMutability": "nonpayable",
      "type": "function"
    },
    {
      "inputs": [
        {
          "internalType": "uint256",
          "name": "_susdAmount",
          "type": "uint256"
        }
      ],
      "name": "mint",
      "outputs": [],
      "stateMutability": "nonpayable",
      "type": "function"
    },
    {
      "inputs": [],
      "name": "monetaryPolicy",
      "outputs": [
        {
          "internalType": "address",
          "name": "",
          "type": "address"
        }
      ],
      "stateMutability": "view",
      "type": "function"
    },
    {
      "inputs": [],
      "name": "name",
      "outputs": [
        {
          "internalType": "string",
          "name": "",
          "type": "string"
        }
      ],
      "stateMutability": "view",
      "type": "function"
    },
    {
      "inputs": [
        {
          "internalType": "address",
          "name": "_who",
          "type": "address"
        }
      ],
      "name": "nonces",
      "outputs": [
        {
          "internalType": "uint256",
          "name": "_addressNonces",
          "type": "uint256"
        }
      ],
      "stateMutability": "view",
      "type": "function"
    },
    {
      "inputs": [],
      "name": "owner",
      "outputs": [
        {
          "internalType": "address",
          "name": "",
          "type": "address"
        }
      ],
      "stateMutability": "view",
      "type": "function"
    },
    {
      "inputs": [],
      "name": "pause",
      "outputs": [],
      "stateMutability": "nonpayable",
      "type": "function"
    },
    {
      "inputs": [],
      "name": "paused",
      "outputs": [
        {
          "internalType": "bool",
          "name": "",
          "type": "bool"
        }
      ],
      "stateMutability": "view",
      "type": "function"
    },
    {
      "inputs": [],
      "name": "pauser",
      "outputs": [
        {
          "internalType": "address",
          "name": "",
          "type": "address"
        }
      ],
      "stateMutability": "view",
      "type": "function"
    },
    {
      "inputs": [
        {
          "internalType": "address",
          "name": "_owner",
          "type": "address"
        },
        {
          "internalType": "address",
          "name": "_spender",
          "type": "address"
        },
        {
          "internalType": "uint256",
          "name": "_value",
          "type": "uint256"
        },
        {
          "internalType": "uint256",
          "name": "_deadline",
          "type": "uint256"
        },
        {
          "internalType": "uint8",
          "name": "_v",
          "type": "uint8"
        },
        {
          "internalType": "bytes32",
          "name": "_r",
          "type": "bytes32"
        },
        {
          "internalType": "bytes32",
          "name": "_s",
          "type": "bytes32"
        }
      ],
      "name": "permit",
      "outputs": [],
      "stateMutability": "nonpayable",
      "type": "function"
    },
    {
      "inputs": [
        {
          "internalType": "address",
          "name": "_to",
          "type": "address"
        }
      ],
      "name": "recoverDust",
      "outputs": [],
      "stateMutability": "nonpayable",
      "type": "function"
    },
    {
      "inputs": [
        {
          "internalType": "address",
          "name": "_vaultController",
          "type": "address"
        }
      ],
      "name": "removeVaultController",
      "outputs": [],
      "stateMutability": "nonpayable",
      "type": "function"
    },
    {
      "inputs": [
        {
          "internalType": "address",
          "name": "_vaultController",
          "type": "address"
        }
      ],
      "name": "removeVaultControllerFromList",
      "outputs": [],
      "stateMutability": "nonpayable",
      "type": "function"
    },
    {
      "inputs": [],
      "name": "renounceOwnership",
      "outputs": [],
      "stateMutability": "nonpayable",
      "type": "function"
    },
    {
      "inputs": [
        {
          "internalType": "bytes32",
          "name": "role",
          "type": "bytes32"
        },
        {
          "internalType": "address",
          "name": "account",
          "type": "address"
        }
      ],
      "name": "renounceRole",
      "outputs": [],
      "stateMutability": "nonpayable",
      "type": "function"
    },
    {
      "inputs": [],
      "name": "reserveAmount",
      "outputs": [
        {
          "internalType": "uint256",
          "name": "",
          "type": "uint256"
        }
      ],
      "stateMutability": "view",
      "type": "function"
    },
    {
      "inputs": [],
      "name": "reserveRatio",
      "outputs": [
        {
          "internalType": "uint192",
          "name": "_e18reserveRatio",
          "type": "uint192"
        }
      ],
      "stateMutability": "view",
      "type": "function"
    },
    {
      "inputs": [
        {
          "internalType": "bytes32",
          "name": "role",
          "type": "bytes32"
        },
        {
          "internalType": "address",
          "name": "account",
          "type": "address"
        }
      ],
      "name": "revokeRole",
      "outputs": [],
      "stateMutability": "nonpayable",
      "type": "function"
    },
    {
      "inputs": [],
      "name": "sUSD",
      "outputs": [
        {
          "internalType": "contract IERC20",
          "name": "",
          "type": "address"
        }
      ],
      "stateMutability": "view",
      "type": "function"
    },
    {
      "inputs": [
        {
          "internalType": "address",
          "name": "_who",
          "type": "address"
        }
      ],
      "name": "scaledBalanceOf",
      "outputs": [
        {
          "internalType": "uint256",
          "name": "_balance",
          "type": "uint256"
        }
      ],
      "stateMutability": "view",
      "type": "function"
    },
    {
      "inputs": [],
      "name": "scaledTotalSupply",
      "outputs": [
        {
          "internalType": "uint256",
          "name": "__totalGons",
          "type": "uint256"
        }
      ],
      "stateMutability": "view",
      "type": "function"
    },
    {
      "inputs": [
        {
          "internalType": "address",
          "name": "_monetaryPolicy",
          "type": "address"
        }
      ],
      "name": "setMonetaryPolicy",
      "outputs": [],
      "stateMutability": "nonpayable",
      "type": "function"
    },
    {
      "inputs": [
        {
          "internalType": "address",
          "name": "_pauser",
          "type": "address"
        }
      ],
      "name": "setPauser",
      "outputs": [],
      "stateMutability": "nonpayable",
      "type": "function"
    },
    {
      "inputs": [
        {
          "internalType": "bytes4",
          "name": "interfaceId",
          "type": "bytes4"
        }
      ],
      "name": "supportsInterface",
      "outputs": [
        {
          "internalType": "bool",
          "name": "",
          "type": "bool"
        }
      ],
      "stateMutability": "view",
      "type": "function"
    },
    {
      "inputs": [],
      "name": "symbol",
      "outputs": [
        {
          "internalType": "string",
          "name": "",
          "type": "string"
        }
      ],
      "stateMutability": "view",
      "type": "function"
    },
    {
      "inputs": [],
      "name": "totalSupply",
      "outputs": [
        {
          "internalType": "uint256",
          "name": "__totalSupply",
          "type": "uint256"
        }
      ],
      "stateMutability": "view",
      "type": "function"
    },
    {
      "inputs": [
        {
          "internalType": "address",
          "name": "_to",
          "type": "address"
        },
        {
          "internalType": "uint256",
          "name": "_value",
          "type": "uint256"
        }
      ],
      "name": "transfer",
      "outputs": [
        {
          "internalType": "bool",
          "name": "_success",
          "type": "bool"
        }
      ],
      "stateMutability": "nonpayable",
      "type": "function"
    },
    {
      "inputs": [
        {
          "internalType": "address",
          "name": "_to",
          "type": "address"
        }
      ],
      "name": "transferAll",
      "outputs": [
        {
          "internalType": "bool",
          "name": "_success",
          "type": "bool"
        }
      ],
      "stateMutability": "nonpayable",
      "type": "function"
    },
    {
      "inputs": [
        {
          "internalType": "address",
          "name": "_from",
          "type": "address"
        },
        {
          "internalType": "address",
          "name": "_to",
          "type": "address"
        }
      ],
      "name": "transferAllFrom",
      "outputs": [
        {
          "internalType": "bool",
          "name": "_success",
          "type": "bool"
        }
      ],
      "stateMutability": "nonpayable",
      "type": "function"
    },
    {
      "inputs": [
        {
          "internalType": "address",
          "name": "_from",
          "type": "address"
        },
        {
          "internalType": "address",
          "name": "_to",
          "type": "address"
        },
        {
          "internalType": "uint256",
          "name": "_value",
          "type": "uint256"
        }
      ],
      "name": "transferFrom",
      "outputs": [
        {
          "internalType": "bool",
          "name": "_success",
          "type": "bool"
        }
      ],
      "stateMutability": "nonpayable",
      "type": "function"
    },
    {
      "inputs": [
        {
          "internalType": "address",
          "name": "newOwner",
          "type": "address"
        }
      ],
      "name": "transferOwnership",
      "outputs": [],
      "stateMutability": "nonpayable",
      "type": "function"
    },
    {
      "inputs": [],
      "name": "unpause",
      "outputs": [],
      "stateMutability": "nonpayable",
      "type": "function"
    },
    {
      "inputs": [
        {
          "internalType": "address",
          "name": "_target",
          "type": "address"
        },
        {
          "internalType": "uint256",
          "name": "_amount",
          "type": "uint256"
        }
      ],
      "name": "vaultControllerBurn",
      "outputs": [],
      "stateMutability": "nonpayable",
      "type": "function"
    },
    {
      "inputs": [
        {
          "internalType": "uint256",
          "name": "_amount",
          "type": "uint256"
        }
      ],
      "name": "vaultControllerDonate",
      "outputs": [],
      "stateMutability": "nonpayable",
      "type": "function"
    },
    {
      "inputs": [
        {
          "internalType": "address",
          "name": "_target",
          "type": "address"
        },
        {
          "internalType": "uint256",
          "name": "_amount",
          "type": "uint256"
        }
      ],
      "name": "vaultControllerMint",
      "outputs": [],
      "stateMutability": "nonpayable",
      "type": "function"
    },
    {
      "inputs": [
        {
          "internalType": "address",
          "name": "_target",
          "type": "address"
        },
        {
          "internalType": "uint256",
          "name": "_susdAmount",
          "type": "uint256"
        }
      ],
      "name": "vaultControllerTransfer",
      "outputs": [],
      "stateMutability": "nonpayable",
      "type": "function"
    },
    {
      "inputs": [
        {
          "internalType": "uint256",
          "name": "_susdAmount",
          "type": "uint256"
        }
      ],
      "name": "withdraw",
      "outputs": [],
      "stateMutability": "nonpayable",
      "type": "function"
    },
    {
      "inputs": [],
      "name": "withdrawAll",
      "outputs": [
        {
          "internalType": "uint256",
          "name": "_susdWithdrawn",
          "type": "uint256"
        }
      ],
      "stateMutability": "nonpayable",
      "type": "function"
    },
    {
      "inputs": [
        {
          "internalType": "address",
          "name": "_target",
          "type": "address"
        }
      ],
      "name": "withdrawAllTo",
      "outputs": [
        {
          "internalType": "uint256",
          "name": "_susdWithdrawn",
          "type": "uint256"
        }
      ],
      "stateMutability": "nonpayable",
      "type": "function"
    },
    {
      "inputs": [
        {
          "internalType": "uint256",
          "name": "_susdAmount",
          "type": "uint256"
        },
        {
          "internalType": "address",
          "name": "_target",
          "type": "address"
        }
      ],
      "name": "withdrawTo",
      "outputs": [],
      "stateMutability": "nonpayable",
      "type": "function"
    }
  ],
  "bytecode": {
    "object": "0x60806040523480156200001157600080fd5b50604051620039dc380380620039dc8339810160408190526200003491620002bc565b604080518082018252600a8152692aa9a220902a37b5b2b760b11b602080830191909152825180840190935260048352635553444160e01b908301526000805460ff19169055906200008633620001bd565b81516200009b90600790602085019062000216565b508051620000b190600890602084019062000216565b50620000c06012600a62000403565b620000cd90600162000411565b620000ed9073af298d050e4395d69670b12b7f4100000000000062000411565b6002556001600160801b03600355620001096012600a62000403565b6200011690600162000411565b60048190556002546000805260066020527f54cdd369e4e8a8515e52ca72ec816c2101831ad1f18bf44102ed171459c9b4f881905562000157919062000433565b60055560045460405190815260009030907fddf252ad1be2c89b69c2b068fc378daa952ba7f163c4a11628f55a4df523b3ef9060200160405180910390a35050600e80546001600160a01b0319166001600160a01b039290921691909117905562000492565b600080546001600160a01b03838116610100818102610100600160a81b0319851617855560405193049190911692909183917f8be0079c531659141344cd1fd0a4f28419497f9722a3daafe3b4186f6b6457e091a35050565b828054620002249062000456565b90600052602060002090601f01602090048101928262000248576000855562000293565b82601f106200026357805160ff191683800117855562000293565b8280016001018555821562000293579182015b828111156200029357825182559160200191906001019062000276565b50620002a1929150620002a5565b5090565b5b80821115620002a15760008155600101620002a6565b600060208284031215620002cf57600080fd5b81516001600160a01b0381168114620002e757600080fd5b9392505050565b634e487b7160e01b600052601160045260246000fd5b600181815b8085111562000345578160001904821115620003295762000329620002ee565b808516156200033757918102915b93841c939080029062000309565b509250929050565b6000826200035e57506001620003fd565b816200036d57506000620003fd565b81600181146200038657600281146200039157620003b1565b6001915050620003fd565b60ff841115620003a557620003a5620002ee565b50506001821b620003fd565b5060208310610133831016604e8410600b8410161715620003d6575081810a620003fd565b620003e2838362000304565b8060001904821115620003f957620003f9620002ee565b0290505b92915050565b6000620002e783836200034d565b60008160001904831182151516156200042e576200042e620002ee565b500290565b6000826200045157634e487b7160e01b600052601260045260246000fd5b500490565b600181811c908216806200046b57607f821691505b6020821081036200048c57634e487b7160e01b600052602260045260246000fd5b50919050565b61353a80620004a26000396000f3fe608060405234801561001057600080fd5b50600436106104725760003560e01c806384d4b41011610250578063b1bf962d11610150578063d547741f116100c8578063e1b11da411610097578063f23c0f401161007c578063f23c0f401461090f578063f2fde38b14610a3e578063fd5eb09d14610a5157600080fd5b8063e1b11da414610a04578063f14faf6f14610a2b57600080fd5b8063d547741f14610986578063d5e0d1b214610999578063da5b9a19146109b8578063dd62ed3e146109cb57600080fd5b8063c6582ab61161011f578063c99d6f0111610104578063c99d6f011461094d578063ca9add8f14610960578063d505accf1461097357600080fd5b8063c6582ab614610927578063c86283c81461093a57600080fd5b8063b1bf962d146108f4578063b6b55f25146108fc578063bbba205d1461090f578063c4996f511461091e57600080fd5b80639fd0506d116101e3578063a3a7e7f3116101b2578063a666e8d811610197578063a666e8d8146108b7578063a9059cbb146108ca578063acb7da70146108dd57600080fd5b8063a3a7e7f314610891578063a457c2d7146108a457600080fd5b80639fd0506d14610850578063a0712d6814610863578063a0c0617514610876578063a217fddf1461088957600080fd5b80638e27d7d71161021f5780638e27d7d7146107e957806391d14854146107fc5780639324cac71461083557806395d89b411461084857600080fd5b806384d4b41014610791578063853828b6146107a45780638b5a6a08146107ac5780638da5cb5b146107bf57600080fd5b806332cb6b0c116103765780634ce82325116102ee57806370aff70f116102bd57806378160376116102a257806378160376146107245780637ecebe00146107605780638456cb591461078957600080fd5b806370aff70f14610709578063715018a61461071c57600080fd5b80634ce82325146106b15780635c975abb146106c4578063704e2b2d146106cf57806370a08231146106f657600080fd5b806339509351116103455780633f4ba83a1161032a5780633f4ba83a1461068d57806342966c68146106955780634b09b72a146106a857600080fd5b806339509351146106715780633eaaf86b1461068457600080fd5b806332cb6b0c1461062d5780633644e5151461063657806336568abe1461063e57806336fed9751461065157600080fd5b80631da24f3e116104095780632d88af4a116103d85780632f2ff15d116103bd5780632f2ff15d146105d957806330adf81f146105ec578063313ce5671461061357600080fd5b80632d88af4a146105b35780632e1a7d4d146105c657600080fd5b80631da24f3e1461054c57806323b872dd14610575578063248a9ca31461058857806329d7eef1146105ab57600080fd5b8063095ea7b311610445578063095ea7b3146104ed5780630c7d5cd814610500578063178a66701461053157806318160ddd1461054457600080fd5b806301ffc9a7146104775780630522658d1461049f57806306fdde03146104b457806308fb064a146104c9575b600080fd5b61048a610485366004613042565b610a5a565b60405190151581526020015b60405180910390f35b6104b26104ad3660046130a0565b610af3565b005b6104bc610b33565b60405161049691906130ca565b6104df6ec097ce7bc90715b34b9f100000000081565b604051908152602001610496565b61048a6104fb3660046130a0565b610bc1565b610508610c2d565b60405177ffffffffffffffffffffffffffffffffffffffffffffffff9091168152602001610496565b6104b261053f3660046130a0565b610c5f565b6004546104df565b6104df61055a36600461313d565b6001600160a01b031660009081526006602052604090205490565b61048a610583366004613158565b610cf1565b6104df610596366004613194565b6000908152600b602052604090206001015490565b6104df610e6b565b6104b26105c136600461313d565b610e81565b6104b26105d4366004613194565b610eeb565b6104b26105e73660046131ad565b610ef8565b6104df7f6e71edae12b1b97f4d1f60370fef10105fa2faae0126114a169c64845d6126c981565b61061b601281565b60405160ff9091168152602001610496565b6104df60035481565b6104df610f22565b6104b261064c3660046131ad565b610ff3565b6104df61065f36600461313d565b60066020526000908152604090205481565b61048a61067f3660046130a0565b61109a565b6104df60045481565b6104b2611120565b6104b26106a3366004613194565b611177565b6104df60105481565b6104b26106bf36600461313d565b61124f565b60005460ff1661048a565b6104df7f995a5d6a7cac103b73a94cfaaf03645dcc7d6197e2cb553c21c01213f18592e981565b6104df61070436600461313d565b6112c4565b6104b26107173660046131ad565b6112eb565b6104b26112f5565b6104bc6040518060400160405280600181526020017f310000000000000000000000000000000000000000000000000000000000000081525081565b6104df61076e36600461313d565b6001600160a01b03166000908152600a602052604090205490565b6104b2611307565b61048a61079f3660046131d9565b61135c565b6104df6114ab565b6104b26107ba36600461313d565b61155a565b60005461010090046001600160a01b03165b6040516001600160a01b039091168152602001610496565b6001546107d1906001600160a01b031681565b61048a61080a3660046131ad565b6000918252600b602090815260408084206001600160a01b0393909316845291905290205460ff1690565b600e546107d1906001600160a01b031681565b6104bc6115ce565b600f546107d1906001600160a01b031681565b6104b2610871366004613194565b6115db565b6104b261088436600461313d565b6116b3565b6104df600081565b61048a61089f36600461313d565b611839565b61048a6108b23660046130a0565b611947565b6104b26108c536600461313d565b6119e9565b61048a6108d83660046130a0565b611a34565b6104df6fffffffffffffffffffffffffffffffff81565b6002546104df565b6104b261090a366004613194565b611b4b565b6104df670de0b6b3a764000081565b6104df60055481565b6104b261093536600461313d565b611b55565b6104b26109483660046131ad565b611bca565b6104b261095b366004613194565b611bd4565b6104df61096e36600461313d565b611c07565b6104b2610981366004613203565b611cb2565b6104b26109943660046131ad565b611f36565b6104df77ffffffffffffffffffffffffffffffffffffffffffffffff81565b6104b26109c63660046130a0565b611f5b565b6104df6109d93660046131d9565b6001600160a01b03918216600090815260096020908152604080832093909416825291909152205490565b6104df7f8b73c3c69bb8fe3d512ecc4cf759cc79239f7b179b0ffacaa9a75d522b39400f81565b6104b2610a39366004613194565b61207b565b6104b2610a4c36600461313d565b61220b565b6104df60025481565b60007fffffffff0000000000000000000000000000000000000000000000000000000082167f7965db0b000000000000000000000000000000000000000000000000000000001480610aed57507f01ffc9a7000000000000000000000000000000000000000000000000000000007fffffffff000000000000000000000000000000000000000000000000000000008316145b92915050565b610b1d7f995a5d6a7cac103b73a94cfaaf03645dcc7d6197e2cb553c21c01213f18592e9336122b2565b610b25612320565b610b2f828261238d565b5050565b60078054610b4090613276565b80601f0160208091040260200160405190810160405280929190818152602001828054610b6c90613276565b8015610bb95780601f10610b8e57610100808354040283529160200191610bb9565b820191906000526020600020905b815481529060010190602001808311610b9c57829003601f168201915b505050505081565b3360008181526009602090815260408083206001600160a01b038716808552925280832085905551919290917f8c5be1e5ebec7d5bd14f71427d1e84f3dd0314c0f7b2291e5b200ac8c7c3b92590610c1c9086815260200190565b60405180910390a350600192915050565b6000610c5a600454670de0b6b3a7640000601054610c4b91906132f2565b610c55919061332f565b61248a565b905090565b610c897f995a5d6a7cac103b73a94cfaaf03645dcc7d6197e2cb553c21c01213f18592e9336122b2565b600554610c9690826132f2565b6001600160a01b0383166000908152600660205260409020541015610ce7576040517f25a19f9d00000000000000000000000000000000000000000000000000000000815260040160405180910390fd5b610b2f828261250d565b6000826001600160a01b0381161580610d1257506001600160a01b03811630145b15610d49576040517f8f58b8e100000000000000000000000000000000000000000000000000000000815260040160405180910390fd5b6001600160a01b0385166000908152600960209081526040808320338452909152902054610d7890849061336a565b6001600160a01b0386166000908152600960209081526040808320338452909152812091909155600554610dac90856132f2565b6001600160a01b038716600090815260066020526040902054909150610dd390829061336a565b6001600160a01b038088166000908152600660205260408082209390935590871681522054610e03908290613381565b6001600160a01b0380871660008181526006602052604090819020939093559151908816907fddf252ad1be2c89b69c2b068fc378daa952ba7f163c4a11628f55a4df523b3ef90610e579088815260200190565b60405180910390a350600195945050505050565b610e7e6002670de0b6b3a764000061332f565b81565b610e89612601565b600f80547fffffffffffffffffffffffff0000000000000000000000000000000000000000166001600160a01b0383169081179091556040517fd11d57c2c7468878b1035df11c670bcd0091aa840bf8aa166365397622237bea90600090a250565b610ef5813361267b565b50565b6000828152600b6020526040902060010154610f1381612932565b610f1d838361293c565b505050565b6000804690507f8b73c3c69bb8fe3d512ecc4cf759cc79239f7b179b0ffacaa9a75d522b39400f6007604051610f589190613399565b604080519182900382208282018252600183527f31000000000000000000000000000000000000000000000000000000000000006020938401528151928301939093528101919091527fc89efdaa54c0f20c7adf612882df0950f5a951637e0307cdcb4c672f298b8bc66060820152608081018290523060a082015260c0016040516020818303038152906040528051906020012091505090565b6001600160a01b0381163314611090576040517f08c379a000000000000000000000000000000000000000000000000000000000815260206004820152602f60248201527f416363657373436f6e74726f6c3a2063616e206f6e6c792072656e6f756e636560448201527f20726f6c657320666f722073656c66000000000000000000000000000000000060648201526084015b60405180910390fd5b610b2f82826129fc565b3360009081526009602090815260408083206001600160a01b03861684529091528120546110c9908390613381565b3360008181526009602090815260408083206001600160a01b038916808552908352928190208590555193845290927f8c5be1e5ebec7d5bd14f71427d1e84f3dd0314c0f7b2291e5b200ac8c7c3b9259101610c1c565b600f546001600160a01b0316336001600160a01b03161461116d576040517f1de9536900000000000000000000000000000000000000000000000000000000815260040160405180910390fd5b611175612a9d565b565b60005b611184600c612b0d565b81101561120257611196600c82612b17565b6001600160a01b031663eb0c49556040518163ffffffff1660e01b81526004016020604051808303816000875af11580156111d5573d6000803e3d6000fd5b505050506040513d601f19601f820116820180604052508101906111f9919061346b565b5060010161117a565b5061120b612601565b80600003611245576040517f97adf10600000000000000000000000000000000000000000000000000000000815260040160405180910390fd5b610ef5338261250d565b611257612601565b611262600c82612b2a565b5061128d7f995a5d6a7cac103b73a94cfaaf03645dcc7d6197e2cb553c21c01213f18592e9826129fc565b6040516001600160a01b038216907fa427665fe140cd3507bd92a431a5a0fd132120b45cb4907679be682dc2ce6dc090600090a250565b6005546001600160a01b0382166000908152600660205260408120549091610aed9161332f565b610b2f8282612b3f565b6112fd612601565b6111756000612d0b565b600f546001600160a01b0316336001600160a01b031614611354576040517f1de9536900000000000000000000000000000000000000000000000000000000815260040160405180910390fd5b611175612d7b565b6000816001600160a01b038116158061137d57506001600160a01b03811630145b156113b4576040517f8f58b8e100000000000000000000000000000000000000000000000000000000815260040160405180910390fd5b6001600160a01b0384166000908152600660205260408120546005549091906113dd908361332f565b6001600160a01b038716600090815260096020908152604080832033845290915290205490915061140f90829061336a565b6001600160a01b038088166000818152600960209081526040808320338452825280832095909555918152600690915282812081905590871681522054611457908390613381565b6001600160a01b0380871660008181526006602052604090819020939093559151908816907fddf252ad1be2c89b69c2b068fc378daa952ba7f163c4a11628f55a4df523b3ef90610e579085815260200190565b600080306370a08231336040517fffffffff0000000000000000000000000000000000000000000000000000000060e084901b1681526001600160a01b039091166004820152602401602060405180830381865afa158015611511573d6000803e3d6000fd5b505050506040513d601f19601f82011682018060405250810190611535919061346b565b90506010548111611546578061154a565b6010545b9150611556823361267b565b5090565b611562612601565b600180547fffffffffffffffffffffffff0000000000000000000000000000000000000000166001600160a01b0383169081179091556040519081527f0e6961f1a1afb87eaf51fd64f22ddc10062e23aa7838eac5d0bdf140bfd389729060200160405180910390a150565b60088054610b4090613276565b60005b6115e8600c612b0d565b811015611666576115fa600c82612b17565b6001600160a01b031663eb0c49556040518163ffffffff1660e01b81526004016020604051808303816000875af1158015611639573d6000803e3d6000fd5b505050506040513d601f19601f8201168201806040525081019061165d919061346b565b506001016115de565b5061166f612601565b806000036116a9576040517f97adf10600000000000000000000000000000000000000000000000000000000815260040160405180910390fd5b610ef5338261238d565b6116bb612601565b601054600e546040517f70a08231000000000000000000000000000000000000000000000000000000008152306004820152600092916001600160a01b0316906370a0823190602401602060405180830381865afa158015611721573d6000803e3d6000fd5b505050506040513d601f19601f82011682018060405250810190611745919061346b565b61174f919061336a565b600e546040517fa9059cbb0000000000000000000000000000000000000000000000000000000081526001600160a01b0385811660048301526024820184905292935091169063a9059cbb906044016020604051808303816000875af11580156117bd573d6000803e3d6000fd5b505050506040513d601f19601f820116820180604052508101906117e19190613484565b5060005461010090046001600160a01b03166001600160a01b03167f642fca929ef22fbfc51bde157f3abf422d5d6809d15a5200235c455550d59aa28260405161182d91815260200190565b60405180910390a25050565b6000816001600160a01b038116158061185a57506001600160a01b03811630145b15611891576040517f8f58b8e100000000000000000000000000000000000000000000000000000000815260040160405180910390fd5b336000908152600660205260408120546005549091906118b1908361332f565b336000908152600660205260408082208290556001600160a01b03881682529020549091506118e1908390613381565b6001600160a01b0386166000818152600660205260409081902092909255905133907fddf252ad1be2c89b69c2b068fc378daa952ba7f163c4a11628f55a4df523b3ef906119329085815260200190565b60405180910390a36001935050505b50919050565b3360009081526009602090815260408083206001600160a01b0386168452909152812054808310156119825761197d838261336a565b611985565b60005b3360008181526009602090815260408083206001600160a01b038a16808552908352928190208590555193845290927f8c5be1e5ebec7d5bd14f71427d1e84f3dd0314c0f7b2291e5b200ac8c7c3b925910160405180910390a35060019392505050565b6119f1612601565b6119fc600c82612b2a565b506040516001600160a01b038216907f0d92cca2b29a1d6729665f37c505673c1815c21bbe634987b51be97651ef50e590600090a250565b6000826001600160a01b0381161580611a5557506001600160a01b03811630145b15611a8c576040517f8f58b8e100000000000000000000000000000000000000000000000000000000815260040160405180910390fd5b600060055484611a9c91906132f2565b33600090815260066020526040902054909150611aba90829061336a565b33600090815260066020526040808220929092556001600160a01b03871681522054611ae7908290613381565b6001600160a01b0386166000818152600660205260409081902092909255905133907fddf252ad1be2c89b69c2b068fc378daa952ba7f163c4a11628f55a4df523b3ef90611b389088815260200190565b60405180910390a3506001949350505050565b610ef58133612b3f565b611b5d612601565b611b68600c82612dd6565b50611b937f995a5d6a7cac103b73a94cfaaf03645dcc7d6197e2cb553c21c01213f18592e98261293c565b6040516001600160a01b038216907f03be5bd03bd43a3a8973fd80cc60937c0c0fe1148528c1011e7f6ee5232d0f3b90600090a250565b610b2f828261267b565b611bfe7f995a5d6a7cac103b73a94cfaaf03645dcc7d6197e2cb553c21c01213f18592e9336122b2565b610ef581612deb565b600080306370a08231336040517fffffffff0000000000000000000000000000000000000000000000000000000060e084901b1681526001600160a01b039091166004820152602401602060405180830381865afa158015611c6d573d6000803e3d6000fd5b505050506040513d601f19601f82011682018060405250810190611c91919061346b565b90506010548111611ca25780611ca6565b6010545b9150611941828461267b565b83421115611cbf57600080fd5b6001600160a01b038781166000818152600a602090815260408083205481517f6e71edae12b1b97f4d1f60370fef10105fa2faae0126114a169c64845d6126c98185015280830195909552948b166060850152608084018a905260a0840185905260c08085018a90528151808603909101815260e09094019052825192019190912090611d4a610f22565b6040517f190100000000000000000000000000000000000000000000000000000000000060208201526022810191909152604281018390526062016040516020818303038152906040528051906020012090507f7fffffffffffffffffffffffffffffff5d576e7357a4501ddfe92f46681b20a08460001c1115611dfa576040517f78ad00a600000000000000000000000000000000000000000000000000000000815260040160405180910390fd5b60408051600081526020810180835283905260ff881691810191909152606081018690526080810185905260019060a0016020604051602081039080840390855afa158015611e4d573d6000803e3d6000fd5b505050602060405103516001600160a01b03168a6001600160a01b031614611e7457600080fd5b6001600160a01b038a16611eb4576040517f78ad00a600000000000000000000000000000000000000000000000000000000815260040160405180910390fd5b611ebf836001613381565b6001600160a01b038b81166000818152600a602090815260408083209590955560098152848220938e16808352938152908490208c905592518b8152919290917f8c5be1e5ebec7d5bd14f71427d1e84f3dd0314c0f7b2291e5b200ac8c7c3b925910160405180910390a350505050505050505050565b6000828152600b6020526040902060010154611f5181612932565b610f1d83836129fc565b611f857f995a5d6a7cac103b73a94cfaaf03645dcc7d6197e2cb553c21c01213f18592e9336122b2565b611f8d612320565b8060106000828254611f9f919061336a565b9091555050600e546040517fa9059cbb0000000000000000000000000000000000000000000000000000000081526001600160a01b038481166004830152602482018490529091169063a9059cbb906044016020604051808303816000875af1158015612010573d6000803e3d6000fd5b505050506040513d601f19601f820116820180604052508101906120349190613484565b50604080516001600160a01b0384168152602081018390527f5586f03d36676dd81738ed81d8211aeca3715d9e4c286c14a92c495a6a2997fb910160405180910390a15050565b60005b612088600c612b0d565b8110156121065761209a600c82612b17565b6001600160a01b031663eb0c49556040518163ffffffff1660e01b81526004016020604051808303816000875af11580156120d9573d6000803e3d6000fd5b505050506040513d601f19601f820116820180604052508101906120fd919061346b565b5060010161207e565b5061210f612320565b80600003612149576040517f97adf10600000000000000000000000000000000000000000000000000000000815260040160405180910390fd5b806010600082825461215b9190613381565b9091555050600e546001600160a01b03166323b872dd336040517fffffffff0000000000000000000000000000000000000000000000000000000060e084901b1681526001600160a01b039091166004820152306024820152604481018490526064016020604051808303816000875af11580156121dd573d6000803e3d6000fd5b505050506040513d601f19601f820116820180604052508101906122019190613484565b50610ef581612deb565b612213612601565b6001600160a01b0381166122a9576040517f08c379a000000000000000000000000000000000000000000000000000000000815260206004820152602660248201527f4f776e61626c653a206e6577206f776e657220697320746865207a65726f206160448201527f64647265737300000000000000000000000000000000000000000000000000006064820152608401611087565b610ef581612d0b565b6000828152600b602090815260408083206001600160a01b038516845290915290205460ff16610b2f576040517f3ca79e3e0000000000000000000000000000000000000000000000000000000081526001600160a01b038216600482015260248101839052604401611087565b60005460ff1615611175576040517f08c379a000000000000000000000000000000000000000000000000000000000815260206004820152601060248201527f5061757361626c653a20706175736564000000000000000000000000000000006044820152606401611087565b60055461239a81836132f2565b6001600160a01b038416600090815260066020526040812080549091906123c2908490613381565b9250508190555081600460008282546123db9190613381565b909155506123eb905081836132f2565b600260008282546123fc9190613381565b90915550506040518281526001600160a01b038416906000907fddf252ad1be2c89b69c2b068fc378daa952ba7f163c4a11628f55a4df523b3ef9060200160405180910390a3604080516001600160a01b0385168152602081018490527f0f6798a560793a54c3bcfe86a93cde1e73087d944c0ea20544137d412139688591015b60405180910390a1505050565b600077ffffffffffffffffffffffffffffffffffffffffffffffff8210611556576040517f08c379a000000000000000000000000000000000000000000000000000000000815260206004820152600860248201527f6f766572666c6f770000000000000000000000000000000000000000000000006044820152606401611087565b60055461251a81836132f2565b6001600160a01b0384166000908152600660205260408120805490919061254290849061336a565b92505081905550816004600082825461255b919061336a565b9091555061256b905081836132f2565b6002600082825461257c919061336a565b90915550506040518281526000906001600160a01b038516907fddf252ad1be2c89b69c2b068fc378daa952ba7f163c4a11628f55a4df523b3ef9060200160405180910390a3604080516001600160a01b0385168152602081018490527fcc16f5dbb4873280815c1ee09dbd06736cffcc184412cf7a71a0fdb75d397ca5910161247d565b6000546001600160a01b03610100909104163314611175576040517f08c379a000000000000000000000000000000000000000000000000000000000815260206004820181905260248201527f4f776e61626c653a2063616c6c6572206973206e6f7420746865206f776e65726044820152606401611087565b60005b612688600c612b0d565b8110156127065761269a600c82612b17565b6001600160a01b031663eb0c49556040518163ffffffff1660e01b81526004016020604051808303816000875af11580156126d9573d6000803e3d6000fd5b505050506040513d601f19601f820116820180604052508101906126fd919061346b565b5060010161267e565b5061270f612320565b60105460000361274b576040517fdbcec22a00000000000000000000000000000000000000000000000000000000815260040160405180910390fd5b81600003612785576040517f97adf10600000000000000000000000000000000000000000000000000000000815260040160405180910390fd5b306370a08231336040517fffffffff0000000000000000000000000000000000000000000000000000000060e084901b1681526001600160a01b039091166004820152602401602060405180830381865afa1580156127e8573d6000803e3d6000fd5b505050506040513d601f19601f8201168201806040525081019061280c919061346b565b821115612845576040517fa8dc2e7c00000000000000000000000000000000000000000000000000000000815260040160405180910390fd5b8160106000828254612857919061336a565b9091555050600e546040517fa9059cbb0000000000000000000000000000000000000000000000000000000081526001600160a01b038381166004830152602482018590529091169063a9059cbb906044016020604051808303816000875af11580156128c8573d6000803e3d6000fd5b505050506040513d601f19601f820116820180604052508101906128ec9190613484565b506128f7338361250d565b806001600160a01b03167f884edad9ce6fa2440d8a54cc123490eb96d2768479d49ff9c7366125a94243648360405161182d91815260200190565b610ef581336122b2565b6000828152600b602090815260408083206001600160a01b038516845290915290205460ff16610b2f576000828152600b602090815260408083206001600160a01b0385168452909152902080547fffffffffffffffffffffffffffffffffffffffffffffffffffffffffffffff001660011790556129b83390565b6001600160a01b0316816001600160a01b0316837f2f8788117e7eff1d82e926ec794901d17c78024a50270940304540a733656f0d60405160405180910390a45050565b6000828152600b602090815260408083206001600160a01b038516845290915290205460ff1615610b2f576000828152600b602090815260408083206001600160a01b038516808552925280832080547fffffffffffffffffffffffffffffffffffffffffffffffffffffffffffffff0016905551339285917ff6391f5c32d9c69d2a47ea670b442974b53935d1edc7fd64eb21e047a839171b9190a45050565b612aa5612e6a565b600080547fffffffffffffffffffffffffffffffffffffffffffffffffffffffffffffff001690557f5db9ee0a495bf2e6ff9c91a7834c1ba4fdd244a5e8aa4e537bd38aeae4b073aa335b6040516001600160a01b03909116815260200160405180910390a1565b6000610aed825490565b6000612b238383612ed6565b9392505050565b6000612b23836001600160a01b038416612f00565b60005b612b4c600c612b0d565b811015612bca57612b5e600c82612b17565b6001600160a01b031663eb0c49556040518163ffffffff1660e01b81526004016020604051808303816000875af1158015612b9d573d6000803e3d6000fd5b505050506040513d601f19601f82011682018060405250810190612bc1919061346b565b50600101612b42565b50612bd3612320565b81600003612c0d576040517f97adf10600000000000000000000000000000000000000000000000000000000815260040160405180910390fd5b600e546001600160a01b03166323b872dd336040517fffffffff0000000000000000000000000000000000000000000000000000000060e084901b1681526001600160a01b039091166004820152306024820152604481018590526064016020604051808303816000875af1158015612c8a573d6000803e3d6000fd5b505050506040513d601f19601f82011682018060405250810190612cae9190613484565b50612cb9818361238d565b8160106000828254612ccb9190613381565b90915550506040518281526001600160a01b038216907fe1fffcc4923d04b559f4d29a8bfc6cda04eb5b0d3c460751c2402c5c5cc9109c9060200161182d565b600080546001600160a01b038381166101008181027fffffffffffffffffffffff0000000000000000000000000000000000000000ff851617855560405193049190911692909183917f8be0079c531659141344cd1fd0a4f28419497f9722a3daafe3b4186f6b6457e091a35050565b612d83612320565b600080547fffffffffffffffffffffffffffffffffffffffffffffffffffffffffffffff001660011790557f62e78cea01bee320cd4e420270b5ea74000d11b0c9f74754ebdbfc544b05a258612af03390565b6000612b23836001600160a01b038416612ff3565b8060046000828254612dfd9190613381565b90915550506003546004541115612e15576003546004555b600454600254612e25919061332f565b60055560045460408051838152602081019290925233917f106aac375bbcf013d1e52338bbf9e740009a1a3a6869f8daa1b72aa1620f5fec910160405180910390a250565b60005460ff16611175576040517f08c379a000000000000000000000000000000000000000000000000000000000815260206004820152601460248201527f5061757361626c653a206e6f74207061757365640000000000000000000000006044820152606401611087565b6000826000018281548110612eed57612eed6134a6565b9060005260206000200154905092915050565b60008181526001830160205260408120548015612fe9576000612f2460018361336a565b8554909150600090612f389060019061336a565b9050818114612f9d576000866000018281548110612f5857612f586134a6565b9060005260206000200154905080876000018481548110612f7b57612f7b6134a6565b6000918252602080832090910192909255918252600188019052604090208390555b8554869080612fae57612fae6134d5565b600190038181906000526020600020016000905590558560010160008681526020019081526020016000206000905560019350505050610aed565b6000915050610aed565b600081815260018301602052604081205461303a57508154600181810184556000848152602080822090930184905584548482528286019093526040902091909155610aed565b506000610aed565b60006020828403121561305457600080fd5b81357fffffffff0000000000000000000000000000000000000000000000000000000081168114612b2357600080fd5b80356001600160a01b038116811461309b57600080fd5b919050565b600080604083850312156130b357600080fd5b6130bc83613084565b946020939093013593505050565b600060208083528351808285015260005b818110156130f7578581018301518582016040015282016130db565b81811115613109576000604083870101525b50601f017fffffffffffffffffffffffffffffffffffffffffffffffffffffffffffffffe016929092016040019392505050565b60006020828403121561314f57600080fd5b612b2382613084565b60008060006060848603121561316d57600080fd5b61317684613084565b925061318460208501613084565b9150604084013590509250925092565b6000602082840312156131a657600080fd5b5035919050565b600080604083850312156131c057600080fd5b823591506131d060208401613084565b90509250929050565b600080604083850312156131ec57600080fd5b6131f583613084565b91506131d060208401613084565b600080600080600080600060e0888a03121561321e57600080fd5b61322788613084565b965061323560208901613084565b95506040880135945060608801359350608088013560ff8116811461325957600080fd5b9699959850939692959460a0840135945060c09093013592915050565b600181811c9082168061328a57607f821691505b602082108103611941577f4e487b7100000000000000000000000000000000000000000000000000000000600052602260045260246000fd5b7f4e487b7100000000000000000000000000000000000000000000000000000000600052601160045260246000fd5b6000817fffffffffffffffffffffffffffffffffffffffffffffffffffffffffffffffff048311821515161561332a5761332a6132c3565b500290565b600082613365577f4e487b7100000000000000000000000000000000000000000000000000000000600052601260045260246000fd5b500490565b60008282101561337c5761337c6132c3565b500390565b60008219821115613394576133946132c3565b500190565b600080835481600182811c9150808316806133b557607f831692505b602080841082036133ed577f4e487b710000000000000000000000000000000000000000000000000000000086526022600452602486fd5b81801561340157600181146134305761345d565b7fffffffffffffffffffffffffffffffffffffffffffffffffffffffffffffff0086168952848901965061345d565b60008a81526020902060005b868110156134555781548b82015290850190830161343c565b505084890196505b509498975050505050505050565b60006020828403121561347d57600080fd5b5051919050565b60006020828403121561349657600080fd5b81518015158114612b2357600080fd5b7f4e487b7100000000000000000000000000000000000000000000000000000000600052603260045260246000fd5b7f4e487b7100000000000000000000000000000000000000000000000000000000600052603160045260246000fdfea26469706673582212208a4453eadad8ccac59687d1d9162102a179951b44688eaa07381e6cbc7ce619a64736f6c634300080e0033",
    "linkReferences": {}
  },
  "methodIdentifiers": {
    "DEFAULT_ADMIN_ROLE()": "a217fddf",
    "DOMAIN_SEPARATOR()": "3644e515",
    "DOUBLE_SCALE()": "08fb064a",
    "EIP712_DOMAIN()": "e1b11da4",
    "EIP712_REVISION()": "78160376",
    "EXP_SCALE()": "bbba205d",
    "HALF_EXP_SCALE()": "29d7eef1",
    "MANTISSA_ONE()": "f23c0f40",
    "MAX_SUPPLY()": "32cb6b0c",
    "PERMIT_TYPEHASH()": "30adf81f",
    "UINT128_MAX()": "acb7da70",
    "UINT192_MAX()": "d5e0d1b2",
    "VAULT_CONTROLLER_ROLE()": "704e2b2d",
    "_gonBalances(address)": "36fed975",
    "_gonsPerFragment()": "c4996f51",
    "_totalGons()": "fd5eb09d",
    "_totalSupply()": "3eaaf86b",
    "addVaultController(address)": "c6582ab6",
    "allowance(address,address)": "dd62ed3e",
    "approve(address,uint256)": "095ea7b3",
    "balanceOf(address)": "70a08231",
    "burn(uint256)": "42966c68",
    "decimals()": "313ce567",
    "decreaseAllowance(address,uint256)": "a457c2d7",
    "deposit(uint256)": "b6b55f25",
    "depositTo(uint256,address)": "70aff70f",
    "donate(uint256)": "f14faf6f",
    "getRoleAdmin(bytes32)": "248a9ca3",
    "grantRole(bytes32,address)": "2f2ff15d",
    "hasRole(bytes32,address)": "91d14854",
    "increaseAllowance(address,uint256)": "39509351",
    "mint(uint256)": "a0712d68",
    "monetaryPolicy()": "8e27d7d7",
    "name()": "06fdde03",
    "nonces(address)": "7ecebe00",
    "owner()": "8da5cb5b",
    "pause()": "8456cb59",
    "paused()": "5c975abb",
    "pauser()": "9fd0506d",
    "permit(address,address,uint256,uint256,uint8,bytes32,bytes32)": "d505accf",
    "recoverDust(address)": "a0c06175",
    "removeVaultController(address)": "4ce82325",
    "removeVaultControllerFromList(address)": "a666e8d8",
    "renounceOwnership()": "715018a6",
    "renounceRole(bytes32,address)": "36568abe",
    "reserveAmount()": "4b09b72a",
    "reserveRatio()": "0c7d5cd8",
    "revokeRole(bytes32,address)": "d547741f",
    "sUSD()": "9324cac7",
    "scaledBalanceOf(address)": "1da24f3e",
    "scaledTotalSupply()": "b1bf962d",
    "setMonetaryPolicy(address)": "8b5a6a08",
    "setPauser(address)": "2d88af4a",
    "supportsInterface(bytes4)": "01ffc9a7",
    "symbol()": "95d89b41",
    "totalSupply()": "18160ddd",
    "transfer(address,uint256)": "a9059cbb",
    "transferAll(address)": "a3a7e7f3",
    "transferAllFrom(address,address)": "84d4b410",
    "transferFrom(address,address,uint256)": "23b872dd",
    "transferOwnership(address)": "f2fde38b",
    "unpause()": "3f4ba83a",
    "vaultControllerBurn(address,uint256)": "178a6670",
    "vaultControllerDonate(uint256)": "c99d6f01",
    "vaultControllerMint(address,uint256)": "0522658d",
    "vaultControllerTransfer(address,uint256)": "da5b9a19",
    "withdraw(uint256)": "2e1a7d4d",
    "withdrawAll()": "853828b6",
    "withdrawAllTo(address)": "ca9add8f",
    "withdrawTo(uint256,address)": "c86283c8"
  },
  "id": 62
}