{
  "abi": [
    {
      "inputs": [],
      "name": "AAVE_WETH_POOL_ADDRESS",
      "outputs": [
        {
          "internalType": "address",
          "name": "",
          "type": "address"
        }
      ],
      "stateMutability": "view",
      "type": "function"
    },
    {
      "inputs": [],
      "name": "CBETH_ETH_POOL_ADDRESS",
      "outputs": [
        {
          "internalType": "address",
          "name": "",
          "type": "address"
        }
      ],
      "stateMutability": "view",
      "type": "function"
    },
    {
      "inputs": [],
      "name": "DAI_USDC_POOL_ADDRESS",
      "outputs": [
        {
          "internalType": "address",
          "name": "",
          "type": "address"
        }
      ],
      "stateMutability": "view",
      "type": "function"
    },
    {
      "inputs": [],
      "name": "DYDX_WETH_POOL_ADDRESS",
      "outputs": [
        {
          "internalType": "address",
          "name": "",
          "type": "address"
        }
      ],
      "stateMutability": "view",
      "type": "function"
    },
    {
      "inputs": [],
      "name": "FRAX_USDC_POOL_ADDRESS",
      "outputs": [
        {
          "internalType": "address",
          "name": "",
          "type": "address"
        }
      ],
      "stateMutability": "view",
      "type": "function"
    },
    {
      "inputs": [],
      "name": "SNX_ETH_POOL_ADDRESS",
      "outputs": [
        {
          "internalType": "address",
          "name": "",
          "type": "address"
        }
      ],
      "stateMutability": "view",
      "type": "function"
    },
    {
      "inputs": [],
      "name": "SUSD_FRAX_POOL_ADDRESS",
      "outputs": [
        {
          "internalType": "address",
          "name": "",
          "type": "address"
        }
      ],
      "stateMutability": "view",
      "type": "function"
    },
    {
      "inputs": [],
      "name": "USDC_UNI_POOL_ADDRESS",
      "outputs": [
        {
          "internalType": "address",
          "name": "",
          "type": "address"
        }
      ],
      "stateMutability": "view",
      "type": "function"
    },
    {
      "inputs": [],
      "name": "USDC_USDT_POOL_ADDRESS",
      "outputs": [
        {
          "internalType": "address",
          "name": "",
          "type": "address"
        }
      ],
      "stateMutability": "view",
      "type": "function"
    },
    {
      "inputs": [],
      "name": "USDC_WBTC_POOL_ADDRESS",
      "outputs": [
        {
          "internalType": "address",
          "name": "",
          "type": "address"
        }
      ],
      "stateMutability": "view",
      "type": "function"
    },
    {
      "inputs": [],
      "name": "USDC_WETH_POOL_ADDRESS",
      "outputs": [
        {
          "internalType": "address",
          "name": "",
          "type": "address"
        }
      ],
      "stateMutability": "view",
      "type": "function"
    },
    {
      "inputs": [],
      "name": "USDT_USDC_POOL_ADDRESS",
      "outputs": [
        {
          "internalType": "address",
          "name": "",
          "type": "address"
        }
      ],
      "stateMutability": "view",
      "type": "function"
    },
    {
      "inputs": [],
      "name": "WBTC_ETH_POOL_ADDRESS",
      "outputs": [
        {
          "internalType": "address",
          "name": "",
          "type": "address"
        }
      ],
      "stateMutability": "view",
      "type": "function"
    },
    {
      "inputs": [],
      "name": "WSTETH_WETH_POOL_ADDRESS",
      "outputs": [
        {
          "internalType": "address",
          "name": "",
          "type": "address"
        }
      ],
      "stateMutability": "view",
      "type": "function"
    }
  ],
  "bytecode": {
    "object": "0x608060405234801561001057600080fd5b506102ad806100206000396000f3fe608060405234801561001057600080fd5b50600436106100ea5760003560e01c80636a0b3bc51161008c578063ba4a1b5011610066578063ba4a1b5014610226578063c1c6d84114610241578063dabad4b414610226578063eaf9a7b51461025c57600080fd5b80636a0b3bc5146101d5578063a89d948b146101f0578063b2118a131461020b57600080fd5b806331ae6ec5116100c857806331ae6ec5146101695780634423aa3b14610184578063545c12911461019f57806364e6efb4146101ba57600080fd5b806321b3fa24146100ef5780632b4e2b63146101335780632d76d63c1461014e575b600080fd5b61010a735777d92f208679db4b9778590fa3cab3ac9e216881565b60405173ffffffffffffffffffffffffffffffffffffffff909116815260200160405180910390f35b61010a73c63b0708e2f7e69cb8a1df0e1389a98c35a76d5281565b61010a73ede8dd046586d22625ae7ff2708f879ef7bdb8cf81565b61010a73d0fc8ba7e267f2bc56044a7715a489d851dc6d7881565b61010a738ad599c3a0ff1de082011efddc58f1908eb6e6d881565b61010a73e0cfa17aa9b8f930fd936633c0252d5cb745c2c381565b61010a73cbcdf9626bc03e24f779434178a73a0b4bad62ed81565b61010a7334ff465ee92516e9855eb60f520df0384f410b4581565b61010a73840deeef2f115cf50da625f7368c24af6fe7441081565b61010a73d340b57aacdd10f96fc1cf10e15921936f41e29c81565b61010a733416cf6c708da44db2624d63ea0aaef7113527c681565b61010a735ab53ee1d50eef2c1dd3d5402789cd27bb52c1bb81565b61010a7399ac8ca7087fa4a2a1fb6357269965a2014abc358156fea2646970667358221220e1584eb2c8773b8599cd2f2755da86d1e886909ec1dd5d1f7d0f715f925c18b564736f6c634300080e0033",
    "linkReferences": {}
  },
  "methodIdentifiers": {
    "AAVE_WETH_POOL_ADDRESS()": "c1c6d841",
    "CBETH_ETH_POOL_ADDRESS()": "a89d948b",
    "DAI_USDC_POOL_ADDRESS()": "21b3fa24",
    "DYDX_WETH_POOL_ADDRESS()": "545c1291",
    "FRAX_USDC_POOL_ADDRESS()": "2b4e2b63",
    "SNX_ETH_POOL_ADDRESS()": "2d76d63c",
    "SUSD_FRAX_POOL_ADDRESS()": "6a0b3bc5",
    "USDC_UNI_POOL_ADDRESS()": "31ae6ec5",
    "USDC_USDT_POOL_ADDRESS()": "dabad4b4",
    "USDC_WBTC_POOL_ADDRESS()": "eaf9a7b5",
    "USDC_WETH_POOL_ADDRESS()": "4423aa3b",
    "USDT_USDC_POOL_ADDRESS()": "ba4a1b50",
    "WBTC_ETH_POOL_ADDRESS()": "64e6efb4",
    "WSTETH_WETH_POOL_ADDRESS()": "b2118a13"
  },
  "id": 125
}