{
  "abi": [
    {
      "inputs": [
        {
          "internalType": "address",
          "name": "_triCryptoPool",
          "type": "address"
        },
        {
          "internalType": "contract IOracleRelay",
          "name": "_ethOracleRelay",
          "type": "address"
        },
        {
          "internalType": "contract IOracleRelay",
          "name": "_usdtOracleRelay",
          "type": "address"
        },
        {
          "internalType": "contract IOracleRelay",
          "name": "_wbtcOracleRelay",
          "type": "address"
        }
      ],
      "stateMutability": "nonpayable",
      "type": "constructor"
    },
    {
      "inputs": [],
      "name": "OracleRelay_DifferentUnderlyings",
      "type": "error"
    },
    {
      "inputs": [],
      "name": "TriCryptoOracle_ZeroAmount",
      "type": "error"
    },
    {
      "inputs": [],
      "name": "CURVE_ADDRESSES_PROVIDER",
      "outputs": [
        {
          "internalType": "contract ICurveAddressesProvider",
          "name": "",
          "type": "address"
        }
      ],
      "stateMutability": "view",
      "type": "function"
    },
    {
      "inputs": [],
      "name": "ETH_ORACLE_RELAY",
      "outputs": [
        {
          "internalType": "contract IOracleRelay",
          "name": "",
          "type": "address"
        }
      ],
      "stateMutability": "view",
      "type": "function"
    },
    {
      "inputs": [],
      "name": "TRI_CRYPTO",
      "outputs": [
        {
          "internalType": "contract IV2Pool",
          "name": "",
          "type": "address"
        }
      ],
      "stateMutability": "view",
      "type": "function"
    },
    {
      "inputs": [],
      "name": "USDT_ORACLE_RELAY",
      "outputs": [
        {
          "internalType": "contract IOracleRelay",
          "name": "",
          "type": "address"
        }
      ],
      "stateMutability": "view",
      "type": "function"
    },
    {
      "inputs": [],
      "name": "WBTC_ORACLE_RELAY",
      "outputs": [
        {
          "internalType": "contract IOracleRelay",
          "name": "",
          "type": "address"
        }
      ],
      "stateMutability": "view",
      "type": "function"
    },
    {
      "inputs": [],
      "name": "currentValue",
      "outputs": [
        {
          "internalType": "uint256",
          "name": "_currentValue",
          "type": "uint256"
        }
      ],
      "stateMutability": "nonpayable",
      "type": "function"
    },
    {
      "inputs": [],
      "name": "oracleType",
      "outputs": [
        {
          "internalType": "enum IOracleRelay.OracleType",
          "name": "",
          "type": "uint8"
        }
      ],
      "stateMutability": "view",
      "type": "function"
    },
    {
      "inputs": [],
      "name": "peekValue",
      "outputs": [
        {
          "internalType": "uint256",
          "name": "_value",
          "type": "uint256"
        }
      ],
      "stateMutability": "view",
      "type": "function"
    },
    {
      "inputs": [],
      "name": "underlying",
      "outputs": [
        {
          "internalType": "address",
          "name": "",
          "type": "address"
        }
      ],
      "stateMutability": "view",
      "type": "function"
    },
    {
      "inputs": [],
      "name": "wETH_ADDRESS",
      "outputs": [
        {
          "internalType": "address",
          "name": "",
          "type": "address"
        }
      ],
      "stateMutability": "view",
      "type": "function"
    }
  ],
  "bytecode": {
    "object": "0x61010060405234801561001157600080fd5b5060405161093a38038061093a83398101604081905261003091610198565b6000805460ff191690556001600160a01b0384811660805281811660a05283811660c052821660e05261008d61006585610096565b600080546001600160a01b0390921661010002610100600160a81b0319909216919091179055565b50505050610214565b6000806f22d53366457f9d5e68ec105046fc43836001600160a01b031663a262904b6040518163ffffffff1660e01b8152600401602060405180830381865afa1580156100e7573d6000803e3d6000fd5b505050506040513d601f19601f8201168201806040525081019061010b91906101f7565b604051633795104960e01b81526001600160a01b03858116600483015291925090821690633795104990602401602060405180830381865afa158015610155573d6000803e3d6000fd5b505050506040513d601f19601f8201168201806040525081019061017991906101f7565b9392505050565b6001600160a01b038116811461019557600080fd5b50565b600080600080608085870312156101ae57600080fd5b84516101b981610180565b60208601519094506101ca81610180565b60408601519093506101db81610180565b60608601519092506101ec81610180565b939692955090935050565b60006020828403121561020957600080fd5b815161017981610180565b60805160a05160c05160e0516106d1610269600039600081816101e301526103ee01526000818161018d015261035b0152600081816101b401526102c801526000818161012b015261023501526106d16000f3fe608060405234801561001057600080fd5b50600436106100be5760003560e01c80637107b8341161007657806397eacf091161005b57806397eacf09146101d6578063c4176d6f146101de578063f523bbc71461020557600080fd5b80637107b8341461018857806387f24472146101af57600080fd5b80636812fa99116100a75780636812fa9914610126578063698996f81461014d5780636f307dc31461016357600080fd5b80630d623e10146100c357806315e303e4146100e6575b600080fd5b6000546100d09060ff1681565b6040516100dd91906105a2565b60405180910390f35b61010173c02aaa39b223fe8d0a0e5c4f27ead9083c756cc281565b60405173ffffffffffffffffffffffffffffffffffffffff90911681526020016100dd565b6101017f000000000000000000000000000000000000000000000000000000000000000081565b61015561021c565b6040519081526020016100dd565b60005461010190610100900473ffffffffffffffffffffffffffffffffffffffff1681565b6101017f000000000000000000000000000000000000000000000000000000000000000081565b6101017f000000000000000000000000000000000000000000000000000000000000000081565b61015561022b565b6101017f000000000000000000000000000000000000000000000000000000000000000081565b6101016f22d53366457f9d5e68ec105046fc438381565b600061022661022b565b905090565b60006102266000807f000000000000000000000000000000000000000000000000000000000000000073ffffffffffffffffffffffffffffffffffffffff1663bb7b8b806040518163ffffffff1660e01b8152600401602060405180830381865afa15801561029e573d6000803e3d6000fd5b505050506040513d601f19601f820116820180604052508101906102c291906105e3565b905060007f000000000000000000000000000000000000000000000000000000000000000073ffffffffffffffffffffffffffffffffffffffff166397eacf096040518163ffffffff1660e01b8152600401602060405180830381865afa158015610331573d6000803e3d6000fd5b505050506040513d601f19601f8201168201806040525081019061035591906105e3565b905060007f000000000000000000000000000000000000000000000000000000000000000073ffffffffffffffffffffffffffffffffffffffff166397eacf096040518163ffffffff1660e01b8152600401602060405180830381865afa1580156103c4573d6000803e3d6000fd5b505050506040513d601f19601f820116820180604052508101906103e891906105e3565b905060007f000000000000000000000000000000000000000000000000000000000000000073ffffffffffffffffffffffffffffffffffffffff166397eacf096040518163ffffffff1660e01b8152600401602060405180830381865afa158015610457573d6000803e3d6000fd5b505050506040513d601f19601f8201168201806040525081019061047b91906105e3565b905060008161048a84866105fc565b61049491906105fc565b9050670de0b6b3a764000060037f7f624b00000000000000000000000000000000000000000000000000000000006fffffffffffffffffffffffffffffffff841160071b84811c67ffffffffffffffff1060061b1784811c63ffffffff1060051b1784811c61ffff1060041b1784811c60ff908110841b9091178381069290921a85831c600f1092849004929092011b048080028404810101819004808002840481010181900480800284048101018190048080028404810101819004808002840481010181900480800284048101018190048080028404810101048080028304811190036105848760036105fc565b61058e91906105fc565b6105989190610660565b9550505050505090565b60208101600383106105dd577f4e487b7100000000000000000000000000000000000000000000000000000000600052602160045260246000fd5b91905290565b6000602082840312156105f557600080fd5b5051919050565b6000817fffffffffffffffffffffffffffffffffffffffffffffffffffffffffffffffff048311821515161561065b577f4e487b7100000000000000000000000000000000000000000000000000000000600052601160045260246000fd5b500290565b600082610696577f4e487b7100000000000000000000000000000000000000000000000000000000600052601260045260246000fd5b50049056fea264697066735822122018cf190b36bc7bfbf9e841c2cb58b3b403945b1432c48f2bba83d0aa83913a4064736f6c634300080e0033",
    "linkReferences": {}
  },
  "methodIdentifiers": {
    "CURVE_ADDRESSES_PROVIDER()": "f523bbc7",
    "ETH_ORACLE_RELAY()": "7107b834",
    "TRI_CRYPTO()": "6812fa99",
    "USDT_ORACLE_RELAY()": "c4176d6f",
    "WBTC_ORACLE_RELAY()": "87f24472",
    "currentValue()": "698996f8",
    "oracleType()": "0d623e10",
    "peekValue()": "97eacf09",
    "underlying()": "6f307dc3",
    "wETH_ADDRESS()": "15e303e4"
  },
  "id": 80
}