{
  "abi": [
    {
      "inputs": [
        {
          "internalType": "uint32",
          "name": "_lookback",
          "type": "uint32"
        },
        {
          "internalType": "address",
          "name": "_poolAddress",
          "type": "address"
        },
        {
          "internalType": "bool",
          "name": "_quoteTokenIsToken0",
          "type": "bool"
        }
      ],
      "stateMutability": "nonpayable",
      "type": "constructor"
    },
    {
      "inputs": [],
      "name": "OracleRelay_DifferentUnderlyings",
      "type": "error"
    },
    {
      "inputs": [],
      "name": "UniswapV3OracleRelay_TickTimeDiffTooLarge",
      "type": "error"
    },
    {
      "inputs": [],
      "name": "BASE_TOKEN",
      "outputs": [
        {
          "internalType": "address",
          "name": "",
          "type": "address"
        }
      ],
      "stateMutability": "view",
      "type": "function"
    },
    {
      "inputs": [],
      "name": "BASE_TOKEN_DECIMALS",
      "outputs": [
        {
          "internalType": "uint8",
          "name": "",
          "type": "uint8"
        }
      ],
      "stateMutability": "view",
      "type": "function"
    },
    {
      "inputs": [],
      "name": "LOOKBACK",
      "outputs": [
        {
          "internalType": "uint32",
          "name": "",
          "type": "uint32"
        }
      ],
      "stateMutability": "view",
      "type": "function"
    },
    {
      "inputs": [],
      "name": "POOL",
      "outputs": [
        {
          "internalType": "contract IUniswapV3Pool",
          "name": "",
          "type": "address"
        }
      ],
      "stateMutability": "view",
      "type": "function"
    },
    {
      "inputs": [],
      "name": "QUOTE_TOKEN",
      "outputs": [
        {
          "internalType": "address",
          "name": "",
          "type": "address"
        }
      ],
      "stateMutability": "view",
      "type": "function"
    },
    {
      "inputs": [],
      "name": "QUOTE_TOKEN_DECIMALS",
      "outputs": [
        {
          "internalType": "uint8",
          "name": "",
          "type": "uint8"
        }
      ],
      "stateMutability": "view",
      "type": "function"
    },
    {
      "inputs": [],
      "name": "QUOTE_TOKEN_IS_TOKEN0",
      "outputs": [
        {
          "internalType": "bool",
          "name": "",
          "type": "bool"
        }
      ],
      "stateMutability": "view",
      "type": "function"
    },
    {
      "inputs": [],
      "name": "currentValue",
      "outputs": [
        {
          "internalType": "uint256",
          "name": "_currentValue",
          "type": "uint256"
        }
      ],
      "stateMutability": "nonpayable",
      "type": "function"
    },
    {
      "inputs": [],
      "name": "oracleType",
      "outputs": [
        {
          "internalType": "enum IOracleRelay.OracleType",
          "name": "",
          "type": "uint8"
        }
      ],
      "stateMutability": "view",
      "type": "function"
    },
    {
      "inputs": [],
      "name": "peekValue",
      "outputs": [
        {
          "internalType": "uint256",
          "name": "_price",
          "type": "uint256"
        }
      ],
      "stateMutability": "view",
      "type": "function"
    },
    {
      "inputs": [],
      "name": "underlying",
      "outputs": [
        {
          "internalType": "address",
          "name": "",
          "type": "address"
        }
      ],
      "stateMutability": "view",
      "type": "function"
    },
    {
      "inputs": [],
      "name": "wETH_ADDRESS",
      "outputs": [
        {
          "internalType": "address",
          "name": "",
          "type": "address"
        }
      ],
      "stateMutability": "view",
      "type": "function"
    }
  ],
  "bytecode": {
    "object": "0x6101606040523480156200001257600080fd5b5060405162001a8e38038062001a8e833981016040819052620000359162000285565b6000805460ff1916600117815563ffffffff841660c0528115156080526001600160a01b03831660a081905260408051630dfe168160e01b81529051630dfe1681916004808201926020929091908290030181865afa1580156200009d573d6000803e3d6000fd5b505050506040513d601f19601f82011682018060405250810190620000c39190620002e1565b9050600060a0516001600160a01b031663d21220a76040518163ffffffff1660e01b8152600401602060405180830381865afa15801562000108573d6000803e3d6000fd5b505050506040513d601f19601f820116820180604052508101906200012e9190620002e1565b90506080516200014057818162000143565b80825b6001600160a01b0390811661014052166101208190526040805163313ce56760e01b8152905163313ce567916004808201926020929091908290030181865afa15801562000195573d6000803e3d6000fd5b505050506040513d601f19601f82011682018060405250810190620001bb919062000306565b60ff1660e08160ff1681525050610140516001600160a01b031663313ce5676040518163ffffffff1660e01b8152600401602060405180830381865afa1580156200020a573d6000803e3d6000fd5b505050506040513d601f19601f8201168201806040525081019062000230919062000306565b60ff166101009081526101205160008054610100600160a81b0319166001600160a01b0390921690920217905550505050506200032b565b80516001600160a01b03811681146200028057600080fd5b919050565b6000806000606084860312156200029b57600080fd5b835163ffffffff81168114620002b057600080fd5b9250620002c06020850162000268565b915060408401518015158114620002d657600080fd5b809150509250925092565b600060208284031215620002f457600080fd5b620002ff8262000268565b9392505050565b6000602082840312156200031957600080fd5b815160ff81168114620002ff57600080fd5b60805160a05160c05160e0516101005161012051610140516116df620003af6000396000818161026101526103be015260008181610175015261039d01526000818161019c015261033b01526000818160dd01526103080152600081816101c301526102dd01526000818161023a015261036e0152600061028801526116df6000f3fe608060405234801561001057600080fd5b50600436106100d35760003560e01c8063698996f81161008157806378892cea1161005b57806378892cea1461025c5780637c4048651461028357806397eacf09146102ba57600080fd5b8063698996f8146101fa5780636f307dc3146102105780637535d2461461023557600080fd5b8063210663e4116100b2578063210663e414610170578063329afacd14610197578063549d869e146101be57600080fd5b8062512afa146100d85780630d623e101461011657806315e303e414610130575b600080fd5b6100ff7f000000000000000000000000000000000000000000000000000000000000000081565b60405160ff90911681526020015b60405180910390f35b6000546101239060ff1681565b60405161010d9190610f30565b61014b73c02aaa39b223fe8d0a0e5c4f27ead9083c756cc281565b60405173ffffffffffffffffffffffffffffffffffffffff909116815260200161010d565b61014b7f000000000000000000000000000000000000000000000000000000000000000081565b6100ff7f000000000000000000000000000000000000000000000000000000000000000081565b6101e57f000000000000000000000000000000000000000000000000000000000000000081565b60405163ffffffff909116815260200161010d565b6102026102c2565b60405190815260200161010d565b60005461014b90610100900473ffffffffffffffffffffffffffffffffffffffff1681565b61014b7f000000000000000000000000000000000000000000000000000000000000000081565b61014b7f000000000000000000000000000000000000000000000000000000000000000081565b6102aa7f000000000000000000000000000000000000000000000000000000000000000081565b604051901515815260200161010d565b6102026102d1565b60006102cc6102d1565b905090565b60006102cc60006102cc7f00000000000000000000000000000000000000000000000000000000000000006000806103338361032e7f0000000000000000000000000000000000000000000000000000000000000000600a6110c2565b610366565b905061035f817f00000000000000000000000000000000000000000000000000000000000000006103ea565b9392505050565b6000806103937f00000000000000000000000000000000000000000000000000000000000000008561043c565b5090506103e281847f00000000000000000000000000000000000000000000000000000000000000007f0000000000000000000000000000000000000000000000000000000000000000610701565b949350505050565b600060128260ff161161041c576104028260126110d1565b61040d90600a6110c2565b61041790846110f4565b61035f565b6104276012836110d1565b61043290600a6110c2565b61035f9084611160565b6000808263ffffffff166000036104b4576040517f08c379a000000000000000000000000000000000000000000000000000000000815260206004820152600260248201527f425000000000000000000000000000000000000000000000000000000000000060448201526064015b60405180910390fd5b60408051600280825260608201835260009260208301908036833701905050905083816000815181106104e9576104e96111a3565b602002602001019063ffffffff16908163ffffffff1681525050600081600181518110610518576105186111a3565b602002602001019063ffffffff16908163ffffffff16815250506000808673ffffffffffffffffffffffffffffffffffffffff1663883bdbfd846040518263ffffffff1660e01b815260040161056e91906111d2565b600060405180830381865afa15801561058b573d6000803e3d6000fd5b505050506040513d6000823e601f3d9081017fffffffffffffffffffffffffffffffffffffffffffffffffffffffffffffffe01682016040526105d1919081019061131d565b915091506000826000815181106105ea576105ea6111a3565b602002602001015183600181518110610605576106056111a3565b602002602001015161061791906113e9565b905060008260008151811061062e5761062e6111a3565b602002602001015183600181518110610649576106496111a3565b602002602001015161065b9190611451565b905061066b600389900b83611486565b965060008260060b12801561068f5750610689600389900b836114fa565b60060b15155b156106a2578661069e8161151c565b9750505b60006106c873ffffffffffffffffffffffffffffffffffffffff63ffffffff8b16611579565b90506106f277ffffffffffffffffffffffffffffffffffffffff00000000602084901b16826115b9565b96505050505050509250929050565b60008061070d866108db565b90506fffffffffffffffffffffffffffffffff73ffffffffffffffffffffffffffffffffffffffff82161161080c57600061075e73ffffffffffffffffffffffffffffffffffffffff8316806110f4565b90508373ffffffffffffffffffffffffffffffffffffffff168573ffffffffffffffffffffffffffffffffffffffff16106107ce576107c97801000000000000000000000000000000000000000000000000876fffffffffffffffffffffffffffffffff1683610d70565b610804565b61080481876fffffffffffffffffffffffffffffffff167801000000000000000000000000000000000000000000000000610d70565b9250506108d2565b600061083873ffffffffffffffffffffffffffffffffffffffff83168068010000000000000000610d70565b90508373ffffffffffffffffffffffffffffffffffffffff168573ffffffffffffffffffffffffffffffffffffffff16106108a05761089b700100000000000000000000000000000000876fffffffffffffffffffffffffffffffff1683610d70565b6108ce565b6108ce81876fffffffffffffffffffffffffffffffff16700100000000000000000000000000000000610d70565b9250505b50949350505050565b60008060008360020b126108f2578260020b6108ff565b8260020b6108ff906115f0565b905061092a7ffffffffffffffffffffffffffffffffffffffffffffffffffffffffffff27618611628565b60020b811115610996576040517f08c379a000000000000000000000000000000000000000000000000000000000815260206004820152600160248201527f540000000000000000000000000000000000000000000000000000000000000060448201526064016104ab565b6000816001166000036109ba577001000000000000000000000000000000006109cc565b6ffffcb933bd6fad37aa2d162d1a5940015b70ffffffffffffffffffffffffffffffffff1690506002821615610a0b576080610a06826ffff97272373d413259a46990580e213a6110f4565b901c90505b6004821615610a35576080610a30826ffff2e50f5f656932ef12357cf3c7fdcc6110f4565b901c90505b6008821615610a5f576080610a5a826fffe5caca7e10e4e61c3624eaa0941cd06110f4565b901c90505b6010821615610a89576080610a84826fffcb9843d60f6159c9db58835c9266446110f4565b901c90505b6020821615610ab3576080610aae826fff973b41fa98c081472e6896dfb254c06110f4565b901c90505b6040821615610add576080610ad8826fff2ea16466c96a3843ec78b326b528616110f4565b901c90505b6080821615610b07576080610b02826ffe5dee046a99a2a811c461f1969c30536110f4565b901c90505b610100821615610b32576080610b2d826ffcbe86c7900a88aedcffc83b479aa3a46110f4565b901c90505b610200821615610b5d576080610b58826ff987a7253ac413176f2b074cf7815e546110f4565b901c90505b610400821615610b88576080610b83826ff3392b0822b70005940c7a398e4b70f36110f4565b901c90505b610800821615610bb3576080610bae826fe7159475a2c29b7443b29c7fa6e889d96110f4565b901c90505b611000821615610bde576080610bd9826fd097f3bdfd2022b8845ad8f792aa58256110f4565b901c90505b612000821615610c09576080610c04826fa9f746462d870fdf8a65dc1f90e061e56110f4565b901c90505b614000821615610c34576080610c2f826f70d869a156d2a1b890bb3df62baf32f76110f4565b901c90505b618000821615610c5f576080610c5a826f31be135f97d08fd981231505542fcfa66110f4565b901c90505b62010000821615610c8b576080610c86826f09aa508b5b7a84e1c677de54f3e99bc96110f4565b901c90505b62020000821615610cb6576080610cb1826e5d6af8dedb81196699c329225ee6046110f4565b901c90505b62040000821615610ce0576080610cdb826d2216e584f5fa1ea926041bedfe986110f4565b901c90505b62080000821615610d08576080610d03826b048a170391f7dc42444e8fa26110f4565b901c90505b60008460020b1315610d4157610d3e817fffffffffffffffffffffffffffffffffffffffffffffffffffffffffffffffff611160565b90505b610d5064010000000082611666565b15610d5c576001610d5f565b60005b6103e29060ff16602083901c61167a565b600080807fffffffffffffffffffffffffffffffffffffffffffffffffffffffffffffffff85870985870292508281108382030391505080600003610dc75760008411610dbc57600080fd5b50829004905061035f565b808411610dd357600080fd5b600084868809808403938111909203919050600085610e12817fffffffffffffffffffffffffffffffffffffffffffffffffffffffffffffffff611692565b610e1d90600161167a565b16958690049593849004936000819003046001019050610e3d81846110f4565b909317926000610e4e8760036110f4565b6002189050610e5d81886110f4565b610e68906002611692565b610e7290826110f4565b9050610e7e81886110f4565b610e89906002611692565b610e9390826110f4565b9050610e9f81886110f4565b610eaa906002611692565b610eb490826110f4565b9050610ec081886110f4565b610ecb906002611692565b610ed590826110f4565b9050610ee181886110f4565b610eec906002611692565b610ef690826110f4565b9050610f0281886110f4565b610f0d906002611692565b610f1790826110f4565b9050610f2381866110f4565b9998505050505050505050565b6020810160038310610f6b577f4e487b7100000000000000000000000000000000000000000000000000000000600052602160045260246000fd5b91905290565b7f4e487b7100000000000000000000000000000000000000000000000000000000600052601160045260246000fd5b600181815b80851115610ff957817fffffffffffffffffffffffffffffffffffffffffffffffffffffffffffffffff04821115610fdf57610fdf610f71565b80851615610fec57918102915b93841c9390800290610fa5565b509250929050565b600082611010575060016110bc565b8161101d575060006110bc565b8160018114611033576002811461103d57611059565b60019150506110bc565b60ff84111561104e5761104e610f71565b50506001821b6110bc565b5060208310610133831016604e8410600b841016171561107c575081810a6110bc565b6110868383610fa0565b807fffffffffffffffffffffffffffffffffffffffffffffffffffffffffffffffff048211156110b8576110b8610f71565b0290505b92915050565b600061035f60ff841683611001565b600060ff821660ff8416808210156110eb576110eb610f71565b90039392505050565b6000817fffffffffffffffffffffffffffffffffffffffffffffffffffffffffffffffff048311821515161561112c5761112c610f71565b500290565b7f4e487b7100000000000000000000000000000000000000000000000000000000600052601260045260246000fd5b60008261116f5761116f611131565b500490565b7f4e487b7100000000000000000000000000000000000000000000000000000000600052604160045260246000fd5b7f4e487b7100000000000000000000000000000000000000000000000000000000600052603260045260246000fd5b6020808252825182820181905260009190848201906040850190845b8181101561121057835163ffffffff16835292840192918401916001016111ee565b50909695505050505050565b604051601f82017fffffffffffffffffffffffffffffffffffffffffffffffffffffffffffffffe016810167ffffffffffffffff8111828210171561126357611263611174565b604052919050565b600067ffffffffffffffff82111561128557611285611174565b5060051b60200190565b600082601f8301126112a057600080fd5b815160206112b56112b08361126b565b61121c565b82815260059290921b840181019181810190868411156112d457600080fd5b8286015b8481101561131257805173ffffffffffffffffffffffffffffffffffffffff811681146113055760008081fd5b83529183019183016112d8565b509695505050505050565b6000806040838503121561133057600080fd5b825167ffffffffffffffff8082111561134857600080fd5b818501915085601f83011261135c57600080fd5b8151602061136c6112b08361126b565b82815260059290921b8401810191818101908984111561138b57600080fd5b948201945b838610156113b95785518060060b81146113aa5760008081fd5b82529482019490820190611390565b918801519196509093505050808211156113d257600080fd5b506113df8582860161128f565b9150509250929050565b60008160060b8360060b60008112817fffffffffffffffffffffffffffffffffffffffffffffffffff800000000000000183128115161561142c5761142c610f71565b81667fffffffffffff01831381161561144757611447610f71565b5090039392505050565b600073ffffffffffffffffffffffffffffffffffffffff8381169083168181101561147e5761147e610f71565b039392505050565b60008160060b8360060b8061149d5761149d611131565b7fffffffffffffffffffffffffffffffffffffffffffffffffffffffffffffffff81147fffffffffffffffffffffffffffffffffffffffffffffffffff80000000000000831416156114f1576114f1610f71565b90059392505050565b60008260060b8061150d5761150d611131565b808360060b0791505092915050565b60008160020b7fffffffffffffffffffffffffffffffffffffffffffffffffffffffffff800000810361155157611551610f71565b7fffffffffffffffffffffffffffffffffffffffffffffffffffffffffffffffff0192915050565b600077ffffffffffffffffffffffffffffffffffffffffffffffff808316818516818304811182151516156115b0576115b0610f71565b02949350505050565b600077ffffffffffffffffffffffffffffffffffffffffffffffff808416806115e4576115e4611131565b92169190910492915050565b60007f8000000000000000000000000000000000000000000000000000000000000000820361162157611621610f71565b5060000390565b60008160020b7fffffffffffffffffffffffffffffffffffffffffffffffffffffffffff800000810361165d5761165d610f71565b60000392915050565b60008261167557611675611131565b500690565b6000821982111561168d5761168d610f71565b500190565b6000828210156116a4576116a4610f71565b50039056fea26469706673582212206b74863281b1695b0721bcdd7f1ec4a6e20c4fa1d94aeff1a298c7fc468c4fb964736f6c634300080e0033",
    "linkReferences": {}
  },
  "methodIdentifiers": {
    "BASE_TOKEN()": "210663e4",
    "BASE_TOKEN_DECIMALS()": "00512afa",
    "LOOKBACK()": "549d869e",
    "POOL()": "7535d246",
    "QUOTE_TOKEN()": "78892cea",
    "QUOTE_TOKEN_DECIMALS()": "329afacd",
    "QUOTE_TOKEN_IS_TOKEN0()": "7c404865",
    "currentValue()": "698996f8",
    "oracleType()": "0d623e10",
    "peekValue()": "97eacf09",
    "underlying()": "6f307dc3",
    "wETH_ADDRESS()": "15e303e4"
  },
  "id": 81
}