{
  "abi": [
    {
      "inputs": [
        {
          "internalType": "address",
          "name": "_anchorAddress",
          "type": "address"
        },
        {
          "internalType": "address",
          "name": "_mainAddress",
          "type": "address"
        },
        {
          "internalType": "uint256",
          "name": "_widthNumerator",
          "type": "uint256"
        },
        {
          "internalType": "uint256",
          "name": "_widthDenominator",
          "type": "uint256"
        },
        {
          "internalType": "uint256",
          "name": "_staleWidthNumerator",
          "type": "uint256"
        },
        {
          "internalType": "uint256",
          "name": "_staleWidthDenominator",
          "type": "uint256"
        }
      ],
      "stateMutability": "nonpayable",
      "type": "constructor"
    },
    {
      "inputs": [],
      "name": "OracleRelay_DifferentUnderlyings",
      "type": "error"
    },
    {
      "inputs": [],
      "name": "anchorRelay",
      "outputs": [
        {
          "internalType": "contract IOracleRelay",
          "name": "",
          "type": "address"
        }
      ],
      "stateMutability": "view",
      "type": "function"
    },
    {
      "inputs": [],
      "name": "currentValue",
      "outputs": [
        {
          "internalType": "uint256",
          "name": "_currentValue",
          "type": "uint256"
        }
      ],
      "stateMutability": "nonpayable",
      "type": "function"
    },
    {
      "inputs": [],
      "name": "mainRelay",
      "outputs": [
        {
          "internalType": "contract IOracleRelay",
          "name": "",
          "type": "address"
        }
      ],
      "stateMutability": "view",
      "type": "function"
    },
    {
      "inputs": [],
      "name": "oracleType",
      "outputs": [
        {
          "internalType": "enum IOracleRelay.OracleType",
          "name": "",
          "type": "uint8"
        }
      ],
      "stateMutability": "view",
      "type": "function"
    },
    {
      "inputs": [],
      "name": "peekValue",
      "outputs": [
        {
          "internalType": "uint256",
          "name": "_price",
          "type": "uint256"
        }
      ],
      "stateMutability": "view",
      "type": "function"
    },
    {
      "inputs": [],
      "name": "staleWidthDenominator",
      "outputs": [
        {
          "internalType": "uint256",
          "name": "",
          "type": "uint256"
        }
      ],
      "stateMutability": "view",
      "type": "function"
    },
    {
      "inputs": [],
      "name": "staleWidthNumerator",
      "outputs": [
        {
          "internalType": "uint256",
          "name": "",
          "type": "uint256"
        }
      ],
      "stateMutability": "view",
      "type": "function"
    },
    {
      "inputs": [],
      "name": "underlying",
      "outputs": [
        {
          "internalType": "address",
          "name": "",
          "type": "address"
        }
      ],
      "stateMutability": "view",
      "type": "function"
    },
    {
      "inputs": [],
      "name": "wETH_ADDRESS",
      "outputs": [
        {
          "internalType": "address",
          "name": "",
          "type": "address"
        }
      ],
      "stateMutability": "view",
      "type": "function"
    },
    {
      "inputs": [],
      "name": "widthDenominator",
      "outputs": [
        {
          "internalType": "uint256",
          "name": "",
          "type": "uint256"
        }
      ],
      "stateMutability": "view",
      "type": "function"
    },
    {
      "inputs": [],
      "name": "widthNumerator",
      "outputs": [
        {
          "internalType": "uint256",
          "name": "",
          "type": "uint256"
        }
      ],
      "stateMutability": "view",
      "type": "function"
    }
  ],
  "bytecode": {
    "object": "0x608060405234801561001057600080fd5b50604051610a55380380610a5583398101604081905261002f91610247565b846001600160a01b0316630d623e106040518163ffffffff1660e01b8152600401602060405180830381865afa15801561006d573d6000803e3d6000fd5b505050506040513d601f19601f82011682018060405250810190610091919061029f565b6000805482919060ff191660018360028111156100b0576100b06102c7565b021790555050600180546001600160a01b038089166001600160a01b03199283168117909355600280549189169190921617905560408051636f307dc360e01b8152905160009291636f307dc39160048083019260209291908290030181865afa158015610122573d6000803e3d6000fd5b505050506040513d601f19601f8201168201806040525081019061014691906102dd565b9050600260009054906101000a90046001600160a01b03166001600160a01b0316636f307dc36040518163ffffffff1660e01b8152600401602060405180830381865afa15801561019b573d6000803e3d6000fd5b505050506040513d601f19601f820116820180604052508101906101bf91906102dd565b6001600160a01b0316816001600160a01b0316146101f057604051631f020a2d60e11b815260040160405180910390fd5b60008054610100600160a81b0319166101006001600160a01b0384160217905550600393909355600491909155600555600655506102f89050565b80516001600160a01b038116811461024257600080fd5b919050565b60008060008060008060c0878903121561026057600080fd5b6102698761022b565b95506102776020880161022b565b945060408701519350606087015192506080870151915060a087015190509295509295509295565b6000602082840312156102b157600080fd5b8151600381106102c057600080fd5b9392505050565b634e487b7160e01b600052602160045260246000fd5b6000602082840312156102ef57600080fd5b6102c08261022b565b61074e806103076000396000f3fe608060405234801561001057600080fd5b50600436106100c95760003560e01c8063698996f811610081578063ddb87f941161005b578063ddb87f94146101a6578063e22a9a0d146101af578063eacc5ba8146101cf57600080fd5b8063698996f8146101715780636f307dc31461017957806397eacf091461019e57600080fd5b806330961727116100b25780633096172714610131578063457780ad14610148578063588c73b01461015157600080fd5b80630d623e10146100ce57806315e303e4146100f1575b600080fd5b6000546100db9060ff1681565b6040516100e891906105bf565b60405180910390f35b61010c73c02aaa39b223fe8d0a0e5c4f27ead9083c756cc281565b60405173ffffffffffffffffffffffffffffffffffffffff90911681526020016100e8565b61013a60045481565b6040519081526020016100e8565b61013a60055481565b60025461010c9073ffffffffffffffffffffffffffffffffffffffff1681565b61013a6101d8565b60005461010c90610100900473ffffffffffffffffffffffffffffffffffffffff1681565b61013a6101e7565b61013a60065481565b60015461010c9073ffffffffffffffffffffffffffffffffffffffff1681565b61013a60035481565b60006101e26101e7565b905090565b60006101e2600254604080517f97eacf09000000000000000000000000000000000000000000000000000000008152905160009273ffffffffffffffffffffffffffffffffffffffff16916397eacf099160048083019260209291908290030181865afa15801561025c573d6000803e3d6000fd5b505050506040513d601f19601f820116820180604052508101906102809190610600565b9050600081116102f1576040517f08c379a000000000000000000000000000000000000000000000000000000000815260206004820152601460248201527f696e76616c6964206f7261636c652076616c756500000000000000000000000060448201526064015b60405180910390fd5b600154604080517f97eacf09000000000000000000000000000000000000000000000000000000008152905160009273ffffffffffffffffffffffffffffffffffffffff16916397eacf099160048083019260209291908290030181865afa158015610361573d6000803e3d6000fd5b505050506040513d601f19601f820116820180604052508101906103859190610600565b9050600081116103f1576040517f08c379a000000000000000000000000000000000000000000000000000000000815260206004820152601460248201527f696e76616c696420616e63686f722076616c756500000000000000000000000060448201526064016102e8565b600254604080517f1a26f447000000000000000000000000000000000000000000000000000000008152905160009273ffffffffffffffffffffffffffffffffffffffff1691631a26f4479160048083019260209291908290030181865afa158015610461573d6000803e3d6000fd5b505050506040513d601f19601f820116820180604052508101906104859190610619565b156104ac576006548260055461049b9190610671565b6104a591906106ae565b90506104ca565b600454826003546104bd9190610671565b6104c791906106ae565b90505b60006104d682846106e9565b905060006104e48385610701565b905081851061054f576040517f08c379a000000000000000000000000000000000000000000000000000000000815260206004820152600e60248201527f616e63686f7220746f6f206c6f7700000000000000000000000000000000000060448201526064016102e8565b8085116105b8576040517f08c379a000000000000000000000000000000000000000000000000000000000815260206004820152600f60248201527f616e63686f7220746f6f2068696768000000000000000000000000000000000060448201526064016102e8565b5050505090565b60208101600383106105fa577f4e487b7100000000000000000000000000000000000000000000000000000000600052602160045260246000fd5b91905290565b60006020828403121561061257600080fd5b5051919050565b60006020828403121561062b57600080fd5b8151801515811461063b57600080fd5b9392505050565b7f4e487b7100000000000000000000000000000000000000000000000000000000600052601160045260246000fd5b6000817fffffffffffffffffffffffffffffffffffffffffffffffffffffffffffffffff04831182151516156106a9576106a9610642565b500290565b6000826106e4577f4e487b7100000000000000000000000000000000000000000000000000000000600052601260045260246000fd5b500490565b600082198211156106fc576106fc610642565b500190565b60008282101561071357610713610642565b50039056fea2646970667358221220f4b42eb48f2c68dac824e4f80343ffc39518a965dd077a2e965dd8f2c138f03564736f6c634300080e0033",
    "linkReferences": {}
  },
  "methodIdentifiers": {
    "anchorRelay()": "e22a9a0d",
    "currentValue()": "698996f8",
    "mainRelay()": "588c73b0",
    "oracleType()": "0d623e10",
    "peekValue()": "97eacf09",
    "staleWidthDenominator()": "ddb87f94",
    "staleWidthNumerator()": "457780ad",
    "underlying()": "6f307dc3",
    "wETH_ADDRESS()": "15e303e4",
    "widthDenominator()": "30961727",
    "widthNumerator()": "eacc5ba8"
  },
  "id": 70
}