{
  "abi": [
    {
      "inputs": [],
      "stateMutability": "nonpayable",
      "type": "constructor"
    },
    {
      "inputs": [],
      "name": "OracleRelay_DifferentUnderlyings",
      "type": "error"
    },
    {
      "inputs": [],
      "name": "_owner",
      "outputs": [
        {
          "internalType": "address",
          "name": "",
          "type": "address"
        }
      ],
      "stateMutability": "view",
      "type": "function"
    },
    {
      "inputs": [],
      "name": "currentValue",
      "outputs": [
        {
          "internalType": "uint256",
          "name": "_currentValue",
          "type": "uint256"
        }
      ],
      "stateMutability": "nonpayable",
      "type": "function"
    },
    {
      "inputs": [],
      "name": "oracleType",
      "outputs": [
        {
          "internalType": "enum IOracleRelay.OracleType",
          "name": "",
          "type": "uint8"
        }
      ],
      "stateMutability": "view",
      "type": "function"
    },
    {
      "inputs": [],
      "name": "peekValue",
      "outputs": [
        {
          "internalType": "uint256",
          "name": "_price",
          "type": "uint256"
        }
      ],
      "stateMutability": "view",
      "type": "function"
    },
    {
      "inputs": [],
      "name": "price",
      "outputs": [
        {
          "internalType": "uint256",
          "name": "",
          "type": "uint256"
        }
      ],
      "stateMutability": "view",
      "type": "function"
    },
    {
      "inputs": [
        {
          "internalType": "uint256",
          "name": "_price",
          "type": "uint256"
        }
      ],
      "name": "setPrice",
      "outputs": [],
      "stateMutability": "nonpayable",
      "type": "function"
    },
    {
      "inputs": [],
      "name": "underlying",
      "outputs": [
        {
          "internalType": "address",
          "name": "",
          "type": "address"
        }
      ],
      "stateMutability": "view",
      "type": "function"
    },
    {
      "inputs": [],
      "name": "wETH_ADDRESS",
      "outputs": [
        {
          "internalType": "address",
          "name": "",
          "type": "address"
        }
      ],
      "stateMutability": "view",
      "type": "function"
    }
  ],
  "bytecode": {
    "object": "0x6080604052686449e84e47a8a8000060015534801561001d57600080fd5b506000805460ff1916905560028054336001600160a01b03199091161790556102a58061004b6000396000f3fe608060405234801561001057600080fd5b50600436106100885760003560e01c806391b7f5ed1161005b57806391b7f5ed1461012b57806397eacf0914610140578063a035b1fe14610148578063b2bdfa7b1461015157600080fd5b80630d623e101461008d57806315e303e4146100b0578063698996f8146100f05780636f307dc314610106575b600080fd5b60005461009a9060ff1681565b6040516100a79190610215565b60405180910390f35b6100cb73c02aaa39b223fe8d0a0e5c4f27ead9083c756cc281565b60405173ffffffffffffffffffffffffffffffffffffffff90911681526020016100a7565b6100f8610171565b6040519081526020016100a7565b6000546100cb90610100900473ffffffffffffffffffffffffffffffffffffffff1681565b61013e610139366004610256565b610180565b005b6100f861020a565b6100f860015481565b6002546100cb9073ffffffffffffffffffffffffffffffffffffffff1681565b600061017b61020a565b905090565b60025473ffffffffffffffffffffffffffffffffffffffff163314610205576040517f08c379a000000000000000000000000000000000000000000000000000000000815260206004820152600960248201527f4e6f74206f776e65720000000000000000000000000000000000000000000000604482015260640160405180910390fd5b600155565b600061017b60015490565b6020810160038310610250577f4e487b7100000000000000000000000000000000000000000000000000000000600052602160045260246000fd5b91905290565b60006020828403121561026857600080fd5b503591905056fea26469706673582212207bd5a6f26c0bb9e610aa25fc51146b8c815a30b4bb6dd85d20a45ffbb236e69e64736f6c634300080e0033",
    "linkReferences": {}
  },
  "methodIdentifiers": {
    "_owner()": "b2bdfa7b",
    "currentValue()": "698996f8",
    "oracleType()": "0d623e10",
    "peekValue()": "97eacf09",
    "price()": "a035b1fe",
    "setPrice(uint256)": "91b7f5ed",
    "underlying()": "6f307dc3",
    "wETH_ADDRESS()": "15e303e4"
  },
  "id": 119
}