{
  "abi": [
    {
      "inputs": [
        {
          "internalType": "contract IOracleRelay",
          "name": "_stEthAnchoredViewUnderlying",
          "type": "address"
        }
      ],
      "stateMutability": "nonpayable",
      "type": "constructor"
    },
    {
      "inputs": [],
      "name": "OracleRelay_DifferentUnderlyings",
      "type": "error"
    },
    {
      "inputs": [],
      "name": "STETH_ANCHORED_VIEW_UNDERLYING",
      "outputs": [
        {
          "internalType": "contract IOracleRelay",
          "name": "",
          "type": "address"
        }
      ],
      "stateMutability": "view",
      "type": "function"
    },
    {
      "inputs": [],
      "name": "WSTETH",
      "outputs": [
        {
          "internalType": "contract IWStETH",
          "name": "",
          "type": "address"
        }
      ],
      "stateMutability": "view",
      "type": "function"
    },
    {
      "inputs": [],
      "name": "currentValue",
      "outputs": [
        {
          "internalType": "uint256",
          "name": "_currentValue",
          "type": "uint256"
        }
      ],
      "stateMutability": "nonpayable",
      "type": "function"
    },
    {
      "inputs": [],
      "name": "oracleType",
      "outputs": [
        {
          "internalType": "enum IOracleRelay.OracleType",
          "name": "",
          "type": "uint8"
        }
      ],
      "stateMutability": "view",
      "type": "function"
    },
    {
      "inputs": [],
      "name": "peekValue",
      "outputs": [
        {
          "internalType": "uint256",
          "name": "_price",
          "type": "uint256"
        }
      ],
      "stateMutability": "view",
      "type": "function"
    },
    {
      "inputs": [],
      "name": "underlying",
      "outputs": [
        {
          "internalType": "address",
          "name": "",
          "type": "address"
        }
      ],
      "stateMutability": "view",
      "type": "function"
    },
    {
      "inputs": [],
      "name": "wETH_ADDRESS",
      "outputs": [
        {
          "internalType": "address",
          "name": "",
          "type": "address"
        }
      ],
      "stateMutability": "view",
      "type": "function"
    }
  ],
  "bytecode": {
    "object": "0x60a060405234801561001057600080fd5b506040516104a73803806104a783398101604081905261002f91610069565b600080546001600160a01b0383166080526001600160a81b031916747f39c581f595b53c5cb19bd0b3f8da6c935e2ca00017905550610099565b60006020828403121561007b57600080fd5b81516001600160a01b038116811461009257600080fd5b9392505050565b6080516103ec6100bb6000396000818161012d015261018301526103ec6000f3fe608060405234801561001057600080fd5b506004361061007d5760003560e01c80636f307dc31161005b5780636f307dc3146100fb57806397eacf0914610120578063d25639d314610128578063d9fb643a1461014f57600080fd5b80630d623e101461008257806315e303e4146100a5578063698996f8146100e5575b600080fd5b60005461008f9060ff1681565b60405161009c91906102bd565b60405180910390f35b6100c073c02aaa39b223fe8d0a0e5c4f27ead9083c756cc281565b60405173ffffffffffffffffffffffffffffffffffffffff909116815260200161009c565b6100ed61016a565b60405190815260200161009c565b6000546100c090610100900473ffffffffffffffffffffffffffffffffffffffff1681565b6100ed610179565b6100c07f000000000000000000000000000000000000000000000000000000000000000081565b6100c0737f39c581f595b53c5cb19bd0b3f8da6c935e2ca081565b6000610174610179565b905090565b60006101746000807f000000000000000000000000000000000000000000000000000000000000000073ffffffffffffffffffffffffffffffffffffffff166397eacf096040518163ffffffff1660e01b8152600401602060405180830381865afa1580156101ec573d6000803e3d6000fd5b505050506040513d601f19601f8201168201806040525081019061021091906102fe565b90506000737f39c581f595b53c5cb19bd0b3f8da6c935e2ca073ffffffffffffffffffffffffffffffffffffffff1663035faf826040518163ffffffff1660e01b8152600401602060405180830381865afa158015610273573d6000803e3d6000fd5b505050506040513d601f19601f8201168201806040525081019061029791906102fe565b9050670de0b6b3a76400006102ac8284610317565b6102b6919061037b565b9250505090565b60208101600383106102f8577f4e487b7100000000000000000000000000000000000000000000000000000000600052602160045260246000fd5b91905290565b60006020828403121561031057600080fd5b5051919050565b6000817fffffffffffffffffffffffffffffffffffffffffffffffffffffffffffffffff0483118215151615610376577f4e487b7100000000000000000000000000000000000000000000000000000000600052601160045260246000fd5b500290565b6000826103b1577f4e487b7100000000000000000000000000000000000000000000000000000000600052601260045260246000fd5b50049056fea264697066735822122064b024043fd1c903476a72d2607b1b9ad79b56e02dcc8c1b57b15898a2b0103364736f6c634300080e0033",
    "linkReferences": {}
  },
  "methodIdentifiers": {
    "STETH_ANCHORED_VIEW_UNDERLYING()": "d25639d3",
    "WSTETH()": "d9fb643a",
    "currentValue()": "698996f8",
    "oracleType()": "0d623e10",
    "peekValue()": "97eacf09",
    "underlying()": "6f307dc3",
    "wETH_ADDRESS()": "15e303e4"
  },
  "id": 83
}