{
  "abi": [
    {
      "inputs": [
        {
          "internalType": "address",
          "name": "_crvPool",
          "type": "address"
        },
        {
          "internalType": "contract IOracleRelay[]",
          "name": "_anchoredUnderlyingTokens",
          "type": "address[]"
        }
      ],
      "stateMutability": "nonpayable",
      "type": "constructor"
    },
    {
      "inputs": [],
      "name": "OracleRelay_DifferentUnderlyings",
      "type": "error"
    },
    {
      "inputs": [],
      "name": "StableCurveLpOracle_TooFewAnchoredOracles",
      "type": "error"
    },
    {
      "stateMutability": "nonpayable",
      "type": "fallback"
    },
    {
      "inputs": [],
      "name": "CRV_POOL",
      "outputs": [
        {
          "internalType": "contract IStablePool",
          "name": "",
          "type": "address"
        }
      ],
      "stateMutability": "view",
      "type": "function"
    },
    {
      "inputs": [],
      "name": "CURVE_ADDRESSES_PROVIDER",
      "outputs": [
        {
          "internalType": "contract ICurveAddressesProvider",
          "name": "",
          "type": "address"
        }
      ],
      "stateMutability": "view",
      "type": "function"
    },
    {
      "inputs": [
        {
          "internalType": "uint256",
          "name": "",
          "type": "uint256"
        }
      ],
      "name": "anchoredUnderlyingTokens",
      "outputs": [
        {
          "internalType": "contract IOracleRelay",
          "name": "",
          "type": "address"
        }
      ],
      "stateMutability": "view",
      "type": "function"
    },
    {
      "inputs": [],
      "name": "currentValue",
      "outputs": [
        {
          "internalType": "uint256",
          "name": "_currentValue",
          "type": "uint256"
        }
      ],
      "stateMutability": "nonpayable",
      "type": "function"
    },
    {
      "inputs": [],
      "name": "oracleType",
      "outputs": [
        {
          "internalType": "enum IOracleRelay.OracleType",
          "name": "",
          "type": "uint8"
        }
      ],
      "stateMutability": "view",
      "type": "function"
    },
    {
      "inputs": [],
      "name": "peekValue",
      "outputs": [
        {
          "internalType": "uint256",
          "name": "_price",
          "type": "uint256"
        }
      ],
      "stateMutability": "view",
      "type": "function"
    },
    {
      "inputs": [],
      "name": "underlying",
      "outputs": [
        {
          "internalType": "address",
          "name": "",
          "type": "address"
        }
      ],
      "stateMutability": "view",
      "type": "function"
    },
    {
      "inputs": [],
      "name": "virtualPrice",
      "outputs": [
        {
          "internalType": "uint256",
          "name": "",
          "type": "uint256"
        }
      ],
      "stateMutability": "view",
      "type": "function"
    },
    {
      "inputs": [],
      "name": "wETH_ADDRESS",
      "outputs": [
        {
          "internalType": "address",
          "name": "",
          "type": "address"
        }
      ],
      "stateMutability": "view",
      "type": "function"
    }
  ],
  "bytecode": {
    "object": "0x60a06040523480156200001157600080fd5b5060405162000d2a38038062000d2a83398101604081905262000034916200038e565b6000805460ff191690558051829082906002111562000066576040516313a7913b60e01b815260040160405180910390fd5b6001600160a01b03821660805260005b8151811015620000dd57600182828151811062000097576200009762000465565b60209081029190910181015182546001808201855560009485529290932090920180546001600160a01b0319166001600160a01b03909316929092179091550162000076565b5062000115620000ed836200012a565b600080546001600160a01b0390921661010002610100600160a81b0319909216919091179055565b506200012290506200021a565b505062000576565b6000806f22d53366457f9d5e68ec105046fc43836001600160a01b031663a262904b6040518163ffffffff1660e01b8152600401602060405180830381865afa1580156200017c573d6000803e3d6000fd5b505050506040513d601f19601f82011682018060405250810190620001a291906200047b565b604051633795104960e01b81526001600160a01b03858116600483015291925090821690633795104990602401602060405180830381865afa158015620001ed573d6000803e3d6000fd5b505050506040513d601f19601f820116820180604052508101906200021391906200047b565b9392505050565b60006080516001600160a01b031663bb7b8b806040518163ffffffff1660e01b8152600401602060405180830381865afa1580156200025d573d6000803e3d6000fd5b505050506040513d601f19601f820116820180604052508101906200028391906200049b565b90506200028f6200030e565b6080516001600160a01b0316635b36389c6000836040518363ffffffff1660e01b8152600401620002c2929190620004b5565b60408051808303816000875af1158015620002e1573d6000803e3d6000fd5b505050506040513d601f19601f82011682018060405250810190620003079190620004ef565b5050600255565b60405180604001604052806002906020820280368337509192915050565b6001600160a01b03811681146200034257600080fd5b50565b634e487b7160e01b600052604160045260246000fd5b604051601f8201601f191681016001600160401b038111828210171562000386576200038662000345565b604052919050565b60008060408385031215620003a257600080fd5b8251620003af816200032c565b602084810151919350906001600160401b0380821115620003cf57600080fd5b818601915086601f830112620003e457600080fd5b815181811115620003f957620003f962000345565b8060051b91506200040c8483016200035b565b81815291830184019184810190898411156200042757600080fd5b938501935b8385101562000455578451925062000444836200032c565b82825293850193908501906200042c565b8096505050505050509250929050565b634e487b7160e01b600052603260045260246000fd5b6000602082840312156200048e57600080fd5b815162000213816200032c565b600060208284031215620004ae57600080fd5b5051919050565b8281526060810160208083018460005b6002811015620004e457815183529183019190830190600101620004c5565b505050509392505050565b6000604082840312156200050257600080fd5b82601f8301126200051257600080fd5b604080519081016001600160401b038111828210171562000537576200053762000345565b80604052508060408401858111156200054f57600080fd5b845b818110156200056b57805183526020928301920162000551565b509195945050505050565b60805161078a620005a060003960008181610166015281816101fb01526102cf015261078a6000f3fe608060405234801561001057600080fd5b506004361061009d5760003560e01c80638ea875f311610070578063a178212211610058578063a17821221461014e578063aff42a1514610161578063f523bbc71461018857005b80638ea875f31461013d57806397eacf091461014657005b80630d623e101461009f57806315e303e4146100c2578063698996f8146101025780636f307dc314610118575b005b6000546100ac9060ff1681565b6040516100b99190610534565b60405180910390f35b6100dd73c02aaa39b223fe8d0a0e5c4f27ead9083c756cc281565b60405173ffffffffffffffffffffffffffffffffffffffff90911681526020016100b9565b61010a61019f565b6040519081526020016100b9565b6000546100dd90610100900473ffffffffffffffffffffffffffffffffffffffff1681565b61010a60025481565b61010a6101b6565b6100dd61015c366004610575565b6101c0565b6100dd7f000000000000000000000000000000000000000000000000000000000000000081565b6100dd6f22d53366457f9d5e68ec105046fc438381565b60006101a96101f7565b6101b1610350565b905090565b60006101b1610350565b600181815481106101d057600080fd5b60009182526020909120015473ffffffffffffffffffffffffffffffffffffffff16905081565b60007f000000000000000000000000000000000000000000000000000000000000000073ffffffffffffffffffffffffffffffffffffffff1663bb7b8b806040518163ffffffff1660e01b8152600401602060405180830381865afa158015610264573d6000803e3d6000fd5b505050506040513d601f19601f82011682018060405250810190610288919061058e565b9050610292610516565b6040517f5b36389c00000000000000000000000000000000000000000000000000000000815273ffffffffffffffffffffffffffffffffffffffff7f00000000000000000000000000000000000000000000000000000000000000001690635b36389c906103079060009085906004016105a7565b60408051808303816000875af1158015610325573d6000803e3d6000fd5b505050506040513d601f19601f8201168201806040525081019061034991906105df565b5050600255565b600080600160008154811061036757610367610686565b60009182526020918290200154604080517f97eacf09000000000000000000000000000000000000000000000000000000008152905173ffffffffffffffffffffffffffffffffffffffff909216926397eacf09926004808401938290030181865afa1580156103db573d6000803e3d6000fd5b505050506040513d601f19601f820116820180604052508101906103ff919061058e565b905060015b6001548110156104cc576104c2826001838154811061042557610425610686565b60009182526020918290200154604080517f97eacf09000000000000000000000000000000000000000000000000000000008152905173ffffffffffffffffffffffffffffffffffffffff909216926397eacf09926004808401938290030181865afa158015610499573d6000803e3d6000fd5b505050506040513d601f19601f820116820180604052508101906104bd919061058e565b6104fe565b9150600101610404565b506000816104d960025490565b6104e391906106b5565b90506104f7670de0b6b3a764000082610719565b9250505090565b600081831061050d578161050f565b825b9392505050565b60405180604001604052806002906020820280368337509192915050565b602081016003831061056f577f4e487b7100000000000000000000000000000000000000000000000000000000600052602160045260246000fd5b91905290565b60006020828403121561058757600080fd5b5035919050565b6000602082840312156105a057600080fd5b5051919050565b8281526060810160208083018460005b60028110156105d4578151835291830191908301906001016105b7565b505050509392505050565b6000604082840312156105f157600080fd5b82601f83011261060057600080fd5b6040516040810181811067ffffffffffffffff8211171561064a577f4e487b7100000000000000000000000000000000000000000000000000000000600052604160045260246000fd5b806040525080604084018581111561066157600080fd5b845b8181101561067b578051835260209283019201610663565b509195945050505050565b7f4e487b7100000000000000000000000000000000000000000000000000000000600052603260045260246000fd5b6000817fffffffffffffffffffffffffffffffffffffffffffffffffffffffffffffffff0483118215151615610714577f4e487b7100000000000000000000000000000000000000000000000000000000600052601160045260246000fd5b500290565b60008261074f577f4e487b7100000000000000000000000000000000000000000000000000000000600052601260045260246000fd5b50049056fea26469706673582212204f747ab3d3dcbcd1ccf42191cab442956069fd7b9ad1a17603239fa0ede5fd1f64736f6c634300080e0033",
    "linkReferences": {}
  },
  "methodIdentifiers": {
    "CRV_POOL()": "aff42a15",
    "CURVE_ADDRESSES_PROVIDER()": "f523bbc7",
    "anchoredUnderlyingTokens(uint256)": "a1782122",
    "currentValue()": "698996f8",
    "oracleType()": "0d623e10",
    "peekValue()": "97eacf09",
    "underlying()": "6f307dc3",
    "virtualPrice()": "8ea875f3",
    "wETH_ADDRESS()": "15e303e4"
  },
  "id": 77
}