{
  "abi": [
    {
      "inputs": [
        {
          "internalType": "contract UniswapV3OracleRelay",
          "name": "_ethOracle",
          "type": "address"
        },
        {
          "internalType": "uint32",
          "name": "_lookback",
          "type": "uint32"
        },
        {
          "internalType": "address",
          "name": "_poolAddress",
          "type": "address"
        },
        {
          "internalType": "bool",
          "name": "_quoteTokenIsToken0",
          "type": "bool"
        }
      ],
      "stateMutability": "nonpayable",
      "type": "constructor"
    },
    {
      "inputs": [],
      "name": "OracleRelay_DifferentUnderlyings",
      "type": "error"
    },
    {
      "inputs": [],
      "name": "UniswapV3OracleRelay_TickTimeDiffTooLarge",
      "type": "error"
    },
    {
      "inputs": [],
      "name": "BASE_TOKEN",
      "outputs": [
        {
          "internalType": "address",
          "name": "",
          "type": "address"
        }
      ],
      "stateMutability": "view",
      "type": "function"
    },
    {
      "inputs": [],
      "name": "BASE_TOKEN_DECIMALS",
      "outputs": [
        {
          "internalType": "uint8",
          "name": "",
          "type": "uint8"
        }
      ],
      "stateMutability": "view",
      "type": "function"
    },
    {
      "inputs": [],
      "name": "ETH_ORACLE",
      "outputs": [
        {
          "internalType": "contract UniswapV3OracleRelay",
          "name": "",
          "type": "address"
        }
      ],
      "stateMutability": "view",
      "type": "function"
    },
    {
      "inputs": [],
      "name": "LOOKBACK",
      "outputs": [
        {
          "internalType": "uint32",
          "name": "",
          "type": "uint32"
        }
      ],
      "stateMutability": "view",
      "type": "function"
    },
    {
      "inputs": [],
      "name": "POOL",
      "outputs": [
        {
          "internalType": "contract IUniswapV3Pool",
          "name": "",
          "type": "address"
        }
      ],
      "stateMutability": "view",
      "type": "function"
    },
    {
      "inputs": [],
      "name": "QUOTE_TOKEN",
      "outputs": [
        {
          "internalType": "address",
          "name": "",
          "type": "address"
        }
      ],
      "stateMutability": "view",
      "type": "function"
    },
    {
      "inputs": [],
      "name": "QUOTE_TOKEN_DECIMALS",
      "outputs": [
        {
          "internalType": "uint8",
          "name": "",
          "type": "uint8"
        }
      ],
      "stateMutability": "view",
      "type": "function"
    },
    {
      "inputs": [],
      "name": "QUOTE_TOKEN_IS_TOKEN0",
      "outputs": [
        {
          "internalType": "bool",
          "name": "",
          "type": "bool"
        }
      ],
      "stateMutability": "view",
      "type": "function"
    },
    {
      "inputs": [],
      "name": "currentValue",
      "outputs": [
        {
          "internalType": "uint256",
          "name": "_currentValue",
          "type": "uint256"
        }
      ],
      "stateMutability": "nonpayable",
      "type": "function"
    },
    {
      "inputs": [],
      "name": "oracleType",
      "outputs": [
        {
          "internalType": "enum IOracleRelay.OracleType",
          "name": "",
          "type": "uint8"
        }
      ],
      "stateMutability": "view",
      "type": "function"
    },
    {
      "inputs": [],
      "name": "peekValue",
      "outputs": [
        {
          "internalType": "uint256",
          "name": "_price",
          "type": "uint256"
        }
      ],
      "stateMutability": "view",
      "type": "function"
    },
    {
      "inputs": [],
      "name": "underlying",
      "outputs": [
        {
          "internalType": "address",
          "name": "",
          "type": "address"
        }
      ],
      "stateMutability": "view",
      "type": "function"
    },
    {
      "inputs": [],
      "name": "wETH_ADDRESS",
      "outputs": [
        {
          "internalType": "address",
          "name": "",
          "type": "address"
        }
      ],
      "stateMutability": "view",
      "type": "function"
    }
  ],
  "bytecode": {
    "object": "0x6101806040523480156200001257600080fd5b5060405162001bd738038062001bd783398101604081905262000035916200029d565b6000805460ff1916600117815563ffffffff841660c0528115156080526001600160a01b03831660a081905260408051630dfe168160e01b8152905186938693869391929091630dfe16819160048083019260209291908290030181865afa158015620000a6573d6000803e3d6000fd5b505050506040513d601f19601f82011682018060405250810190620000cc919062000311565b9050600060a0516001600160a01b031663d21220a76040518163ffffffff1660e01b8152600401602060405180830381865afa15801562000111573d6000803e3d6000fd5b505050506040513d601f19601f8201168201806040525081019062000137919062000311565b9050608051620001495781816200014c565b80825b6001600160a01b0390811661014052166101208190526040805163313ce56760e01b8152905163313ce567916004808201926020929091908290030181865afa1580156200019e573d6000803e3d6000fd5b505050506040513d601f19601f82011682018060405250810190620001c4919062000338565b60ff1660e08160ff1681525050610140516001600160a01b031663313ce5676040518163ffffffff1660e01b8152600401602060405180830381865afa15801562000213573d6000803e3d6000fd5b505050506040513d601f19601f8201168201806040525081019062000239919062000338565b60ff166101009081526101205160008054610100600160a81b0319166001600160a01b039092169092021790555050506001600160a01b0390951661016052506200035d9350505050565b6001600160a01b03811681146200029a57600080fd5b50565b60008060008060808587031215620002b457600080fd5b8451620002c18162000284565b602086015190945063ffffffff81168114620002dc57600080fd5b6040860151909350620002ef8162000284565b606086015190925080151581146200030657600080fd5b939692955090935050565b6000602082840312156200032457600080fd5b8151620003318162000284565b9392505050565b6000602082840312156200034b57600080fd5b815160ff811681146200033157600080fd5b60805160a05160c05160e051610100516101205161014051610160516117e4620003f3600039600081816102ca015261033501526000818161026c01526104aa01526000818161018001526104890152600081816101a7015261042701526000818160e801526103f40152600081816101ce015261030b015260008181610245015261045a0152600061029301526117e46000f3fe608060405234801561001057600080fd5b50600436106100de5760003560e01c8063698996f81161008c57806378892cea1161006657806378892cea146102675780637c4048651461028e57806397a8feee146102c557806397eacf09146102ec57600080fd5b8063698996f8146102055780636f307dc31461021b5780637535d2461461024057600080fd5b8063210663e4116100bd578063210663e41461017b578063329afacd146101a2578063549d869e146101c957600080fd5b8062512afa146100e35780630d623e101461012157806315e303e41461013b575b600080fd5b61010a7f000000000000000000000000000000000000000000000000000000000000000081565b60405160ff90911681526020015b60405180910390f35b60005461012e9060ff1681565b604051610118919061101c565b61015673c02aaa39b223fe8d0a0e5c4f27ead9083c756cc281565b60405173ffffffffffffffffffffffffffffffffffffffff9091168152602001610118565b6101567f000000000000000000000000000000000000000000000000000000000000000081565b61010a7f000000000000000000000000000000000000000000000000000000000000000081565b6101f07f000000000000000000000000000000000000000000000000000000000000000081565b60405163ffffffff9091168152602001610118565b61020d6102f4565b604051908152602001610118565b60005461015690610100900473ffffffffffffffffffffffffffffffffffffffff1681565b6101567f000000000000000000000000000000000000000000000000000000000000000081565b6101567f000000000000000000000000000000000000000000000000000000000000000081565b6102b57f000000000000000000000000000000000000000000000000000000000000000081565b6040519015158152602001610118565b6101567f000000000000000000000000000000000000000000000000000000000000000081565b61020d610303565b60006102fe610303565b905090565b60008061032f7f00000000000000000000000000000000000000000000000000000000000000006103e8565b905060007f000000000000000000000000000000000000000000000000000000000000000073ffffffffffffffffffffffffffffffffffffffff166397eacf096040518163ffffffff1660e01b8152600401602060405180830381865afa15801561039e573d6000803e3d6000fd5b505050506040513d601f19601f820116820180604052508101906103c2919061105d565b9050670de0b6b3a76400006103d783836110a5565b6103e19190611111565b9250505090565b60008061041f8361041a7f0000000000000000000000000000000000000000000000000000000000000000600a611247565b610452565b905061044b817f00000000000000000000000000000000000000000000000000000000000000006104d6565b9392505050565b60008061047f7f000000000000000000000000000000000000000000000000000000000000000085610528565b5090506104ce81847f00000000000000000000000000000000000000000000000000000000000000007f00000000000000000000000000000000000000000000000000000000000000006107ed565b949350505050565b600060128260ff1611610508576104ee826012611256565b6104f990600a611247565b61050390846110a5565b61044b565b610513601283611256565b61051e90600a611247565b61044b9084611111565b6000808263ffffffff166000036105a0576040517f08c379a000000000000000000000000000000000000000000000000000000000815260206004820152600260248201527f425000000000000000000000000000000000000000000000000000000000000060448201526064015b60405180910390fd5b60408051600280825260608201835260009260208301908036833701905050905083816000815181106105d5576105d56112a8565b602002602001019063ffffffff16908163ffffffff1681525050600081600181518110610604576106046112a8565b602002602001019063ffffffff16908163ffffffff16815250506000808673ffffffffffffffffffffffffffffffffffffffff1663883bdbfd846040518263ffffffff1660e01b815260040161065a91906112d7565b600060405180830381865afa158015610677573d6000803e3d6000fd5b505050506040513d6000823e601f3d9081017fffffffffffffffffffffffffffffffffffffffffffffffffffffffffffffffe01682016040526106bd9190810190611422565b915091506000826000815181106106d6576106d66112a8565b6020026020010151836001815181106106f1576106f16112a8565b602002602001015161070391906114ee565b905060008260008151811061071a5761071a6112a8565b602002602001015183600181518110610735576107356112a8565b60200260200101516107479190611556565b9050610757600389900b8361158b565b965060008260060b12801561077b5750610775600389900b836115ff565b60060b15155b1561078e578661078a81611621565b9750505b60006107b473ffffffffffffffffffffffffffffffffffffffff63ffffffff8b1661167e565b90506107de77ffffffffffffffffffffffffffffffffffffffff00000000602084901b16826116be565b96505050505050509250929050565b6000806107f9866109c7565b90506fffffffffffffffffffffffffffffffff73ffffffffffffffffffffffffffffffffffffffff8216116108f857600061084a73ffffffffffffffffffffffffffffffffffffffff8316806110a5565b90508373ffffffffffffffffffffffffffffffffffffffff168573ffffffffffffffffffffffffffffffffffffffff16106108ba576108b57801000000000000000000000000000000000000000000000000876fffffffffffffffffffffffffffffffff1683610e5c565b6108f0565b6108f081876fffffffffffffffffffffffffffffffff167801000000000000000000000000000000000000000000000000610e5c565b9250506109be565b600061092473ffffffffffffffffffffffffffffffffffffffff83168068010000000000000000610e5c565b90508373ffffffffffffffffffffffffffffffffffffffff168573ffffffffffffffffffffffffffffffffffffffff161061098c57610987700100000000000000000000000000000000876fffffffffffffffffffffffffffffffff1683610e5c565b6109ba565b6109ba81876fffffffffffffffffffffffffffffffff16700100000000000000000000000000000000610e5c565b9250505b50949350505050565b60008060008360020b126109de578260020b6109eb565b8260020b6109eb906116f5565b9050610a167ffffffffffffffffffffffffffffffffffffffffffffffffffffffffffff2761861172d565b60020b811115610a82576040517f08c379a000000000000000000000000000000000000000000000000000000000815260206004820152600160248201527f54000000000000000000000000000000000000000000000000000000000000006044820152606401610597565b600081600116600003610aa657700100000000000000000000000000000000610ab8565b6ffffcb933bd6fad37aa2d162d1a5940015b70ffffffffffffffffffffffffffffffffff1690506002821615610af7576080610af2826ffff97272373d413259a46990580e213a6110a5565b901c90505b6004821615610b21576080610b1c826ffff2e50f5f656932ef12357cf3c7fdcc6110a5565b901c90505b6008821615610b4b576080610b46826fffe5caca7e10e4e61c3624eaa0941cd06110a5565b901c90505b6010821615610b75576080610b70826fffcb9843d60f6159c9db58835c9266446110a5565b901c90505b6020821615610b9f576080610b9a826fff973b41fa98c081472e6896dfb254c06110a5565b901c90505b6040821615610bc9576080610bc4826fff2ea16466c96a3843ec78b326b528616110a5565b901c90505b6080821615610bf3576080610bee826ffe5dee046a99a2a811c461f1969c30536110a5565b901c90505b610100821615610c1e576080610c19826ffcbe86c7900a88aedcffc83b479aa3a46110a5565b901c90505b610200821615610c49576080610c44826ff987a7253ac413176f2b074cf7815e546110a5565b901c90505b610400821615610c74576080610c6f826ff3392b0822b70005940c7a398e4b70f36110a5565b901c90505b610800821615610c9f576080610c9a826fe7159475a2c29b7443b29c7fa6e889d96110a5565b901c90505b611000821615610cca576080610cc5826fd097f3bdfd2022b8845ad8f792aa58256110a5565b901c90505b612000821615610cf5576080610cf0826fa9f746462d870fdf8a65dc1f90e061e56110a5565b901c90505b614000821615610d20576080610d1b826f70d869a156d2a1b890bb3df62baf32f76110a5565b901c90505b618000821615610d4b576080610d46826f31be135f97d08fd981231505542fcfa66110a5565b901c90505b62010000821615610d77576080610d72826f09aa508b5b7a84e1c677de54f3e99bc96110a5565b901c90505b62020000821615610da2576080610d9d826e5d6af8dedb81196699c329225ee6046110a5565b901c90505b62040000821615610dcc576080610dc7826d2216e584f5fa1ea926041bedfe986110a5565b901c90505b62080000821615610df4576080610def826b048a170391f7dc42444e8fa26110a5565b901c90505b60008460020b1315610e2d57610e2a817fffffffffffffffffffffffffffffffffffffffffffffffffffffffffffffffff611111565b90505b610e3c6401000000008261176b565b15610e48576001610e4b565b60005b6104ce9060ff16602083901c61177f565b600080807fffffffffffffffffffffffffffffffffffffffffffffffffffffffffffffffff85870985870292508281108382030391505080600003610eb35760008411610ea857600080fd5b50829004905061044b565b808411610ebf57600080fd5b600084868809808403938111909203919050600085610efe817fffffffffffffffffffffffffffffffffffffffffffffffffffffffffffffffff611797565b610f0990600161177f565b16958690049593849004936000819003046001019050610f2981846110a5565b909317926000610f3a8760036110a5565b6002189050610f4981886110a5565b610f54906002611797565b610f5e90826110a5565b9050610f6a81886110a5565b610f75906002611797565b610f7f90826110a5565b9050610f8b81886110a5565b610f96906002611797565b610fa090826110a5565b9050610fac81886110a5565b610fb7906002611797565b610fc190826110a5565b9050610fcd81886110a5565b610fd8906002611797565b610fe290826110a5565b9050610fee81886110a5565b610ff9906002611797565b61100390826110a5565b905061100f81866110a5565b9998505050505050505050565b6020810160038310611057577f4e487b7100000000000000000000000000000000000000000000000000000000600052602160045260246000fd5b91905290565b60006020828403121561106f57600080fd5b5051919050565b7f4e487b7100000000000000000000000000000000000000000000000000000000600052601160045260246000fd5b6000817fffffffffffffffffffffffffffffffffffffffffffffffffffffffffffffffff04831182151516156110dd576110dd611076565b500290565b7f4e487b7100000000000000000000000000000000000000000000000000000000600052601260045260246000fd5b600082611120576111206110e2565b500490565b600181815b8085111561117e57817fffffffffffffffffffffffffffffffffffffffffffffffffffffffffffffffff0482111561116457611164611076565b8085161561117157918102915b93841c939080029061112a565b509250929050565b60008261119557506001611241565b816111a257506000611241565b81600181146111b857600281146111c2576111de565b6001915050611241565b60ff8411156111d3576111d3611076565b50506001821b611241565b5060208310610133831016604e8410600b8410161715611201575081810a611241565b61120b8383611125565b807fffffffffffffffffffffffffffffffffffffffffffffffffffffffffffffffff0482111561123d5761123d611076565b0290505b92915050565b600061044b60ff841683611186565b600060ff821660ff84168082101561127057611270611076565b90039392505050565b7f4e487b7100000000000000000000000000000000000000000000000000000000600052604160045260246000fd5b7f4e487b7100000000000000000000000000000000000000000000000000000000600052603260045260246000fd5b6020808252825182820181905260009190848201906040850190845b8181101561131557835163ffffffff16835292840192918401916001016112f3565b50909695505050505050565b604051601f82017fffffffffffffffffffffffffffffffffffffffffffffffffffffffffffffffe016810167ffffffffffffffff8111828210171561136857611368611279565b604052919050565b600067ffffffffffffffff82111561138a5761138a611279565b5060051b60200190565b600082601f8301126113a557600080fd5b815160206113ba6113b583611370565b611321565b82815260059290921b840181019181810190868411156113d957600080fd5b8286015b8481101561141757805173ffffffffffffffffffffffffffffffffffffffff8116811461140a5760008081fd5b83529183019183016113dd565b509695505050505050565b6000806040838503121561143557600080fd5b825167ffffffffffffffff8082111561144d57600080fd5b818501915085601f83011261146157600080fd5b815160206114716113b583611370565b82815260059290921b8401810191818101908984111561149057600080fd5b948201945b838610156114be5785518060060b81146114af5760008081fd5b82529482019490820190611495565b918801519196509093505050808211156114d757600080fd5b506114e485828601611394565b9150509250929050565b60008160060b8360060b60008112817fffffffffffffffffffffffffffffffffffffffffffffffffff800000000000000183128115161561153157611531611076565b81667fffffffffffff01831381161561154c5761154c611076565b5090039392505050565b600073ffffffffffffffffffffffffffffffffffffffff8381169083168181101561158357611583611076565b039392505050565b60008160060b8360060b806115a2576115a26110e2565b7fffffffffffffffffffffffffffffffffffffffffffffffffffffffffffffffff81147fffffffffffffffffffffffffffffffffffffffffffffffffff80000000000000831416156115f6576115f6611076565b90059392505050565b60008260060b80611612576116126110e2565b808360060b0791505092915050565b60008160020b7fffffffffffffffffffffffffffffffffffffffffffffffffffffffffff800000810361165657611656611076565b7fffffffffffffffffffffffffffffffffffffffffffffffffffffffffffffffff0192915050565b600077ffffffffffffffffffffffffffffffffffffffffffffffff808316818516818304811182151516156116b5576116b5611076565b02949350505050565b600077ffffffffffffffffffffffffffffffffffffffffffffffff808416806116e9576116e96110e2565b92169190910492915050565b60007f8000000000000000000000000000000000000000000000000000000000000000820361172657611726611076565b5060000390565b60008160020b7fffffffffffffffffffffffffffffffffffffffffffffffffffffffffff800000810361176257611762611076565b60000392915050565b60008261177a5761177a6110e2565b500690565b6000821982111561179257611792611076565b500190565b6000828210156117a9576117a9611076565b50039056fea2646970667358221220cd931814cc36270221fdf2eb3a2d1198a976571b882377fb6cc8a339790f889464736f6c634300080e0033",
    "linkReferences": {}
  },
  "methodIdentifiers": {
    "BASE_TOKEN()": "210663e4",
    "BASE_TOKEN_DECIMALS()": "00512afa",
    "ETH_ORACLE()": "97a8feee",
    "LOOKBACK()": "549d869e",
    "POOL()": "7535d246",
    "QUOTE_TOKEN()": "78892cea",
    "QUOTE_TOKEN_DECIMALS()": "329afacd",
    "QUOTE_TOKEN_IS_TOKEN0()": "7c404865",
    "currentValue()": "698996f8",
    "oracleType()": "0d623e10",
    "peekValue()": "97eacf09",
    "underlying()": "6f307dc3",
    "wETH_ADDRESS()": "15e303e4"
  },
  "id": 82
}