{
  "abi": [
    {
      "inputs": [
        {
          "internalType": "uint96",
          "name": "_id",
          "type": "uint96"
        },
        {
          "internalType": "address",
          "name": "_minter",
          "type": "address"
        },
        {
          "internalType": "address",
          "name": "_controllerAddress",
          "type": "address"
        },
        {
          "internalType": "contract IERC20",
          "name": "_cvx",
          "type": "address"
        },
        {
          "internalType": "contract IERC20",
          "name": "_crv",
          "type": "address"
        }
      ],
      "stateMutability": "nonpayable",
      "type": "constructor"
    },
    {
      "inputs": [],
      "name": "Vault_AmountZero",
      "type": "error"
    },
    {
      "inputs": [],
      "name": "Vault_DepositAndStakeOnConvexFailed",
      "type": "error"
    },
    {
      "inputs": [],
      "name": "Vault_NotMinter",
      "type": "error"
    },
    {
      "inputs": [],
      "name": "Vault_NotVaultController",
      "type": "error"
    },
    {
      "inputs": [],
      "name": "Vault_OverWithdrawal",
      "type": "error"
    },
    {
      "inputs": [],
      "name": "Vault_RepayTooMuch",
      "type": "error"
    },
    {
      "inputs": [],
      "name": "Vault_TokenAlreadyStaked",
      "type": "error"
    },
    {
      "inputs": [],
      "name": "Vault_TokenCanNotBeStaked",
      "type": "error"
    },
    {
      "inputs": [],
      "name": "Vault_TokenNotCurveLP",
      "type": "error"
    },
    {
      "inputs": [],
      "name": "Vault_TokenNotRegistered",
      "type": "error"
    },
    {
      "inputs": [],
      "name": "Vault_TokenZeroBalance",
      "type": "error"
    },
    {
      "inputs": [],
      "name": "Vault_WithdrawAndUnstakeOnConvexFailed",
      "type": "error"
    },
    {
      "anonymous": false,
      "inputs": [
        {
          "indexed": false,
          "internalType": "address",
          "name": "_token",
          "type": "address"
        },
        {
          "indexed": false,
          "internalType": "uint256",
          "name": "_amount",
          "type": "uint256"
        }
      ],
      "name": "ClaimedReward",
      "type": "event"
    },
    {
      "anonymous": false,
      "inputs": [
        {
          "indexed": false,
          "internalType": "address",
          "name": "_token",
          "type": "address"
        },
        {
          "indexed": false,
          "internalType": "uint256",
          "name": "_amount",
          "type": "uint256"
        }
      ],
      "name": "Deposit",
      "type": "event"
    },
    {
      "anonymous": false,
      "inputs": [
        {
          "indexed": false,
          "internalType": "address",
          "name": "_token",
          "type": "address"
        },
        {
          "indexed": false,
          "internalType": "uint256",
          "name": "_amount",
          "type": "uint256"
        }
      ],
      "name": "Staked",
      "type": "event"
    },
    {
      "anonymous": false,
      "inputs": [
        {
          "indexed": false,
          "internalType": "address",
          "name": "_token",
          "type": "address"
        },
        {
          "indexed": false,
          "internalType": "uint256",
          "name": "_amount",
          "type": "uint256"
        }
      ],
      "name": "Withdraw",
      "type": "event"
    },
    {
      "inputs": [],
      "name": "CONTROLLER",
      "outputs": [
        {
          "internalType": "contract IVaultController",
          "name": "",
          "type": "address"
        }
      ],
      "stateMutability": "view",
      "type": "function"
    },
    {
      "inputs": [],
      "name": "CRV",
      "outputs": [
        {
          "internalType": "contract IERC20",
          "name": "",
          "type": "address"
        }
      ],
      "stateMutability": "view",
      "type": "function"
    },
    {
      "inputs": [],
      "name": "CVX",
      "outputs": [
        {
          "internalType": "contract ICVX",
          "name": "",
          "type": "address"
        }
      ],
      "stateMutability": "view",
      "type": "function"
    },
    {
      "inputs": [
        {
          "internalType": "address",
          "name": "",
          "type": "address"
        }
      ],
      "name": "balances",
      "outputs": [
        {
          "internalType": "uint256",
          "name": "",
          "type": "uint256"
        }
      ],
      "stateMutability": "view",
      "type": "function"
    },
    {
      "inputs": [],
      "name": "baseLiability",
      "outputs": [
        {
          "internalType": "uint256",
          "name": "",
          "type": "uint256"
        }
      ],
      "stateMutability": "view",
      "type": "function"
    },
    {
      "inputs": [
        {
          "internalType": "address",
          "name": "_token",
          "type": "address"
        }
      ],
      "name": "canStake",
      "outputs": [
        {
          "internalType": "bool",
          "name": "_canStake",
          "type": "bool"
        }
      ],
      "stateMutability": "view",
      "type": "function"
    },
    {
      "inputs": [
        {
          "internalType": "address[]",
          "name": "_tokenAddresses",
          "type": "address[]"
        }
      ],
      "name": "claimRewards",
      "outputs": [],
      "stateMutability": "nonpayable",
      "type": "function"
    },
    {
      "inputs": [
        {
          "internalType": "address",
          "name": "_tokenAddress",
          "type": "address"
        }
      ],
      "name": "claimableRewards",
      "outputs": [
        {
          "components": [
            {
              "internalType": "contract IERC20",
              "name": "token",
              "type": "address"
            },
            {
              "internalType": "uint256",
              "name": "amount",
              "type": "uint256"
            }
          ],
          "internalType": "struct IVault.Reward[]",
          "name": "_rewards",
          "type": "tuple[]"
        }
      ],
      "stateMutability": "view",
      "type": "function"
    },
    {
      "inputs": [
        {
          "internalType": "address",
          "name": "_token",
          "type": "address"
        },
        {
          "internalType": "address",
          "name": "_to",
          "type": "address"
        },
        {
          "internalType": "uint256",
          "name": "_amount",
          "type": "uint256"
        }
      ],
      "name": "controllerTransfer",
      "outputs": [],
      "stateMutability": "nonpayable",
      "type": "function"
    },
    {
      "inputs": [
        {
          "internalType": "contract IBaseRewardPool",
          "name": "_rewardPool",
          "type": "address"
        },
        {
          "internalType": "uint256",
          "name": "_amount",
          "type": "uint256"
        }
      ],
      "name": "controllerWithdrawAndUnwrap",
      "outputs": [],
      "stateMutability": "nonpayable",
      "type": "function"
    },
    {
      "inputs": [
        {
          "internalType": "address",
          "name": "_token",
          "type": "address"
        },
        {
          "internalType": "uint256",
          "name": "_amount",
          "type": "uint256"
        }
      ],
      "name": "depositERC20",
      "outputs": [],
      "stateMutability": "nonpayable",
      "type": "function"
    },
    {
      "inputs": [],
      "name": "id",
      "outputs": [
        {
          "internalType": "uint96",
          "name": "_id",
          "type": "uint96"
        }
      ],
      "stateMutability": "view",
      "type": "function"
    },
    {
      "inputs": [
        {
          "internalType": "address",
          "name": "",
          "type": "address"
        }
      ],
      "name": "isTokenStaked",
      "outputs": [
        {
          "internalType": "bool",
          "name": "",
          "type": "bool"
        }
      ],
      "stateMutability": "view",
      "type": "function"
    },
    {
      "inputs": [],
      "name": "minter",
      "outputs": [
        {
          "internalType": "address",
          "name": "_minter",
          "type": "address"
        }
      ],
      "stateMutability": "view",
      "type": "function"
    },
    {
      "inputs": [
        {
          "internalType": "bool",
          "name": "_increase",
          "type": "bool"
        },
        {
          "internalType": "uint256",
          "name": "_baseAmount",
          "type": "uint256"
        }
      ],
      "name": "modifyLiability",
      "outputs": [
        {
          "internalType": "uint256",
          "name": "_newLiability",
          "type": "uint256"
        }
      ],
      "stateMutability": "nonpayable",
      "type": "function"
    },
    {
      "inputs": [
        {
          "internalType": "address",
          "name": "_tokenAddress",
          "type": "address"
        }
      ],
      "name": "stakeCrvLPCollateral",
      "outputs": [],
      "stateMutability": "nonpayable",
      "type": "function"
    },
    {
      "inputs": [],
      "name": "vaultInfo",
      "outputs": [
        {
          "internalType": "uint96",
          "name": "id",
          "type": "uint96"
        },
        {
          "internalType": "address",
          "name": "minter",
          "type": "address"
        }
      ],
      "stateMutability": "view",
      "type": "function"
    },
    {
      "inputs": [
        {
          "internalType": "address",
          "name": "_tokenAddress",
          "type": "address"
        },
        {
          "internalType": "uint256",
          "name": "_amount",
          "type": "uint256"
        }
      ],
      "name": "withdrawERC20",
      "outputs": [],
      "stateMutability": "nonpayable",
      "type": "function"
    }
  ],
  "bytecode": {
    "object": "0x60e06040523480156200001157600080fd5b5060405162003ac238038062003ac28339810160408190526200003491620000a4565b604080518082019091526001600160601b039095168086526001600160a01b0394851660209096018690526c0100000000000000000000000090950290941760005590821660c05281166080521660a0526200012f565b6001600160a01b0381168114620000a157600080fd5b50565b600080600080600060a08688031215620000bd57600080fd5b85516001600160601b0381168114620000d557600080fd5b6020870151909550620000e8816200008b565b6040870151909450620000fb816200008b565b60608701519093506200010e816200008b565b608087015190925062000121816200008b565b809150509295509295909350565b60805160a05160c05161387c620002466000396000818161035801528181610390015281816104f10152818161064e015281816107720152818161082e015281816108a101528181610a4901528181610af001528181610c2101528181610d1e01528181610eb901528181610fcf015281816110a80152818161118801528181611276015281816112e901528181611a3501528181611bf201528181611ce401528181611e280152611eba015260008181610266015281816114db015281816125fe0152818161292201526129e101526000818161023f01528181611537015281816126ab0152818161286101528181612a4301528181612d1501528181612d9b01528181612e210152612edf015261387c6000f3fe608060405234801561001057600080fd5b50600436106101365760003560e01c8063a1db9782116100b2578063dc01f60d11610081578063dfabefe711610066578063dfabefe714610340578063ee0fc12114610353578063f9f031df1461037a57600080fd5b8063dc01f60d1461030d578063de6b50d61461032d57600080fd5b8063a1db9782146102ae578063adef15bc146102c1578063af640d0f146102ca578063b798319f146102ea57600080fd5b8063501ec73811610109578063945c9142116100ee578063945c91421461026157806397feb926146102885780639b5043871461029b57600080fd5b8063501ec738146101db578063759cb53b1461023a57600080fd5b8063075461721461013b57806327e235e3146101755780632eb60d6f146101a357806336d8bf93146101b8575b600080fd5b6000546c0100000000000000000000000090046001600160a01b03165b6040516001600160a01b0390911681526020015b60405180910390f35b610195610183366004613293565b60026020526000908152604090205481565b60405190815260200161016c565b6101b66101b13660046132b7565b61038d565b005b6101cb6101c6366004613293565b6104b4565b604051901515815260200161016c565b60005461020e906bffffffffffffffffffffffff8116906c0100000000000000000000000090046001600160a01b031682565b604080516bffffffffffffffffffffffff90931683526001600160a01b0390911660208301520161016c565b6101587f000000000000000000000000000000000000000000000000000000000000000081565b6101587f000000000000000000000000000000000000000000000000000000000000000081565b6101b66102963660046132b7565b6105b9565b6101b66102a93660046132e3565b610aed565b6101b66102bc3660046132b7565b610b8c565b61019560015481565b6000546040516bffffffffffffffffffffffff909116815260200161016c565b6101cb6102f8366004613293565b60036020526000908152604090205460ff1681565b61032061031b366004613293565b61106d565b60405161016c9190613324565b6101b661033b366004613293565b61199d565b61019561034e36600461338a565b611cdf565b6101587f000000000000000000000000000000000000000000000000000000000000000081565b6101b6610388366004613450565b611dc4565b337f00000000000000000000000000000000000000000000000000000000000000006001600160a01b0316146103ef576040517f031bb1d900000000000000000000000000000000000000000000000000000000815260040160405180910390fd5b6040517fc32e720200000000000000000000000000000000000000000000000000000000815260048101829052600060248201526001600160a01b0383169063c32e7202906044016020604051808303816000875af1158015610456573d6000803e3d6000fd5b505050506040513d601f19601f8201168201806040525081019061047a9190613502565b6104b0576040517f3c0f0a3d00000000000000000000000000000000000000000000000000000000815260040160405180910390fd5b5050565b6040517f22bc41430000000000000000000000000000000000000000000000000000000081526001600160a01b03828116600483015260009182917f000000000000000000000000000000000000000000000000000000000000000016906322bc414390602401602060405180830381865afa158015610538573d6000803e3d6000fd5b505050506040513d601f19601f8201168201806040525081019061055c919061351f565b9050801580159061058457506001600160a01b03831660009081526002602052604090205415155b80156105a957506001600160a01b03831660009081526003602052604090205460ff16155b156105b357600191505b50919050565b6000546c0100000000000000000000000090046001600160a01b0316336001600160a01b031614610616576040517f1e6a3ba300000000000000000000000000000000000000000000000000000000815260040160405180910390fd5b6040517f7ca317240000000000000000000000000000000000000000000000000000000081526001600160a01b0383811660048301527f00000000000000000000000000000000000000000000000000000000000000001690637ca3172490602401602060405180830381865afa158015610695573d6000803e3d6000fd5b505050506040513d601f19601f820116820180604052508101906106b9919061351f565b6000036106f2576040517f915c411800000000000000000000000000000000000000000000000000000000815260040160405180910390fd5b8060000361072c576040517f6a37442800000000000000000000000000000000000000000000000000000000815260040160405180910390fd5b61073882333084612a9e565b60016040517f985a01df0000000000000000000000000000000000000000000000000000000081526001600160a01b0384811660048301527f0000000000000000000000000000000000000000000000000000000000000000169063985a01df90602401602060405180830381865afa1580156107b9573d6000803e3d6000fd5b505050506040513d601f19601f820116820180604052508101906107dd919061357b565b60018111156107ee576107ee613538565b036109be576040517f22bc41430000000000000000000000000000000000000000000000000000000081526001600160a01b0383811660048301526000917f0000000000000000000000000000000000000000000000000000000000000000909116906322bc414390602401602060405180830381865afa158015610877573d6000803e3d6000fd5b505050506040513d601f19601f8201168201806040525081019061089b919061351f565b905060007f00000000000000000000000000000000000000000000000000000000000000006001600160a01b03166375b0ffd16040518163ffffffff1660e01b8152600401602060405180830381865afa1580156108fd573d6000803e3d6000fd5b505050506040513d601f19601f820116820180604052508101906109219190613596565b6001600160a01b03851660009081526003602052604090205490915060ff16156109565761095184828585612b6d565b6109bb565b6001600160a01b038416600090815260036020908152604080832080547fffffffffffffffffffffffffffffffffffffffffffffffffffffffffffffff0016600117905560029091529020546109bb90859083906109b59087906135e2565b85612b6d565b50505b6001600160a01b038216600090815260026020526040812080548392906109e69084906135e2565b90915550506000546040517f7490bf620000000000000000000000000000000000000000000000000000000081526bffffffffffffffffffffffff9091166004820152602481018290526001600160a01b038381166044830152600160648301527f00000000000000000000000000000000000000000000000000000000000000001690637490bf6290608401600060405180830381600087803b158015610a8d57600080fd5b505af1158015610aa1573d6000803e3d6000fd5b5050604080516001600160a01b0386168152602081018590527fe1fffcc4923d04b559f4d29a8bfc6cda04eb5b0d3c460751c2402c5c5cc9109c93500190505b60405180910390a15050565b337f00000000000000000000000000000000000000000000000000000000000000006001600160a01b031614610b4f576040517f031bb1d900000000000000000000000000000000000000000000000000000000815260040160405180910390fd5b610b5a838383612cc2565b6001600160a01b03831660009081526002602052604081208054839290610b829084906135fa565b9091555050505050565b6000546c0100000000000000000000000090046001600160a01b0316336001600160a01b031614610be9576040517f1e6a3ba300000000000000000000000000000000000000000000000000000000815260040160405180910390fd5b6040517f7ca317240000000000000000000000000000000000000000000000000000000081526001600160a01b0383811660048301527f00000000000000000000000000000000000000000000000000000000000000001690637ca3172490602401602060405180830381865afa158015610c68573d6000803e3d6000fd5b505050506040513d601f19601f82011682018060405250810190610c8c919061351f565b600003610cc5576040517f915c411800000000000000000000000000000000000000000000000000000000815260040160405180910390fd5b6001600160a01b03821660009081526003602052604090205460ff1615610e4c576040517fe21033280000000000000000000000000000000000000000000000000000000081526001600160a01b0383811660048301527f0000000000000000000000000000000000000000000000000000000000000000169063e210332890602401602060405180830381865afa158015610d65573d6000803e3d6000fd5b505050506040513d601f19601f82011682018060405250810190610d899190613596565b6040517fc32e720200000000000000000000000000000000000000000000000000000000815260048101839052600060248201526001600160a01b03919091169063c32e7202906044016020604051808303816000875af1158015610df2573d6000803e3d6000fd5b505050506040513d601f19601f82011682018060405250810190610e169190613502565b610e4c576040517f3c0f0a3d00000000000000000000000000000000000000000000000000000000815260040160405180910390fd5b6001600160a01b03821660009081526002602052604081208054839290610e749084906135fa565b90915550506000546040517f997d7b3d0000000000000000000000000000000000000000000000000000000081526bffffffffffffffffffffffff90911660048201527f00000000000000000000000000000000000000000000000000000000000000006001600160a01b03169063997d7b3d906024016020604051808303816000875af1158015610f0a573d6000803e3d6000fd5b505050506040513d601f19601f82011682018060405250810190610f2e9190613502565b610f64576040517fecda46d200000000000000000000000000000000000000000000000000000000815260040160405180910390fd5b610f6f823383612cc2565b600080546040517f7490bf620000000000000000000000000000000000000000000000000000000081526bffffffffffffffffffffffff9091166004820152602481018390526001600160a01b03848116604483015260648201929092527f000000000000000000000000000000000000000000000000000000000000000090911690637490bf6290608401600060405180830381600087803b15801561101557600080fd5b505af1158015611029573d6000803e3d6000fd5b5050604080516001600160a01b0386168152602081018590527f884edad9ce6fa2440d8a54cc123490eb96d2768479d49ff9c7366125a94243649350019050610ae1565b6040517f7ca317240000000000000000000000000000000000000000000000000000000081526001600160a01b0382811660048301526060917f000000000000000000000000000000000000000000000000000000000000000090911690637ca3172490602401602060405180830381865afa1580156110f1573d6000803e3d6000fd5b505050506040513d601f19601f82011682018060405250810190611115919061351f565b60000361114e576040517f915c411800000000000000000000000000000000000000000000000000000000815260040160405180910390fd5b60016040517f985a01df0000000000000000000000000000000000000000000000000000000081526001600160a01b0384811660048301527f0000000000000000000000000000000000000000000000000000000000000000169063985a01df90602401602060405180830381865afa1580156111cf573d6000803e3d6000fd5b505050506040513d601f19601f820116820180604052508101906111f3919061357b565b600181111561120457611204613538565b1461123b576040517f4873710200000000000000000000000000000000000000000000000000000000815260040160405180910390fd5b6040517fe21033280000000000000000000000000000000000000000000000000000000081526001600160a01b0383811660048301526000917f00000000000000000000000000000000000000000000000000000000000000009091169063e210332890602401602060405180830381865afa1580156112bf573d6000803e3d6000fd5b505050506040513d601f19601f820116820180604052508101906112e39190613596565b905060007f00000000000000000000000000000000000000000000000000000000000000006001600160a01b03166386b0e6f06040518163ffffffff1660e01b8152600401602060405180830381865afa158015611345573d6000803e3d6000fd5b505050506040513d601f19601f820116820180604052508101906113699190613596565b90506000826001600160a01b031663d55a23f46040518163ffffffff1660e01b8152600401602060405180830381865afa1580156113ab573d6000803e3d6000fd5b505050506040513d601f19601f820116820180604052508101906113cf919061351f565b6040517e8cc2620000000000000000000000000000000000000000000000000000000081523060048201529091506000906001600160a01b03851690628cc26290602401602060405180830381865afa158015611430573d6000803e3d6000fd5b505050506040513d601f19601f82011682018060405250810190611454919061351f565b9050600061146182612d10565b905061146e8360036135e2565b67ffffffffffffffff811115611486576114866133a8565b6040519080825280602002602001820160405280156114cb57816020015b60408051808201909152600080825260208201528152602001906001900390816114a45790505b50955060405180604001604052807f00000000000000000000000000000000000000000000000000000000000000006001600160a01b03168152602001838152508660008151811061151f5761151f61361c565b602002602001018190525060405180604001604052807f00000000000000000000000000000000000000000000000000000000000000006001600160a01b03168152602001828152508660018151811061157b5761157b61361c565b602002602001018190525060005b83811015611758576040517f40c35446000000000000000000000000000000000000000000000000000000008152600481018290526000906001600160a01b038816906340c3544690602401602060405180830381865afa1580156115f2573d6000803e3d6000fd5b505050506040513d601f19601f820116820180604052508101906116169190613596565b90506000816001600160a01b031663f7c618c16040518163ffffffff1660e01b8152600401602060405180830381865afa158015611658573d6000803e3d6000fd5b505050506040513d601f19601f8201168201806040525081019061167c9190613596565b6040517e8cc2620000000000000000000000000000000000000000000000000000000081523060048201529091506000906001600160a01b03841690628cc26290602401602060405180830381865afa1580156116dd573d6000803e3d6000fd5b505050506040513d601f19601f82011682018060405250810190611701919061351f565b90506040518060400160405280836001600160a01b03168152602001828152508a85600261172f91906135e2565b8151811061173f5761173f61361c565b6020026020010181905250836001019350505050611589565b600080806001600160a01b0388161561193057876001600160a01b03166370e0a7e430306001600160a01b031663af640d0f6040518163ffffffff1660e01b8152600401602060405180830381865afa1580156117b9573d6000803e3d6000fd5b505050506040513d601f19601f820116820180604052508101906117dd919061364b565b6040517fffffffff0000000000000000000000000000000000000000000000000000000060e085901b1681526001600160a01b0390921660048301526bffffffffffffffffffffffff1660248201526044810188905260648101899052608401606060405180830381865afa15801561185a573d6000803e3d6000fd5b505050506040513d601f19601f8201168201806040525081019061187e9190613679565b8093508194508295505050506040518060400160405280896001600160a01b0316635cbac31b6040518163ffffffff1660e01b8152600401602060405180830381865afa1580156118d3573d6000803e3d6000fd5b505050506040513d601f19601f820116820180604052508101906118f79190613596565b6001600160a01b031681526020018290528a6119148660026135e2565b815181106119245761192461361c565b60200260200101819052505b61193a82876135fa565b8a60008151811061194d5761194d61361c565b6020908102919091018101510152841561198f5761196b83866135fa565b8a60018151811061197e5761197e61361c565b602002602001015160200181815250505b505050505050505050919050565b6000546c0100000000000000000000000090046001600160a01b0316336001600160a01b0316146119fa576040517f1e6a3ba300000000000000000000000000000000000000000000000000000000815260040160405180910390fd5b6040517f22bc41430000000000000000000000000000000000000000000000000000000081526001600160a01b0382811660048301526000917f0000000000000000000000000000000000000000000000000000000000000000909116906322bc414390602401602060405180830381865afa158015611a7e573d6000803e3d6000fd5b505050506040513d601f19601f82011682018060405250810190611aa2919061351f565b905080600003611ade576040517fff857faf00000000000000000000000000000000000000000000000000000000815260040160405180910390fd5b6001600160a01b0382166000908152600260205260408120549003611b2f576040517f2131286600000000000000000000000000000000000000000000000000000000815260040160405180910390fd5b6001600160a01b03821660009081526003602052604090205460ff1615611b82576040517f72785f8200000000000000000000000000000000000000000000000000000000815260040160405180910390fd5b6001600160a01b03808316600090815260036020908152604080832080547fffffffffffffffffffffffffffffffffffffffffffffffffffffffffffffff0016600117905580517f75b0ffd1000000000000000000000000000000000000000000000000000000008152905192937f000000000000000000000000000000000000000000000000000000000000000016926375b0ffd1926004808401939192918290030181865afa158015611c3b573d6000803e3d6000fd5b505050506040513d601f19601f82011682018060405250810190611c5f9190613596565b6001600160a01b038416600090815260026020526040902054909150611c89908490839085612b6d565b6001600160a01b038316600081815260026020908152604091829020548251938452908301527f9e71bc8eea02a63969f509818f2dafb9254532904319f9dbda79b67bd34a5f3d910160405180910390a1505050565b6000337f00000000000000000000000000000000000000000000000000000000000000006001600160a01b031614611d43576040517f031bb1d900000000000000000000000000000000000000000000000000000000815260040160405180910390fd5b8215611d66578160016000828254611d5b91906135e2565b90915550611dba9050565b816001541015611da2576040517f2ee9f06900000000000000000000000000000000000000000000000000000000815260040160405180910390fd5b8160016000828254611db491906135fa565b90915550505b5050600154919050565b6000546c0100000000000000000000000090046001600160a01b0316336001600160a01b031614611e21576040517f1e6a3ba300000000000000000000000000000000000000000000000000000000815260040160405180910390fd5b60008060007f00000000000000000000000000000000000000000000000000000000000000006001600160a01b03166386b0e6f06040518163ffffffff1660e01b8152600401602060405180830381865afa158015611e84573d6000803e3d6000fd5b505050506040513d601f19601f82011682018060405250810190611ea89190613596565b905060005b84518110156124755760007f00000000000000000000000000000000000000000000000000000000000000006001600160a01b0316636e87bf97878481518110611ef957611ef961361c565b60200260200101516040518263ffffffff1660e01b8152600401611f2c91906001600160a01b0391909116815260200190565b61012060405180830381865afa158015611f4a573d6000803e3d6000fd5b505050506040513d601f19601f82011682018060405250810190611f6e91906136a7565b8051909150600003611fac576040517f915c411800000000000000000000000000000000000000000000000000000000815260040160405180910390fd5b60018160c001516001811115611fc457611fc4613538565b14611ffb576040517f4873710200000000000000000000000000000000000000000000000000000000815260040160405180910390fd5b60e08101516040517e8cc2620000000000000000000000000000000000000000000000000000000081523060048201526000906001600160a01b03831690628cc26290602401602060405180830381865afa15801561205e573d6000803e3d6000fd5b505050506040513d601f19601f82011682018060405250810190612082919061351f565b905080156121385761209481886135e2565b6040517f7050ccd9000000000000000000000000000000000000000000000000000000008152306004820152600060248201529097506001600160a01b03831690637050ccd9906044016020604051808303816000875af11580156120fd573d6000803e3d6000fd5b505050506040513d601f19601f820116820180604052508101906121219190613502565b5061212b81612d10565b61213590876135e2565b95505b6000826001600160a01b031663d55a23f46040518163ffffffff1660e01b8152600401602060405180830381865afa158015612178573d6000803e3d6000fd5b505050506040513d601f19601f8201168201806040525081019061219c919061351f565b905060005b81811015612465576040517f40c35446000000000000000000000000000000000000000000000000000000008152600481018290526000906001600160a01b038616906340c3544690602401602060405180830381865afa15801561220a573d6000803e3d6000fd5b505050506040513d601f19601f8201168201806040525081019061222e9190613596565b90506000816001600160a01b031663f7c618c16040518163ffffffff1660e01b8152600401602060405180830381865afa158015612270573d6000803e3d6000fd5b505050506040513d601f19601f820116820180604052508101906122949190613596565b6040517e8cc2620000000000000000000000000000000000000000000000000000000081523060048201529091506000906001600160a01b03841690628cc26290602401602060405180830381865afa1580156122f5573d6000803e3d6000fd5b505050506040513d601f19601f82011682018060405250810190612319919061351f565b9050801561245757826001600160a01b0316633d18b9126040518163ffffffff1660e01b8152600401600060405180830381600087803b15801561235c57600080fd5b505af1158015612370573d6000803e3d6000fd5b50505050816001600160a01b031663a9059cbb61238a3390565b6040517fffffffff0000000000000000000000000000000000000000000000000000000060e084901b1681526001600160a01b039091166004820152602481018490526044016020604051808303816000875af11580156123ef573d6000803e3d6000fd5b505050506040513d601f19601f820116820180604052508101906124139190613502565b50604080516001600160a01b0384168152602081018390527fd0813ff03c470dcc7baa9ce36914dc2febdfd276d639deffaac383fd3db42ba3910160405180910390a15b8360010193505050506121a1565b5084600101945050505050611ead565b5060008311806124855750600082115b15612a98576001600160a01b03811615612851576000806000836001600160a01b03166370e0a7e430306001600160a01b031663af640d0f6040518163ffffffff1660e01b8152600401602060405180830381865afa1580156124ec573d6000803e3d6000fd5b505050506040513d601f19601f82011682018060405250810190612510919061364b565b6040517fffffffff0000000000000000000000000000000000000000000000000000000060e085901b1681526001600160a01b0390921660048301526bffffffffffffffffffffffff1660248201526044810188905260648101899052608401606060405180830381865afa15801561258d573d6000803e3d6000fd5b505050506040513d601f19601f820116820180604052508101906125b19190613679565b9250925092508060001461284d576040517f095ea7b30000000000000000000000000000000000000000000000000000000081526001600160a01b038581166004830152602482018490527f0000000000000000000000000000000000000000000000000000000000000000169063095ea7b3906044016020604051808303816000875af1158015612647573d6000803e3d6000fd5b505050506040513d601f19601f8201168201806040525081019061266b9190613502565b506040517f095ea7b30000000000000000000000000000000000000000000000000000000081526001600160a01b038581166004830152602482018590527f0000000000000000000000000000000000000000000000000000000000000000169063095ea7b3906044016020604051808303816000875af11580156126f4573d6000803e3d6000fd5b505050506040513d601f19601f820116820180604052508101906127189190613502565b50836001600160a01b031663ceaf55be306001600160a01b031663af640d0f6040518163ffffffff1660e01b8152600401602060405180830381865afa158015612766573d6000803e3d6000fd5b505050506040513d601f19601f8201168201806040525081019061278a919061364b565b8789336040517fffffffff0000000000000000000000000000000000000000000000000000000060e087901b1681526bffffffffffffffffffffffff9094166004850152602484019290925260448301526001600160a01b031660648201526084016060604051808303816000875af115801561280b573d6000803e3d6000fd5b505050506040513d601f19601f8201168201806040525081019061282f9190613679565b505050828561283e91906135fa565b945061284a82876135fa565b95505b5050505b8115612912576001600160a01b037f00000000000000000000000000000000000000000000000000000000000000001663a9059cbb336040517fffffffff0000000000000000000000000000000000000000000000000000000060e084901b1681526001600160a01b039091166004820152602481018590526044016020604051808303816000875af11580156128ec573d6000803e3d6000fd5b505050506040513d601f19601f820116820180604052508101906129109190613502565b505b82156129d3576001600160a01b037f00000000000000000000000000000000000000000000000000000000000000001663a9059cbb336040517fffffffff0000000000000000000000000000000000000000000000000000000060e084901b1681526001600160a01b039091166004820152602481018690526044016020604051808303816000875af11580156129ad573d6000803e3d6000fd5b505050506040513d601f19601f820116820180604052508101906129d19190613502565b505b604080516001600160a01b037f0000000000000000000000000000000000000000000000000000000000000000168152602081018590527fd0813ff03c470dcc7baa9ce36914dc2febdfd276d639deffaac383fd3db42ba3910160405180910390a1604080516001600160a01b037f0000000000000000000000000000000000000000000000000000000000000000168152602081018490527fd0813ff03c470dcc7baa9ce36914dc2febdfd276d639deffaac383fd3db42ba3910160405180910390a15b50505050565b6040516001600160a01b0380851660248301528316604482015260648101829052612a989085907f23b872dd00000000000000000000000000000000000000000000000000000000906084015b604080517fffffffffffffffffffffffffffffffffffffffffffffffffffffffffffffffe08184030181529190526020810180517bffffffffffffffffffffffffffffffffffffffffffffffffffffffff167fffffffff0000000000000000000000000000000000000000000000000000000090931692909217909152612f82565b6040517f095ea7b30000000000000000000000000000000000000000000000000000000081526001600160a01b0384811660048301526024820184905285169063095ea7b3906044016020604051808303816000875af1158015612bd5573d6000803e3d6000fd5b505050506040513d601f19601f82011682018060405250810190612bf99190613502565b506040517f43a0d0660000000000000000000000000000000000000000000000000000000081526004810182905260248101839052600160448201526001600160a01b038416906343a0d066906064016020604051808303816000875af1158015612c68573d6000803e3d6000fd5b505050506040513d601f19601f82011682018060405250810190612c8c9190613502565b612a98576040517fe41e0e6d00000000000000000000000000000000000000000000000000000000815260040160405180910390fd5b6040516001600160a01b038316602482015260448101829052612d0b9084907fa9059cbb0000000000000000000000000000000000000000000000000000000090606401612aeb565b505050565b6000807f00000000000000000000000000000000000000000000000000000000000000006001600160a01b03166318160ddd6040518163ffffffff1660e01b8152600401602060405180830381865afa158015612d71573d6000803e3d6000fd5b505050506040513d601f19601f82011682018060405250810190612d95919061351f565b905060007f00000000000000000000000000000000000000000000000000000000000000006001600160a01b0316631f96e76f6040518163ffffffff1660e01b8152600401602060405180830381865afa158015612df7573d6000803e3d6000fd5b505050506040513d601f19601f82011682018060405250810190612e1b919061351f565b905060007f00000000000000000000000000000000000000000000000000000000000000006001600160a01b031663aa74e6226040518163ffffffff1660e01b8152600401602060405180830381865afa158015612e7d573d6000803e3d6000fd5b505050506040513d601f19601f82011682018060405250810190612ea1919061351f565b612eab9084613735565b905081811015612f7a576000612ec182846135fa565b905082612ece8288613770565b612ed89190613735565b94506000847f00000000000000000000000000000000000000000000000000000000000000006001600160a01b031663d5abeb016040518163ffffffff1660e01b8152600401602060405180830381865afa158015612f3b573d6000803e3d6000fd5b505050506040513d601f19601f82011682018060405250810190612f5f919061351f565b612f6991906135fa565b905080861115612f77578095505b50505b505050919050565b6000612fd7826040518060400160405280602081526020017f5361666545524332303a206c6f772d6c6576656c2063616c6c206661696c6564815250856001600160a01b03166130869092919063ffffffff16565b805190915015612d0b5780806020019051810190612ff59190613502565b612d0b576040517f08c379a000000000000000000000000000000000000000000000000000000000815260206004820152602a60248201527f5361666545524332303a204552433230206f7065726174696f6e20646964206e60448201527f6f7420737563636565640000000000000000000000000000000000000000000060648201526084015b60405180910390fd5b6060613095848460008561309d565b949350505050565b60608247101561312f576040517f08c379a000000000000000000000000000000000000000000000000000000000815260206004820152602660248201527f416464726573733a20696e73756666696369656e742062616c616e636520666f60448201527f722063616c6c0000000000000000000000000000000000000000000000000000606482015260840161307d565b600080866001600160a01b0316858760405161314b91906137d9565b60006040518083038185875af1925050503d8060008114613188576040519150601f19603f3d011682016040523d82523d6000602084013e61318d565b606091505b509150915061319e878383876131a9565b979650505050505050565b6060831561323257825160000361322b576001600160a01b0385163b61322b576040517f08c379a000000000000000000000000000000000000000000000000000000000815260206004820152601d60248201527f416464726573733a2063616c6c20746f206e6f6e2d636f6e7472616374000000604482015260640161307d565b5081613095565b61309583838151156132475781518083602001fd5b806040517f08c379a000000000000000000000000000000000000000000000000000000000815260040161307d91906137f5565b6001600160a01b038116811461329057600080fd5b50565b6000602082840312156132a557600080fd5b81356132b08161327b565b9392505050565b600080604083850312156132ca57600080fd5b82356132d58161327b565b946020939093013593505050565b6000806000606084860312156132f857600080fd5b83356133038161327b565b925060208401356133138161327b565b929592945050506040919091013590565b602080825282518282018190526000919060409081850190868401855b8281101561336f57815180516001600160a01b03168552860151868501529284019290850190600101613341565b5091979650505050505050565b801515811461329057600080fd5b6000806040838503121561339d57600080fd5b82356132d58161337c565b7f4e487b7100000000000000000000000000000000000000000000000000000000600052604160045260246000fd5b604051610120810167ffffffffffffffff811182821017156133fb576133fb6133a8565b60405290565b604051601f82017fffffffffffffffffffffffffffffffffffffffffffffffffffffffffffffffe016810167ffffffffffffffff81118282101715613448576134486133a8565b604052919050565b6000602080838503121561346357600080fd5b823567ffffffffffffffff8082111561347b57600080fd5b818501915085601f83011261348f57600080fd5b8135818111156134a1576134a16133a8565b8060051b91506134b2848301613401565b81815291830184019184810190888411156134cc57600080fd5b938501935b838510156134f657843592506134e68361327b565b82825293850193908501906134d1565b98975050505050505050565b60006020828403121561351457600080fd5b81516132b08161337c565b60006020828403121561353157600080fd5b5051919050565b7f4e487b7100000000000000000000000000000000000000000000000000000000600052602160045260246000fd5b80516002811061357657600080fd5b919050565b60006020828403121561358d57600080fd5b6132b082613567565b6000602082840312156135a857600080fd5b81516132b08161327b565b7f4e487b7100000000000000000000000000000000000000000000000000000000600052601160045260246000fd5b600082198211156135f5576135f56135b3565b500190565b60008282101561360c5761360c6135b3565b500390565b80516135768161327b565b7f4e487b7100000000000000000000000000000000000000000000000000000000600052603260045260246000fd5b60006020828403121561365d57600080fd5b81516bffffffffffffffffffffffff811681146132b057600080fd5b60008060006060848603121561368e57600080fd5b8351925060208401519150604084015190509250925092565b600061012082840312156136ba57600080fd5b6136c26133d7565b82518152602083015160208201526040830151604082015260608301516060820152608083015160808201526136fa60a08401613611565b60a082015261370b60c08401613567565b60c082015261371c60e08401613611565b60e0820152610100928301519281019290925250919050565b60008261376b577f4e487b7100000000000000000000000000000000000000000000000000000000600052601260045260246000fd5b500490565b6000817fffffffffffffffffffffffffffffffffffffffffffffffffffffffffffffffff04831182151516156137a8576137a86135b3565b500290565b60005b838110156137c85781810151838201526020016137b0565b83811115612a985750506000910152565b600082516137eb8184602087016137ad565b9190910192915050565b60208152600082518060208401526138148160408501602087016137ad565b601f017fffffffffffffffffffffffffffffffffffffffffffffffffffffffffffffffe016919091016040019291505056fea2646970667358221220b2f7a476a33adf676207c1f2161701e065f19b06a1b1f5ae227b7a5547ba26cc64736f6c634300080e0033",
    "linkReferences": {}
  },
  "methodIdentifiers": {
    "CONTROLLER()": "ee0fc121",
    "CRV()": "945c9142",
    "CVX()": "759cb53b",
    "balances(address)": "27e235e3",
    "baseLiability()": "adef15bc",
    "canStake(address)": "36d8bf93",
    "claimRewards(address[])": "f9f031df",
    "claimableRewards(address)": "dc01f60d",
    "controllerTransfer(address,address,uint256)": "9b504387",
    "controllerWithdrawAndUnwrap(address,uint256)": "2eb60d6f",
    "depositERC20(address,uint256)": "97feb926",
    "id()": "af640d0f",
    "isTokenStaked(address)": "b798319f",
    "minter()": "07546172",
    "modifyLiability(bool,uint256)": "dfabefe7",
    "stakeCrvLPCollateral(address)": "de6b50d6",
    "vaultInfo()": "501ec738",
    "withdrawERC20(address,uint256)": "a1db9782"
  },
  "id": 63
}