{
  "abi": [
    {
      "inputs": [],
      "name": "CurveMaster_TokenNotEnabled",
      "type": "error"
    },
    {
      "inputs": [],
      "name": "CurveMaster_ZeroResult",
      "type": "error"
    },
    {
      "anonymous": false,
      "inputs": [
        {
          "indexed": false,
          "internalType": "address",
          "name": "_oldCurveAddress",
          "type": "address"
        },
        {
          "indexed": false,
          "internalType": "address",
          "name": "_token",
          "type": "address"
        },
        {
          "indexed": false,
          "internalType": "address",
          "name": "_newCurveAddress",
          "type": "address"
        }
      ],
      "name": "CurveForceSet",
      "type": "event"
    },
    {
      "anonymous": false,
      "inputs": [
        {
          "indexed": false,
          "internalType": "address",
          "name": "_oldCurveAddress",
          "type": "address"
        },
        {
          "indexed": false,
          "internalType": "address",
          "name": "_token",
          "type": "address"
        },
        {
          "indexed": false,
          "internalType": "address",
          "name": "_newCurveAddress",
          "type": "address"
        }
      ],
      "name": "CurveSet",
      "type": "event"
    },
    {
      "anonymous": false,
      "inputs": [
        {
          "indexed": true,
          "internalType": "address",
          "name": "previousOwner",
          "type": "address"
        },
        {
          "indexed": true,
          "internalType": "address",
          "name": "newOwner",
          "type": "address"
        }
      ],
      "name": "OwnershipTransferred",
      "type": "event"
    },
    {
      "anonymous": false,
      "inputs": [
        {
          "indexed": false,
          "internalType": "address",
          "name": "_oldVaultControllerAddress",
          "type": "address"
        },
        {
          "indexed": false,
          "internalType": "address",
          "name": "_newVaultControllerAddress",
          "type": "address"
        }
      ],
      "name": "VaultControllerSet",
      "type": "event"
    },
    {
      "inputs": [
        {
          "internalType": "address",
          "name": "",
          "type": "address"
        }
      ],
      "name": "curves",
      "outputs": [
        {
          "internalType": "address",
          "name": "",
          "type": "address"
        }
      ],
      "stateMutability": "view",
      "type": "function"
    },
    {
      "inputs": [
        {
          "internalType": "address",
          "name": "_tokenAddress",
          "type": "address"
        },
        {
          "internalType": "address",
          "name": "_curveAddress",
          "type": "address"
        }
      ],
      "name": "forceSetCurve",
      "outputs": [],
      "stateMutability": "nonpayable",
      "type": "function"
    },
    {
      "inputs": [
        {
          "internalType": "address",
          "name": "_tokenAddress",
          "type": "address"
        },
        {
          "internalType": "int256",
          "name": "_xValue",
          "type": "int256"
        }
      ],
      "name": "getValueAt",
      "outputs": [
        {
          "internalType": "int256",
          "name": "_value",
          "type": "int256"
        }
      ],
      "stateMutability": "view",
      "type": "function"
    },
    {
      "inputs": [],
      "name": "owner",
      "outputs": [
        {
          "internalType": "address",
          "name": "",
          "type": "address"
        }
      ],
      "stateMutability": "view",
      "type": "function"
    },
    {
      "inputs": [],
      "name": "renounceOwnership",
      "outputs": [],
      "stateMutability": "nonpayable",
      "type": "function"
    },
    {
      "inputs": [
        {
          "internalType": "address",
          "name": "_tokenAddress",
          "type": "address"
        },
        {
          "internalType": "address",
          "name": "_curveAddress",
          "type": "address"
        }
      ],
      "name": "setCurve",
      "outputs": [],
      "stateMutability": "nonpayable",
      "type": "function"
    },
    {
      "inputs": [
        {
          "internalType": "address",
          "name": "_vaultMasterAddress",
          "type": "address"
        }
      ],
      "name": "setVaultController",
      "outputs": [],
      "stateMutability": "nonpayable",
      "type": "function"
    },
    {
      "inputs": [
        {
          "internalType": "address",
          "name": "newOwner",
          "type": "address"
        }
      ],
      "name": "transferOwnership",
      "outputs": [],
      "stateMutability": "nonpayable",
      "type": "function"
    },
    {
      "inputs": [],
      "name": "vaultControllerAddress",
      "outputs": [
        {
          "internalType": "address",
          "name": "",
          "type": "address"
        }
      ],
      "stateMutability": "view",
      "type": "function"
    }
  ],
  "bytecode": {
    "object": "0x608060405234801561001057600080fd5b5061001a3361001f565b61006f565b600080546001600160a01b038381166001600160a01b0319831681178455604051919092169283917f8be0079c531659141344cd1fd0a4f28419497f9722a3daafe3b4186f6b6457e09190a35050565b6108498061007e6000396000f3fe608060405234801561001057600080fd5b50600436106100a35760003560e01c806399747f1511610076578063d15e1ba91161005b578063d15e1ba914610169578063d661d8ad1461018a578063f2fde38b146101aa57600080fd5b806399747f1514610143578063ca594e6c1461015657600080fd5b80632cc3dc6e146100a8578063715018a6146101085780638da5cb5b14610112578063911b167814610130575b600080fd5b6100de6100b636600461077b565b60016020526000908152604090205473ffffffffffffffffffffffffffffffffffffffff1681565b60405173ffffffffffffffffffffffffffffffffffffffff90911681526020015b60405180910390f35b6101106101bd565b005b60005473ffffffffffffffffffffffffffffffffffffffff166100de565b61011061013e36600461079d565b6101d1565b61011061015136600461077b565b610279565b61011061016436600461079d565b610307565b61017c6101773660046107d0565b610459565b6040519081526020016100ff565b6002546100de9073ffffffffffffffffffffffffffffffffffffffff1681565b6101106101b836600461077b565b6105a0565b6101c561065c565b6101cf60006106dd565b565b6101d961065c565b73ffffffffffffffffffffffffffffffffffffffff82811660008181526001602090815260409182902080548686167fffffffffffffffffffffffff000000000000000000000000000000000000000082168117909255835195168086529185019390935290830191909152907f2dc90dda2fb60ca25e4da58537454469e0345aa97cfe95a5a28f178d6f984bb6906060015b60405180910390a1505050565b61028161065c565b6002805473ffffffffffffffffffffffffffffffffffffffff8381167fffffffffffffffffffffffff000000000000000000000000000000000000000083168117909355604080519190921680825260208201939093527fd806ee5159f2f64e826e1f7e2a22d4cb643ab4ebde9e69dcd35769fefeaeb193910160405180910390a15050565b61030f61065c565b60025473ffffffffffffffffffffffffffffffffffffffff16156103c257600260009054906101000a900473ffffffffffffffffffffffffffffffffffffffff1673ffffffffffffffffffffffffffffffffffffffff1663eb0c49556040518163ffffffff1660e01b81526004016020604051808303816000875af115801561039c573d6000803e3d6000fd5b505050506040513d601f19601f820116820180604052508101906103c091906107fa565b505b73ffffffffffffffffffffffffffffffffffffffff82811660008181526001602090815260409182902080548686167fffffffffffffffffffffffff000000000000000000000000000000000000000082168117909255835195168086529185019390935290830191909152907f6ebcce2fe03cf0c487db907a5b2b08137360e9e2591703e425764b9b97ff37f09060600161026c565b73ffffffffffffffffffffffffffffffffffffffff8281166000908152600160205260408120549091166104b9576040517fa374be0800000000000000000000000000000000000000000000000000000000815260040160405180910390fd5b73ffffffffffffffffffffffffffffffffffffffff838116600090815260016020526040908190205490517f414be42b00000000000000000000000000000000000000000000000000000000815260048101859052911690819063414be42b90602401602060405180830381865afa158015610539573d6000803e3d6000fd5b505050506040513d601f19601f8201168201806040525081019061055d91906107fa565b915081600003610599576040517f5032c75700000000000000000000000000000000000000000000000000000000815260040160405180910390fd5b5092915050565b6105a861065c565b73ffffffffffffffffffffffffffffffffffffffff8116610650576040517f08c379a000000000000000000000000000000000000000000000000000000000815260206004820152602660248201527f4f776e61626c653a206e6577206f776e657220697320746865207a65726f206160448201527f646472657373000000000000000000000000000000000000000000000000000060648201526084015b60405180910390fd5b610659816106dd565b50565b60005473ffffffffffffffffffffffffffffffffffffffff1633146101cf576040517f08c379a000000000000000000000000000000000000000000000000000000000815260206004820181905260248201527f4f776e61626c653a2063616c6c6572206973206e6f7420746865206f776e65726044820152606401610647565b6000805473ffffffffffffffffffffffffffffffffffffffff8381167fffffffffffffffffffffffff0000000000000000000000000000000000000000831681178455604051919092169283917f8be0079c531659141344cd1fd0a4f28419497f9722a3daafe3b4186f6b6457e09190a35050565b803573ffffffffffffffffffffffffffffffffffffffff8116811461077657600080fd5b919050565b60006020828403121561078d57600080fd5b61079682610752565b9392505050565b600080604083850312156107b057600080fd5b6107b983610752565b91506107c760208401610752565b90509250929050565b600080604083850312156107e357600080fd5b6107ec83610752565b946020939093013593505050565b60006020828403121561080c57600080fd5b505191905056fea26469706673582212202900b41461d3318582dfc2fa0310e9138d77a2eee29e38cbe7352c5c1e36fa8064736f6c634300080e0033",
    "linkReferences": {}
  },
  "methodIdentifiers": {
    "curves(address)": "2cc3dc6e",
    "forceSetCurve(address,address)": "911b1678",
    "getValueAt(address,int256)": "d15e1ba9",
    "owner()": "8da5cb5b",
    "renounceOwnership()": "715018a6",
    "setCurve(address,address)": "ca594e6c",
    "setVaultController(address)": "99747f15",
    "transferOwnership(address)": "f2fde38b",
    "vaultControllerAddress()": "d661d8ad"
  },
  "id": 69
}