{
  "abi": [
    {
      "inputs": [
        {
          "internalType": "string",
          "name": "_name",
          "type": "string"
        },
        {
          "internalType": "string",
          "name": "_symbol",
          "type": "string"
        }
      ],
      "stateMutability": "nonpayable",
      "type": "constructor"
    },
    {
      "inputs": [],
      "name": "UFragments_InvalidRecipient",
      "type": "error"
    },
    {
      "inputs": [],
      "name": "UFragments_InvalidSignature",
      "type": "error"
    },
    {
      "anonymous": false,
      "inputs": [
        {
          "indexed": true,
          "internalType": "address",
          "name": "owner",
          "type": "address"
        },
        {
          "indexed": true,
          "internalType": "address",
          "name": "spender",
          "type": "address"
        },
        {
          "indexed": false,
          "internalType": "uint256",
          "name": "value",
          "type": "uint256"
        }
      ],
      "name": "Approval",
      "type": "event"
    },
    {
      "anonymous": false,
      "inputs": [
        {
          "indexed": false,
          "internalType": "address",
          "name": "monetaryPolicy",
          "type": "address"
        }
      ],
      "name": "LogMonetaryPolicyUpdated",
      "type": "event"
    },
    {
      "anonymous": false,
      "inputs": [
        {
          "indexed": true,
          "internalType": "uint256",
          "name": "epoch",
          "type": "uint256"
        },
        {
          "indexed": false,
          "internalType": "uint256",
          "name": "totalSupply",
          "type": "uint256"
        }
      ],
      "name": "LogRebase",
      "type": "event"
    },
    {
      "anonymous": false,
      "inputs": [
        {
          "indexed": true,
          "internalType": "address",
          "name": "previousOwner",
          "type": "address"
        },
        {
          "indexed": true,
          "internalType": "address",
          "name": "newOwner",
          "type": "address"
        }
      ],
      "name": "OwnershipTransferred",
      "type": "event"
    },
    {
      "anonymous": false,
      "inputs": [
        {
          "indexed": true,
          "internalType": "address",
          "name": "from",
          "type": "address"
        },
        {
          "indexed": true,
          "internalType": "address",
          "name": "to",
          "type": "address"
        },
        {
          "indexed": false,
          "internalType": "uint256",
          "name": "value",
          "type": "uint256"
        }
      ],
      "name": "Transfer",
      "type": "event"
    },
    {
      "inputs": [],
      "name": "DOMAIN_SEPARATOR",
      "outputs": [
        {
          "internalType": "bytes32",
          "name": "_domainSeparator",
          "type": "bytes32"
        }
      ],
      "stateMutability": "view",
      "type": "function"
    },
    {
      "inputs": [],
      "name": "EIP712_DOMAIN",
      "outputs": [
        {
          "internalType": "bytes32",
          "name": "",
          "type": "bytes32"
        }
      ],
      "stateMutability": "view",
      "type": "function"
    },
    {
      "inputs": [],
      "name": "EIP712_REVISION",
      "outputs": [
        {
          "internalType": "string",
          "name": "",
          "type": "string"
        }
      ],
      "stateMutability": "view",
      "type": "function"
    },
    {
      "inputs": [],
      "name": "MAX_SUPPLY",
      "outputs": [
        {
          "internalType": "uint256",
          "name": "",
          "type": "uint256"
        }
      ],
      "stateMutability": "view",
      "type": "function"
    },
    {
      "inputs": [],
      "name": "PERMIT_TYPEHASH",
      "outputs": [
        {
          "internalType": "bytes32",
          "name": "",
          "type": "bytes32"
        }
      ],
      "stateMutability": "view",
      "type": "function"
    },
    {
      "inputs": [
        {
          "internalType": "address",
          "name": "",
          "type": "address"
        }
      ],
      "name": "_gonBalances",
      "outputs": [
        {
          "internalType": "uint256",
          "name": "",
          "type": "uint256"
        }
      ],
      "stateMutability": "view",
      "type": "function"
    },
    {
      "inputs": [],
      "name": "_gonsPerFragment",
      "outputs": [
        {
          "internalType": "uint256",
          "name": "",
          "type": "uint256"
        }
      ],
      "stateMutability": "view",
      "type": "function"
    },
    {
      "inputs": [],
      "name": "_totalGons",
      "outputs": [
        {
          "internalType": "uint256",
          "name": "",
          "type": "uint256"
        }
      ],
      "stateMutability": "view",
      "type": "function"
    },
    {
      "inputs": [],
      "name": "_totalSupply",
      "outputs": [
        {
          "internalType": "uint256",
          "name": "",
          "type": "uint256"
        }
      ],
      "stateMutability": "view",
      "type": "function"
    },
    {
      "inputs": [
        {
          "internalType": "address",
          "name": "_owner",
          "type": "address"
        },
        {
          "internalType": "address",
          "name": "_spender",
          "type": "address"
        }
      ],
      "name": "allowance",
      "outputs": [
        {
          "internalType": "uint256",
          "name": "_remaining",
          "type": "uint256"
        }
      ],
      "stateMutability": "view",
      "type": "function"
    },
    {
      "inputs": [
        {
          "internalType": "address",
          "name": "_spender",
          "type": "address"
        },
        {
          "internalType": "uint256",
          "name": "_value",
          "type": "uint256"
        }
      ],
      "name": "approve",
      "outputs": [
        {
          "internalType": "bool",
          "name": "_success",
          "type": "bool"
        }
      ],
      "stateMutability": "nonpayable",
      "type": "function"
    },
    {
      "inputs": [
        {
          "internalType": "address",
          "name": "_who",
          "type": "address"
        }
      ],
      "name": "balanceOf",
      "outputs": [
        {
          "internalType": "uint256",
          "name": "_balance",
          "type": "uint256"
        }
      ],
      "stateMutability": "view",
      "type": "function"
    },
    {
      "inputs": [],
      "name": "decimals",
      "outputs": [
        {
          "internalType": "uint8",
          "name": "",
          "type": "uint8"
        }
      ],
      "stateMutability": "view",
      "type": "function"
    },
    {
      "inputs": [
        {
          "internalType": "address",
          "name": "_spender",
          "type": "address"
        },
        {
          "internalType": "uint256",
          "name": "_subtractedValue",
          "type": "uint256"
        }
      ],
      "name": "decreaseAllowance",
      "outputs": [
        {
          "internalType": "bool",
          "name": "_success",
          "type": "bool"
        }
      ],
      "stateMutability": "nonpayable",
      "type": "function"
    },
    {
      "inputs": [
        {
          "internalType": "address",
          "name": "_spender",
          "type": "address"
        },
        {
          "internalType": "uint256",
          "name": "_addedValue",
          "type": "uint256"
        }
      ],
      "name": "increaseAllowance",
      "outputs": [
        {
          "internalType": "bool",
          "name": "_success",
          "type": "bool"
        }
      ],
      "stateMutability": "nonpayable",
      "type": "function"
    },
    {
      "inputs": [],
      "name": "monetaryPolicy",
      "outputs": [
        {
          "internalType": "address",
          "name": "",
          "type": "address"
        }
      ],
      "stateMutability": "view",
      "type": "function"
    },
    {
      "inputs": [],
      "name": "name",
      "outputs": [
        {
          "internalType": "string",
          "name": "",
          "type": "string"
        }
      ],
      "stateMutability": "view",
      "type": "function"
    },
    {
      "inputs": [
        {
          "internalType": "address",
          "name": "_who",
          "type": "address"
        }
      ],
      "name": "nonces",
      "outputs": [
        {
          "internalType": "uint256",
          "name": "_addressNonces",
          "type": "uint256"
        }
      ],
      "stateMutability": "view",
      "type": "function"
    },
    {
      "inputs": [],
      "name": "owner",
      "outputs": [
        {
          "internalType": "address",
          "name": "",
          "type": "address"
        }
      ],
      "stateMutability": "view",
      "type": "function"
    },
    {
      "inputs": [
        {
          "internalType": "address",
          "name": "_owner",
          "type": "address"
        },
        {
          "internalType": "address",
          "name": "_spender",
          "type": "address"
        },
        {
          "internalType": "uint256",
          "name": "_value",
          "type": "uint256"
        },
        {
          "internalType": "uint256",
          "name": "_deadline",
          "type": "uint256"
        },
        {
          "internalType": "uint8",
          "name": "_v",
          "type": "uint8"
        },
        {
          "internalType": "bytes32",
          "name": "_r",
          "type": "bytes32"
        },
        {
          "internalType": "bytes32",
          "name": "_s",
          "type": "bytes32"
        }
      ],
      "name": "permit",
      "outputs": [],
      "stateMutability": "nonpayable",
      "type": "function"
    },
    {
      "inputs": [],
      "name": "renounceOwnership",
      "outputs": [],
      "stateMutability": "nonpayable",
      "type": "function"
    },
    {
      "inputs": [
        {
          "internalType": "address",
          "name": "_who",
          "type": "address"
        }
      ],
      "name": "scaledBalanceOf",
      "outputs": [
        {
          "internalType": "uint256",
          "name": "_balance",
          "type": "uint256"
        }
      ],
      "stateMutability": "view",
      "type": "function"
    },
    {
      "inputs": [],
      "name": "scaledTotalSupply",
      "outputs": [
        {
          "internalType": "uint256",
          "name": "__totalGons",
          "type": "uint256"
        }
      ],
      "stateMutability": "view",
      "type": "function"
    },
    {
      "inputs": [
        {
          "internalType": "address",
          "name": "_monetaryPolicy",
          "type": "address"
        }
      ],
      "name": "setMonetaryPolicy",
      "outputs": [],
      "stateMutability": "nonpayable",
      "type": "function"
    },
    {
      "inputs": [],
      "name": "symbol",
      "outputs": [
        {
          "internalType": "string",
          "name": "",
          "type": "string"
        }
      ],
      "stateMutability": "view",
      "type": "function"
    },
    {
      "inputs": [],
      "name": "totalSupply",
      "outputs": [
        {
          "internalType": "uint256",
          "name": "__totalSupply",
          "type": "uint256"
        }
      ],
      "stateMutability": "view",
      "type": "function"
    },
    {
      "inputs": [
        {
          "internalType": "address",
          "name": "_to",
          "type": "address"
        },
        {
          "internalType": "uint256",
          "name": "_value",
          "type": "uint256"
        }
      ],
      "name": "transfer",
      "outputs": [
        {
          "internalType": "bool",
          "name": "_success",
          "type": "bool"
        }
      ],
      "stateMutability": "nonpayable",
      "type": "function"
    },
    {
      "inputs": [
        {
          "internalType": "address",
          "name": "_to",
          "type": "address"
        }
      ],
      "name": "transferAll",
      "outputs": [
        {
          "internalType": "bool",
          "name": "_success",
          "type": "bool"
        }
      ],
      "stateMutability": "nonpayable",
      "type": "function"
    },
    {
      "inputs": [
        {
          "internalType": "address",
          "name": "_from",
          "type": "address"
        },
        {
          "internalType": "address",
          "name": "_to",
          "type": "address"
        }
      ],
      "name": "transferAllFrom",
      "outputs": [
        {
          "internalType": "bool",
          "name": "_success",
          "type": "bool"
        }
      ],
      "stateMutability": "nonpayable",
      "type": "function"
    },
    {
      "inputs": [
        {
          "internalType": "address",
          "name": "_from",
          "type": "address"
        },
        {
          "internalType": "address",
          "name": "_to",
          "type": "address"
        },
        {
          "internalType": "uint256",
          "name": "_value",
          "type": "uint256"
        }
      ],
      "name": "transferFrom",
      "outputs": [
        {
          "internalType": "bool",
          "name": "_success",
          "type": "bool"
        }
      ],
      "stateMutability": "nonpayable",
      "type": "function"
    },
    {
      "inputs": [
        {
          "internalType": "address",
          "name": "newOwner",
          "type": "address"
        }
      ],
      "name": "transferOwnership",
      "outputs": [],
      "stateMutability": "nonpayable",
      "type": "function"
    }
  ],
  "bytecode": {
    "object": "0x60806040523480156200001157600080fd5b5060405162001ccf38038062001ccf833981016040819052620000349162000319565b6200003f3362000156565b815162000054906007906020850190620001a6565b5080516200006a906008906020840190620001a6565b50620000796012600a62000498565b62000086906001620004ad565b620000a69073af298d050e4395d69670b12b7f41000000000000620004ad565b6002556001600160801b03600355620000c26012600a62000498565b620000cf906001620004ad565b60048190556002546000805260066020527f54cdd369e4e8a8515e52ca72ec816c2101831ad1f18bf44102ed171459c9b4f8819055620001109190620004cf565b60055560045460405190815260009030907fddf252ad1be2c89b69c2b068fc378daa952ba7f163c4a11628f55a4df523b3ef9060200160405180910390a350506200052e565b600080546001600160a01b038381166001600160a01b0319831681178455604051919092169283917f8be0079c531659141344cd1fd0a4f28419497f9722a3daafe3b4186f6b6457e09190a35050565b828054620001b490620004f2565b90600052602060002090601f016020900481019282620001d8576000855562000223565b82601f10620001f357805160ff191683800117855562000223565b8280016001018555821562000223579182015b828111156200022357825182559160200191906001019062000206565b506200023192915062000235565b5090565b5b8082111562000231576000815560010162000236565b634e487b7160e01b600052604160045260246000fd5b600082601f8301126200027457600080fd5b81516001600160401b03808211156200029157620002916200024c565b604051601f8301601f19908116603f01168101908282118183101715620002bc57620002bc6200024c565b81604052838152602092508683858801011115620002d957600080fd5b600091505b83821015620002fd5785820183015181830184015290820190620002de565b838211156200030f5760008385830101525b9695505050505050565b600080604083850312156200032d57600080fd5b82516001600160401b03808211156200034557600080fd5b620003538683870162000262565b935060208501519150808211156200036a57600080fd5b50620003798582860162000262565b9150509250929050565b634e487b7160e01b600052601160045260246000fd5b600181815b80851115620003da578160001904821115620003be57620003be62000383565b80851615620003cc57918102915b93841c93908002906200039e565b509250929050565b600082620003f35750600162000492565b81620004025750600062000492565b81600181146200041b5760028114620004265762000446565b600191505062000492565b60ff8411156200043a576200043a62000383565b50506001821b62000492565b5060208310610133831016604e8410600b84101617156200046b575081810a62000492565b62000477838362000399565b80600019048211156200048e576200048e62000383565b0290505b92915050565b6000620004a68383620003e2565b9392505050565b6000816000190483118215151615620004ca57620004ca62000383565b500290565b600082620004ed57634e487b7160e01b600052601260045260246000fd5b500490565b600181811c908216806200050757607f821691505b6020821081036200052857634e487b7160e01b600052602260045260246000fd5b50919050565b611791806200053e6000396000f3fe608060405234801561001057600080fd5b50600436106101e55760003560e01c80637ecebe001161010f578063a9059cbb116100a2578063dd62ed3e11610071578063dd62ed3e1461048d578063e1b11da4146104d3578063f2fde38b146104fa578063fd5eb09d1461050d57600080fd5b8063a9059cbb14610456578063b1bf962d14610469578063c4996f5114610471578063d505accf1461047a57600080fd5b80638e27d7d7116100de5780638e27d7d71461040857806395d89b4114610428578063a3a7e7f314610430578063a457c2d71461044357600080fd5b80637ecebe001461036d57806384d4b410146103a35780638b5a6a08146103b65780638da5cb5b146103c957600080fd5b806332cb6b0c116101875780633eaaf86b116101565780633eaaf86b1461030b57806370a0823114610314578063715018a614610327578063781603761461033157600080fd5b806332cb6b0c146102c75780633644e515146102d057806336fed975146102d857806339509351146102f857600080fd5b80631da24f3e116101c35780631da24f3e1461023d57806323b872dd1461027357806330adf81f14610286578063313ce567146102ad57600080fd5b806306fdde03146101ea578063095ea7b31461020857806318160ddd1461022b575b600080fd5b6101f2610516565b6040516101ff919061139c565b60405180910390f35b61021b610216366004611438565b6105a4565b60405190151581526020016101ff565b6004545b6040519081526020016101ff565b61022f61024b366004611462565b73ffffffffffffffffffffffffffffffffffffffff1660009081526006602052604090205490565b61021b610281366004611484565b61061d565b61022f7f6e71edae12b1b97f4d1f60370fef10105fa2faae0126114a169c64845d6126c981565b6102b5601281565b60405160ff90911681526020016101ff565b61022f60035481565b61022f6107f2565b61022f6102e6366004611462565b60066020526000908152604090205481565b61021b610306366004611438565b6108c3565b61022f60045481565b61022f610322366004611462565b610963565b61032f61099d565b005b6101f26040518060400160405280600181526020017f310000000000000000000000000000000000000000000000000000000000000081525081565b61022f61037b366004611462565b73ffffffffffffffffffffffffffffffffffffffff166000908152600a602052604090205490565b61021b6103b13660046114c0565b6109b1565b61032f6103c4366004611462565b610b4e565b60005473ffffffffffffffffffffffffffffffffffffffff165b60405173ffffffffffffffffffffffffffffffffffffffff90911681526020016101ff565b6001546103e39073ffffffffffffffffffffffffffffffffffffffff1681565b6101f2610bcf565b61021b61043e366004611462565b610bdc565b61021b610451366004611438565b610d1e565b61021b610464366004611438565b610dda565b60025461022f565b61022f60055481565b61032f6104883660046114f3565b610f25565b61022f61049b3660046114c0565b73ffffffffffffffffffffffffffffffffffffffff918216600090815260096020908152604080832093909416825291909152205490565b61022f7f8b73c3c69bb8fe3d512ecc4cf759cc79239f7b179b0ffacaa9a75d522b39400f81565b61032f610508366004611462565b6111ea565b61022f60025481565b6007805461052390611566565b80601f016020809104026020016040519081016040528092919081815260200182805461054f90611566565b801561059c5780601f106105715761010080835404028352916020019161059c565b820191906000526020600020905b81548152906001019060200180831161057f57829003601f168201915b505050505081565b33600081815260096020908152604080832073ffffffffffffffffffffffffffffffffffffffff8716808552925280832085905551919290917f8c5be1e5ebec7d5bd14f71427d1e84f3dd0314c0f7b2291e5b200ac8c7c3b9259061060c9086815260200190565b60405180910390a350600192915050565b60008273ffffffffffffffffffffffffffffffffffffffff81161580610658575073ffffffffffffffffffffffffffffffffffffffff811630145b1561068f576040517f8f58b8e100000000000000000000000000000000000000000000000000000000815260040160405180910390fd5b73ffffffffffffffffffffffffffffffffffffffff851660009081526009602090815260408083203384529091529020546106cb9084906115e2565b73ffffffffffffffffffffffffffffffffffffffff8616600090815260096020908152604080832033845290915281209190915560055461070c90856115f9565b73ffffffffffffffffffffffffffffffffffffffff87166000908152600660205260409020549091506107409082906115e2565b73ffffffffffffffffffffffffffffffffffffffff808816600090815260066020526040808220939093559087168152205461077d908290611636565b73ffffffffffffffffffffffffffffffffffffffff80871660008181526006602052604090819020939093559151908816907fddf252ad1be2c89b69c2b068fc378daa952ba7f163c4a11628f55a4df523b3ef906107de9088815260200190565b60405180910390a350600195945050505050565b6000804690507f8b73c3c69bb8fe3d512ecc4cf759cc79239f7b179b0ffacaa9a75d522b39400f6007604051610828919061164e565b604080519182900382208282018252600183527f31000000000000000000000000000000000000000000000000000000000000006020938401528151928301939093528101919091527fc89efdaa54c0f20c7adf612882df0950f5a951637e0307cdcb4c672f298b8bc66060820152608081018290523060a082015260c0016040516020818303038152906040528051906020012091505090565b33600090815260096020908152604080832073ffffffffffffffffffffffffffffffffffffffff861684529091528120546108ff908390611636565b33600081815260096020908152604080832073ffffffffffffffffffffffffffffffffffffffff8916808552908352928190208590555193845290927f8c5be1e5ebec7d5bd14f71427d1e84f3dd0314c0f7b2291e5b200ac8c7c3b925910161060c565b60055473ffffffffffffffffffffffffffffffffffffffff8216600090815260066020526040812054909161099791611720565b92915050565b6109a56112a6565b6109af6000611327565b565b60008173ffffffffffffffffffffffffffffffffffffffff811615806109ec575073ffffffffffffffffffffffffffffffffffffffff811630145b15610a23576040517f8f58b8e100000000000000000000000000000000000000000000000000000000815260040160405180910390fd5b73ffffffffffffffffffffffffffffffffffffffff8416600090815260066020526040812054600554909190610a599083611720565b73ffffffffffffffffffffffffffffffffffffffff87166000908152600960209081526040808320338452909152902054909150610a989082906115e2565b73ffffffffffffffffffffffffffffffffffffffff8088166000818152600960209081526040808320338452825280832095909555918152600690915282812081905590871681522054610aed908390611636565b73ffffffffffffffffffffffffffffffffffffffff80871660008181526006602052604090819020939093559151908816907fddf252ad1be2c89b69c2b068fc378daa952ba7f163c4a11628f55a4df523b3ef906107de9085815260200190565b610b566112a6565b600180547fffffffffffffffffffffffff00000000000000000000000000000000000000001673ffffffffffffffffffffffffffffffffffffffff83169081179091556040519081527f0e6961f1a1afb87eaf51fd64f22ddc10062e23aa7838eac5d0bdf140bfd389729060200160405180910390a150565b6008805461052390611566565b60008173ffffffffffffffffffffffffffffffffffffffff81161580610c17575073ffffffffffffffffffffffffffffffffffffffff811630145b15610c4e576040517f8f58b8e100000000000000000000000000000000000000000000000000000000815260040160405180910390fd5b33600090815260066020526040812054600554909190610c6e9083611720565b3360009081526006602052604080822082905573ffffffffffffffffffffffffffffffffffffffff88168252902054909150610cab908390611636565b73ffffffffffffffffffffffffffffffffffffffff86166000818152600660205260409081902092909255905133907fddf252ad1be2c89b69c2b068fc378daa952ba7f163c4a11628f55a4df523b3ef90610d099085815260200190565b60405180910390a36001935050505b50919050565b33600090815260096020908152604080832073ffffffffffffffffffffffffffffffffffffffff8616845290915281205480831015610d6657610d6183826115e2565b610d69565b60005b33600081815260096020908152604080832073ffffffffffffffffffffffffffffffffffffffff8a16808552908352928190208590555193845290927f8c5be1e5ebec7d5bd14f71427d1e84f3dd0314c0f7b2291e5b200ac8c7c3b925910160405180910390a35060019392505050565b60008273ffffffffffffffffffffffffffffffffffffffff81161580610e15575073ffffffffffffffffffffffffffffffffffffffff811630145b15610e4c576040517f8f58b8e100000000000000000000000000000000000000000000000000000000815260040160405180910390fd5b600060055484610e5c91906115f9565b33600090815260066020526040902054909150610e7a9082906115e2565b336000908152600660205260408082209290925573ffffffffffffffffffffffffffffffffffffffff871681522054610eb4908290611636565b73ffffffffffffffffffffffffffffffffffffffff86166000818152600660205260409081902092909255905133907fddf252ad1be2c89b69c2b068fc378daa952ba7f163c4a11628f55a4df523b3ef90610f129088815260200190565b60405180910390a3506001949350505050565b83421115610f3257600080fd5b73ffffffffffffffffffffffffffffffffffffffff8781166000818152600a602090815260408083205481517f6e71edae12b1b97f4d1f60370fef10105fa2faae0126114a169c64845d6126c98185015280830195909552948b166060850152608084018a905260a0840185905260c08085018a90528151808603909101815260e09094019052825192019190912090610fca6107f2565b6040517f190100000000000000000000000000000000000000000000000000000000000060208201526022810191909152604281018390526062016040516020818303038152906040528051906020012090507f7fffffffffffffffffffffffffffffff5d576e7357a4501ddfe92f46681b20a08460001c111561107a576040517f78ad00a600000000000000000000000000000000000000000000000000000000815260040160405180910390fd5b60408051600081526020810180835283905260ff881691810191909152606081018690526080810185905260019060a0016020604051602081039080840390855afa1580156110cd573d6000803e3d6000fd5b5050506020604051035173ffffffffffffffffffffffffffffffffffffffff168a73ffffffffffffffffffffffffffffffffffffffff161461110e57600080fd5b73ffffffffffffffffffffffffffffffffffffffff8a1661115b576040517f78ad00a600000000000000000000000000000000000000000000000000000000815260040160405180910390fd5b611166836001611636565b73ffffffffffffffffffffffffffffffffffffffff8b81166000818152600a602090815260408083209590955560098152848220938e16808352938152908490208c905592518b8152919290917f8c5be1e5ebec7d5bd14f71427d1e84f3dd0314c0f7b2291e5b200ac8c7c3b925910160405180910390a350505050505050505050565b6111f26112a6565b73ffffffffffffffffffffffffffffffffffffffff811661129a576040517f08c379a000000000000000000000000000000000000000000000000000000000815260206004820152602660248201527f4f776e61626c653a206e6577206f776e657220697320746865207a65726f206160448201527f646472657373000000000000000000000000000000000000000000000000000060648201526084015b60405180910390fd5b6112a381611327565b50565b60005473ffffffffffffffffffffffffffffffffffffffff1633146109af576040517f08c379a000000000000000000000000000000000000000000000000000000000815260206004820181905260248201527f4f776e61626c653a2063616c6c6572206973206e6f7420746865206f776e65726044820152606401611291565b6000805473ffffffffffffffffffffffffffffffffffffffff8381167fffffffffffffffffffffffff0000000000000000000000000000000000000000831681178455604051919092169283917f8be0079c531659141344cd1fd0a4f28419497f9722a3daafe3b4186f6b6457e09190a35050565b600060208083528351808285015260005b818110156113c9578581018301518582016040015282016113ad565b818111156113db576000604083870101525b50601f017fffffffffffffffffffffffffffffffffffffffffffffffffffffffffffffffe016929092016040019392505050565b803573ffffffffffffffffffffffffffffffffffffffff8116811461143357600080fd5b919050565b6000806040838503121561144b57600080fd5b6114548361140f565b946020939093013593505050565b60006020828403121561147457600080fd5b61147d8261140f565b9392505050565b60008060006060848603121561149957600080fd5b6114a28461140f565b92506114b06020850161140f565b9150604084013590509250925092565b600080604083850312156114d357600080fd5b6114dc8361140f565b91506114ea6020840161140f565b90509250929050565b600080600080600080600060e0888a03121561150e57600080fd5b6115178861140f565b96506115256020890161140f565b95506040880135945060608801359350608088013560ff8116811461154957600080fd5b9699959850939692959460a0840135945060c09093013592915050565b600181811c9082168061157a57607f821691505b602082108103610d18577f4e487b7100000000000000000000000000000000000000000000000000000000600052602260045260246000fd5b7f4e487b7100000000000000000000000000000000000000000000000000000000600052601160045260246000fd5b6000828210156115f4576115f46115b3565b500390565b6000817fffffffffffffffffffffffffffffffffffffffffffffffffffffffffffffffff0483118215151615611631576116316115b3565b500290565b60008219821115611649576116496115b3565b500190565b600080835481600182811c91508083168061166a57607f831692505b602080841082036116a2577f4e487b710000000000000000000000000000000000000000000000000000000086526022600452602486fd5b8180156116b657600181146116e557611712565b7fffffffffffffffffffffffffffffffffffffffffffffffffffffffffffffff00861689528489019650611712565b60008a81526020902060005b8681101561170a5781548b8201529085019083016116f1565b505084890196505b509498975050505050505050565b600082611756577f4e487b7100000000000000000000000000000000000000000000000000000000600052601260045260246000fd5b50049056fea2646970667358221220ffae7b9c889645ab34410b7f207b3295d142eb9b6265d96b6bf76e1657d8bb1f64736f6c634300080e0033",
    "linkReferences": {}
  },
  "methodIdentifiers": {
    "DOMAIN_SEPARATOR()": "3644e515",
    "EIP712_DOMAIN()": "e1b11da4",
    "EIP712_REVISION()": "78160376",
    "MAX_SUPPLY()": "32cb6b0c",
    "PERMIT_TYPEHASH()": "30adf81f",
    "_gonBalances(address)": "36fed975",
    "_gonsPerFragment()": "c4996f51",
    "_totalGons()": "fd5eb09d",
    "_totalSupply()": "3eaaf86b",
    "allowance(address,address)": "dd62ed3e",
    "approve(address,uint256)": "095ea7b3",
    "balanceOf(address)": "70a08231",
    "decimals()": "313ce567",
    "decreaseAllowance(address,uint256)": "a457c2d7",
    "increaseAllowance(address,uint256)": "39509351",
    "monetaryPolicy()": "8e27d7d7",
    "name()": "06fdde03",
    "nonces(address)": "7ecebe00",
    "owner()": "8da5cb5b",
    "permit(address,address,uint256,uint256,uint8,bytes32,bytes32)": "d505accf",
    "renounceOwnership()": "715018a6",
    "scaledBalanceOf(address)": "1da24f3e",
    "scaledTotalSupply()": "b1bf962d",
    "setMonetaryPolicy(address)": "8b5a6a08",
    "symbol()": "95d89b41",
    "totalSupply()": "18160ddd",
    "transfer(address,uint256)": "a9059cbb",
    "transferAll(address)": "a3a7e7f3",
    "transferAllFrom(address,address)": "84d4b410",
    "transferFrom(address,address,uint256)": "23b872dd",
    "transferOwnership(address)": "f2fde38b"
  },
  "id": 88
}