{
  "abi": [
    {
      "inputs": [],
      "stateMutability": "nonpayable",
      "type": "constructor"
    },
    {
      "inputs": [
        {
          "internalType": "address",
          "name": "_lptoken",
          "type": "address"
        },
        {
          "internalType": "address",
          "name": "_crvRewards",
          "type": "address"
        }
      ],
      "name": "addPoolInfo",
      "outputs": [
        {
          "internalType": "uint256",
          "name": "_pid",
          "type": "uint256"
        }
      ],
      "stateMutability": "nonpayable",
      "type": "function"
    },
    {
      "inputs": [
        {
          "internalType": "uint256",
          "name": "_pid",
          "type": "uint256"
        },
        {
          "internalType": "uint256",
          "name": "_amount",
          "type": "uint256"
        },
        {
          "internalType": "bool",
          "name": "_stake",
          "type": "bool"
        }
      ],
      "name": "deposit",
      "outputs": [
        {
          "internalType": "bool",
          "name": "_success",
          "type": "bool"
        }
      ],
      "stateMutability": "nonpayable",
      "type": "function"
    },
    {
      "inputs": [],
      "name": "earmarkFees",
      "outputs": [
        {
          "internalType": "bool",
          "name": "_claimed",
          "type": "bool"
        }
      ],
      "stateMutability": "pure",
      "type": "function"
    },
    {
      "inputs": [
        {
          "internalType": "uint256",
          "name": "",
          "type": "uint256"
        }
      ],
      "name": "earmarkRewards",
      "outputs": [
        {
          "internalType": "bool",
          "name": "_claimed",
          "type": "bool"
        }
      ],
      "stateMutability": "pure",
      "type": "function"
    },
    {
      "inputs": [],
      "name": "owner",
      "outputs": [
        {
          "internalType": "address",
          "name": "",
          "type": "address"
        }
      ],
      "stateMutability": "view",
      "type": "function"
    },
    {
      "inputs": [
        {
          "internalType": "uint256",
          "name": "_pid",
          "type": "uint256"
        }
      ],
      "name": "poolInfo",
      "outputs": [
        {
          "internalType": "address",
          "name": "_lptoken",
          "type": "address"
        },
        {
          "internalType": "address",
          "name": "_token",
          "type": "address"
        },
        {
          "internalType": "address",
          "name": "_gauge",
          "type": "address"
        },
        {
          "internalType": "address",
          "name": "_crvRewards",
          "type": "address"
        },
        {
          "internalType": "address",
          "name": "_stash",
          "type": "address"
        },
        {
          "internalType": "bool",
          "name": "_shutdown",
          "type": "bool"
        }
      ],
      "stateMutability": "view",
      "type": "function"
    },
    {
      "inputs": [
        {
          "internalType": "uint256",
          "name": "",
          "type": "uint256"
        }
      ],
      "name": "poolInfos",
      "outputs": [
        {
          "internalType": "address",
          "name": "lptoken",
          "type": "address"
        },
        {
          "internalType": "address",
          "name": "crvRewards",
          "type": "address"
        }
      ],
      "stateMutability": "view",
      "type": "function"
    },
    {
      "inputs": [],
      "name": "pools",
      "outputs": [
        {
          "internalType": "uint256",
          "name": "",
          "type": "uint256"
        }
      ],
      "stateMutability": "view",
      "type": "function"
    },
    {
      "inputs": [
        {
          "internalType": "address",
          "name": "_voteDelegate",
          "type": "address"
        }
      ],
      "name": "setVoteDelegate",
      "outputs": [],
      "stateMutability": "nonpayable",
      "type": "function"
    },
    {
      "inputs": [
        {
          "internalType": "uint256",
          "name": "",
          "type": "uint256"
        },
        {
          "internalType": "address",
          "name": "",
          "type": "address"
        },
        {
          "internalType": "bool",
          "name": "",
          "type": "bool"
        }
      ],
      "name": "vote",
      "outputs": [
        {
          "internalType": "bool",
          "name": "_success",
          "type": "bool"
        }
      ],
      "stateMutability": "pure",
      "type": "function"
    },
    {
      "inputs": [
        {
          "internalType": "address[]",
          "name": "",
          "type": "address[]"
        },
        {
          "internalType": "uint256[]",
          "name": "",
          "type": "uint256[]"
        }
      ],
      "name": "voteGaugeWeight",
      "outputs": [
        {
          "internalType": "bool",
          "name": "_success",
          "type": "bool"
        }
      ],
      "stateMutability": "pure",
      "type": "function"
    }
  ],
  "bytecode": {
    "object": "0x608060405234801561001057600080fd5b50600080546001600160a01b031916331790556108d8806100326000396000f3fe608060405234801561001057600080fd5b50600436106100c95760003560e01c80637487432311610081578063c5c51dca1161005b578063c5c51dca146102a4578063cc956f3f146102ad578063e2cdd42a146102c157600080fd5b806374874323146102345780638da5cb5b14610247578063bfad96ba1461028c57600080fd5b806322230b96116100b257806322230b96146101a057806343a0d066146101b3578063689d84e4146101c657600080fd5b8063075a21c3146100ce5780631526fe27146100f4575b600080fd5b6100e16100dc366004610684565b6102d8565b6040519081526020015b60405180910390f35b6101506101023660046106b7565b60009081526001602081815260408084208151808301909252805473ffffffffffffffffffffffffffffffffffffffff90811680845291909401549093169101819052909282919082908190565b6040805173ffffffffffffffffffffffffffffffffffffffff97881681529587166020870152938616938501939093529084166060840152909216608082015290151560a082015260c0016100eb565b60015b60405190151581526020016100eb565b6101a36101c13660046106de565b6103fb565b6102076101d43660046106b7565b6001602081905260009182526040909120805491015473ffffffffffffffffffffffffffffffffffffffff918216911682565b6040805173ffffffffffffffffffffffffffffffffffffffff9384168152929091166020830152016100eb565b610245610242366004610717565b50565b005b6000546102679073ffffffffffffffffffffffffffffffffffffffff1681565b60405173ffffffffffffffffffffffffffffffffffffffff90911681526020016100eb565b6101a361029a366004610785565b6001949350505050565b6100e160025481565b6101a36102bb3660046106b7565b50600190565b6101a36102cf3660046107f1565b60019392505050565b6000805473ffffffffffffffffffffffffffffffffffffffff16331461035f576040517f08c379a000000000000000000000000000000000000000000000000000000000815260206004820152600a60248201527f6f6e6c79206f776e65720000000000000000000000000000000000000000000060448201526064015b60405180910390fd5b60026000815461036e90610826565b909155505060408051808201825273ffffffffffffffffffffffffffffffffffffffff8085168252838116602080840191825260028054600090815260019283905295909520935184549084167fffffffffffffffffffffffff00000000000000000000000000000000000000009182161785559151930180549390921692169190911790555492915050565b600081610464576040517f08c379a000000000000000000000000000000000000000000000000000000000815260206004820152600a60248201527f6f6e6c79207374616b65000000000000000000000000000000000000000000006044820152606401610356565b60008481526001602081815260409283902083518085018552815473ffffffffffffffffffffffffffffffffffffffff908116825291909301541690820181905291517fa694fc3a0000000000000000000000000000000000000000000000000000000081526004810186905290919063a694fc3a906024016020604051808303816000875af11580156104fc573d6000803e3d6000fd5b505050506040513d601f19601f820116820180604052508101906105209190610885565b50805160208201516040517f23b872dd00000000000000000000000000000000000000000000000000000000815233600482015273ffffffffffffffffffffffffffffffffffffffff8083166024830152604482018890528316906323b872dd906064016020604051808303816000875af11580156105a3573d6000803e3d6000fd5b505050506040513d601f19601f820116820180604052508101906105c79190610885565b506040517f70607f5d0000000000000000000000000000000000000000000000000000000081526004810187905233602482015273ffffffffffffffffffffffffffffffffffffffff8216906370607f5d90604401600060405180830381600087803b15801561063657600080fd5b505af115801561064a573d6000803e3d6000fd5b5060019a9950505050505050505050565b803573ffffffffffffffffffffffffffffffffffffffff8116811461067f57600080fd5b919050565b6000806040838503121561069757600080fd5b6106a08361065b565b91506106ae6020840161065b565b90509250929050565b6000602082840312156106c957600080fd5b5035919050565b801515811461024257600080fd5b6000806000606084860312156106f357600080fd5b8335925060208401359150604084013561070c816106d0565b809150509250925092565b60006020828403121561072957600080fd5b6107328261065b565b9392505050565b60008083601f84011261074b57600080fd5b50813567ffffffffffffffff81111561076357600080fd5b6020830191508360208260051b850101111561077e57600080fd5b9250929050565b6000806000806040858703121561079b57600080fd5b843567ffffffffffffffff808211156107b357600080fd5b6107bf88838901610739565b909650945060208701359150808211156107d857600080fd5b506107e587828801610739565b95989497509550505050565b60008060006060848603121561080657600080fd5b833592506108166020850161065b565b9150604084013561070c816106d0565b60007fffffffffffffffffffffffffffffffffffffffffffffffffffffffffffffffff820361087e577f4e487b7100000000000000000000000000000000000000000000000000000000600052601160045260246000fd5b5060010190565b60006020828403121561089757600080fd5b8151610732816106d056fea26469706673582212206c6e268379b9d4f3e9dd2262adf258e1225d53c8df3e8fbb58b76ecbe5739ed364736f6c634300080e0033",
    "linkReferences": {}
  },
  "methodIdentifiers": {
    "addPoolInfo(address,address)": "075a21c3",
    "deposit(uint256,uint256,bool)": "43a0d066",
    "earmarkFees()": "22230b96",
    "earmarkRewards(uint256)": "cc956f3f",
    "owner()": "8da5cb5b",
    "poolInfo(uint256)": "1526fe27",
    "poolInfos(uint256)": "689d84e4",
    "pools()": "c5c51dca",
    "setVoteDelegate(address)": "74874323",
    "vote(uint256,address,bool)": "e2cdd42a",
    "voteGaugeWeight(address[],uint256[])": "bfad96ba"
  },
  "id": 117
}