{
  "abi": [
    {
      "inputs": [
        {
          "internalType": "address",
          "name": "_cbETHPool",
          "type": "address"
        },
        {
          "internalType": "contract IOracleRelay",
          "name": "_cbEthOracleRelay",
          "type": "address"
        },
        {
          "internalType": "contract IOracleRelay",
          "name": "_ethOracleRelay",
          "type": "address"
        }
      ],
      "stateMutability": "nonpayable",
      "type": "constructor"
    },
    {
      "inputs": [],
      "name": "OracleRelay_DifferentUnderlyings",
      "type": "error"
    },
    {
      "inputs": [],
      "name": "CB_ETH_ORACLE_RELAY",
      "outputs": [
        {
          "internalType": "contract IOracleRelay",
          "name": "",
          "type": "address"
        }
      ],
      "stateMutability": "view",
      "type": "function"
    },
    {
      "inputs": [],
      "name": "CB_ETH_POOL",
      "outputs": [
        {
          "internalType": "contract IV2Pool",
          "name": "",
          "type": "address"
        }
      ],
      "stateMutability": "view",
      "type": "function"
    },
    {
      "inputs": [],
      "name": "CURVE_ADDRESSES_PROVIDER",
      "outputs": [
        {
          "internalType": "contract ICurveAddressesProvider",
          "name": "",
          "type": "address"
        }
      ],
      "stateMutability": "view",
      "type": "function"
    },
    {
      "inputs": [],
      "name": "ETH_ORACLE_RELAY",
      "outputs": [
        {
          "internalType": "contract IOracleRelay",
          "name": "",
          "type": "address"
        }
      ],
      "stateMutability": "view",
      "type": "function"
    },
    {
      "inputs": [],
      "name": "currentValue",
      "outputs": [
        {
          "internalType": "uint256",
          "name": "_currentValue",
          "type": "uint256"
        }
      ],
      "stateMutability": "nonpayable",
      "type": "function"
    },
    {
      "inputs": [],
      "name": "oracleType",
      "outputs": [
        {
          "internalType": "enum IOracleRelay.OracleType",
          "name": "",
          "type": "uint8"
        }
      ],
      "stateMutability": "view",
      "type": "function"
    },
    {
      "inputs": [],
      "name": "peekValue",
      "outputs": [
        {
          "internalType": "uint256",
          "name": "_value",
          "type": "uint256"
        }
      ],
      "stateMutability": "view",
      "type": "function"
    },
    {
      "inputs": [],
      "name": "underlying",
      "outputs": [
        {
          "internalType": "address",
          "name": "",
          "type": "address"
        }
      ],
      "stateMutability": "view",
      "type": "function"
    },
    {
      "inputs": [],
      "name": "virtualPrice",
      "outputs": [
        {
          "internalType": "uint256",
          "name": "",
          "type": "uint256"
        }
      ],
      "stateMutability": "view",
      "type": "function"
    },
    {
      "inputs": [],
      "name": "wETH_ADDRESS",
      "outputs": [
        {
          "internalType": "address",
          "name": "",
          "type": "address"
        }
      ],
      "stateMutability": "view",
      "type": "function"
    }
  ],
  "bytecode": {
    "object": "0x60e060405234801561001057600080fd5b506040516108ab3803806108ab83398101604081905261002f91610190565b6000805460ff191690556001600160a01b0383811660805282811660a052811660c05261008661005e8461008e565b600080546001600160a01b0390921661010002610100600160a81b0319909216919091179055565b5050506101fa565b6000806f22d53366457f9d5e68ec105046fc43836001600160a01b031663a262904b6040518163ffffffff1660e01b8152600401602060405180830381865afa1580156100df573d6000803e3d6000fd5b505050506040513d601f19601f8201168201806040525081019061010391906101dd565b604051633795104960e01b81526001600160a01b03858116600483015291925090821690633795104990602401602060405180830381865afa15801561014d573d6000803e3d6000fd5b505050506040513d601f19601f8201168201806040525081019061017191906101dd565b9392505050565b6001600160a01b038116811461018d57600080fd5b50565b6000806000606084860312156101a557600080fd5b83516101b081610178565b60208501519093506101c181610178565b60408501519092506101d281610178565b809150509250925092565b6000602082840312156101ef57600080fd5b815161017181610178565b60805160a05160c0516106666102456000396000818161018d01526103d90152600081816101c5015261034601526000818161012b0152818161022301526102b401526106666000f3fe608060405234801561001057600080fd5b50600436106100be5760003560e01c80637107b8341161007657806397eacf091161005b57806397eacf09146101b8578063b51ae8f4146101c0578063f523bbc7146101e757600080fd5b80637107b834146101885780638ea875f3146101af57600080fd5b80633e177529116100a75780633e17752914610126578063698996f81461014d5780636f307dc31461016357600080fd5b80630d623e10146100c357806315e303e4146100e6575b600080fd5b6000546100d09060ff1681565b6040516100dd9190610537565b60405180910390f35b61010173c02aaa39b223fe8d0a0e5c4f27ead9083c756cc281565b60405173ffffffffffffffffffffffffffffffffffffffff90911681526020016100dd565b6101017f000000000000000000000000000000000000000000000000000000000000000081565b6101556101fe565b6040519081526020016100dd565b60005461010190610100900473ffffffffffffffffffffffffffffffffffffffff1681565b6101017f000000000000000000000000000000000000000000000000000000000000000081565b61015560015481565b610155610215565b6101017f000000000000000000000000000000000000000000000000000000000000000081565b6101016f22d53366457f9d5e68ec105046fc438381565b600061020861021f565b61021061033a565b905090565b600061021061033a565b60007f000000000000000000000000000000000000000000000000000000000000000073ffffffffffffffffffffffffffffffffffffffff1663bb7b8b806040518163ffffffff1660e01b8152600401602060405180830381865afa15801561028c573d6000803e3d6000fd5b505050506040513d601f19601f820116820180604052508101906102b09190610578565b90507f000000000000000000000000000000000000000000000000000000000000000073ffffffffffffffffffffffffffffffffffffffff1663c93f49e86040518163ffffffff1660e01b8152600401600060405180830381600087803b15801561031a57600080fd5b505af115801561032e573d6000803e3d6000fd5b50505060019190915550565b600080600154905060007f000000000000000000000000000000000000000000000000000000000000000073ffffffffffffffffffffffffffffffffffffffff166397eacf096040518163ffffffff1660e01b8152600401602060405180830381865afa1580156103af573d6000803e3d6000fd5b505050506040513d601f19601f820116820180604052508101906103d39190610578565b905060007f000000000000000000000000000000000000000000000000000000000000000073ffffffffffffffffffffffffffffffffffffffff166397eacf096040518163ffffffff1660e01b8152600401602060405180830381865afa158015610442573d6000803e3d6000fd5b505050506040513d601f19601f820116820180604052508101906104669190610578565b905060006104748284610591565b9050670de0b6b3a764000061050f8270ffffffffffffffffffffffffffffffffff811160071b81811c68ffffffffffffffffff1060061b1781811c64ffffffffff1060051b1781811c62ffffff1060041b1781811c620100000160b5600192831c1b0260121c80830401811c80830401811c80830401811c80830401811c80830401811c80830401811c80830401901c908190048111900390565b61051a866002610591565b6105249190610591565b61052e91906105f5565b94505050505090565b6020810160038310610572577f4e487b7100000000000000000000000000000000000000000000000000000000600052602160045260246000fd5b91905290565b60006020828403121561058a57600080fd5b5051919050565b6000817fffffffffffffffffffffffffffffffffffffffffffffffffffffffffffffffff04831182151516156105f0577f4e487b7100000000000000000000000000000000000000000000000000000000600052601160045260246000fd5b500290565b60008261062b577f4e487b7100000000000000000000000000000000000000000000000000000000600052601260045260246000fd5b50049056fea264697066735822122063b2b946a0e52bf60c057316f42ed46bd88b5ea40162cb9321fbd1d1025649cb64736f6c634300080e0033",
    "linkReferences": {}
  },
  "methodIdentifiers": {
    "CB_ETH_ORACLE_RELAY()": "b51ae8f4",
    "CB_ETH_POOL()": "3e177529",
    "CURVE_ADDRESSES_PROVIDER()": "f523bbc7",
    "ETH_ORACLE_RELAY()": "7107b834",
    "currentValue()": "698996f8",
    "oracleType()": "0d623e10",
    "peekValue()": "97eacf09",
    "underlying()": "6f307dc3",
    "virtualPrice()": "8ea875f3",
    "wETH_ADDRESS()": "15e303e4"
  },
  "id": 72
}