{
  "abi": [
    {
      "inputs": [
        {
          "internalType": "address",
          "name": "_usdaToken",
          "type": "address"
        },
        {
          "internalType": "string",
          "name": "_name",
          "type": "string"
        },
        {
          "internalType": "string",
          "name": "_symbol",
          "type": "string"
        }
      ],
      "stateMutability": "nonpayable",
      "type": "constructor"
    },
    {
      "anonymous": false,
      "inputs": [
        {
          "indexed": true,
          "internalType": "address",
          "name": "owner",
          "type": "address"
        },
        {
          "indexed": true,
          "internalType": "address",
          "name": "spender",
          "type": "address"
        },
        {
          "indexed": false,
          "internalType": "uint256",
          "name": "value",
          "type": "uint256"
        }
      ],
      "name": "Approval",
      "type": "event"
    },
    {
      "anonymous": false,
      "inputs": [
        {
          "indexed": true,
          "internalType": "address",
          "name": "_from",
          "type": "address"
        },
        {
          "indexed": true,
          "internalType": "address",
          "name": "_to",
          "type": "address"
        },
        {
          "indexed": false,
          "internalType": "uint256",
          "name": "_usdaAmount",
          "type": "uint256"
        },
        {
          "indexed": false,
          "internalType": "uint256",
          "name": "_wusdaAmount",
          "type": "uint256"
        }
      ],
      "name": "Deposit",
      "type": "event"
    },
    {
      "anonymous": false,
      "inputs": [
        {
          "indexed": true,
          "internalType": "address",
          "name": "from",
          "type": "address"
        },
        {
          "indexed": true,
          "internalType": "address",
          "name": "to",
          "type": "address"
        },
        {
          "indexed": false,
          "internalType": "uint256",
          "name": "value",
          "type": "uint256"
        }
      ],
      "name": "Transfer",
      "type": "event"
    },
    {
      "anonymous": false,
      "inputs": [
        {
          "indexed": true,
          "internalType": "address",
          "name": "_from",
          "type": "address"
        },
        {
          "indexed": true,
          "internalType": "address",
          "name": "_to",
          "type": "address"
        },
        {
          "indexed": false,
          "internalType": "uint256",
          "name": "_usdaAmount",
          "type": "uint256"
        },
        {
          "indexed": false,
          "internalType": "uint256",
          "name": "_wusdaAmount",
          "type": "uint256"
        }
      ],
      "name": "Withdraw",
      "type": "event"
    },
    {
      "inputs": [],
      "name": "DOMAIN_SEPARATOR",
      "outputs": [
        {
          "internalType": "bytes32",
          "name": "",
          "type": "bytes32"
        }
      ],
      "stateMutability": "view",
      "type": "function"
    },
    {
      "inputs": [],
      "name": "MAX_wUSDA_SUPPLY",
      "outputs": [
        {
          "internalType": "uint256",
          "name": "",
          "type": "uint256"
        }
      ],
      "stateMutability": "view",
      "type": "function"
    },
    {
      "inputs": [],
      "name": "USDA",
      "outputs": [
        {
          "internalType": "address",
          "name": "",
          "type": "address"
        }
      ],
      "stateMutability": "view",
      "type": "function"
    },
    {
      "inputs": [
        {
          "internalType": "address",
          "name": "owner",
          "type": "address"
        },
        {
          "internalType": "address",
          "name": "spender",
          "type": "address"
        }
      ],
      "name": "allowance",
      "outputs": [
        {
          "internalType": "uint256",
          "name": "",
          "type": "uint256"
        }
      ],
      "stateMutability": "view",
      "type": "function"
    },
    {
      "inputs": [
        {
          "internalType": "address",
          "name": "spender",
          "type": "address"
        },
        {
          "internalType": "uint256",
          "name": "amount",
          "type": "uint256"
        }
      ],
      "name": "approve",
      "outputs": [
        {
          "internalType": "bool",
          "name": "",
          "type": "bool"
        }
      ],
      "stateMutability": "nonpayable",
      "type": "function"
    },
    {
      "inputs": [
        {
          "internalType": "address",
          "name": "account",
          "type": "address"
        }
      ],
      "name": "balanceOf",
      "outputs": [
        {
          "internalType": "uint256",
          "name": "",
          "type": "uint256"
        }
      ],
      "stateMutability": "view",
      "type": "function"
    },
    {
      "inputs": [
        {
          "internalType": "address",
          "name": "_owner",
          "type": "address"
        }
      ],
      "name": "balanceOfUnderlying",
      "outputs": [
        {
          "internalType": "uint256",
          "name": "_redeemableUSDA",
          "type": "uint256"
        }
      ],
      "stateMutability": "view",
      "type": "function"
    },
    {
      "inputs": [
        {
          "internalType": "uint256",
          "name": "_wusdaAmount",
          "type": "uint256"
        }
      ],
      "name": "burn",
      "outputs": [
        {
          "internalType": "uint256",
          "name": "_usdaAmount",
          "type": "uint256"
        }
      ],
      "stateMutability": "nonpayable",
      "type": "function"
    },
    {
      "inputs": [],
      "name": "burnAll",
      "outputs": [
        {
          "internalType": "uint256",
          "name": "_usdaAmount",
          "type": "uint256"
        }
      ],
      "stateMutability": "nonpayable",
      "type": "function"
    },
    {
      "inputs": [
        {
          "internalType": "address",
          "name": "_to",
          "type": "address"
        }
      ],
      "name": "burnAllTo",
      "outputs": [
        {
          "internalType": "uint256",
          "name": "_usdaAmount",
          "type": "uint256"
        }
      ],
      "stateMutability": "nonpayable",
      "type": "function"
    },
    {
      "inputs": [
        {
          "internalType": "address",
          "name": "_to",
          "type": "address"
        },
        {
          "internalType": "uint256",
          "name": "_wusdaAmount",
          "type": "uint256"
        }
      ],
      "name": "burnTo",
      "outputs": [
        {
          "internalType": "uint256",
          "name": "_usdaAmount",
          "type": "uint256"
        }
      ],
      "stateMutability": "nonpayable",
      "type": "function"
    },
    {
      "inputs": [],
      "name": "decimals",
      "outputs": [
        {
          "internalType": "uint8",
          "name": "",
          "type": "uint8"
        }
      ],
      "stateMutability": "view",
      "type": "function"
    },
    {
      "inputs": [
        {
          "internalType": "address",
          "name": "spender",
          "type": "address"
        },
        {
          "internalType": "uint256",
          "name": "subtractedValue",
          "type": "uint256"
        }
      ],
      "name": "decreaseAllowance",
      "outputs": [
        {
          "internalType": "bool",
          "name": "",
          "type": "bool"
        }
      ],
      "stateMutability": "nonpayable",
      "type": "function"
    },
    {
      "inputs": [
        {
          "internalType": "uint256",
          "name": "_usdaAmount",
          "type": "uint256"
        }
      ],
      "name": "deposit",
      "outputs": [
        {
          "internalType": "uint256",
          "name": "_wusdaAmount",
          "type": "uint256"
        }
      ],
      "stateMutability": "nonpayable",
      "type": "function"
    },
    {
      "inputs": [
        {
          "internalType": "address",
          "name": "_to",
          "type": "address"
        },
        {
          "internalType": "uint256",
          "name": "_usdaAmount",
          "type": "uint256"
        }
      ],
      "name": "depositFor",
      "outputs": [
        {
          "internalType": "uint256",
          "name": "_wusdaAmount",
          "type": "uint256"
        }
      ],
      "stateMutability": "nonpayable",
      "type": "function"
    },
    {
      "inputs": [
        {
          "internalType": "address",
          "name": "spender",
          "type": "address"
        },
        {
          "internalType": "uint256",
          "name": "addedValue",
          "type": "uint256"
        }
      ],
      "name": "increaseAllowance",
      "outputs": [
        {
          "internalType": "bool",
          "name": "",
          "type": "bool"
        }
      ],
      "stateMutability": "nonpayable",
      "type": "function"
    },
    {
      "inputs": [
        {
          "internalType": "uint256",
          "name": "_wusdaAmount",
          "type": "uint256"
        }
      ],
      "name": "mint",
      "outputs": [
        {
          "internalType": "uint256",
          "name": "_usdaAmount",
          "type": "uint256"
        }
      ],
      "stateMutability": "nonpayable",
      "type": "function"
    },
    {
      "inputs": [
        {
          "internalType": "address",
          "name": "_to",
          "type": "address"
        },
        {
          "internalType": "uint256",
          "name": "_wusdaAmount",
          "type": "uint256"
        }
      ],
      "name": "mintFor",
      "outputs": [
        {
          "internalType": "uint256",
          "name": "_usdaAmount",
          "type": "uint256"
        }
      ],
      "stateMutability": "nonpayable",
      "type": "function"
    },
    {
      "inputs": [],
      "name": "name",
      "outputs": [
        {
          "internalType": "string",
          "name": "",
          "type": "string"
        }
      ],
      "stateMutability": "view",
      "type": "function"
    },
    {
      "inputs": [
        {
          "internalType": "address",
          "name": "owner",
          "type": "address"
        }
      ],
      "name": "nonces",
      "outputs": [
        {
          "internalType": "uint256",
          "name": "",
          "type": "uint256"
        }
      ],
      "stateMutability": "view",
      "type": "function"
    },
    {
      "inputs": [
        {
          "internalType": "address",
          "name": "owner",
          "type": "address"
        },
        {
          "internalType": "address",
          "name": "spender",
          "type": "address"
        },
        {
          "internalType": "uint256",
          "name": "value",
          "type": "uint256"
        },
        {
          "internalType": "uint256",
          "name": "deadline",
          "type": "uint256"
        },
        {
          "internalType": "uint8",
          "name": "v",
          "type": "uint8"
        },
        {
          "internalType": "bytes32",
          "name": "r",
          "type": "bytes32"
        },
        {
          "internalType": "bytes32",
          "name": "s",
          "type": "bytes32"
        }
      ],
      "name": "permit",
      "outputs": [],
      "stateMutability": "nonpayable",
      "type": "function"
    },
    {
      "inputs": [],
      "name": "symbol",
      "outputs": [
        {
          "internalType": "string",
          "name": "",
          "type": "string"
        }
      ],
      "stateMutability": "view",
      "type": "function"
    },
    {
      "inputs": [],
      "name": "totalSupply",
      "outputs": [
        {
          "internalType": "uint256",
          "name": "",
          "type": "uint256"
        }
      ],
      "stateMutability": "view",
      "type": "function"
    },
    {
      "inputs": [],
      "name": "totalUnderlying",
      "outputs": [
        {
          "internalType": "uint256",
          "name": "_usdaAmount",
          "type": "uint256"
        }
      ],
      "stateMutability": "view",
      "type": "function"
    },
    {
      "inputs": [
        {
          "internalType": "address",
          "name": "to",
          "type": "address"
        },
        {
          "internalType": "uint256",
          "name": "amount",
          "type": "uint256"
        }
      ],
      "name": "transfer",
      "outputs": [
        {
          "internalType": "bool",
          "name": "",
          "type": "bool"
        }
      ],
      "stateMutability": "nonpayable",
      "type": "function"
    },
    {
      "inputs": [
        {
          "internalType": "address",
          "name": "from",
          "type": "address"
        },
        {
          "internalType": "address",
          "name": "to",
          "type": "address"
        },
        {
          "internalType": "uint256",
          "name": "amount",
          "type": "uint256"
        }
      ],
      "name": "transferFrom",
      "outputs": [
        {
          "internalType": "bool",
          "name": "",
          "type": "bool"
        }
      ],
      "stateMutability": "nonpayable",
      "type": "function"
    },
    {
      "inputs": [],
      "name": "underlying",
      "outputs": [
        {
          "internalType": "address",
          "name": "_usdaAddress",
          "type": "address"
        }
      ],
      "stateMutability": "view",
      "type": "function"
    },
    {
      "inputs": [
        {
          "internalType": "uint256",
          "name": "_usdaAmount",
          "type": "uint256"
        }
      ],
      "name": "underlyingToWrapper",
      "outputs": [
        {
          "internalType": "uint256",
          "name": "_wusdaAmount",
          "type": "uint256"
        }
      ],
      "stateMutability": "view",
      "type": "function"
    },
    {
      "inputs": [
        {
          "internalType": "uint256",
          "name": "_usdaAmount",
          "type": "uint256"
        }
      ],
      "name": "withdraw",
      "outputs": [
        {
          "internalType": "uint256",
          "name": "_wusdaAmount",
          "type": "uint256"
        }
      ],
      "stateMutability": "nonpayable",
      "type": "function"
    },
    {
      "inputs": [],
      "name": "withdrawAll",
      "outputs": [
        {
          "internalType": "uint256",
          "name": "_wusdaAmount",
          "type": "uint256"
        }
      ],
      "stateMutability": "nonpayable",
      "type": "function"
    },
    {
      "inputs": [
        {
          "internalType": "address",
          "name": "_to",
          "type": "address"
        }
      ],
      "name": "withdrawAllTo",
      "outputs": [
        {
          "internalType": "uint256",
          "name": "_wusdaAmount",
          "type": "uint256"
        }
      ],
      "stateMutability": "nonpayable",
      "type": "function"
    },
    {
      "inputs": [
        {
          "internalType": "address",
          "name": "_to",
          "type": "address"
        },
        {
          "internalType": "uint256",
          "name": "_usdaAmount",
          "type": "uint256"
        }
      ],
      "name": "withdrawTo",
      "outputs": [
        {
          "internalType": "uint256",
          "name": "_wusdaAmount",
          "type": "uint256"
        }
      ],
      "stateMutability": "nonpayable",
      "type": "function"
    },
    {
      "inputs": [
        {
          "internalType": "uint256",
          "name": "_wusdaAmount",
          "type": "uint256"
        }
      ],
      "name": "wrapperToUnderlying",
      "outputs": [
        {
          "internalType": "uint256",
          "name": "_usdaAmount",
          "type": "uint256"
        }
      ],
      "stateMutability": "view",
      "type": "function"
    }
  ],
  "bytecode": {
    "object": "0x6101606040523480156200001257600080fd5b50604051620024be380380620024be83398101604081905262000035916200029c565b8180604051806040016040528060018152602001603160f81b815250848481600390805190602001906200006b92919062000129565b5080516200008190600490602084019062000129565b5050825160209384012082519284019290922060e08390526101008190524660a0818152604080517f8b73c3c69bb8fe3d512ecc4cf759cc79239f7b179b0ffacaa9a75d522b39400f818901819052818301979097526060810194909452608080850193909352308483018190528151808603909301835260c09485019091528151919096012090529290925261012052505050506001600160a01b03166101405262000362565b828054620001379062000326565b90600052602060002090601f0160209004810192826200015b5760008555620001a6565b82601f106200017657805160ff1916838001178555620001a6565b82800160010185558215620001a6579182015b82811115620001a657825182559160200191906001019062000189565b50620001b4929150620001b8565b5090565b5b80821115620001b45760008155600101620001b9565b634e487b7160e01b600052604160045260246000fd5b600082601f830112620001f757600080fd5b81516001600160401b0380821115620002145762000214620001cf565b604051601f8301601f19908116603f011681019082821181831017156200023f576200023f620001cf565b816040528381526020925086838588010111156200025c57600080fd5b600091505b8382101562000280578582018301518183018401529082019062000261565b83821115620002925760008385830101525b9695505050505050565b600080600060608486031215620002b257600080fd5b83516001600160a01b0381168114620002ca57600080fd5b60208501519093506001600160401b0380821115620002e857600080fd5b620002f687838801620001e5565b935060408601519150808211156200030d57600080fd5b506200031c86828701620001e5565b9150509250925092565b600181811c908216806200033b57607f821691505b6020821081036200035c57634e487b7160e01b600052602260045260246000fd5b50919050565b60805160a05160c05160e0516101005161012051610140516120e5620003d9600039600081816103010152818161039401528181610cb101528181610d8b0152611188015260006112b901526000611308015260006112e30152600061123c015260006112660152600061129001526120e56000f3fe608060405234801561001057600080fd5b506004361061020b5760003560e01c8063853828b61161012a578063addce4be116100bd578063d505accf1161008c578063dd62ed3e11610071578063dd62ed3e14610495578063ea785a5e146104db578063ed0287c0146104ee57600080fd5b8063d505accf1461046d578063da1919b31461048257600080fd5b8063addce4be1461042d578063b6b55f251461043f578063c70920bc14610452578063ca9add8f1461045a57600080fd5b8063a457c2d7116100f9578063a457c2d7146103e1578063a4fa9568146103f4578063a9059cbb14610407578063aab3b7db1461041a57600080fd5b8063853828b6146103b657806395d89b41146103be5780639975038c146103c6578063a0712d68146103ce57600080fd5b80633644e515116101a25780636f307dc3116101715780636f307dc3146102ff57806370a08231146103465780637ecebe001461037c57806384fd5db21461038f57600080fd5b80633644e515146102be57806339509351146102c65780633af9e669146102d957806342966c68146102ec57600080fd5b806323b872dd116101de57806323b872dd146102765780632e1a7d4d146102895780632f4f21e21461029c578063313ce567146102af57600080fd5b806306fdde0314610210578063095ea7b31461022e57806318160ddd14610251578063205c287814610263575b600080fd5b610218610501565b6040516102259190611d68565b60405180910390f35b61024161023c366004611ddd565b610593565b6040519015158152602001610225565b6002545b604051908152602001610225565b610255610271366004611ddd565b6105ad565b610241610284366004611e07565b6105cf565b610255610297366004611e43565b6105f3565b6102556102aa366004611ddd565b610615565b60405160128152602001610225565b610255610631565b6102416102d4366004611ddd565b610640565b6102556102e7366004611e5c565b61068c565b6102556102fa366004611e43565b6106c4565b7f00000000000000000000000000000000000000000000000000000000000000005b60405173ffffffffffffffffffffffffffffffffffffffff9091168152602001610225565b610255610354366004611e5c565b73ffffffffffffffffffffffffffffffffffffffff1660009081526020819052604090205490565b61025561038a366004611e5c565b6106e1565b6103217f000000000000000000000000000000000000000000000000000000000000000081565b61025561070c565b610218610736565b610255610745565b6102556103dc366004611e43565b61076a565b6102416103ef366004611ddd565b610786565b610255610402366004611e5c565b61085c565b610241610415366004611ddd565b610887565b610255610428366004611e43565b610895565b6102556a084595161401484a00000081565b61025561044d366004611e43565b6108a3565b6102556108bf565b610255610468366004611e5c565b6108cd565b61048061047b366004611e77565b6108f7565b005b610255610490366004611ddd565b610ab6565b6102556104a3366004611eea565b73ffffffffffffffffffffffffffffffffffffffff918216600090815260016020908152604080832093909416825291909152205490565b6102556104e9366004611ddd565b610ad2565b6102556104fc366004611e43565b610aeb565b60606003805461051090611f1d565b80601f016020809104026020016040519081016040528092919081815260200182805461053c90611f1d565b80156105895780601f1061055e57610100808354040283529160200191610589565b820191906000526020600020905b81548152906001019060200180831161056c57829003601f168201915b5050505050905090565b6000336105a1818585610af9565b60019150505b92915050565b60006105c0826105bb610cad565b610d3e565b90506105a7335b848484610d67565b6000336105dd858285610e28565b6105e8858585610eff565b506001949350505050565b6000610601826105bb610cad565b9050610610335b338484610d67565b919050565b6000610623826105bb610cad565b90506105a73384848461116e565b600061063b611222565b905090565b33600081815260016020908152604080832073ffffffffffffffffffffffffffffffffffffffff871684529091528120549091906105a19082908690610687908790611f99565b610af9565b73ffffffffffffffffffffffffffffffffffffffff81166000908152602081905260408120546105a7905b6106bf610cad565b611356565b60006106d2826106bf610cad565b9050610610335b338385610d67565b73ffffffffffffffffffffffffffffffffffffffff81166000908152600560205260408120546105a7565b600061071733610354565b90506000610727826106bf610cad565b9050610732336106d9565b5090565b60606004805461051090611f1d565b60008061075133610354565b905061075f816106bf610cad565b915061073233610608565b6000610778826106bf610cad565b90506106103333838561116e565b33600081815260016020908152604080832073ffffffffffffffffffffffffffffffffffffffff871684529091528120549091908381101561084f576040517f08c379a000000000000000000000000000000000000000000000000000000000815260206004820152602560248201527f45524332303a2064656372656173656420616c6c6f77616e63652062656c6f7760448201527f207a65726f00000000000000000000000000000000000000000000000000000060648201526084015b60405180910390fd5b6105e88286868403610af9565b60008061086833610354565b9050610876816106bf610cad565b9150610881336105c7565b50919050565b6000336105a1818585610eff565b60006105a7826106bf610cad565b60006108b1826105bb610cad565b90506106103333848461116e565b600061063b6106b760025490565b60006108d833610354565b905060006108e8826106bf610cad565b9050610881335b848385610d67565b83421115610961576040517f08c379a000000000000000000000000000000000000000000000000000000000815260206004820152601d60248201527f45524332305065726d69743a206578706972656420646561646c696e650000006044820152606401610846565b60007f6e71edae12b1b97f4d1f60370fef10105fa2faae0126114a169c64845d6126c98888886109908c61136e565b60408051602081019690965273ffffffffffffffffffffffffffffffffffffffff94851690860152929091166060840152608083015260a082015260c0810186905260e00160405160208183030381529060405280519060200120905060006109f8826113a1565b90506000610a088287878761140a565b90508973ffffffffffffffffffffffffffffffffffffffff168173ffffffffffffffffffffffffffffffffffffffff1614610a9f576040517f08c379a000000000000000000000000000000000000000000000000000000000815260206004820152601e60248201527f45524332305065726d69743a20696e76616c6964207369676e617475726500006044820152606401610846565b610aaa8a8a8a610af9565b50505050505050505050565b6000610ac4826106bf610cad565b90506105a73384838561116e565b6000610ae0826106bf610cad565b90506105a7336108ef565b60006105a7826105bb610cad565b73ffffffffffffffffffffffffffffffffffffffff8316610b9b576040517f08c379a0000000000000000000000000000000000000000000000000000000008152602060048201526024808201527f45524332303a20617070726f76652066726f6d20746865207a65726f2061646460448201527f72657373000000000000000000000000000000000000000000000000000000006064820152608401610846565b73ffffffffffffffffffffffffffffffffffffffff8216610c3e576040517f08c379a000000000000000000000000000000000000000000000000000000000815260206004820152602260248201527f45524332303a20617070726f766520746f20746865207a65726f20616464726560448201527f73730000000000000000000000000000000000000000000000000000000000006064820152608401610846565b73ffffffffffffffffffffffffffffffffffffffff83811660008181526001602090815260408083209487168084529482529182902085905590518481527f8c5be1e5ebec7d5bd14f71427d1e84f3dd0314c0f7b2291e5b200ac8c7c3b92591015b60405180910390a3505050565b60007f000000000000000000000000000000000000000000000000000000000000000073ffffffffffffffffffffffffffffffffffffffff166318160ddd6040518163ffffffff1660e01b8152600401602060405180830381865afa158015610d1a573d6000803e3d6000fd5b505050506040513d601f19601f8201168201806040525081019061063b9190611fb1565b600081610d566a084595161401484a00000085611fca565b610d609190612007565b9392505050565b610d718482611434565b610db273ffffffffffffffffffffffffffffffffffffffff7f00000000000000000000000000000000000000000000000000000000000000001684846115f5565b8273ffffffffffffffffffffffffffffffffffffffff168473ffffffffffffffffffffffffffffffffffffffff167ff341246adaac6f497bc2a656f546ab9e182111d630394f0c57c710a59a2cb5678484604051610e1a929190918252602082015260400190565b60405180910390a350505050565b73ffffffffffffffffffffffffffffffffffffffff8381166000908152600160209081526040808320938616835292905220547fffffffffffffffffffffffffffffffffffffffffffffffffffffffffffffffff8114610ef95781811015610eec576040517f08c379a000000000000000000000000000000000000000000000000000000000815260206004820152601d60248201527f45524332303a20696e73756666696369656e7420616c6c6f77616e63650000006044820152606401610846565b610ef98484848403610af9565b50505050565b73ffffffffffffffffffffffffffffffffffffffff8316610fa2576040517f08c379a000000000000000000000000000000000000000000000000000000000815260206004820152602560248201527f45524332303a207472616e736665722066726f6d20746865207a65726f20616460448201527f64726573730000000000000000000000000000000000000000000000000000006064820152608401610846565b73ffffffffffffffffffffffffffffffffffffffff8216611045576040517f08c379a000000000000000000000000000000000000000000000000000000000815260206004820152602360248201527f45524332303a207472616e7366657220746f20746865207a65726f206164647260448201527f65737300000000000000000000000000000000000000000000000000000000006064820152608401610846565b73ffffffffffffffffffffffffffffffffffffffff8316600090815260208190526040902054818110156110fb576040517f08c379a000000000000000000000000000000000000000000000000000000000815260206004820152602660248201527f45524332303a207472616e7366657220616d6f756e742065786365656473206260448201527f616c616e636500000000000000000000000000000000000000000000000000006064820152608401610846565b73ffffffffffffffffffffffffffffffffffffffff848116600081815260208181526040808320878703905593871680835291849020805487019055925185815290927fddf252ad1be2c89b69c2b068fc378daa952ba7f163c4a11628f55a4df523b3ef910160405180910390a3610ef9565b6111b073ffffffffffffffffffffffffffffffffffffffff7f0000000000000000000000000000000000000000000000000000000000000000168530856116c9565b6111ba8382611727565b8273ffffffffffffffffffffffffffffffffffffffff168473ffffffffffffffffffffffffffffffffffffffff167fdcbc1c05240f31ff3ad067ef1ee35ce4997762752e3a095284754544f4c709d78484604051610e1a929190918252602082015260400190565b60003073ffffffffffffffffffffffffffffffffffffffff7f00000000000000000000000000000000000000000000000000000000000000001614801561128857507f000000000000000000000000000000000000000000000000000000000000000046145b156112b257507f000000000000000000000000000000000000000000000000000000000000000090565b50604080517f00000000000000000000000000000000000000000000000000000000000000006020808301919091527f0000000000000000000000000000000000000000000000000000000000000000828401527f000000000000000000000000000000000000000000000000000000000000000060608301524660808301523060a0808401919091528351808403909101815260c0909201909252805191012090565b60006a084595161401484a000000610d568385611fca565b73ffffffffffffffffffffffffffffffffffffffff81166000908152600560205260409020805460018101825590610881565b60006105a76113ae611222565b836040517f19010000000000000000000000000000000000000000000000000000000000006020820152602281018390526042810182905260009060620160405160208183030381529060405280519060200120905092915050565b600080600061141b8787878761181a565b9150915061142881611909565b5090505b949350505050565b73ffffffffffffffffffffffffffffffffffffffff82166114d7576040517f08c379a000000000000000000000000000000000000000000000000000000000815260206004820152602160248201527f45524332303a206275726e2066726f6d20746865207a65726f2061646472657360448201527f73000000000000000000000000000000000000000000000000000000000000006064820152608401610846565b73ffffffffffffffffffffffffffffffffffffffff82166000908152602081905260409020548181101561158d576040517f08c379a000000000000000000000000000000000000000000000000000000000815260206004820152602260248201527f45524332303a206275726e20616d6f756e7420657863656564732062616c616e60448201527f63650000000000000000000000000000000000000000000000000000000000006064820152608401610846565b73ffffffffffffffffffffffffffffffffffffffff83166000818152602081815260408083208686039055600280548790039055518581529192917fddf252ad1be2c89b69c2b068fc378daa952ba7f163c4a11628f55a4df523b3ef9101610ca0565b505050565b60405173ffffffffffffffffffffffffffffffffffffffff83166024820152604481018290526115f09084907fa9059cbb00000000000000000000000000000000000000000000000000000000906064015b604080517fffffffffffffffffffffffffffffffffffffffffffffffffffffffffffffffe08184030181529190526020810180517bffffffffffffffffffffffffffffffffffffffffffffffffffffffff167fffffffff0000000000000000000000000000000000000000000000000000000090931692909217909152611abf565b60405173ffffffffffffffffffffffffffffffffffffffff80851660248301528316604482015260648101829052610ef99085907f23b872dd0000000000000000000000000000000000000000000000000000000090608401611647565b73ffffffffffffffffffffffffffffffffffffffff82166117a4576040517f08c379a000000000000000000000000000000000000000000000000000000000815260206004820152601f60248201527f45524332303a206d696e7420746f20746865207a65726f2061646472657373006044820152606401610846565b80600260008282546117b69190611f99565b909155505073ffffffffffffffffffffffffffffffffffffffff8216600081815260208181526040808320805486019055518481527fddf252ad1be2c89b69c2b068fc378daa952ba7f163c4a11628f55a4df523b3ef910160405180910390a35050565b6000807f7fffffffffffffffffffffffffffffff5d576e7357a4501ddfe92f46681b20a08311156118515750600090506003611900565b6040805160008082526020820180845289905260ff881692820192909252606081018690526080810185905260019060a0016020604051602081039080840390855afa1580156118a5573d6000803e3d6000fd5b50506040517fffffffffffffffffffffffffffffffffffffffffffffffffffffffffffffffe0015191505073ffffffffffffffffffffffffffffffffffffffff81166118f957600060019250925050611900565b9150600090505b94509492505050565b600081600481111561191d5761191d612042565b036119255750565b600181600481111561193957611939612042565b036119a0576040517f08c379a000000000000000000000000000000000000000000000000000000000815260206004820152601860248201527f45434453413a20696e76616c6964207369676e617475726500000000000000006044820152606401610846565b60028160048111156119b4576119b4612042565b03611a1b576040517f08c379a000000000000000000000000000000000000000000000000000000000815260206004820152601f60248201527f45434453413a20696e76616c6964207369676e6174757265206c656e677468006044820152606401610846565b6003816004811115611a2f57611a2f612042565b03611abc576040517f08c379a000000000000000000000000000000000000000000000000000000000815260206004820152602260248201527f45434453413a20696e76616c6964207369676e6174757265202773272076616c60448201527f75650000000000000000000000000000000000000000000000000000000000006064820152608401610846565b50565b6000611b21826040518060400160405280602081526020017f5361666545524332303a206c6f772d6c6576656c2063616c6c206661696c65648152508573ffffffffffffffffffffffffffffffffffffffff16611bcb9092919063ffffffff16565b8051909150156115f05780806020019051810190611b3f9190612071565b6115f0576040517f08c379a000000000000000000000000000000000000000000000000000000000815260206004820152602a60248201527f5361666545524332303a204552433230206f7065726174696f6e20646964206e60448201527f6f742073756363656564000000000000000000000000000000000000000000006064820152608401610846565b606061142c8484600085856000808673ffffffffffffffffffffffffffffffffffffffff168587604051611bff9190612093565b60006040518083038185875af1925050503d8060008114611c3c576040519150601f19603f3d011682016040523d82523d6000602084013e611c41565b606091505b5091509150611c5287838387611c5d565b979650505050505050565b60608315611cf3578251600003611cec5773ffffffffffffffffffffffffffffffffffffffff85163b611cec576040517f08c379a000000000000000000000000000000000000000000000000000000000815260206004820152601d60248201527f416464726573733a2063616c6c20746f206e6f6e2d636f6e74726163740000006044820152606401610846565b508161142c565b61142c8383815115611d085781518083602001fd5b806040517f08c379a00000000000000000000000000000000000000000000000000000000081526004016108469190611d68565b60005b83811015611d57578181015183820152602001611d3f565b83811115610ef95750506000910152565b6020815260008251806020840152611d87816040850160208701611d3c565b601f017fffffffffffffffffffffffffffffffffffffffffffffffffffffffffffffffe0169190910160400192915050565b803573ffffffffffffffffffffffffffffffffffffffff8116811461061057600080fd5b60008060408385031215611df057600080fd5b611df983611db9565b946020939093013593505050565b600080600060608486031215611e1c57600080fd5b611e2584611db9565b9250611e3360208501611db9565b9150604084013590509250925092565b600060208284031215611e5557600080fd5b5035919050565b600060208284031215611e6e57600080fd5b610d6082611db9565b600080600080600080600060e0888a031215611e9257600080fd5b611e9b88611db9565b9650611ea960208901611db9565b95506040880135945060608801359350608088013560ff81168114611ecd57600080fd5b9699959850939692959460a0840135945060c09093013592915050565b60008060408385031215611efd57600080fd5b611f0683611db9565b9150611f1460208401611db9565b90509250929050565b600181811c90821680611f3157607f821691505b602082108103610881577f4e487b7100000000000000000000000000000000000000000000000000000000600052602260045260246000fd5b7f4e487b7100000000000000000000000000000000000000000000000000000000600052601160045260246000fd5b60008219821115611fac57611fac611f6a565b500190565b600060208284031215611fc357600080fd5b5051919050565b6000817fffffffffffffffffffffffffffffffffffffffffffffffffffffffffffffffff048311821515161561200257612002611f6a565b500290565b60008261203d577f4e487b7100000000000000000000000000000000000000000000000000000000600052601260045260246000fd5b500490565b7f4e487b7100000000000000000000000000000000000000000000000000000000600052602160045260246000fd5b60006020828403121561208357600080fd5b81518015158114610d6057600080fd5b600082516120a5818460208701611d3c565b919091019291505056fea2646970667358221220f280b1067ea0c500c4ef74ec986d75928be9e3be74f128f85be5bd43364c418e64736f6c634300080e0033",
    "linkReferences": {}
  },
  "methodIdentifiers": {
    "DOMAIN_SEPARATOR()": "3644e515",
    "MAX_wUSDA_SUPPLY()": "addce4be",
    "USDA()": "84fd5db2",
    "allowance(address,address)": "dd62ed3e",
    "approve(address,uint256)": "095ea7b3",
    "balanceOf(address)": "70a08231",
    "balanceOfUnderlying(address)": "3af9e669",
    "burn(uint256)": "42966c68",
    "burnAll()": "9975038c",
    "burnAllTo(address)": "a4fa9568",
    "burnTo(address,uint256)": "ea785a5e",
    "decimals()": "313ce567",
    "decreaseAllowance(address,uint256)": "a457c2d7",
    "deposit(uint256)": "b6b55f25",
    "depositFor(address,uint256)": "2f4f21e2",
    "increaseAllowance(address,uint256)": "39509351",
    "mint(uint256)": "a0712d68",
    "mintFor(address,uint256)": "da1919b3",
    "name()": "06fdde03",
    "nonces(address)": "7ecebe00",
    "permit(address,address,uint256,uint256,uint8,bytes32,bytes32)": "d505accf",
    "symbol()": "95d89b41",
    "totalSupply()": "18160ddd",
    "totalUnderlying()": "c70920bc",
    "transfer(address,uint256)": "a9059cbb",
    "transferFrom(address,address,uint256)": "23b872dd",
    "underlying()": "6f307dc3",
    "underlyingToWrapper(uint256)": "ed0287c0",
    "withdraw(uint256)": "2e1a7d4d",
    "withdrawAll()": "853828b6",
    "withdrawAllTo(address)": "ca9add8f",
    "withdrawTo(address,uint256)": "205c2878",
    "wrapperToUnderlying(uint256)": "aab3b7db"
  },
  "id": 66
}