{
  "abi": [
    {
      "inputs": [
        {
          "internalType": "int256",
          "name": "_r0",
          "type": "int256"
        },
        {
          "internalType": "int256",
          "name": "_r1",
          "type": "int256"
        },
        {
          "internalType": "int256",
          "name": "_r2",
          "type": "int256"
        },
        {
          "internalType": "int256",
          "name": "_s1",
          "type": "int256"
        },
        {
          "internalType": "int256",
          "name": "_s2",
          "type": "int256"
        }
      ],
      "stateMutability": "nonpayable",
      "type": "constructor"
    },
    {
      "inputs": [],
      "name": "ThreeLines0_100_InputTooSmall",
      "type": "error"
    },
    {
      "inputs": [],
      "name": "ThreeLines0_100_InvalidBreakpointValues",
      "type": "error"
    },
    {
      "inputs": [],
      "name": "ThreeLines0_100_InvalidCurve",
      "type": "error"
    },
    {
      "inputs": [],
      "name": "R0",
      "outputs": [
        {
          "internalType": "int256",
          "name": "",
          "type": "int256"
        }
      ],
      "stateMutability": "view",
      "type": "function"
    },
    {
      "inputs": [],
      "name": "R1",
      "outputs": [
        {
          "internalType": "int256",
          "name": "",
          "type": "int256"
        }
      ],
      "stateMutability": "view",
      "type": "function"
    },
    {
      "inputs": [],
      "name": "R2",
      "outputs": [
        {
          "internalType": "int256",
          "name": "",
          "type": "int256"
        }
      ],
      "stateMutability": "view",
      "type": "function"
    },
    {
      "inputs": [],
      "name": "S1",
      "outputs": [
        {
          "internalType": "int256",
          "name": "",
          "type": "int256"
        }
      ],
      "stateMutability": "view",
      "type": "function"
    },
    {
      "inputs": [],
      "name": "S2",
      "outputs": [
        {
          "internalType": "int256",
          "name": "",
          "type": "int256"
        }
      ],
      "stateMutability": "view",
      "type": "function"
    },
    {
      "inputs": [
        {
          "internalType": "int256",
          "name": "_xValue",
          "type": "int256"
        }
      ],
      "name": "valueAt",
      "outputs": [
        {
          "internalType": "int256",
          "name": "_value",
          "type": "int256"
        }
      ],
      "stateMutability": "view",
      "type": "function"
    }
  ],
  "bytecode": {
    "object": "0x61012060405234801561001157600080fd5b5060405161085a38038061085a833981016040819052610030916100c1565b82600012801561003f57508383125b801561004a57508484125b6100675760405163a71f639b60e01b815260040160405180910390fd5b81600012801561007657508082125b80156100895750670de0b6b3a764000081125b6100a65760405163356f579560e11b815260040160405180910390fd5b60809490945260a09290925260c05260e05261010052610101565b600080600080600060a086880312156100d957600080fd5b5050835160208501516040860151606087015160809097015192989197509594509092509050565b60805160a05160c05160e051610100516106bd61019d6000396000818160a101528181610284015261032001526000818160c8015281816101b90152818161022f015281816102ff015261035001526000818161013d015281816102d2015261039e01526000818161011601528181610207015281816102b1015261037701526000818160ef015281816101e6015261025601526106bd6000f3fe608060405234801561001057600080fd5b50600436106100725760003560e01c80638d73d86a116100505780638d73d86a146100ea578063b22dd2ca14610111578063fee2cb051461013857600080fd5b8063414be42b14610077578063655817931461009c5780637826f28f146100c3575b600080fd5b61008a61008536600461040c565b61015f565b60405190815260200160405180910390f35b61008a7f000000000000000000000000000000000000000000000000000000000000000081565b61008a7f000000000000000000000000000000000000000000000000000000000000000081565b61008a7f000000000000000000000000000000000000000000000000000000000000000081565b61008a7f000000000000000000000000000000000000000000000000000000000000000081565b61008a7f000000000000000000000000000000000000000000000000000000000000000081565b60008082121561019b576040517f6a8abfdc00000000000000000000000000000000000000000000000000000000815260040160405180910390fd5b670de0b6b3a76400008213156101b757670de0b6b3a764000091505b7f000000000000000000000000000000000000000000000000000000000000000082121561028257600061022b7f00000000000000000000000000000000000000000000000000000000000000007f0000000000000000000000000000000000000000000000000000000000000000610454565b90507f000000000000000000000000000000000000000000000000000000000000000061027a8282867f00000000000000000000000000000000000000000000000000000000000000006103c2565b949350505050565b7f000000000000000000000000000000000000000000000000000000000000000082121561039b5760006102f67f00000000000000000000000000000000000000000000000000000000000000007f0000000000000000000000000000000000000000000000000000000000000000610454565b905060006103447f00000000000000000000000000000000000000000000000000000000000000007f0000000000000000000000000000000000000000000000000000000000000000610454565b905061027a82826103757f000000000000000000000000000000000000000000000000000000000000000088610454565b7f00000000000000000000000000000000000000000000000000000000000000006103c2565b507f0000000000000000000000000000000000000000000000000000000000000000919050565b600080846103d387620f42406104c8565b6103dd9190610584565b905082620f42406103ee86846104c8565b6103f89190610584565b6104029190610613565b9695505050505050565b60006020828403121561041e57600080fd5b5035919050565b7f4e487b7100000000000000000000000000000000000000000000000000000000600052601160045260246000fd5b6000808312837f80000000000000000000000000000000000000000000000000000000000000000183128115161561048e5761048e610425565b837f7fffffffffffffffffffffffffffffffffffffffffffffffffffffffffffffff0183138116156104c2576104c2610425565b50500390565b60007f7fffffffffffffffffffffffffffffffffffffffffffffffffffffffffffffff60008413600084138583048511828216161561050957610509610425565b7f8000000000000000000000000000000000000000000000000000000000000000600087128682058812818416161561054457610544610425565b6000871292508782058712848416161561056057610560610425565b8785058712818416161561057657610576610425565b505050929093029392505050565b6000826105ba577f4e487b7100000000000000000000000000000000000000000000000000000000600052601260045260246000fd5b7fffffffffffffffffffffffffffffffffffffffffffffffffffffffffffffffff83147f80000000000000000000000000000000000000000000000000000000000000008314161561060e5761060e610425565b500590565b6000808212827f7fffffffffffffffffffffffffffffffffffffffffffffffffffffffffffffff0384138115161561064d5761064d610425565b827f800000000000000000000000000000000000000000000000000000000000000003841281161561068157610681610425565b5050019056fea264697066735822122095954dc55aa96fe4ba965bff0dbb651e82afccfe3cf4983f729268d17789fb1364736f6c634300080e0033",
    "linkReferences": {}
  },
  "methodIdentifiers": {
    "R0()": "8d73d86a",
    "R1()": "b22dd2ca",
    "R2()": "fee2cb05",
    "S1()": "7826f28f",
    "S2()": "65581793",
    "valueAt(int256)": "414be42b"
  },
  "id": 87
}