{
  "abi": [
    {
      "inputs": [
        {
          "internalType": "contract IVaultController",
          "name": "_oldVaultController",
          "type": "address"
        },
        {
          "internalType": "address[]",
          "name": "_tokenAddresses",
          "type": "address[]"
        },
        {
          "internalType": "contract IAMPHClaimer",
          "name": "_claimerContract",
          "type": "address"
        },
        {
          "internalType": "contract IVaultDeployer",
          "name": "_vaultDeployer",
          "type": "address"
        },
        {
          "internalType": "uint192",
          "name": "_initialBorrowingFee",
          "type": "uint192"
        },
        {
          "internalType": "address",
          "name": "_booster",
          "type": "address"
        },
        {
          "internalType": "uint192",
          "name": "_liquidationFee",
          "type": "uint192"
        }
      ],
      "stateMutability": "nonpayable",
      "type": "constructor"
    },
    {
      "inputs": [],
      "name": "VaultController_CapReached",
      "type": "error"
    },
    {
      "inputs": [],
      "name": "VaultController_FeeTooLarge",
      "type": "error"
    },
    {
      "inputs": [],
      "name": "VaultController_LTVIncompatible",
      "type": "error"
    },
    {
      "inputs": [],
      "name": "VaultController_LiquidateZeroTokens",
      "type": "error"
    },
    {
      "inputs": [],
      "name": "VaultController_NotValidVault",
      "type": "error"
    },
    {
      "inputs": [],
      "name": "VaultController_OnlyMinter",
      "type": "error"
    },
    {
      "inputs": [],
      "name": "VaultController_OnlyPauser",
      "type": "error"
    },
    {
      "inputs": [],
      "name": "VaultController_OracleNotRegistered",
      "type": "error"
    },
    {
      "inputs": [],
      "name": "VaultController_OverLiquidation",
      "type": "error"
    },
    {
      "inputs": [],
      "name": "VaultController_RepayTooMuch",
      "type": "error"
    },
    {
      "inputs": [],
      "name": "VaultController_TokenAddressDoesNotMatchLpAddress",
      "type": "error"
    },
    {
      "inputs": [],
      "name": "VaultController_TokenAlreadyRegistered",
      "type": "error"
    },
    {
      "inputs": [],
      "name": "VaultController_TokenNotRegistered",
      "type": "error"
    },
    {
      "inputs": [],
      "name": "VaultController_VaultDoesNotExist",
      "type": "error"
    },
    {
      "inputs": [],
      "name": "VaultController_VaultInsolvent",
      "type": "error"
    },
    {
      "inputs": [],
      "name": "VaultController_VaultSolvent",
      "type": "error"
    },
    {
      "inputs": [],
      "name": "VaultController_WrongCollateralAddress",
      "type": "error"
    },
    {
      "anonymous": false,
      "inputs": [
        {
          "indexed": false,
          "internalType": "uint256",
          "name": "_vaultId",
          "type": "uint256"
        },
        {
          "indexed": false,
          "internalType": "address",
          "name": "_vaultAddress",
          "type": "address"
        },
        {
          "indexed": false,
          "internalType": "uint256",
          "name": "_borrowAmount",
          "type": "uint256"
        },
        {
          "indexed": false,
          "internalType": "uint256",
          "name": "_fee",
          "type": "uint256"
        }
      ],
      "name": "BorrowUSDA",
      "type": "event"
    },
    {
      "anonymous": false,
      "inputs": [
        {
          "indexed": false,
          "internalType": "contract IAMPHClaimer",
          "name": "_oldClaimerContract",
          "type": "address"
        },
        {
          "indexed": false,
          "internalType": "contract IAMPHClaimer",
          "name": "_newClaimerContract",
          "type": "address"
        }
      ],
      "name": "ChangedClaimerContract",
      "type": "event"
    },
    {
      "anonymous": false,
      "inputs": [
        {
          "indexed": false,
          "internalType": "uint192",
          "name": "_oldBorrowingFee",
          "type": "uint192"
        },
        {
          "indexed": false,
          "internalType": "uint192",
          "name": "_newBorrowingFee",
          "type": "uint192"
        }
      ],
      "name": "ChangedInitialBorrowingFee",
      "type": "event"
    },
    {
      "anonymous": false,
      "inputs": [
        {
          "indexed": false,
          "internalType": "uint192",
          "name": "_oldLiquidationFee",
          "type": "uint192"
        },
        {
          "indexed": false,
          "internalType": "uint192",
          "name": "_newLiquidationFee",
          "type": "uint192"
        }
      ],
      "name": "ChangedLiquidationFee",
      "type": "event"
    },
    {
      "anonymous": false,
      "inputs": [
        {
          "indexed": false,
          "internalType": "contract IVaultController",
          "name": "_oldVaultController",
          "type": "address"
        },
        {
          "indexed": false,
          "internalType": "address[]",
          "name": "_tokenAddresses",
          "type": "address[]"
        }
      ],
      "name": "CollateralsMigratedFrom",
      "type": "event"
    },
    {
      "anonymous": false,
      "inputs": [
        {
          "indexed": false,
          "internalType": "uint64",
          "name": "_epoch",
          "type": "uint64"
        },
        {
          "indexed": false,
          "internalType": "uint192",
          "name": "_amount",
          "type": "uint192"
        },
        {
          "indexed": false,
          "internalType": "uint256",
          "name": "_curveVal",
          "type": "uint256"
        }
      ],
      "name": "InterestEvent",
      "type": "event"
    },
    {
      "anonymous": false,
      "inputs": [
        {
          "indexed": false,
          "internalType": "uint256",
          "name": "_vaultId",
          "type": "uint256"
        },
        {
          "indexed": false,
          "internalType": "address",
          "name": "_assetAddress",
          "type": "address"
        },
        {
          "indexed": false,
          "internalType": "uint256",
          "name": "_usdaToRepurchase",
          "type": "uint256"
        },
        {
          "indexed": false,
          "internalType": "uint256",
          "name": "_tokensToLiquidate",
          "type": "uint256"
        },
        {
          "indexed": false,
          "internalType": "uint256",
          "name": "_liquidationFee",
          "type": "uint256"
        }
      ],
      "name": "Liquidate",
      "type": "event"
    },
    {
      "anonymous": false,
      "inputs": [
        {
          "indexed": false,
          "internalType": "uint192",
          "name": "_protocolFee",
          "type": "uint192"
        }
      ],
      "name": "NewProtocolFee",
      "type": "event"
    },
    {
      "anonymous": false,
      "inputs": [
        {
          "indexed": false,
          "internalType": "address",
          "name": "_vaultAddress",
          "type": "address"
        },
        {
          "indexed": false,
          "internalType": "uint256",
          "name": "_vaultId",
          "type": "uint256"
        },
        {
          "indexed": false,
          "internalType": "address",
          "name": "_vaultOwner",
          "type": "address"
        }
      ],
      "name": "NewVault",
      "type": "event"
    },
    {
      "anonymous": false,
      "inputs": [
        {
          "indexed": true,
          "internalType": "address",
          "name": "previousOwner",
          "type": "address"
        },
        {
          "indexed": true,
          "internalType": "address",
          "name": "newOwner",
          "type": "address"
        }
      ],
      "name": "OwnershipTransferred",
      "type": "event"
    },
    {
      "anonymous": false,
      "inputs": [
        {
          "indexed": false,
          "internalType": "address",
          "name": "account",
          "type": "address"
        }
      ],
      "name": "Paused",
      "type": "event"
    },
    {
      "anonymous": false,
      "inputs": [
        {
          "indexed": false,
          "internalType": "address",
          "name": "_curveMasterAddress",
          "type": "address"
        }
      ],
      "name": "RegisterCurveMaster",
      "type": "event"
    },
    {
      "anonymous": false,
      "inputs": [
        {
          "indexed": false,
          "internalType": "address",
          "name": "_usdaContractAddress",
          "type": "address"
        }
      ],
      "name": "RegisterUSDA",
      "type": "event"
    },
    {
      "anonymous": false,
      "inputs": [
        {
          "indexed": false,
          "internalType": "address",
          "name": "_tokenAddress",
          "type": "address"
        },
        {
          "indexed": false,
          "internalType": "uint256",
          "name": "_ltv",
          "type": "uint256"
        },
        {
          "indexed": false,
          "internalType": "address",
          "name": "_oracleAddress",
          "type": "address"
        },
        {
          "indexed": false,
          "internalType": "uint256",
          "name": "_liquidationIncentive",
          "type": "uint256"
        },
        {
          "indexed": false,
          "internalType": "uint256",
          "name": "_cap",
          "type": "uint256"
        }
      ],
      "name": "RegisteredErc20",
      "type": "event"
    },
    {
      "anonymous": false,
      "inputs": [
        {
          "indexed": false,
          "internalType": "uint256",
          "name": "_vaultId",
          "type": "uint256"
        },
        {
          "indexed": false,
          "internalType": "address",
          "name": "_vaultAddress",
          "type": "address"
        },
        {
          "indexed": false,
          "internalType": "uint256",
          "name": "_repayAmount",
          "type": "uint256"
        }
      ],
      "name": "RepayUSDA",
      "type": "event"
    },
    {
      "anonymous": false,
      "inputs": [
        {
          "indexed": false,
          "internalType": "address",
          "name": "account",
          "type": "address"
        }
      ],
      "name": "Unpaused",
      "type": "event"
    },
    {
      "anonymous": false,
      "inputs": [
        {
          "indexed": false,
          "internalType": "address",
          "name": "_tokenAddress",
          "type": "address"
        },
        {
          "indexed": false,
          "internalType": "uint256",
          "name": "_ltv",
          "type": "uint256"
        },
        {
          "indexed": false,
          "internalType": "address",
          "name": "_oracleAddress",
          "type": "address"
        },
        {
          "indexed": false,
          "internalType": "uint256",
          "name": "_liquidationIncentive",
          "type": "uint256"
        },
        {
          "indexed": false,
          "internalType": "uint256",
          "name": "_cap",
          "type": "uint256"
        },
        {
          "indexed": false,
          "internalType": "uint256",
          "name": "_poolId",
          "type": "uint256"
        }
      ],
      "name": "UpdateRegisteredErc20",
      "type": "event"
    },
    {
      "inputs": [],
      "name": "BOOSTER",
      "outputs": [
        {
          "internalType": "contract IBooster",
          "name": "",
          "type": "address"
        }
      ],
      "stateMutability": "view",
      "type": "function"
    },
    {
      "inputs": [],
      "name": "DOUBLE_SCALE",
      "outputs": [
        {
          "internalType": "uint256",
          "name": "",
          "type": "uint256"
        }
      ],
      "stateMutability": "view",
      "type": "function"
    },
    {
      "inputs": [],
      "name": "EXP_SCALE",
      "outputs": [
        {
          "internalType": "uint256",
          "name": "",
          "type": "uint256"
        }
      ],
      "stateMutability": "view",
      "type": "function"
    },
    {
      "inputs": [],
      "name": "HALF_EXP_SCALE",
      "outputs": [
        {
          "internalType": "uint256",
          "name": "",
          "type": "uint256"
        }
      ],
      "stateMutability": "view",
      "type": "function"
    },
    {
      "inputs": [],
      "name": "MANTISSA_ONE",
      "outputs": [
        {
          "internalType": "uint256",
          "name": "",
          "type": "uint256"
        }
      ],
      "stateMutability": "view",
      "type": "function"
    },
    {
      "inputs": [],
      "name": "MAX_INIT_BORROWING_FEE",
      "outputs": [
        {
          "internalType": "uint192",
          "name": "",
          "type": "uint192"
        }
      ],
      "stateMutability": "view",
      "type": "function"
    },
    {
      "inputs": [],
      "name": "UINT128_MAX",
      "outputs": [
        {
          "internalType": "uint256",
          "name": "",
          "type": "uint256"
        }
      ],
      "stateMutability": "view",
      "type": "function"
    },
    {
      "inputs": [],
      "name": "UINT192_MAX",
      "outputs": [
        {
          "internalType": "uint256",
          "name": "",
          "type": "uint256"
        }
      ],
      "stateMutability": "view",
      "type": "function"
    },
    {
      "inputs": [],
      "name": "VAULT_DEPLOYER",
      "outputs": [
        {
          "internalType": "contract IVaultDeployer",
          "name": "",
          "type": "address"
        }
      ],
      "stateMutability": "view",
      "type": "function"
    },
    {
      "inputs": [
        {
          "internalType": "uint96",
          "name": "_id",
          "type": "uint96"
        }
      ],
      "name": "amountToSolvency",
      "outputs": [
        {
          "internalType": "uint256",
          "name": "_usdaToSolvency",
          "type": "uint256"
        }
      ],
      "stateMutability": "view",
      "type": "function"
    },
    {
      "inputs": [
        {
          "internalType": "uint96",
          "name": "_id",
          "type": "uint96"
        },
        {
          "internalType": "uint192",
          "name": "_amount",
          "type": "uint192"
        }
      ],
      "name": "borrowUSDA",
      "outputs": [],
      "stateMutability": "nonpayable",
      "type": "function"
    },
    {
      "inputs": [
        {
          "internalType": "uint96",
          "name": "_id",
          "type": "uint96"
        },
        {
          "internalType": "uint192",
          "name": "_amount",
          "type": "uint192"
        },
        {
          "internalType": "address",
          "name": "_target",
          "type": "address"
        }
      ],
      "name": "borrowUSDAto",
      "outputs": [],
      "stateMutability": "nonpayable",
      "type": "function"
    },
    {
      "inputs": [
        {
          "internalType": "uint96",
          "name": "_id",
          "type": "uint96"
        },
        {
          "internalType": "uint192",
          "name": "_susdAmount",
          "type": "uint192"
        },
        {
          "internalType": "address",
          "name": "_target",
          "type": "address"
        }
      ],
      "name": "borrowsUSDto",
      "outputs": [],
      "stateMutability": "nonpayable",
      "type": "function"
    },
    {
      "inputs": [],
      "name": "calculateInterest",
      "outputs": [
        {
          "internalType": "uint256",
          "name": "_interest",
          "type": "uint256"
        }
      ],
      "stateMutability": "nonpayable",
      "type": "function"
    },
    {
      "inputs": [
        {
          "internalType": "contract IAMPHClaimer",
          "name": "_newClaimerContract",
          "type": "address"
        }
      ],
      "name": "changeClaimerContract",
      "outputs": [],
      "stateMutability": "nonpayable",
      "type": "function"
    },
    {
      "inputs": [
        {
          "internalType": "uint192",
          "name": "_newBorrowingFee",
          "type": "uint192"
        }
      ],
      "name": "changeInitialBorrowingFee",
      "outputs": [],
      "stateMutability": "nonpayable",
      "type": "function"
    },
    {
      "inputs": [
        {
          "internalType": "uint192",
          "name": "_newLiquidationFee",
          "type": "uint192"
        }
      ],
      "name": "changeLiquidationFee",
      "outputs": [],
      "stateMutability": "nonpayable",
      "type": "function"
    },
    {
      "inputs": [
        {
          "internalType": "uint192",
          "name": "_newProtocolFee",
          "type": "uint192"
        }
      ],
      "name": "changeProtocolFee",
      "outputs": [],
      "stateMutability": "nonpayable",
      "type": "function"
    },
    {
      "inputs": [
        {
          "internalType": "uint96",
          "name": "_id",
          "type": "uint96"
        }
      ],
      "name": "checkVault",
      "outputs": [
        {
          "internalType": "bool",
          "name": "_overCollateralized",
          "type": "bool"
        }
      ],
      "stateMutability": "nonpayable",
      "type": "function"
    },
    {
      "inputs": [],
      "name": "claimerContract",
      "outputs": [
        {
          "internalType": "contract IAMPHClaimer",
          "name": "",
          "type": "address"
        }
      ],
      "stateMutability": "view",
      "type": "function"
    },
    {
      "inputs": [],
      "name": "curveMaster",
      "outputs": [
        {
          "internalType": "contract CurveMaster",
          "name": "",
          "type": "address"
        }
      ],
      "stateMutability": "view",
      "type": "function"
    },
    {
      "inputs": [
        {
          "internalType": "uint256",
          "name": "",
          "type": "uint256"
        }
      ],
      "name": "enabledTokens",
      "outputs": [
        {
          "internalType": "address",
          "name": "",
          "type": "address"
        }
      ],
      "stateMutability": "view",
      "type": "function"
    },
    {
      "inputs": [
        {
          "internalType": "uint192",
          "name": "_amount",
          "type": "uint192"
        }
      ],
      "name": "getBorrowingFee",
      "outputs": [
        {
          "internalType": "uint192",
          "name": "_fee",
          "type": "uint192"
        }
      ],
      "stateMutability": "view",
      "type": "function"
    },
    {
      "inputs": [
        {
          "internalType": "uint256",
          "name": "_start",
          "type": "uint256"
        },
        {
          "internalType": "uint256",
          "name": "_end",
          "type": "uint256"
        }
      ],
      "name": "getCollateralsInfo",
      "outputs": [
        {
          "components": [
            {
              "internalType": "uint256",
              "name": "tokenId",
              "type": "uint256"
            },
            {
              "internalType": "uint256",
              "name": "ltv",
              "type": "uint256"
            },
            {
              "internalType": "uint256",
              "name": "cap",
              "type": "uint256"
            },
            {
              "internalType": "uint256",
              "name": "totalDeposited",
              "type": "uint256"
            },
            {
              "internalType": "uint256",
              "name": "liquidationIncentive",
              "type": "uint256"
            },
            {
              "internalType": "contract IOracleRelay",
              "name": "oracle",
              "type": "address"
            },
            {
              "internalType": "enum IVaultController.CollateralType",
              "name": "collateralType",
              "type": "uint8"
            },
            {
              "internalType": "contract IBaseRewardPool",
              "name": "crvRewardsContract",
              "type": "address"
            },
            {
              "internalType": "uint256",
              "name": "poolId",
              "type": "uint256"
            }
          ],
          "internalType": "struct IVaultController.CollateralInfo[]",
          "name": "_collateralsInfo",
          "type": "tuple[]"
        }
      ],
      "stateMutability": "view",
      "type": "function"
    },
    {
      "inputs": [],
      "name": "getEnabledTokens",
      "outputs": [
        {
          "internalType": "address[]",
          "name": "_enabledTokens",
          "type": "address[]"
        }
      ],
      "stateMutability": "view",
      "type": "function"
    },
    {
      "inputs": [
        {
          "internalType": "uint192",
          "name": "_tokensToLiquidate",
          "type": "uint192"
        },
        {
          "internalType": "address",
          "name": "_assetAddress",
          "type": "address"
        }
      ],
      "name": "getLiquidationFee",
      "outputs": [
        {
          "internalType": "uint192",
          "name": "_fee",
          "type": "uint192"
        }
      ],
      "stateMutability": "view",
      "type": "function"
    },
    {
      "inputs": [],
      "name": "initialBorrowingFee",
      "outputs": [
        {
          "internalType": "uint192",
          "name": "",
          "type": "uint192"
        }
      ],
      "stateMutability": "view",
      "type": "function"
    },
    {
      "inputs": [],
      "name": "interest",
      "outputs": [
        {
          "internalType": "uint64",
          "name": "lastTime",
          "type": "uint64"
        },
        {
          "internalType": "uint192",
          "name": "factor",
          "type": "uint192"
        }
      ],
      "stateMutability": "view",
      "type": "function"
    },
    {
      "inputs": [],
      "name": "interestFactor",
      "outputs": [
        {
          "internalType": "uint192",
          "name": "_interestFactor",
          "type": "uint192"
        }
      ],
      "stateMutability": "view",
      "type": "function"
    },
    {
      "inputs": [],
      "name": "lastInterestTime",
      "outputs": [
        {
          "internalType": "uint64",
          "name": "_lastInterestTime",
          "type": "uint64"
        }
      ],
      "stateMutability": "view",
      "type": "function"
    },
    {
      "inputs": [
        {
          "internalType": "uint96",
          "name": "_id",
          "type": "uint96"
        },
        {
          "internalType": "address",
          "name": "_assetAddress",
          "type": "address"
        },
        {
          "internalType": "uint256",
          "name": "_tokensToLiquidate",
          "type": "uint256"
        }
      ],
      "name": "liquidateVault",
      "outputs": [
        {
          "internalType": "uint256",
          "name": "_toLiquidate",
          "type": "uint256"
        }
      ],
      "stateMutability": "nonpayable",
      "type": "function"
    },
    {
      "inputs": [],
      "name": "liquidationFee",
      "outputs": [
        {
          "internalType": "uint192",
          "name": "",
          "type": "uint192"
        }
      ],
      "stateMutability": "view",
      "type": "function"
    },
    {
      "inputs": [],
      "name": "mintVault",
      "outputs": [
        {
          "internalType": "address",
          "name": "_vaultAddress",
          "type": "address"
        }
      ],
      "stateMutability": "nonpayable",
      "type": "function"
    },
    {
      "inputs": [
        {
          "internalType": "uint96",
          "name": "_vaultID",
          "type": "uint96"
        },
        {
          "internalType": "uint256",
          "name": "_amount",
          "type": "uint256"
        },
        {
          "internalType": "address",
          "name": "_token",
          "type": "address"
        },
        {
          "internalType": "bool",
          "name": "_increase",
          "type": "bool"
        }
      ],
      "name": "modifyTotalDeposited",
      "outputs": [],
      "stateMutability": "nonpayable",
      "type": "function"
    },
    {
      "inputs": [],
      "name": "owner",
      "outputs": [
        {
          "internalType": "address",
          "name": "",
          "type": "address"
        }
      ],
      "stateMutability": "view",
      "type": "function"
    },
    {
      "inputs": [],
      "name": "pause",
      "outputs": [],
      "stateMutability": "nonpayable",
      "type": "function"
    },
    {
      "inputs": [],
      "name": "paused",
      "outputs": [
        {
          "internalType": "bool",
          "name": "",
          "type": "bool"
        }
      ],
      "stateMutability": "view",
      "type": "function"
    },
    {
      "inputs": [
        {
          "internalType": "uint96",
          "name": "_id",
          "type": "uint96"
        }
      ],
      "name": "peekCheckVault",
      "outputs": [
        {
          "internalType": "bool",
          "name": "_overCollateralized",
          "type": "bool"
        }
      ],
      "stateMutability": "view",
      "type": "function"
    },
    {
      "inputs": [],
      "name": "protocolFee",
      "outputs": [
        {
          "internalType": "uint192",
          "name": "",
          "type": "uint192"
        }
      ],
      "stateMutability": "view",
      "type": "function"
    },
    {
      "inputs": [
        {
          "internalType": "address",
          "name": "_masterCurveAddress",
          "type": "address"
        }
      ],
      "name": "registerCurveMaster",
      "outputs": [],
      "stateMutability": "nonpayable",
      "type": "function"
    },
    {
      "inputs": [
        {
          "internalType": "address",
          "name": "_tokenAddress",
          "type": "address"
        },
        {
          "internalType": "uint256",
          "name": "_ltv",
          "type": "uint256"
        },
        {
          "internalType": "address",
          "name": "_oracleAddress",
          "type": "address"
        },
        {
          "internalType": "uint256",
          "name": "_liquidationIncentive",
          "type": "uint256"
        },
        {
          "internalType": "uint256",
          "name": "_cap",
          "type": "uint256"
        },
        {
          "internalType": "uint256",
          "name": "_poolId",
          "type": "uint256"
        }
      ],
      "name": "registerErc20",
      "outputs": [],
      "stateMutability": "nonpayable",
      "type": "function"
    },
    {
      "inputs": [
        {
          "internalType": "address",
          "name": "_usdaAddress",
          "type": "address"
        }
      ],
      "name": "registerUSDA",
      "outputs": [],
      "stateMutability": "nonpayable",
      "type": "function"
    },
    {
      "inputs": [],
      "name": "renounceOwnership",
      "outputs": [],
      "stateMutability": "nonpayable",
      "type": "function"
    },
    {
      "inputs": [
        {
          "internalType": "uint96",
          "name": "_id",
          "type": "uint96"
        }
      ],
      "name": "repayAllUSDA",
      "outputs": [],
      "stateMutability": "nonpayable",
      "type": "function"
    },
    {
      "inputs": [
        {
          "internalType": "uint96",
          "name": "_id",
          "type": "uint96"
        },
        {
          "internalType": "uint192",
          "name": "_amount",
          "type": "uint192"
        }
      ],
      "name": "repayUSDA",
      "outputs": [],
      "stateMutability": "nonpayable",
      "type": "function"
    },
    {
      "inputs": [
        {
          "internalType": "uint96",
          "name": "_id",
          "type": "uint96"
        },
        {
          "internalType": "address",
          "name": "_assetAddress",
          "type": "address"
        },
        {
          "internalType": "uint256",
          "name": "_tokensToLiquidate",
          "type": "uint256"
        }
      ],
      "name": "simulateLiquidateVault",
      "outputs": [
        {
          "internalType": "uint256",
          "name": "_collateralLiquidated",
          "type": "uint256"
        },
        {
          "internalType": "uint256",
          "name": "_usdaPaid",
          "type": "uint256"
        }
      ],
      "stateMutability": "view",
      "type": "function"
    },
    {
      "inputs": [
        {
          "internalType": "address",
          "name": "",
          "type": "address"
        }
      ],
      "name": "tokenAddressCollateralInfo",
      "outputs": [
        {
          "internalType": "uint256",
          "name": "tokenId",
          "type": "uint256"
        },
        {
          "internalType": "uint256",
          "name": "ltv",
          "type": "uint256"
        },
        {
          "internalType": "uint256",
          "name": "cap",
          "type": "uint256"
        },
        {
          "internalType": "uint256",
          "name": "totalDeposited",
          "type": "uint256"
        },
        {
          "internalType": "uint256",
          "name": "liquidationIncentive",
          "type": "uint256"
        },
        {
          "internalType": "contract IOracleRelay",
          "name": "oracle",
          "type": "address"
        },
        {
          "internalType": "enum IVaultController.CollateralType",
          "name": "collateralType",
          "type": "uint8"
        },
        {
          "internalType": "contract IBaseRewardPool",
          "name": "crvRewardsContract",
          "type": "address"
        },
        {
          "internalType": "uint256",
          "name": "poolId",
          "type": "uint256"
        }
      ],
      "stateMutability": "view",
      "type": "function"
    },
    {
      "inputs": [
        {
          "internalType": "address",
          "name": "_tokenAddress",
          "type": "address"
        }
      ],
      "name": "tokenCap",
      "outputs": [
        {
          "internalType": "uint256",
          "name": "_cap",
          "type": "uint256"
        }
      ],
      "stateMutability": "view",
      "type": "function"
    },
    {
      "inputs": [
        {
          "internalType": "address",
          "name": "_tokenAddress",
          "type": "address"
        }
      ],
      "name": "tokenCollateralInfo",
      "outputs": [
        {
          "components": [
            {
              "internalType": "uint256",
              "name": "tokenId",
              "type": "uint256"
            },
            {
              "internalType": "uint256",
              "name": "ltv",
              "type": "uint256"
            },
            {
              "internalType": "uint256",
              "name": "cap",
              "type": "uint256"
            },
            {
              "internalType": "uint256",
              "name": "totalDeposited",
              "type": "uint256"
            },
            {
              "internalType": "uint256",
              "name": "liquidationIncentive",
              "type": "uint256"
            },
            {
              "internalType": "contract IOracleRelay",
              "name": "oracle",
              "type": "address"
            },
            {
              "internalType": "enum IVaultController.CollateralType",
              "name": "collateralType",
              "type": "uint8"
            },
            {
              "internalType": "contract IBaseRewardPool",
              "name": "crvRewardsContract",
              "type": "address"
            },
            {
              "internalType": "uint256",
              "name": "poolId",
              "type": "uint256"
            }
          ],
          "internalType": "struct IVaultController.CollateralInfo",
          "name": "_collateralInfo",
          "type": "tuple"
        }
      ],
      "stateMutability": "view",
      "type": "function"
    },
    {
      "inputs": [
        {
          "internalType": "address",
          "name": "_tokenAddress",
          "type": "address"
        }
      ],
      "name": "tokenCollateralType",
      "outputs": [
        {
          "internalType": "enum IVaultController.CollateralType",
          "name": "_type",
          "type": "uint8"
        }
      ],
      "stateMutability": "view",
      "type": "function"
    },
    {
      "inputs": [
        {
          "internalType": "address",
          "name": "_tokenAddress",
          "type": "address"
        }
      ],
      "name": "tokenCrvRewardsContract",
      "outputs": [
        {
          "internalType": "contract IBaseRewardPool",
          "name": "_crvRewardsContract",
          "type": "address"
        }
      ],
      "stateMutability": "view",
      "type": "function"
    },
    {
      "inputs": [
        {
          "internalType": "address",
          "name": "_tokenAddress",
          "type": "address"
        }
      ],
      "name": "tokenId",
      "outputs": [
        {
          "internalType": "uint256",
          "name": "_tokenId",
          "type": "uint256"
        }
      ],
      "stateMutability": "view",
      "type": "function"
    },
    {
      "inputs": [
        {
          "internalType": "address",
          "name": "_tokenAddress",
          "type": "address"
        }
      ],
      "name": "tokenLTV",
      "outputs": [
        {
          "internalType": "uint256",
          "name": "_ltv",
          "type": "uint256"
        }
      ],
      "stateMutability": "view",
      "type": "function"
    },
    {
      "inputs": [
        {
          "internalType": "address",
          "name": "_tokenAddress",
          "type": "address"
        }
      ],
      "name": "tokenLiquidationIncentive",
      "outputs": [
        {
          "internalType": "uint256",
          "name": "_liquidationIncentive",
          "type": "uint256"
        }
      ],
      "stateMutability": "view",
      "type": "function"
    },
    {
      "inputs": [
        {
          "internalType": "address",
          "name": "_tokenAddress",
          "type": "address"
        }
      ],
      "name": "tokenPoolId",
      "outputs": [
        {
          "internalType": "uint256",
          "name": "_poolId",
          "type": "uint256"
        }
      ],
      "stateMutability": "view",
      "type": "function"
    },
    {
      "inputs": [
        {
          "internalType": "address",
          "name": "_tokenAddress",
          "type": "address"
        }
      ],
      "name": "tokenTotalDeposited",
      "outputs": [
        {
          "internalType": "uint256",
          "name": "_totalDeposited",
          "type": "uint256"
        }
      ],
      "stateMutability": "view",
      "type": "function"
    },
    {
      "inputs": [
        {
          "internalType": "address",
          "name": "_tokenAddress",
          "type": "address"
        }
      ],
      "name": "tokensOracle",
      "outputs": [
        {
          "internalType": "contract IOracleRelay",
          "name": "_oracle",
          "type": "address"
        }
      ],
      "stateMutability": "view",
      "type": "function"
    },
    {
      "inputs": [],
      "name": "tokensRegistered",
      "outputs": [
        {
          "internalType": "uint256",
          "name": "",
          "type": "uint256"
        }
      ],
      "stateMutability": "view",
      "type": "function"
    },
    {
      "inputs": [
        {
          "internalType": "uint96",
          "name": "_id",
          "type": "uint96"
        },
        {
          "internalType": "address",
          "name": "_assetAddress",
          "type": "address"
        }
      ],
      "name": "tokensToLiquidate",
      "outputs": [
        {
          "internalType": "uint256",
          "name": "_tokensToLiquidate",
          "type": "uint256"
        }
      ],
      "stateMutability": "view",
      "type": "function"
    },
    {
      "inputs": [],
      "name": "totalBaseLiability",
      "outputs": [
        {
          "internalType": "uint192",
          "name": "",
          "type": "uint192"
        }
      ],
      "stateMutability": "view",
      "type": "function"
    },
    {
      "inputs": [
        {
          "internalType": "address",
          "name": "newOwner",
          "type": "address"
        }
      ],
      "name": "transferOwnership",
      "outputs": [],
      "stateMutability": "nonpayable",
      "type": "function"
    },
    {
      "inputs": [],
      "name": "unpause",
      "outputs": [],
      "stateMutability": "nonpayable",
      "type": "function"
    },
    {
      "inputs": [
        {
          "internalType": "address",
          "name": "_tokenAddress",
          "type": "address"
        },
        {
          "internalType": "uint256",
          "name": "_ltv",
          "type": "uint256"
        },
        {
          "internalType": "address",
          "name": "_oracleAddress",
          "type": "address"
        },
        {
          "internalType": "uint256",
          "name": "_liquidationIncentive",
          "type": "uint256"
        },
        {
          "internalType": "uint256",
          "name": "_cap",
          "type": "uint256"
        },
        {
          "internalType": "uint256",
          "name": "_poolId",
          "type": "uint256"
        }
      ],
      "name": "updateRegisteredErc20",
      "outputs": [],
      "stateMutability": "nonpayable",
      "type": "function"
    },
    {
      "inputs": [],
      "name": "usda",
      "outputs": [
        {
          "internalType": "contract IUSDA",
          "name": "",
          "type": "address"
        }
      ],
      "stateMutability": "view",
      "type": "function"
    },
    {
      "inputs": [
        {
          "internalType": "uint96",
          "name": "_id",
          "type": "uint96"
        }
      ],
      "name": "vaultBorrowingPower",
      "outputs": [
        {
          "internalType": "uint192",
          "name": "_borrowPower",
          "type": "uint192"
        }
      ],
      "stateMutability": "view",
      "type": "function"
    },
    {
      "inputs": [
        {
          "internalType": "address",
          "name": "_wallet",
          "type": "address"
        }
      ],
      "name": "vaultIDs",
      "outputs": [
        {
          "internalType": "uint96[]",
          "name": "_vaultIDs",
          "type": "uint96[]"
        }
      ],
      "stateMutability": "view",
      "type": "function"
    },
    {
      "inputs": [
        {
          "internalType": "uint96",
          "name": "",
          "type": "uint96"
        }
      ],
      "name": "vaultIdVaultAddress",
      "outputs": [
        {
          "internalType": "address",
          "name": "",
          "type": "address"
        }
      ],
      "stateMutability": "view",
      "type": "function"
    },
    {
      "inputs": [
        {
          "internalType": "uint96",
          "name": "_id",
          "type": "uint96"
        }
      ],
      "name": "vaultLiability",
      "outputs": [
        {
          "internalType": "uint192",
          "name": "_liability",
          "type": "uint192"
        }
      ],
      "stateMutability": "view",
      "type": "function"
    },
    {
      "inputs": [
        {
          "internalType": "uint96",
          "name": "_start",
          "type": "uint96"
        },
        {
          "internalType": "uint96",
          "name": "_stop",
          "type": "uint96"
        }
      ],
      "name": "vaultSummaries",
      "outputs": [
        {
          "components": [
            {
              "internalType": "uint96",
              "name": "id",
              "type": "uint96"
            },
            {
              "internalType": "uint192",
              "name": "borrowingPower",
              "type": "uint192"
            },
            {
              "internalType": "uint192",
              "name": "vaultLiability",
              "type": "uint192"
            },
            {
              "internalType": "address[]",
              "name": "tokenAddresses",
              "type": "address[]"
            },
            {
              "internalType": "uint256[]",
              "name": "tokenBalances",
              "type": "uint256[]"
            }
          ],
          "internalType": "struct IVaultController.VaultSummary[]",
          "name": "_vaultSummaries",
          "type": "tuple[]"
        }
      ],
      "stateMutability": "view",
      "type": "function"
    },
    {
      "inputs": [],
      "name": "vaultsMinted",
      "outputs": [
        {
          "internalType": "uint96",
          "name": "",
          "type": "uint96"
        }
      ],
      "stateMutability": "view",
      "type": "function"
    },
    {
      "inputs": [
        {
          "internalType": "address",
          "name": "",
          "type": "address"
        },
        {
          "internalType": "uint256",
          "name": "",
          "type": "uint256"
        }
      ],
      "name": "walletVaultIDs",
      "outputs": [
        {
          "internalType": "uint96",
          "name": "",
          "type": "uint96"
        }
      ],
      "stateMutability": "view",
      "type": "function"
    }
  ],
  "bytecode": {
    "object": "0x60c06040523480156200001157600080fd5b5060405162005d6138038062005d61833981016040819052620000349162000570565b6000805460ff19169055620000493362000110565b6001600160a01b0384811660a05260408051808201909152426001600160401b0316808252670de0b6b3a76400006020909201919091526f0de0b6b3a7640000000000000000000017600655600b8054655af3107a40006001600160c01b031991821617909155600c805482166001600160c01b0387811691909117909155600d8054909216908416179055600880546001600160a01b031916878316179055828116608052871615620001035762000103878762000169565b505050505050506200083c565b600080546001600160a01b03838116610100818102610100600160a81b0319851617855560405193049190911692909183917f8be0079c531659141344cd1fd0a4f28419497f9722a3daafe3b4186f6b6457e091a35050565b60008060005b83518110156200045c57846001600160a01b0316637ca317248583815181106200019d576200019d620006a4565b60200260200101516040518263ffffffff1660e01b8152600401620001d191906001600160a01b0391909116815260200190565b602060405180830381865afa158015620001ef573d6000803e3d6000fd5b505050506040513d601f19601f82011682018060405250810190620002159190620006ba565b925082600003620002395760405163752391b960e11b815260040160405180910390fd5b816200024581620006ea565b9250506000856001600160a01b0316636e87bf978684815181106200026e576200026e620006a4565b60200260200101516040518263ffffffff1660e01b8152600401620002a291906001600160a01b0391909116815260200190565b61012060405180830381865afa158015620002c1573d6000803e3d6000fd5b505050506040513d601f19601f82011682018060405250810190620002e7919062000716565b8381526000606082015285519091506004908690849081106200030e576200030e620006a4565b6020908102919091018101518254600181018455600093845291832090910180546001600160a01b0319166001600160a01b0390921691909117905585518291600391889086908110620003665762000366620006a4565b60200260200101516001600160a01b03166001600160a01b03168152602001908152602001600020600082015181600001556020820151816001015560408201518160020155606082015181600301556080820151816004015560a08201518160050160006101000a8154816001600160a01b0302191690836001600160a01b0316021790555060c08201518160050160146101000a81548160ff021916908360018111156200041a576200041a620007ad565b021790555060e08201516006820180546001600160a01b0319166001600160a01b0390921691909117905561010090910151600790910155506001016200016f565b508060096000828254620004719190620007c3565b90915550506040517f9fdfb162fe856d84af344e1cd97c221b61c6c4ecf03b1830be86d14836b5f33190620004aa9086908690620007de565b60405180910390a150505050565b6001600160a01b0381168114620004ce57600080fd5b50565b634e487b7160e01b600052604160045260246000fd5b60405161012081016001600160401b03811182821017156200050d576200050d620004d1565b60405290565b604051601f8201601f191681016001600160401b03811182821017156200053e576200053e620004d1565b604052919050565b80516200055381620004b8565b919050565b80516001600160c01b03811681146200055357600080fd5b600080600080600080600060e0888a0312156200058c57600080fd5b87516200059981620004b8565b602089810151919850906001600160401b0380821115620005b957600080fd5b818b0191508b601f830112620005ce57600080fd5b815181811115620005e357620005e3620004d1565b8060051b9150620005f684830162000513565b818152918301840191848101908e8411156200061157600080fd5b938501935b838510156200063f57845192506200062e83620004b8565b828252938501939085019062000616565b809b50505050505050620006566040890162000546565b9450620006666060890162000546565b9350620006766080890162000558565b92506200068660a0890162000546565b91506200069660c0890162000558565b905092959891949750929550565b634e487b7160e01b600052603260045260246000fd5b600060208284031215620006cd57600080fd5b5051919050565b634e487b7160e01b600052601160045260246000fd5b600060018201620006ff57620006ff620006d4565b5060010190565b8051600281106200055357600080fd5b600061012082840312156200072a57600080fd5b62000734620004e7565b82518152602083015160208201526040830151604082015260608301516060820152608083015160808201526200076e60a0840162000546565b60a08201526200078160c0840162000706565b60c08201526200079460e0840162000546565b60e0820152610100928301519281019290925250919050565b634e487b7160e01b600052602160045260246000fd5b60008219821115620007d957620007d9620006d4565b500190565b6001600160a01b038381168252604060208084018290528451918401829052600092858201929091906060860190855b818110156200082e5785518516835294830194918301916001016200080e565b509098975050505050505050565b60805160a0516154ea62000877600039600081816105bc015261485301526000818161073301528181612456015261292001526154ea6000f3fe608060405234801561001057600080fd5b506004361061048c5760003560e01c80639463e0681161026b578063bf7c598511610150578063d7dee2f0116100c8578063eb0c495511610097578063f2fde38b1161007c578063f2fde38b14610c12578063f856162514610c25578063fa7651c414610c4e57600080fd5b8063eb0c495514610c0a578063f23c0f4014610a4f57600080fd5b8063d7dee2f014610ba7578063d951538114610bba578063e210332814610bc8578063e2b19ff014610bf757600080fd5b8063ce0a25641161011f578063d380960c11610104578063d380960c14610b73578063d585a58214610b86578063d5e0d1b214610b9957600080fd5b8063ce0a256414610b30578063cfe6b5ed14610b6057600080fd5b8063bf7c598514610aa4578063c392f76614610ab7578063cb5b5c3414610b0a578063cb771a8b14610b1d57600080fd5b8063b028b05c116101e3578063bb5bb677116101b2578063bcff117711610197578063bcff117714610a5e578063beee13d314610a71578063bf017ce214610a9157600080fd5b8063bb5bb67714610a3c578063bbba205d14610a4f57600080fd5b8063b028b05c14610960578063b0e21e8a14610968578063b138de2c1461097b578063b1546fae14610a0c57600080fd5b8063a36a36301161023a578063acb7da701161021f578063acb7da7014610923578063ad9bac951461093a578063adddb3f21461094d57600080fd5b8063a36a3630146108e3578063ab1e9371146108f657600080fd5b80639463e06814610856578063985a01df14610869578063997d7b3d146108bd5780639c3ca633146108d057600080fd5b806359b0fbb21161039157806375b0ffd1116103095780638456cb59116102d85780638da5cb5b116102bd5780638da5cb5b146107f157806390b76499146108075780639275ac2e1461082757600080fd5b80638456cb59146107d657806386b0e6f0146107de57600080fd5b806375b0ffd11461072e5780637bcd4ff0146107555780637ca31724146107815780637dbd96a4146107aa57600080fd5b80636cd05a27116103605780636e87bf97116103455780636e87bf97146106f3578063715018a6146107135780637490bf621461071b57600080fd5b80636cd05a27146106c05780636cde5705146106d357600080fd5b806359b0fbb21461067c5780635a4272281461068f5780635c975abb146106a25780636951e6d7146106ad57600080fd5b806329d7eef1116104245780633836260b116103f35780634e2aece3116103d85780634e2aece31461061157806351fd6cd41461063c57806356dc3ac91461065f57600080fd5b80633836260b146105f65780633f4ba83a1461060957600080fd5b806329d7eef1146105725780632ad9555b1461057a57806337099065146105a25780633719a249146105b757600080fd5b806311f790841161046057806311f79084146105025780631fc6109d1461051757806322bc414314610533578063283884561461055f57600080fd5b8062d8e384146104915780630786eea8146104ad57806308fb064a146104c057806310afa61a146104d6575b600080fd5b61049a60095481565b6040519081526020015b60405180910390f35b61049a6104bb366004614b3e565b610c61565b61049a6ec097ce7bc90715b34b9f100000000081565b61049a6104e4366004614b75565b6001600160a01b031660009081526003602052604090206001015490565b610515610510366004614ba7565b610c96565b005b60065460405167ffffffffffffffff90911681526020016104a4565b61049a610541366004614b75565b6001600160a01b031660009081526003602052604090206007015490565b61049a61056d366004614bf0565b610ca8565b61049a61137c565b61058d610588366004614bf0565b611392565b604080519283526020830191909152016104a4565b6105aa61147c565b6040516104a49190614c2f565b6105de7f000000000000000000000000000000000000000000000000000000000000000081565b6040516001600160a01b0390911681526020016104a4565b610515610604366004614b75565b6114de565b610515611553565b61062461061f366004614c7c565b61161e565b6040516001600160c01b0390911681526020016104a4565b61064f61064a366004614c7c565b61164e565b60405190151581526020016104a4565b6006546801000000000000000090046001600160c01b0316610624565b61051561068a366004614c7c565b611711565b6005546105de906001600160a01b031681565b60005460ff1661064f565b6105156106bb366004614c97565b611721565b6105156106ce366004614cc3565b611732565b6106e66106e1366004614b75565b6117fd565b6040516104a49190614ce0565b610706610701366004614b75565b6118a5565b6040516104a49190614dff565b61051561197c565b610515610729366004614e1c565b61198e565b6105de7f000000000000000000000000000000000000000000000000000000000000000081565b61049a610763366004614b75565b6001600160a01b031660009081526003602052604090206002015490565b61049a61078f366004614b75565b6001600160a01b031660009081526003602052604090205490565b61049a6107b8366004614b75565b6001600160a01b031660009081526003602052604090206004015490565b610515611a07565b6008546105de906001600160a01b031681565b60005461010090046001600160a01b03166105de565b61081a610815366004614e6d565b611ad0565b6040516104a49190614edb565b6105de610835366004614b75565b6001600160a01b039081166000908152600360205260409020600501541690565b6105de610864366004614fe8565b611ebb565b6108b0610877366004614b75565b6001600160a01b031660009081526003602052604090206005015474010000000000000000000000000000000000000000900460ff1690565b6040516104a49190615001565b61064f6108cb366004614c7c565b611ee5565b600c54610624906001600160c01b031681565b600d54610624906001600160c01b031681565b61049a610904366004614b75565b6001600160a01b03166000908152600360208190526040909120015490565b61049a6fffffffffffffffffffffffffffffffff81565b610515610948366004614c97565b611efe565b600a54610624906001600160c01b031681565b6105de611f0a565b600b54610624906001600160c01b031681565b6109f7610989366004614b75565b600360208190526000918252604090912080546001820154600283015493830154600484015460058501546006860154600790960154949693959394929391926001600160a01b03808316937401000000000000000000000000000000000000000090930460ff1692169089565b6040516104a49998979695949392919061500f565b610a1f610a1a366004615069565b6120b2565b6040516bffffffffffffffffffffffff90911681526020016104a4565b610515610a4a366004614cc3565b612103565b61049a670de0b6b3a764000081565b61049a610a6c366004614c7c565b6121c7565b610a84610a7f366004615095565b612218565b6040516104a491906150b7565b610515610a9f3660046150fa565b6123bb565b610624610ab2366004614c7c565b612739565b600654610ae29067ffffffffffffffff8116906801000000000000000090046001600160c01b031682565b6040805167ffffffffffffffff90931683526001600160c01b039091166020830152016104a4565b610515610b18366004614b75565b612744565b610515610b2b366004614b75565b6127b2565b600854610a1f907401000000000000000000000000000000000000000090046bffffffffffffffffffffffff1681565b610515610b6e366004614ba7565b61282c565b610515610b813660046150fa565b612839565b610624610b94366004615156565b612b02565b61049a6001600160c01b0381565b610624610bb5366004614cc3565b612bab565b61062466b1a2bc2ec5000081565b6105de610bd6366004614b75565b6001600160a01b039081166000908152600360205260409020600601541690565b6007546105de906001600160a01b031681565b61049a612bea565b610515610c20366004614b75565b612bf9565b6105de610c33366004614c7c565b6001602052600090815260409020546001600160a01b031681565b610515610c5c366004614cc3565b612ca5565b6000610c8e83837fffffffffffffffffffffffffffffffffffffffffffffffffffffffffffffffff612d5d565b509392505050565b610ca38383836001612f18565b505050565b6000610cb26133da565b50610cbb613844565b81600003610cf5576040517ff5e9f7eb00000000000000000000000000000000000000000000000000000000815260040160405180910390fd5b6001600160a01b0383166000908152600360205260408120549003610d46576040517f1aba0d7200000000000000000000000000000000000000000000000000000000815260040160405180910390fd5b600080610d548686866138b1565b90925090508115610d63578193505b6000610d77610d7286846151a3565b613a4e565b90506000610d8488613a62565b6006549091506001600160a01b0382169063dfabefe7906000906801000000000000000090046001600160c01b0316610dc586670de0b6b3a76400006151a3565b610dcf91906151e0565b6040517fffffffff0000000000000000000000000000000000000000000000000000000060e085901b168152911515600483015260248201526044016020604051808303816000875af1158015610e2a573d6000803e3d6000fd5b505050506040513d601f19601f82011682018060405250810190610e4e919061521b565b50600654610e8c906801000000000000000090046001600160c01b0316610e7d84670de0b6b3a76400006151a3565b610e8791906151e0565b613ac0565b600a8054600090610ea79084906001600160c01b0316615234565b82546001600160c01b039182166101009390930a9283029190920219909116179055506007546001600160a01b031663178a6670610ee23390565b6040517fffffffff0000000000000000000000000000000000000000000000000000000060e084901b1681526001600160a01b03909116600482015260248101859052604401600060405180830381600087803b158015610f4257600080fd5b505af1158015610f56573d6000803e3d6000fd5b505050506001600160a01b038781166000908152600360208181526040808420815161012081018352815481526001808301549482019490945260028201549281019290925292830154606082015260048301546080820152600583015494851660a0820152929360c08401917401000000000000000000000000000000000000000090910460ff1690811115610fef57610fef614d26565b600181111561100057611000614d26565b815260068201546001600160a01b039081166020830152600790920154604091820152517fb798319f0000000000000000000000000000000000000000000000000000000081528a8216600482015291925083169063b798319f90602401602060405180830381865afa15801561107b573d6000803e3d6000fd5b505050506040513d601f19601f8201168201806040525081019061109f919061525c565b156111265760e08101516040517f2eb60d6f0000000000000000000000000000000000000000000000000000000081526001600160a01b0391821660048201526024810189905290831690632eb60d6f90604401600060405180830381600087803b15801561110d57600080fd5b505af1158015611121573d6000803e3d6000fd5b505050505b6000611132888a612b02565b90506001600160a01b038316639b5043878a336111586001600160c01b0386168d615279565b6040517fffffffff0000000000000000000000000000000000000000000000000000000060e086901b1681526001600160a01b0393841660048201529290911660248301526044820152606401600060405180830381600087803b1580156111bf57600080fd5b505af11580156111d3573d6000803e3d6000fd5b50505050826001600160a01b0316639b5043878a6111ff6000546001600160a01b036101009091041690565b6040517fffffffff0000000000000000000000000000000000000000000000000000000060e085901b1681526001600160a01b039283166004820152911660248201526001600160c01b0384166044820152606401600060405180830381600087803b15801561126e57600080fd5b505af1158015611282573d6000803e3d6000fd5b50505050611292888a6000613b36565b61129b8a613ce1565b6001600160c01b03166112ad84613db2565b6001600160c01b031611156112ee576040517fe772a86f00000000000000000000000000000000000000000000000000000000815260040160405180910390fd5b7f654958ac2e413a47e0520c4442e3ec14f121ab3b6a862c49d99047900fdb55958a8a866113256001600160c01b0386168d615279565b604080516bffffffffffffffffffffffff90951685526001600160a01b0390931660208501529183015260608201526001600160c01b038316608082015260a00160405180910390a1509598975050505050505050565b61138f6002670de0b6b3a76400006151e0565b81565b600080826000036113cf576040517ff5e9f7eb00000000000000000000000000000000000000000000000000000000815260040160405180910390fd5b6001600160a01b0384166000908152600360205260408120549003611420576040517f1aba0d7200000000000000000000000000000000000000000000000000000000815260040160405180910390fd5b60008061142e878787612d5d565b91509150816000036114405784611442565b815b9350611451610d7285836151a3565b925061145d8487612b02565b611470906001600160c01b031685615279565b93505050935093915050565b606060048054806020026020016040519081016040528092919081815260200182805480156114d457602002820191906000526020600020905b81546001600160a01b031681526001909101906020018083116114b6575b5050505050905090565b6114e6614074565b600580547fffffffffffffffffffffffff0000000000000000000000000000000000000000166001600160a01b0383169081179091556040519081527f6efa49a27d1f19e0dca70a0d80483be4b5f3e1b8af1d9714eacc529dbf074a5b906020015b60405180910390a150565b600760009054906101000a90046001600160a01b03166001600160a01b0316639fd0506d6040518163ffffffff1660e01b8152600401602060405180830381865afa1580156115a6573d6000803e3d6000fd5b505050506040513d601f19601f820116820180604052508101906115ca9190615290565b6001600160a01b0316336001600160a01b031614611614576040517fe6c7c10a00000000000000000000000000000000000000000000000000000000815260040160405180910390fd5b61161c6140ee565b565b60008061163261162d84613a62565b61415e565b905061163d81612bab565b6116479082615234565b9392505050565b60008061165a83613a62565b905060006116678261415e565b6001600160c01b031690506000611705600660000160089054906101000a90046001600160c01b03166001600160c01b0316846001600160a01b031663adef15bc6040518163ffffffff1660e01b8152600401602060405180830381865afa1580156116d7573d6000803e3d6000fd5b505050506040513d601f19601f820116820180604052508101906116fb919061521b565b610d7291906151a3565b90911015949350505050565b61171e81600060016143f4565b50565b61172e8282336001612f18565b5050565b61173a614074565b66b1a2bc2ec500006001600160c01b03821610611783576040517f146a17e500000000000000000000000000000000000000000000000000000000815260040160405180910390fd5b600c80546001600160c01b038381167fffffffffffffffff00000000000000000000000000000000000000000000000083168117909355604080519190921680825260208201939093527ff578be8dc8f690b3fc087a809b2a1191164cd533f0a74eb027440c1fadbbbec191015b60405180910390a15050565b6001600160a01b03811660009081526002602090815260409182902080548351818402810184019094528084526060939283018282801561189957602002820191906000526020600020906000905b82829054906101000a90046bffffffffffffffffffffffff166bffffffffffffffffffffffff16815260200190600c0190602082600b0104928301926001038202915080841161184c5790505b50505050509050919050565b6118ad614aa2565b6001600160a01b03828116600090815260036020818152604092839020835161012081018552815481526001808301549382019390935260028201549481019490945291820154606084015260048201546080840152600582015493841660a08401529192909160c084019174010000000000000000000000000000000000000000900460ff169081111561194457611944614d26565b600181111561195557611955614d26565b815260068201546001600160a01b0316602082015260079091015460409091015292915050565b611984614074565b61161c6000614739565b6bffffffffffffffffffffffff84166000908152600160205260409020546001600160a01b0316336001600160a01b0316146119f6576040517f1f53126f00000000000000000000000000000000000000000000000000000000815260040160405180910390fd5b611a01838383613b36565b50505050565b600760009054906101000a90046001600160a01b03166001600160a01b0316639fd0506d6040518163ffffffff1660e01b8152600401602060405180830381865afa158015611a5a573d6000803e3d6000fd5b505050506040513d601f19601f82011682018060405250810190611a7e9190615290565b6001600160a01b0316336001600160a01b031614611ac8576040517fe6c7c10a00000000000000000000000000000000000000000000000000000000815260040160405180910390fd5b61161c6147a9565b6008546060906bffffffffffffffffffffffff7401000000000000000000000000000000000000000090910481169083161115611b33576008547401000000000000000000000000000000000000000090046bffffffffffffffffffffffff1691505b611b3d83836152ad565b611b489060016152d2565b6bffffffffffffffffffffffff1667ffffffffffffffff811115611b6e57611b6e615302565b604051908082528060200260200182016040528015611be457816020015b6040805160a08101825260008082526020808301829052928201526060808201819052608082015282527fffffffffffffffffffffffffffffffffffffffffffffffffffffffffffffffff909201910181611b8c5790505b509050825b826bffffffffffffffffffffffff16816bffffffffffffffffffffffff1611611eb4576000611c1782613a62565b60045490915060009067ffffffffffffffff811115611c3857611c38615302565b604051908082528060200260200182016040528015611c61578160200160208202803683370190505b50905060005b600454811015611d4457826001600160a01b03166327e235e360048381548110611c9357611c93615331565b60009182526020909120015460405160e083901b7fffffffff000000000000000000000000000000000000000000000000000000001681526001600160a01b039091166004820152602401602060405180830381865afa158015611cfb573d6000803e3d6000fd5b505050506040513d601f19601f82011682018060405250810190611d1f919061521b565b828281518110611d3157611d31615331565b6020908102919091010152600101611c67565b506040518060a00160405280846bffffffffffffffffffffffff168152602001611d6d8461415e565b6001600160c01b031681526040517fbf7c59850000000000000000000000000000000000000000000000000000000081526bffffffffffffffffffffffff86166004820152602090910190309063bf7c598590602401602060405180830381865afa158015611de0573d6000803e3d6000fd5b505050506040513d601f19601f82011682018060405250810190611e049190615360565b6001600160c01b031681526020016004805480602002602001604051908101604052809291908181526020018280548015611e6857602002820191906000526020600020905b81546001600160a01b03168152600190910190602001808311611e4a575b505050918352505060200182905284611e8188866152ad565b6bffffffffffffffffffffffff1681518110611e9f57611e9f615331565b60209081029190910101525050600101611be9565b5092915050565b60048181548110611ecb57600080fd5b6000918252602090912001546001600160a01b0316905081565b600080611ef183613a62565b9050600061166782613db2565b61172e828260006143f4565b6000611f14613844565b6001600860148282829054906101000a90046bffffffffffffffffffffffff16611f3e91906152d2565b92506101000a8154816bffffffffffffffffffffffff02191690836bffffffffffffffffffffffff160217905550611f96600860149054906101000a90046bffffffffffffffffffffffff16611f913390565b614804565b600880546bffffffffffffffffffffffff74010000000000000000000000000000000000000000918290048116600090815260016020818152604080842080546001600160a01b038a167fffffffffffffffffffffffff000000000000000000000000000000000000000090911617905533808552600280845291852088548154808701835591875293909520918504909101805494909316600c026101000a8086021990941691869004851690930217905592549394507fd545492c32293e3c7c7bebfb14f0d2be495cebb835c376f31d2ac7b490fc5b9d9385939290041690604080516001600160a01b0394851681526bffffffffffffffffffffffff93909316602084015292168183015290519081900360600190a190565b600260205281600052604060002081815481106120ce57600080fd5b9060005260206000209060029182820401919006600c02915091509054906101000a90046bffffffffffffffffffffffff1681565b61210b614074565b670de0b6b3a7640000816001600160c01b031610612155576040517f146a17e500000000000000000000000000000000000000000000000000000000815260040160405180910390fd5b600d80546001600160c01b038381167fffffffffffffffff00000000000000000000000000000000000000000000000083168117909355604080519190921680825260208201939093527fa428b00dc60c4bf7e037929cf63f6fef148420e470854eb1f68181cef651598491016117f1565b60006121d28261164e565b15612209576040517ff465817800000000000000000000000000000000000000000000000000000000815260040160405180910390fd5b612212826148c2565b92915050565b60045460609082811061222b578261222d565b805b92506122398484615279565b67ffffffffffffffff81111561225157612251615302565b60405190808252806020026020018201604052801561228a57816020015b612277614aa2565b81526020019060019003908161226f5790505b509150835b838110156123b35760036000600483815481106122ae576122ae615331565b6000918252602080832091909101546001600160a01b03908116845283820194909452604092830190912082516101208101845281548152600180830154938201939093526002820154938101939093526003810154606084015260048101546080840152600581015493841660a0840152919260c08401917401000000000000000000000000000000000000000090910460ff169081111561235357612353614d26565b600181111561236457612364614d26565b815260068201546001600160a01b03166020820152600790910154604090910152836123908784615279565b815181106123a0576123a0615331565b602090810291909101015260010161228f565b505092915050565b6123c3614074565b6001600160a01b0386166000908152600360205260409020805415612414576040517ff9d437e300000000000000000000000000000000000000000000000000000000815260040160405180910390fd5b811561259c576040517f1526fe270000000000000000000000000000000000000000000000000000000081526004810183905260009081906001600160a01b037f00000000000000000000000000000000000000000000000000000000000000001690631526fe279060240160c060405180830381865afa15801561249d573d6000803e3d6000fd5b505050506040513d601f19601f820116820180604052508101906124c1919061537d565b5050935050509150886001600160a01b0316826001600160a01b031614612514576040517fd6abce9800000000000000000000000000000000000000000000000000000000815260040160405180910390fd5b6005830180547fffffffffffffffffffffff00ffffffffffffffffffffffffffffffffffffffff16740100000000000000000000000000000000000000001790556006830180547fffffffffffffffffffffffff0000000000000000000000000000000000000000166001600160a01b039290921691909117905550600781018290556125f8565b6005810180547fffffffffffffffffffffff00ffffffffffffffffffffffffffffffffffffffff1690556006810180547fffffffffffffffffffffffff0000000000000000000000000000000000000000169055600060078201555b61260a84670de0b6b3a7640000615279565b8610612642576040517fcb206ed100000000000000000000000000000000000000000000000000000000815260040160405180910390fd5b600954612650906001615404565b600981905581556005810180547fffffffffffffffffffffffff00000000000000000000000000000000000000009081166001600160a01b0388811691821790935560018085018a9055600480860189905560028601889055805491820181556000527f8a35acfbc15ff81a39ae7d344fd709f28e8600b4aa8c65c6b64bfe7fe36bd19b018054909216928a16928317909155604080519283526020830189905282015260608101859052608081018490527f115f383c14ab2b39872da0740fd210941c44ee7ccfe5f22829b3cfefb418dd5a9060a0015b60405180910390a150505050505050565b600061221282613ce1565b61274c614074565b600780547fffffffffffffffffffffffff0000000000000000000000000000000000000000166001600160a01b0383169081179091556040519081527faaa195c1d9cc02713acec1d468b515b17a9eddf2d4918d957cc35519ed01cdec90602001611548565b6127ba614074565b600880546001600160a01b038381167fffffffffffffffffffffffff000000000000000000000000000000000000000083168117909355604080519190921680825260208201939093527fb1705751b67be5839f5092b3d18d4d09fa147e1b45fd194266c2f3b998efbdf491016117f1565b610ca38383836000612f18565b612841614074565b6001600160a01b03861660009081526003602052604081208054909103612894576040517f1aba0d7200000000000000000000000000000000000000000000000000000000815260040160405180910390fd5b6128a684670de0b6b3a7640000615279565b86106128de576040517fcb206ed100000000000000000000000000000000000000000000000000000000815260040160405180910390fd5b8115612a62576040517f1526fe270000000000000000000000000000000000000000000000000000000081526004810183905260009081906001600160a01b037f00000000000000000000000000000000000000000000000000000000000000001690631526fe279060240160c060405180830381865afa158015612967573d6000803e3d6000fd5b505050506040513d601f19601f8201168201806040525081019061298b919061537d565b5050935050509150886001600160a01b0316826001600160a01b0316146129de576040517fd6abce9800000000000000000000000000000000000000000000000000000000815260040160405180910390fd5b6005830180547fffffffffffffffffffffff00ffffffffffffffffffffffffffffffffffffffff16740100000000000000000000000000000000000000001790556006830180547fffffffffffffffffffffffff0000000000000000000000000000000000000000166001600160a01b039290921691909117905550600781018290555b6005810180547fffffffffffffffffffffffff0000000000000000000000000000000000000000166001600160a01b0387811691821790925560018301889055600483018690556002830185905560408051928a16835260208301899052820152606081018590526080810184905260a081018390527f5f2dd27aacfca32c994ebf72a7b655b1b3661ed5e1ffed663d7169dd62c3b4a19060c001612728565b6001600160a01b0381166000908152600360205260408120600401548184612b4b610e87612b3885670de0b6b3a7640000615404565b610d72906001600160c01b038a166151a3565b612b559190615234565b600d549091508190612b9890610e8790612b80906001600160c01b0316670de0b6b3a764000061541c565b612b8a908561543e565b6001600160c01b0316613a4e565b612ba29190615234565b95945050505050565b600c546000908290612be090610e8790612bd6906001600160c01b0316670de0b6b3a764000061541c565b612b8a908661543e565b6122129190615234565b6000612bf46133da565b905090565b612c01614074565b6001600160a01b038116612c9c576040517f08c379a000000000000000000000000000000000000000000000000000000000815260206004820152602660248201527f4f776e61626c653a206e6577206f776e657220697320746865207a65726f206160448201527f646472657373000000000000000000000000000000000000000000000000000060648201526084015b60405180910390fd5b61171e81614739565b612cad614074565b670de0b6b3a7640000816001600160c01b031610612cf7576040517f146a17e500000000000000000000000000000000000000000000000000000000815260040160405180910390fd5b600b80547fffffffffffffffff000000000000000000000000000000000000000000000000166001600160c01b0383169081179091556040519081527f33fdb5b4c57640729b0e8fbc27d79b98e805e0a865e8cf75fb15b6a7ca4818b690602001611548565b600080612d698561164e565b15612da0576040517ff465817800000000000000000000000000000000000000000000000000000000815260040160405180910390fd5b6001600160a01b038481166000908152600360208181526040808420815161012081018352815481526001808301549482019490945260028201549281019290925292830154606082015260048301546080820152600583015494851660a0820152929360c08401917401000000000000000000000000000000000000000090910460ff1690811115612e3557612e35614d26565b6001811115612e4657612e46614d26565b815260068201546001600160a01b0390811660208084019190915260079093015460409283015260a084015182517f97eacf0900000000000000000000000000000000000000000000000000000000815292519495506000949116926397eacf0992600480820193918290030181865afa158015612ec8573d6000803e3d6000fd5b505050506040513d601f19601f82011682018060405250810190612eec919061521b565b90506000612ef9886148c2565b9050612f098389888a86866148f2565b90999098509650505050505050565b612f206133da565b50612f29613844565b6000612f3485613a62565b9050806001600160a01b031663075461726040518163ffffffff1660e01b8152600401602060405180830381865afa158015612f74573d6000803e3d6000fd5b505050506040513d601f19601f82011682018060405250810190612f989190615290565b6001600160a01b0316336001600160a01b031614612fe2576040517fff98a80300000000000000000000000000000000000000000000000000000000815260040160405180910390fd5b6000612fed85612bab565b600654909150600090613035906801000000000000000090046001600160c01b0316670de0b6b3a7640000613022858a61541c565b6001600160c01b0316610e7d91906151a3565b6040517fdfabefe7000000000000000000000000000000000000000000000000000000008152600160048201526001600160c01b03821660248201529091506000906001600160a01b0385169063dfabefe7906044016020604051808303816000875af11580156130aa573d6000803e3d6000fd5b505050506040513d601f19601f820116820180604052508101906130ce919061521b565b600a805491925083916000906130ee9084906001600160c01b031661541c565b92506101000a8154816001600160c01b0302191690836001600160c01b03160217905550600061314482600660000160089054906101000a90046001600160c01b03166001600160c01b0316610d7291906151a3565b9050600061315186613db2565b6001600160c01b0316905081811015613196576040517f6d0705e600000000000000000000000000000000000000000000000000000000815260040160405180910390fd5b8615613228576007546040517f0522658d0000000000000000000000000000000000000000000000000000000081526001600160a01b038a811660048301526001600160c01b038c16602483015290911690630522658d90604401600060405180830381600087803b15801561320b57600080fd5b505af115801561321f573d6000803e3d6000fd5b505050506132b0565b6007546040517fda5b9a190000000000000000000000000000000000000000000000000000000081526001600160a01b038a811660048301526001600160c01b038c1660248301529091169063da5b9a1990604401600060405180830381600087803b15801561329757600080fd5b505af11580156132ab573d6000803e3d6000fd5b505050505b6001600160c01b03851615613369576007546001600160a01b0316630522658d6132e86000546001600160a01b036101009091041690565b6040517fffffffff0000000000000000000000000000000000000000000000000000000060e084901b1681526001600160a01b0390911660048201526001600160c01b0388166024820152604401600060405180830381600087803b15801561335057600080fd5b505af1158015613364573d6000803e3d6000fd5b505050505b604080516bffffffffffffffffffffffff8c1681526001600160a01b03881660208201526001600160c01b038b8116828401528716606082015290517e9e7a2ba2ed7c5763cd01d6b12090be09d35a314176a34d91520b0576864be79181900360800190a150505050505050505050565b60065460009081906133f69067ffffffffffffffff164261546d565b90508067ffffffffffffffff1660000361341257600091505090565b600754604080517f0c7d5cd800000000000000000000000000000000000000000000000000000000815290516000926001600160a01b031691630c7d5cd89160048083019260209291908290030181865afa158015613475573d6000803e3d6000fd5b505050506040513d601f19601f820116820180604052508101906134999190615360565b6005546040517fd15e1ba90000000000000000000000000000000000000000000000000000000081526000600482018190526001600160c01b03939093166024820181905293508392916001600160a01b03169063d15e1ba990604401602060405180830381865afa158015613513573d6000803e3d6000fd5b505050506040513d601f19601f82011682018060405250810190613537919061521b565b9050600061354482613ac0565b6006549091506000906135a990610e87906001600160c01b03680100000000000000009091048116906116fb906301e187e0908716613595670de0b6b3a764000067ffffffffffffffff8e166151a3565b61359f91906151a3565b610d7291906151e0565b600654600a549192506000916135df91610e8791610d72916001600160c01b0368010000000000000000909104811691166151a3565b905060405180604001604052804267ffffffffffffffff16815260200183600660000160089054906101000a90046001600160c01b0316613620919061541c565b6001600160c01b03908116909152815160209092015167ffffffffffffffff909216680100000000000000009282168302176006819055600a5460009361367593610e8793610d7293929004811691166151a3565b600b549091506000906136ac90610e87906001600160c01b03166136998686615234565b6001600160c01b0316610d7291906151a3565b6007549091506001600160a01b031663c99d6f01826136cb8686615234565b6136d59190615234565b6040517fffffffff0000000000000000000000000000000000000000000000000000000060e084901b1681526001600160c01b039091166004820152602401600060405180830381600087803b15801561372e57600080fd5b505af1158015613742573d6000803e3d6000fd5b505060075460008054604080517f0522658d0000000000000000000000000000000000000000000000000000000081526101009092046001600160a01b0390811660048401526001600160c01b0388166024840152905193169450630522658d93506044808201939182900301818387803b1580156137c057600080fd5b505af11580156137d4573d6000803e3d6000fd5b5050604080514267ffffffffffffffff1681526001600160c01b03888116602083015289168183015290517f9a3dde40e8ce8e77c8e6a6283e8ae51757e9125643311fb8e128c365924cc8419350908190036060019150a1836001600160c01b0316995050505050505050505090565b60005460ff161561161c576040517f08c379a000000000000000000000000000000000000000000000000000000000815260206004820152601060248201527f5061757361626c653a20706175736564000000000000000000000000000000006044820152606401612c93565b6000806138bd85611ee5565b156138f4576040517ff465817800000000000000000000000000000000000000000000000000000000815260040160405180910390fd5b6001600160a01b038481166000908152600360208181526040808420815161012081018352815481526001808301549482019490945260028201549281019290925292830154606082015260048301546080820152600583015494851660a0820152929360c08401917401000000000000000000000000000000000000000090910460ff169081111561398957613989614d26565b600181111561399a5761399a614d26565b815260068201546001600160a01b0390811660208084019190915260079093015460409283015260a084015182517f698996f8000000000000000000000000000000000000000000000000000000008152925194955060009491169263698996f89260048082019391829003018187875af1158015613a1d573d6000803e3d6000fd5b505050506040513d601f19601f82011682018060405250810190613a41919061521b565b90506000612ef988614a23565b6000612212670de0b6b3a7640000836151e0565b6bffffffffffffffffffffffff81166000908152600160205260408120546001600160a01b031680612212576040517fcb58ba0e00000000000000000000000000000000000000000000000000000000815260040160405180910390fd5b60006001600160c01b038210613b32576040517f08c379a000000000000000000000000000000000000000000000000000000000815260206004820152600860248201527f6f766572666c6f770000000000000000000000000000000000000000000000006044820152606401612c93565b5090565b6001600160a01b038281166000908152600360208181526040808420815161012081018352815481526001808301549482019490945260028201549281019290925292830154606082015260048301546080820152600583015494851660a0820152929360c08401917401000000000000000000000000000000000000000090910460ff1690811115613bcb57613bcb614d26565b6001811115613bdc57613bdc614d26565b815260068201546001600160a01b031660208201526007909101546040909101528051909150600003613c3b576040517f1aba0d7200000000000000000000000000000000000000000000000000000000815260040160405180910390fd5b818015613c5a57508060400151848260600151613c589190615404565b115b15613c91576040517fb050d28200000000000000000000000000000000000000000000000000000000815260040160405180910390fd5b81613cab57838160600151613ca69190615279565b613cbb565b838160600151613cbb9190615404565b6001600160a01b0390931660009081526003602081905260409091200192909255505050565b6bffffffffffffffffffffffff81166000908152600160205260408120546001600160a01b031680613d3f576040517fcb58ba0e00000000000000000000000000000000000000000000000000000000815260040160405180910390fd5b6000819050613daa610e87600660000160089054906101000a90046001600160c01b03166001600160c01b0316836001600160a01b031663adef15bc6040518163ffffffff1660e01b8152600401602060405180830381865afa1580156116d7573d6000803e3d6000fd5b949350505050565b6000805b6004546001600160c01b038216101561406e576000600360006004846001600160c01b031681548110613deb57613deb615331565b6000918252602080832091909101546001600160a01b03908116845283820194909452604092830190912082516101208101845281548152600180830154938201939093526002820154938101939093526003810154606084015260048101546080840152600581015493841660a0840152919260c08401917401000000000000000000000000000000000000000090910460ff1690811115613e9057613e90614d26565b6001811115613ea157613ea1614d26565b815260068201546001600160a01b0316602080830191909152600790920154604090910152810151909150600003613ed9575061405e565b60006004836001600160c01b031681548110613ef757613ef7615331565b60009182526020822001546040517f27e235e30000000000000000000000000000000000000000000000000000000081526001600160a01b03918216600482018190529350908716906327e235e390602401602060405180830381865afa158015613f66573d6000803e3d6000fd5b505050506040513d601f19601f82011682018060405250810190613f8a919061521b565b905080600003613f9c5750505061405e565b60006140098460a001516001600160a01b031663698996f86040518163ffffffff1660e01b81526004016020604051808303816000875af1158015613fe5573d6000803e3d6000fd5b505050506040513d601f19601f82011682018060405250810190610e87919061521b565b9050806001600160c01b0316600003614025575050505061405e565b600061404a610e87610d72876020015186866001600160c01b03166116fb91906151a3565b9050614056818861541c565b965050505050505b6140678161548e565b9050613db6565b50919050565b6000546001600160a01b0361010090910416331461161c576040517f08c379a000000000000000000000000000000000000000000000000000000000815260206004820181905260248201527f4f776e61626c653a2063616c6c6572206973206e6f7420746865206f776e65726044820152606401612c93565b6140f6614a36565b600080547fffffffffffffffffffffffffffffffffffffffffffffffffffffffffffffff001690557f5db9ee0a495bf2e6ff9c91a7834c1ba4fdd244a5e8aa4e537bd38aeae4b073aa335b6040516001600160a01b03909116815260200160405180910390a1565b6000805b6004546001600160c01b038216101561406e576000600360006004846001600160c01b03168154811061419757614197615331565b6000918252602080832091909101546001600160a01b03908116845283820194909452604092830190912082516101208101845281548152600180830154938201939093526002820154938101939093526003810154606084015260048101546080840152600581015493841660a0840152919260c08401917401000000000000000000000000000000000000000090910460ff169081111561423c5761423c614d26565b600181111561424d5761424d614d26565b815260068201546001600160a01b031660208083019190915260079092015460409091015281015190915060000361428557506143e4565b60006004836001600160c01b0316815481106142a3576142a3615331565b60009182526020822001546040517f27e235e30000000000000000000000000000000000000000000000000000000081526001600160a01b03918216600482018190529350908716906327e235e390602401602060405180830381865afa158015614312573d6000803e3d6000fd5b505050506040513d601f19601f82011682018060405250810190614336919061521b565b905080600003614348575050506143e4565b600061438f8460a001516001600160a01b03166397eacf096040518163ffffffff1660e01b8152600401602060405180830381865afa158015613fe5573d6000803e3d6000fd5b9050806001600160c01b03166000036143ab57505050506143e4565b60006143d0610e87610d72876020015186866001600160c01b03166116fb91906151a3565b90506143dc818861541c565b965050505050505b6143ed8161548e565b9050614162565b6143fc6133da565b50614405613844565b600061441084613a62565b9050600082156144905761445b826001600160a01b031663adef15bc6040518163ffffffff1660e01b8152600401602060405180830381865afa158015613fe5573d6000803e3d6000fd5b60065490915061448990610e8790612b8a9084906801000000000000000090046001600160c01b031661543e565b93506144c7565b6006546144c4906001600160c01b0368010000000000000000909104811690610e7d90670de0b6b3a76400009088166151a3565b90505b600a80548291906000906144e59084906001600160c01b0316615234565b92506101000a8154816001600160c01b0302191690836001600160c01b03160217905550816001600160a01b031663adef15bc6040518163ffffffff1660e01b8152600401602060405180830381865afa158015614547573d6000803e3d6000fd5b505050506040513d601f19601f8201168201806040525081019061456b919061521b565b816001600160c01b031611156145ad576040517fa3839e8300000000000000000000000000000000000000000000000000000000815260040160405180910390fd5b6040517fdfabefe7000000000000000000000000000000000000000000000000000000008152600060048201526001600160c01b03821660248201526001600160a01b0383169063dfabefe7906044016020604051808303816000875af115801561461c573d6000803e3d6000fd5b505050506040513d601f19601f82011682018060405250810190614640919061521b565b506007546001600160a01b031663178a6670336040517fffffffff0000000000000000000000000000000000000000000000000000000060e084901b1681526001600160a01b0390911660048201526001600160c01b0387166024820152604401600060405180830381600087803b1580156146bb57600080fd5b505af11580156146cf573d6000803e3d6000fd5b5050604080516bffffffffffffffffffffffff891681526001600160a01b03861660208201526001600160c01b0388168183015290517f27e6924e87980d09f941efb99e687d629227d442a1bfc9cf5a9b5300e9053c289350908190036060019150a15050505050565b600080546001600160a01b038381166101008181027fffffffffffffffffffffff0000000000000000000000000000000000000000ff851617855560405193049190911692909183917f8be0079c531659141344cd1fd0a4f28419497f9722a3daafe3b4186f6b6457e091a35050565b6147b1613844565b600080547fffffffffffffffffffffffffffffffffffffffffffffffffffffffffffffff001660011790557f62e78cea01bee320cd4e420270b5ea74000d11b0c9f74754ebdbfc544b05a2586141413390565b6040517fddf244b20000000000000000000000000000000000000000000000000000000081526bffffffffffffffffffffffff831660048201526001600160a01b0382811660248301526000917f00000000000000000000000000000000000000000000000000000000000000009091169063ddf244b2906044016020604051808303816000875af115801561489e573d6000803e3d6000fd5b505050506040513d601f19601f820116820180604052508101906116479190615290565b60006148d061162d83613a62565b6148d983613ce1565b6148e39190615234565b6001600160c01b031692915050565b600080600061490088613a62565b90506149278960800151670de0b6b3a764000061491d9190615279565b610d7290876151a3565b9150600061493e8a6020015187610d7291906151a3565b9050600061494c8285615279565b905060008161496388670de0b6b3a76400006151a3565b61496d91906151e0565b9050808a111561497b578099505b6040517f27e235e30000000000000000000000000000000000000000000000000000000081526001600160a01b038a81166004830152600091908616906327e235e390602401602060405180830381865afa1580156149de573d6000803e3d6000fd5b505050506040513d601f19601f82011682018060405250810190614a02919061521b565b9050808b1115614a1057809a505b8a96505050505050965096945050505050565b60006148d0614a3183613a62565b613db2565b60005460ff1661161c576040517f08c379a000000000000000000000000000000000000000000000000000000000815260206004820152601460248201527f5061757361626c653a206e6f74207061757365640000000000000000000000006044820152606401612c93565b604051806101200160405280600081526020016000815260200160008152602001600081526020016000815260200160006001600160a01b0316815260200160006001811115614af457614af4614d26565b815260006020820181905260409091015290565b80356bffffffffffffffffffffffff81168114614b2457600080fd5b919050565b6001600160a01b038116811461171e57600080fd5b60008060408385031215614b5157600080fd5b614b5a83614b08565b91506020830135614b6a81614b29565b809150509250929050565b600060208284031215614b8757600080fd5b813561164781614b29565b6001600160c01b038116811461171e57600080fd5b600080600060608486031215614bbc57600080fd5b614bc584614b08565b92506020840135614bd581614b92565b91506040840135614be581614b29565b809150509250925092565b600080600060608486031215614c0557600080fd5b614c0e84614b08565b92506020840135614c1e81614b29565b929592945050506040919091013590565b6020808252825182820181905260009190848201906040850190845b81811015614c705783516001600160a01b031683529284019291840191600101614c4b565b50909695505050505050565b600060208284031215614c8e57600080fd5b61164782614b08565b60008060408385031215614caa57600080fd5b614cb383614b08565b91506020830135614b6a81614b92565b600060208284031215614cd557600080fd5b813561164781614b92565b6020808252825182820181905260009190848201906040850190845b81811015614c705783516bffffffffffffffffffffffff1683529284019291840191600101614cfc565b7f4e487b7100000000000000000000000000000000000000000000000000000000600052602160045260246000fd5b60028110614d8c577f4e487b7100000000000000000000000000000000000000000000000000000000600052602160045260246000fd5b9052565b805182526020810151602083015260408101516040830152606081015160608301526080810151608083015260a08101516001600160a01b0380821660a085015260c08301519150614de560c0850183614d55565b60e083810151909116908401525061010090810151910152565b61012081016122128284614d90565b801515811461171e57600080fd5b60008060008060808587031215614e3257600080fd5b614e3b85614b08565b9350602085013592506040850135614e5281614b29565b91506060850135614e6281614e0e565b939692955090935050565b60008060408385031215614e8057600080fd5b614e8983614b08565b9150614e9760208401614b08565b90509250929050565b600081518084526020808501945080840160005b83811015614ed057815187529582019590820190600101614eb4565b509495945050505050565b60006020808301818452808551808352604092508286019150828160051b8701018488016000805b84811015614fd9578984037fffffffffffffffffffffffffffffffffffffffffffffffffffffffffffffffc0018652825180516bffffffffffffffffffffffff168552888101516001600160c01b039081168a87015288820151168886015260608082015160a0918701829052805191870182905260c0870191908b0190855b81811015614fa85782516001600160a01b03168452928c0192918c0191600101614f83565b50505060808083015192508682038188015250614fc58183614ea0565b978a01979550505091870191600101614f03565b50919998505050505050505050565b600060208284031215614ffa57600080fd5b5035919050565b602081016122128284614d55565b6000610120820190508a82528960208301528860408301528760608301528660808301526001600160a01b0380871660a084015261505060c0840187614d55565b9390931660e08201526101000152979650505050505050565b6000806040838503121561507c57600080fd5b823561508781614b29565b946020939093013593505050565b600080604083850312156150a857600080fd5b50508035926020909101359150565b6020808252825182820181905260009190848201906040850190845b81811015614c70576150e6838551614d90565b9284019261012092909201916001016150d3565b60008060008060008060c0878903121561511357600080fd5b863561511e81614b29565b955060208701359450604087013561513581614b29565b959894975094956060810135955060808101359460a0909101359350915050565b6000806040838503121561516957600080fd5b8235614b5a81614b92565b7f4e487b7100000000000000000000000000000000000000000000000000000000600052601160045260246000fd5b6000817fffffffffffffffffffffffffffffffffffffffffffffffffffffffffffffffff04831182151516156151db576151db615174565b500290565b600082615216577f4e487b7100000000000000000000000000000000000000000000000000000000600052601260045260246000fd5b500490565b60006020828403121561522d57600080fd5b5051919050565b60006001600160c01b038381169083168181101561525457615254615174565b039392505050565b60006020828403121561526e57600080fd5b815161164781614e0e565b60008282101561528b5761528b615174565b500390565b6000602082840312156152a257600080fd5b815161164781614b29565b60006bffffffffffffffffffffffff8381169083168181101561525457615254615174565b60006bffffffffffffffffffffffff8083168185168083038211156152f9576152f9615174565b01949350505050565b7f4e487b7100000000000000000000000000000000000000000000000000000000600052604160045260246000fd5b7f4e487b7100000000000000000000000000000000000000000000000000000000600052603260045260246000fd5b60006020828403121561537257600080fd5b815161164781614b92565b60008060008060008060c0878903121561539657600080fd5b86516153a181614b29565b60208801519096506153b281614b29565b60408801519095506153c381614b29565b60608801519094506153d481614b29565b60808801519093506153e581614b29565b60a08801519092506153f681614e0e565b809150509295509295509295565b6000821982111561541757615417615174565b500190565b60006001600160c01b038083168185168083038211156152f9576152f9615174565b60006001600160c01b038083168185168183048111821515161561546457615464615174565b02949350505050565b600067ffffffffffffffff8381169083168181101561525457615254615174565b60006001600160c01b038083168181036154aa576154aa615174565b600101939250505056fea2646970667358221220b596f63d5e9d179dfa79142a88bfd596bb08b0ff59e34c6a88545d565da2bfe464736f6c634300080e0033",
    "linkReferences": {}
  },
  "methodIdentifiers": {
    "BOOSTER()": "75b0ffd1",
    "DOUBLE_SCALE()": "08fb064a",
    "EXP_SCALE()": "bbba205d",
    "HALF_EXP_SCALE()": "29d7eef1",
    "MANTISSA_ONE()": "f23c0f40",
    "MAX_INIT_BORROWING_FEE()": "d9515381",
    "UINT128_MAX()": "acb7da70",
    "UINT192_MAX()": "d5e0d1b2",
    "VAULT_DEPLOYER()": "3719a249",
    "amountToSolvency(uint96)": "bcff1177",
    "borrowUSDA(uint96,uint192)": "6951e6d7",
    "borrowUSDAto(uint96,uint192,address)": "11f79084",
    "borrowsUSDto(uint96,uint192,address)": "cfe6b5ed",
    "calculateInterest()": "eb0c4955",
    "changeClaimerContract(address)": "cb771a8b",
    "changeInitialBorrowingFee(uint192)": "6cd05a27",
    "changeLiquidationFee(uint192)": "bb5bb677",
    "changeProtocolFee(uint192)": "fa7651c4",
    "checkVault(uint96)": "997d7b3d",
    "claimerContract()": "86b0e6f0",
    "curveMaster()": "5a427228",
    "enabledTokens(uint256)": "9463e068",
    "getBorrowingFee(uint192)": "d7dee2f0",
    "getCollateralsInfo(uint256,uint256)": "beee13d3",
    "getEnabledTokens()": "37099065",
    "getLiquidationFee(uint192,address)": "d585a582",
    "initialBorrowingFee()": "9c3ca633",
    "interest()": "c392f766",
    "interestFactor()": "56dc3ac9",
    "lastInterestTime()": "1fc6109d",
    "liquidateVault(uint96,address,uint256)": "28388456",
    "liquidationFee()": "a36a3630",
    "mintVault()": "b028b05c",
    "modifyTotalDeposited(uint96,uint256,address,bool)": "7490bf62",
    "owner()": "8da5cb5b",
    "pause()": "8456cb59",
    "paused()": "5c975abb",
    "peekCheckVault(uint96)": "51fd6cd4",
    "protocolFee()": "b0e21e8a",
    "registerCurveMaster(address)": "3836260b",
    "registerErc20(address,uint256,address,uint256,uint256,uint256)": "bf017ce2",
    "registerUSDA(address)": "cb5b5c34",
    "renounceOwnership()": "715018a6",
    "repayAllUSDA(uint96)": "59b0fbb2",
    "repayUSDA(uint96,uint192)": "ad9bac95",
    "simulateLiquidateVault(uint96,address,uint256)": "2ad9555b",
    "tokenAddressCollateralInfo(address)": "b138de2c",
    "tokenCap(address)": "7bcd4ff0",
    "tokenCollateralInfo(address)": "6e87bf97",
    "tokenCollateralType(address)": "985a01df",
    "tokenCrvRewardsContract(address)": "e2103328",
    "tokenId(address)": "7ca31724",
    "tokenLTV(address)": "10afa61a",
    "tokenLiquidationIncentive(address)": "7dbd96a4",
    "tokenPoolId(address)": "22bc4143",
    "tokenTotalDeposited(address)": "ab1e9371",
    "tokensOracle(address)": "9275ac2e",
    "tokensRegistered()": "00d8e384",
    "tokensToLiquidate(uint96,address)": "0786eea8",
    "totalBaseLiability()": "adddb3f2",
    "transferOwnership(address)": "f2fde38b",
    "unpause()": "3f4ba83a",
    "updateRegisteredErc20(address,uint256,address,uint256,uint256,uint256)": "d380960c",
    "usda()": "e2b19ff0",
    "vaultBorrowingPower(uint96)": "4e2aece3",
    "vaultIDs(address)": "6cde5705",
    "vaultIdVaultAddress(uint96)": "f8561625",
    "vaultLiability(uint96)": "bf7c5985",
    "vaultSummaries(uint96,uint96)": "90b76499",
    "vaultsMinted()": "ce0a2564",
    "walletVaultIDs(address,uint256)": "b1546fae"
  },
  "id": 64
}