{
  "abi": [
    {
      "inputs": [
        {
          "internalType": "contract ChainlinkOracleRelay",
          "name": "_feedAddress",
          "type": "address"
        },
        {
          "internalType": "contract ChainlinkOracleRelay",
          "name": "_baseFeedAddress",
          "type": "address"
        }
      ],
      "stateMutability": "nonpayable",
      "type": "constructor"
    },
    {
      "inputs": [],
      "name": "OracleRelay_DifferentUnderlyings",
      "type": "error"
    },
    {
      "inputs": [],
      "name": "AGGREGATOR",
      "outputs": [
        {
          "internalType": "contract ChainlinkOracleRelay",
          "name": "",
          "type": "address"
        }
      ],
      "stateMutability": "view",
      "type": "function"
    },
    {
      "inputs": [],
      "name": "BASE_AGGREGATOR",
      "outputs": [
        {
          "internalType": "contract ChainlinkOracleRelay",
          "name": "",
          "type": "address"
        }
      ],
      "stateMutability": "view",
      "type": "function"
    },
    {
      "inputs": [],
      "name": "currentValue",
      "outputs": [
        {
          "internalType": "uint256",
          "name": "_currentValue",
          "type": "uint256"
        }
      ],
      "stateMutability": "nonpayable",
      "type": "function"
    },
    {
      "inputs": [],
      "name": "isStale",
      "outputs": [
        {
          "internalType": "bool",
          "name": "_stale",
          "type": "bool"
        }
      ],
      "stateMutability": "view",
      "type": "function"
    },
    {
      "inputs": [],
      "name": "oracleType",
      "outputs": [
        {
          "internalType": "enum IOracleRelay.OracleType",
          "name": "",
          "type": "uint8"
        }
      ],
      "stateMutability": "view",
      "type": "function"
    },
    {
      "inputs": [],
      "name": "peekValue",
      "outputs": [
        {
          "internalType": "uint256",
          "name": "_price",
          "type": "uint256"
        }
      ],
      "stateMutability": "view",
      "type": "function"
    },
    {
      "inputs": [],
      "name": "underlying",
      "outputs": [
        {
          "internalType": "address",
          "name": "",
          "type": "address"
        }
      ],
      "stateMutability": "view",
      "type": "function"
    },
    {
      "inputs": [],
      "name": "wETH_ADDRESS",
      "outputs": [
        {
          "internalType": "address",
          "name": "",
          "type": "address"
        }
      ],
      "stateMutability": "view",
      "type": "function"
    }
  ],
  "bytecode": {
    "object": "0x60c060405234801561001057600080fd5b5060405161070a38038061070a83398101604081905261002f916100f9565b6000805460ff191690556001600160a01b03828116608081905290821660a05260408051636f307dc360e01b815290516100da9291636f307dc39160048083019260209291908290030181865afa15801561008e573d6000803e3d6000fd5b505050506040513d601f19601f820116820180604052508101906100b29190610133565b600080546001600160a01b0390921661010002610100600160a81b0319909216919091179055565b5050610157565b6001600160a01b03811681146100f657600080fd5b50565b6000806040838503121561010c57600080fd5b8251610117816100e1565b6020840151909250610128816100e1565b809150509250929050565b60006020828403121561014557600080fd5b8151610150816100e1565b9392505050565b60805160a051610572610198600039600081816101480152818161023201526103670152600081816101770152818161019d01526102d401526105726000f3fe608060405234801561001057600080fd5b50600436106100885760003560e01c80636f307dc31161005b5780636f307dc31461011e578063892e46d41461014357806397eacf091461016a578063eb365adc1461017257600080fd5b80630d623e101461008d57806315e303e4146100b05780631a26f447146100f0578063698996f814610108575b600080fd5b60005461009a9060ff1681565b6040516100a7919061041a565b60405180910390f35b6100cb73c02aaa39b223fe8d0a0e5c4f27ead9083c756cc281565b60405173ffffffffffffffffffffffffffffffffffffffff90911681526020016100a7565b6100f8610199565b60405190151581526020016100a7565b6101106102c4565b6040519081526020016100a7565b6000546100cb90610100900473ffffffffffffffffffffffffffffffffffffffff1681565b6100cb7f000000000000000000000000000000000000000000000000000000000000000081565b6101106102ca565b6100cb7f000000000000000000000000000000000000000000000000000000000000000081565b60007f000000000000000000000000000000000000000000000000000000000000000073ffffffffffffffffffffffffffffffffffffffff16631a26f4476040518163ffffffff1660e01b8152600401602060405180830381865afa158015610206573d6000803e3d6000fd5b505050506040513d601f19601f8201168201806040525081019061022a919061045b565b806102bf57507f000000000000000000000000000000000000000000000000000000000000000073ffffffffffffffffffffffffffffffffffffffff16631a26f4476040518163ffffffff1660e01b8152600401602060405180830381865afa15801561029b573d6000803e3d6000fd5b505050506040513d601f19601f820116820180604052508101906102bf919061045b565b905090565b60006102bf5b60006102bf6000807f000000000000000000000000000000000000000000000000000000000000000073ffffffffffffffffffffffffffffffffffffffff166397eacf096040518163ffffffff1660e01b8152600401602060405180830381865afa15801561033d573d6000803e3d6000fd5b505050506040513d601f19601f820116820180604052508101906103619190610484565b905060007f000000000000000000000000000000000000000000000000000000000000000073ffffffffffffffffffffffffffffffffffffffff166397eacf096040518163ffffffff1660e01b8152600401602060405180830381865afa1580156103d0573d6000803e3d6000fd5b505050506040513d601f19601f820116820180604052508101906103f49190610484565b9050670de0b6b3a7640000610409828461049d565b6104139190610501565b9250505090565b6020810160038310610455577f4e487b7100000000000000000000000000000000000000000000000000000000600052602160045260246000fd5b91905290565b60006020828403121561046d57600080fd5b8151801515811461047d57600080fd5b9392505050565b60006020828403121561049657600080fd5b5051919050565b6000817fffffffffffffffffffffffffffffffffffffffffffffffffffffffffffffffff04831182151516156104fc577f4e487b7100000000000000000000000000000000000000000000000000000000600052601160045260246000fd5b500290565b600082610537577f4e487b7100000000000000000000000000000000000000000000000000000000600052601260045260246000fd5b50049056fea26469706673582212205f6597a605e2333ea4c37d35330b6bbbfd6db5e30978253a2ab08216ce6aca7d64736f6c634300080e0033",
    "linkReferences": {}
  },
  "methodIdentifiers": {
    "AGGREGATOR()": "eb365adc",
    "BASE_AGGREGATOR()": "892e46d4",
    "currentValue()": "698996f8",
    "isStale()": "1a26f447",
    "oracleType()": "0d623e10",
    "peekValue()": "97eacf09",
    "underlying()": "6f307dc3",
    "wETH_ADDRESS()": "15e303e4"
  },
  "id": 75
}