{
  "abi": [
    {
      "inputs": [
        {
          "internalType": "address",
          "name": "_crvPool",
          "type": "address"
        },
        {
          "internalType": "contract IOracleRelay[]",
          "name": "_anchoredUnderlyingTokens",
          "type": "address[]"
        }
      ],
      "stateMutability": "nonpayable",
      "type": "constructor"
    },
    {
      "inputs": [],
      "name": "OracleRelay_DifferentUnderlyings",
      "type": "error"
    },
    {
      "inputs": [],
      "name": "StableCurveLpOracle_TooFewAnchoredOracles",
      "type": "error"
    },
    {
      "inputs": [],
      "name": "CRV_POOL",
      "outputs": [
        {
          "internalType": "contract IStablePool",
          "name": "",
          "type": "address"
        }
      ],
      "stateMutability": "view",
      "type": "function"
    },
    {
      "inputs": [],
      "name": "CURVE_ADDRESSES_PROVIDER",
      "outputs": [
        {
          "internalType": "contract ICurveAddressesProvider",
          "name": "",
          "type": "address"
        }
      ],
      "stateMutability": "view",
      "type": "function"
    },
    {
      "inputs": [
        {
          "internalType": "uint256",
          "name": "",
          "type": "uint256"
        }
      ],
      "name": "anchoredUnderlyingTokens",
      "outputs": [
        {
          "internalType": "contract IOracleRelay",
          "name": "",
          "type": "address"
        }
      ],
      "stateMutability": "view",
      "type": "function"
    },
    {
      "inputs": [],
      "name": "currentValue",
      "outputs": [
        {
          "internalType": "uint256",
          "name": "_currentValue",
          "type": "uint256"
        }
      ],
      "stateMutability": "nonpayable",
      "type": "function"
    },
    {
      "inputs": [],
      "name": "oracleType",
      "outputs": [
        {
          "internalType": "enum IOracleRelay.OracleType",
          "name": "",
          "type": "uint8"
        }
      ],
      "stateMutability": "view",
      "type": "function"
    },
    {
      "inputs": [],
      "name": "peekValue",
      "outputs": [
        {
          "internalType": "uint256",
          "name": "_price",
          "type": "uint256"
        }
      ],
      "stateMutability": "view",
      "type": "function"
    },
    {
      "inputs": [],
      "name": "underlying",
      "outputs": [
        {
          "internalType": "address",
          "name": "",
          "type": "address"
        }
      ],
      "stateMutability": "view",
      "type": "function"
    },
    {
      "inputs": [],
      "name": "wETH_ADDRESS",
      "outputs": [
        {
          "internalType": "address",
          "name": "",
          "type": "address"
        }
      ],
      "stateMutability": "view",
      "type": "function"
    }
  ],
  "bytecode": {
    "object": "0x60a060405234801561001057600080fd5b5060405161090338038061090383398101604081905261002f91610232565b6000805460ff1916905580516002111561005c576040516313a7913b60e01b815260040160405180910390fd5b6001600160a01b03821660805260005b81518110156100ce5760018282815181106100895761008961030d565b60209081029190910181015182546001808201855560009485529290932090920180546001600160a01b0319166001600160a01b03909316929092179091550161006c565b506101036100db8361010a565b600080546001600160a01b0390921661010002610100600160a81b0319909216919091179055565b5050610340565b6000806f22d53366457f9d5e68ec105046fc43836001600160a01b031663a262904b6040518163ffffffff1660e01b8152600401602060405180830381865afa15801561015b573d6000803e3d6000fd5b505050506040513d601f19601f8201168201806040525081019061017f9190610323565b604051633795104960e01b81526001600160a01b03858116600483015291925090821690633795104990602401602060405180830381865afa1580156101c9573d6000803e3d6000fd5b505050506040513d601f19601f820116820180604052508101906101ed9190610323565b9392505050565b6001600160a01b038116811461020957600080fd5b50565b634e487b7160e01b600052604160045260246000fd5b805161022d816101f4565b919050565b6000806040838503121561024557600080fd5b8251610250816101f4565b602084810151919350906001600160401b038082111561026f57600080fd5b818601915086601f83011261028357600080fd5b8151818111156102955761029561020c565b8060051b604051601f19603f830116810181811085821117156102ba576102ba61020c565b6040529182528482019250838101850191898311156102d857600080fd5b938501935b828510156102fd576102ee85610222565b845293850193928501926102dd565b8096505050505050509250929050565b634e487b7160e01b600052603260045260246000fd5b60006020828403121561033557600080fd5b81516101ed816101f4565b6080516105a16103626000396000818161014b015261039d01526105a16000f3fe608060405234801561001057600080fd5b50600436106100885760003560e01c806397eacf091161005b57806397eacf091461012b578063a178212214610133578063aff42a1514610146578063f523bbc71461016d57600080fd5b80630d623e101461008d57806315e303e4146100b0578063698996f8146100f05780636f307dc314610106575b600080fd5b60005461009a9060ff1681565b6040516100a7919061042a565b60405180910390f35b6100cb73c02aaa39b223fe8d0a0e5c4f27ead9083c756cc281565b60405173ffffffffffffffffffffffffffffffffffffffff90911681526020016100a7565b6100f8610184565b6040519081526020016100a7565b6000546100cb90610100900473ffffffffffffffffffffffffffffffffffffffff1681565b6100f8610193565b6100cb61014136600461046b565b61019d565b6100cb7f000000000000000000000000000000000000000000000000000000000000000081565b6100cb6f22d53366457f9d5e68ec105046fc438381565b600061018e610193565b905090565b600061018e6101d4565b600181815481106101ad57600080fd5b60009182526020909120015473ffffffffffffffffffffffffffffffffffffffff16905081565b60008060016000815481106101eb576101eb610484565b60009182526020918290200154604080517f97eacf09000000000000000000000000000000000000000000000000000000008152905173ffffffffffffffffffffffffffffffffffffffff909216926397eacf09926004808401938290030181865afa15801561025f573d6000803e3d6000fd5b505050506040513d601f19601f8201168201806040525081019061028391906104b3565b905060015b6001548110156103505761034682600183815481106102a9576102a9610484565b60009182526020918290200154604080517f97eacf09000000000000000000000000000000000000000000000000000000008152905173ffffffffffffffffffffffffffffffffffffffff909216926397eacf09926004808401938290030181865afa15801561031d573d6000803e3d6000fd5b505050506040513d601f19601f8201168201806040525081019061034191906104b3565b610381565b9150600101610288565b5060008161035c610399565b61036691906104cc565b905061037a670de0b6b3a764000082610530565b9250505090565b60008183106103905781610392565b825b9392505050565b60007f000000000000000000000000000000000000000000000000000000000000000073ffffffffffffffffffffffffffffffffffffffff1663bb7b8b806040518163ffffffff1660e01b8152600401602060405180830381865afa158015610406573d6000803e3d6000fd5b505050506040513d601f19601f8201168201806040525081019061018e91906104b3565b6020810160038310610465577f4e487b7100000000000000000000000000000000000000000000000000000000600052602160045260246000fd5b91905290565b60006020828403121561047d57600080fd5b5035919050565b7f4e487b7100000000000000000000000000000000000000000000000000000000600052603260045260246000fd5b6000602082840312156104c557600080fd5b5051919050565b6000817fffffffffffffffffffffffffffffffffffffffffffffffffffffffffffffffff048311821515161561052b577f4e487b7100000000000000000000000000000000000000000000000000000000600052601160045260246000fd5b500290565b600082610566577f4e487b7100000000000000000000000000000000000000000000000000000000600052601260045260246000fd5b50049056fea264697066735822122099aace0f489c2d4f6867f8a2e10661de591523f34edecc0e46fe04f9a734805164736f6c634300080e0033",
    "linkReferences": {}
  },
  "methodIdentifiers": {
    "CRV_POOL()": "aff42a15",
    "CURVE_ADDRESSES_PROVIDER()": "f523bbc7",
    "anchoredUnderlyingTokens(uint256)": "a1782122",
    "currentValue()": "698996f8",
    "oracleType()": "0d623e10",
    "peekValue()": "97eacf09",
    "underlying()": "6f307dc3",
    "wETH_ADDRESS()": "15e303e4"
  },
  "id": 79
}