{
  "abi": [
    {
      "inputs": [
        {
          "internalType": "address",
          "name": "_underlying",
          "type": "address"
        },
        {
          "internalType": "address",
          "name": "_feedAddress",
          "type": "address"
        },
        {
          "internalType": "uint256",
          "name": "_mul",
          "type": "uint256"
        },
        {
          "internalType": "uint256",
          "name": "_div",
          "type": "uint256"
        },
        {
          "internalType": "uint256",
          "name": "_stalePriceDelay",
          "type": "uint256"
        }
      ],
      "stateMutability": "nonpayable",
      "type": "constructor"
    },
    {
      "inputs": [],
      "name": "ChainlinkOracle_ZeroAmount",
      "type": "error"
    },
    {
      "inputs": [],
      "name": "Chainlink_NegativePrice",
      "type": "error"
    },
    {
      "inputs": [],
      "name": "OracleRelay_DifferentUnderlyings",
      "type": "error"
    },
    {
      "anonymous": false,
      "inputs": [
        {
          "indexed": true,
          "internalType": "address",
          "name": "previousOwner",
          "type": "address"
        },
        {
          "indexed": true,
          "internalType": "address",
          "name": "newOwner",
          "type": "address"
        }
      ],
      "name": "OwnershipTransferred",
      "type": "event"
    },
    {
      "inputs": [],
      "name": "DIVIDE",
      "outputs": [
        {
          "internalType": "uint256",
          "name": "",
          "type": "uint256"
        }
      ],
      "stateMutability": "view",
      "type": "function"
    },
    {
      "inputs": [],
      "name": "MULTIPLY",
      "outputs": [
        {
          "internalType": "uint256",
          "name": "",
          "type": "uint256"
        }
      ],
      "stateMutability": "view",
      "type": "function"
    },
    {
      "inputs": [],
      "name": "currentValue",
      "outputs": [
        {
          "internalType": "uint256",
          "name": "_currentValue",
          "type": "uint256"
        }
      ],
      "stateMutability": "nonpayable",
      "type": "function"
    },
    {
      "inputs": [],
      "name": "isStale",
      "outputs": [
        {
          "internalType": "bool",
          "name": "_stale",
          "type": "bool"
        }
      ],
      "stateMutability": "view",
      "type": "function"
    },
    {
      "inputs": [],
      "name": "oracleType",
      "outputs": [
        {
          "internalType": "enum IOracleRelay.OracleType",
          "name": "",
          "type": "uint8"
        }
      ],
      "stateMutability": "view",
      "type": "function"
    },
    {
      "inputs": [],
      "name": "owner",
      "outputs": [
        {
          "internalType": "address",
          "name": "",
          "type": "address"
        }
      ],
      "stateMutability": "view",
      "type": "function"
    },
    {
      "inputs": [],
      "name": "peekValue",
      "outputs": [
        {
          "internalType": "uint256",
          "name": "_value",
          "type": "uint256"
        }
      ],
      "stateMutability": "view",
      "type": "function"
    },
    {
      "inputs": [],
      "name": "renounceOwnership",
      "outputs": [],
      "stateMutability": "nonpayable",
      "type": "function"
    },
    {
      "inputs": [
        {
          "internalType": "uint256",
          "name": "_stalePriceDelay",
          "type": "uint256"
        }
      ],
      "name": "setStalePriceDelay",
      "outputs": [],
      "stateMutability": "nonpayable",
      "type": "function"
    },
    {
      "inputs": [],
      "name": "stalePriceDelay",
      "outputs": [
        {
          "internalType": "uint256",
          "name": "",
          "type": "uint256"
        }
      ],
      "stateMutability": "view",
      "type": "function"
    },
    {
      "inputs": [
        {
          "internalType": "address",
          "name": "newOwner",
          "type": "address"
        }
      ],
      "name": "transferOwnership",
      "outputs": [],
      "stateMutability": "nonpayable",
      "type": "function"
    },
    {
      "inputs": [],
      "name": "underlying",
      "outputs": [
        {
          "internalType": "address",
          "name": "",
          "type": "address"
        }
      ],
      "stateMutability": "view",
      "type": "function"
    },
    {
      "inputs": [],
      "name": "wETH_ADDRESS",
      "outputs": [
        {
          "internalType": "address",
          "name": "",
          "type": "address"
        }
      ],
      "stateMutability": "view",
      "type": "function"
    }
  ],
  "bytecode": {
    "object": "0x60e060405234801561001057600080fd5b506040516109f53803806109f583398101604081905261002f91610102565b6000805460ff1916905561004233610094565b6001600160a01b03841660805260a083905260c0829052600281905561008a85600080546001600160a01b0390921661010002610100600160a81b0319909216919091179055565b5050505050610150565b600180546001600160a01b038381166001600160a01b0319831681179093556040519116919082907f8be0079c531659141344cd1fd0a4f28419497f9722a3daafe3b4186f6b6457e090600090a35050565b80516001600160a01b03811681146100fd57600080fd5b919050565b600080600080600060a0868803121561011a57600080fd5b610123866100e6565b9450610131602087016100e6565b6040870151606088015160809098015196999198509695945092505050565b60805160a05160c051610861610194600039600081816101ec0152610555015260008181610164015261057901526000818161024c015261052d01526108616000f3fe608060405234801561001057600080fd5b50600436106100df5760003560e01c8063698996f81161008c57806381cc945d1161006657806381cc945d146101e75780638da5cb5b1461020e57806397eacf091461022c578063f2fde38b1461023457600080fd5b8063698996f8146101b25780636f307dc3146101ba578063715018a6146101df57600080fd5b80632dc2fad5116100bd5780632dc2fad51461015f5780633a150b69146101945780635647a646146101a957600080fd5b80630d623e10146100e457806315e303e4146101075780631a26f44714610147575b600080fd5b6000546100f19060ff1681565b6040516100fe9190610666565b60405180910390f35b61012273c02aaa39b223fe8d0a0e5c4f27ead9083c756cc281565b60405173ffffffffffffffffffffffffffffffffffffffff90911681526020016100fe565b61014f610247565b60405190151581526020016100fe565b6101867f000000000000000000000000000000000000000000000000000000000000000081565b6040519081526020016100fe565b6101a76101a23660046106a7565b6102fd565b005b61018660025481565b610186610344565b60005461012290610100900473ffffffffffffffffffffffffffffffffffffffff1681565b6101a7610353565b6101867f000000000000000000000000000000000000000000000000000000000000000081565b60015473ffffffffffffffffffffffffffffffffffffffff16610122565b610186610367565b6101a76102423660046106c0565b610371565b6000807f000000000000000000000000000000000000000000000000000000000000000073ffffffffffffffffffffffffffffffffffffffff1663feaf968c6040518163ffffffff1660e01b815260040160a060405180830381865afa1580156102b5573d6000803e3d6000fd5b505050506040513d601f19601f820116820180604052508101906102d9919061071c565b509350505050600254816102ed919061079b565b4211156102f957600191505b5090565b61030561042d565b8060000361033f576040517f8705261500000000000000000000000000000000000000000000000000000000815260040160405180910390fd5b600255565b600061034e610367565b905090565b61035b61042d565b61036560006104ae565b565b600061034e610525565b61037961042d565b73ffffffffffffffffffffffffffffffffffffffff8116610421576040517f08c379a000000000000000000000000000000000000000000000000000000000815260206004820152602660248201527f4f776e61626c653a206e6577206f776e657220697320746865207a65726f206160448201527f646472657373000000000000000000000000000000000000000000000000000060648201526084015b60405180910390fd5b61042a816104ae565b50565b60015473ffffffffffffffffffffffffffffffffffffffff163314610365576040517f08c379a000000000000000000000000000000000000000000000000000000000815260206004820181905260248201527f4f776e61626c653a2063616c6c6572206973206e6f7420746865206f776e65726044820152606401610418565b6001805473ffffffffffffffffffffffffffffffffffffffff8381167fffffffffffffffffffffffff0000000000000000000000000000000000000000831681179093556040519116919082907f8be0079c531659141344cd1fd0a4f28419497f9722a3daafe3b4186f6b6457e090600090a35050565b6000806105517f00000000000000000000000000000000000000000000000000000000000000006105ae565b90507f000000000000000000000000000000000000000000000000000000000000000061059e7f0000000000000000000000000000000000000000000000000000000000000000836107b3565b6105a891906107f0565b91505090565b6000808273ffffffffffffffffffffffffffffffffffffffff1663feaf968c6040518163ffffffff1660e01b815260040160a060405180830381865afa1580156105fc573d6000803e3d6000fd5b505050506040513d601f19601f82011682018060405250810190610620919061071c565b50505091505060008113610660576040517fec586b0e00000000000000000000000000000000000000000000000000000000815260040160405180910390fd5b92915050565b60208101600383106106a1577f4e487b7100000000000000000000000000000000000000000000000000000000600052602160045260246000fd5b91905290565b6000602082840312156106b957600080fd5b5035919050565b6000602082840312156106d257600080fd5b813573ffffffffffffffffffffffffffffffffffffffff811681146106f657600080fd5b9392505050565b805169ffffffffffffffffffff8116811461071757600080fd5b919050565b600080600080600060a0868803121561073457600080fd5b61073d866106fd565b9450602086015193506040860151925060608601519150610760608087016106fd565b90509295509295909350565b7f4e487b7100000000000000000000000000000000000000000000000000000000600052601160045260246000fd5b600082198211156107ae576107ae61076c565b500190565b6000817fffffffffffffffffffffffffffffffffffffffffffffffffffffffffffffffff04831182151516156107eb576107eb61076c565b500290565b600082610826577f4e487b7100000000000000000000000000000000000000000000000000000000600052601260045260246000fd5b50049056fea2646970667358221220cdb562faef4840ac83b3c429fa335ba66bb389a30a351ab24b4879fc7c2161ae64736f6c634300080e0033",
    "linkReferences": {}
  },
  "methodIdentifiers": {
    "DIVIDE()": "81cc945d",
    "MULTIPLY()": "2dc2fad5",
    "currentValue()": "698996f8",
    "isStale()": "1a26f447",
    "oracleType()": "0d623e10",
    "owner()": "8da5cb5b",
    "peekValue()": "97eacf09",
    "renounceOwnership()": "715018a6",
    "setStalePriceDelay(uint256)": "3a150b69",
    "stalePriceDelay()": "5647a646",
    "transferOwnership(address)": "f2fde38b",
    "underlying()": "6f307dc3",
    "wETH_ADDRESS()": "15e303e4"
  },
  "id": 73
}