{
  "abi": [
    {
      "inputs": [
        {
          "internalType": "address",
          "name": "_account",
          "type": "address"
        },
        {
          "internalType": "uint256",
          "name": "_initialSupply",
          "type": "uint256"
        }
      ],
      "stateMutability": "nonpayable",
      "type": "constructor"
    },
    {
      "inputs": [],
      "name": "AmphoraProtocolToken_InvalidAddress",
      "type": "error"
    },
    {
      "inputs": [],
      "name": "AmphoraProtocolToken_InvalidSupply",
      "type": "error"
    },
    {
      "anonymous": false,
      "inputs": [
        {
          "indexed": true,
          "internalType": "address",
          "name": "owner",
          "type": "address"
        },
        {
          "indexed": true,
          "internalType": "address",
          "name": "spender",
          "type": "address"
        },
        {
          "indexed": false,
          "internalType": "uint256",
          "name": "value",
          "type": "uint256"
        }
      ],
      "name": "Approval",
      "type": "event"
    },
    {
      "anonymous": false,
      "inputs": [
        {
          "indexed": true,
          "internalType": "address",
          "name": "delegator",
          "type": "address"
        },
        {
          "indexed": true,
          "internalType": "address",
          "name": "fromDelegate",
          "type": "address"
        },
        {
          "indexed": true,
          "internalType": "address",
          "name": "toDelegate",
          "type": "address"
        }
      ],
      "name": "DelegateChanged",
      "type": "event"
    },
    {
      "anonymous": false,
      "inputs": [
        {
          "indexed": true,
          "internalType": "address",
          "name": "delegate",
          "type": "address"
        },
        {
          "indexed": false,
          "internalType": "uint256",
          "name": "previousBalance",
          "type": "uint256"
        },
        {
          "indexed": false,
          "internalType": "uint256",
          "name": "newBalance",
          "type": "uint256"
        }
      ],
      "name": "DelegateVotesChanged",
      "type": "event"
    },
    {
      "anonymous": false,
      "inputs": [
        {
          "indexed": true,
          "internalType": "address",
          "name": "previousOwner",
          "type": "address"
        },
        {
          "indexed": true,
          "internalType": "address",
          "name": "newOwner",
          "type": "address"
        }
      ],
      "name": "OwnershipTransferred",
      "type": "event"
    },
    {
      "anonymous": false,
      "inputs": [
        {
          "indexed": true,
          "internalType": "address",
          "name": "from",
          "type": "address"
        },
        {
          "indexed": true,
          "internalType": "address",
          "name": "to",
          "type": "address"
        },
        {
          "indexed": false,
          "internalType": "uint256",
          "name": "value",
          "type": "uint256"
        }
      ],
      "name": "Transfer",
      "type": "event"
    },
    {
      "inputs": [],
      "name": "DOMAIN_SEPARATOR",
      "outputs": [
        {
          "internalType": "bytes32",
          "name": "",
          "type": "bytes32"
        }
      ],
      "stateMutability": "view",
      "type": "function"
    },
    {
      "inputs": [
        {
          "internalType": "address",
          "name": "owner",
          "type": "address"
        },
        {
          "internalType": "address",
          "name": "spender",
          "type": "address"
        }
      ],
      "name": "allowance",
      "outputs": [
        {
          "internalType": "uint256",
          "name": "",
          "type": "uint256"
        }
      ],
      "stateMutability": "view",
      "type": "function"
    },
    {
      "inputs": [
        {
          "internalType": "address",
          "name": "spender",
          "type": "address"
        },
        {
          "internalType": "uint256",
          "name": "amount",
          "type": "uint256"
        }
      ],
      "name": "approve",
      "outputs": [
        {
          "internalType": "bool",
          "name": "",
          "type": "bool"
        }
      ],
      "stateMutability": "nonpayable",
      "type": "function"
    },
    {
      "inputs": [
        {
          "internalType": "address",
          "name": "account",
          "type": "address"
        }
      ],
      "name": "balanceOf",
      "outputs": [
        {
          "internalType": "uint256",
          "name": "",
          "type": "uint256"
        }
      ],
      "stateMutability": "view",
      "type": "function"
    },
    {
      "inputs": [
        {
          "internalType": "address",
          "name": "account",
          "type": "address"
        },
        {
          "internalType": "uint32",
          "name": "pos",
          "type": "uint32"
        }
      ],
      "name": "checkpoints",
      "outputs": [
        {
          "components": [
            {
              "internalType": "uint32",
              "name": "fromBlock",
              "type": "uint32"
            },
            {
              "internalType": "uint224",
              "name": "votes",
              "type": "uint224"
            }
          ],
          "internalType": "struct ERC20Votes.Checkpoint",
          "name": "",
          "type": "tuple"
        }
      ],
      "stateMutability": "view",
      "type": "function"
    },
    {
      "inputs": [],
      "name": "decimals",
      "outputs": [
        {
          "internalType": "uint8",
          "name": "",
          "type": "uint8"
        }
      ],
      "stateMutability": "view",
      "type": "function"
    },
    {
      "inputs": [
        {
          "internalType": "address",
          "name": "spender",
          "type": "address"
        },
        {
          "internalType": "uint256",
          "name": "subtractedValue",
          "type": "uint256"
        }
      ],
      "name": "decreaseAllowance",
      "outputs": [
        {
          "internalType": "bool",
          "name": "",
          "type": "bool"
        }
      ],
      "stateMutability": "nonpayable",
      "type": "function"
    },
    {
      "inputs": [
        {
          "internalType": "address",
          "name": "delegatee",
          "type": "address"
        }
      ],
      "name": "delegate",
      "outputs": [],
      "stateMutability": "nonpayable",
      "type": "function"
    },
    {
      "inputs": [
        {
          "internalType": "address",
          "name": "delegatee",
          "type": "address"
        },
        {
          "internalType": "uint256",
          "name": "nonce",
          "type": "uint256"
        },
        {
          "internalType": "uint256",
          "name": "expiry",
          "type": "uint256"
        },
        {
          "internalType": "uint8",
          "name": "v",
          "type": "uint8"
        },
        {
          "internalType": "bytes32",
          "name": "r",
          "type": "bytes32"
        },
        {
          "internalType": "bytes32",
          "name": "s",
          "type": "bytes32"
        }
      ],
      "name": "delegateBySig",
      "outputs": [],
      "stateMutability": "nonpayable",
      "type": "function"
    },
    {
      "inputs": [
        {
          "internalType": "address",
          "name": "account",
          "type": "address"
        }
      ],
      "name": "delegates",
      "outputs": [
        {
          "internalType": "address",
          "name": "",
          "type": "address"
        }
      ],
      "stateMutability": "view",
      "type": "function"
    },
    {
      "inputs": [
        {
          "internalType": "address",
          "name": "account",
          "type": "address"
        }
      ],
      "name": "getCurrentVotes",
      "outputs": [
        {
          "internalType": "uint96",
          "name": "",
          "type": "uint96"
        }
      ],
      "stateMutability": "view",
      "type": "function"
    },
    {
      "inputs": [
        {
          "internalType": "uint256",
          "name": "blockNumber",
          "type": "uint256"
        }
      ],
      "name": "getPastTotalSupply",
      "outputs": [
        {
          "internalType": "uint256",
          "name": "",
          "type": "uint256"
        }
      ],
      "stateMutability": "view",
      "type": "function"
    },
    {
      "inputs": [
        {
          "internalType": "address",
          "name": "account",
          "type": "address"
        },
        {
          "internalType": "uint256",
          "name": "blockNumber",
          "type": "uint256"
        }
      ],
      "name": "getPastVotes",
      "outputs": [
        {
          "internalType": "uint256",
          "name": "",
          "type": "uint256"
        }
      ],
      "stateMutability": "view",
      "type": "function"
    },
    {
      "inputs": [
        {
          "internalType": "address",
          "name": "account",
          "type": "address"
        },
        {
          "internalType": "uint256",
          "name": "blockNumber",
          "type": "uint256"
        }
      ],
      "name": "getPriorVotes",
      "outputs": [
        {
          "internalType": "uint96",
          "name": "",
          "type": "uint96"
        }
      ],
      "stateMutability": "view",
      "type": "function"
    },
    {
      "inputs": [
        {
          "internalType": "address",
          "name": "account",
          "type": "address"
        }
      ],
      "name": "getVotes",
      "outputs": [
        {
          "internalType": "uint256",
          "name": "",
          "type": "uint256"
        }
      ],
      "stateMutability": "view",
      "type": "function"
    },
    {
      "inputs": [
        {
          "internalType": "address",
          "name": "spender",
          "type": "address"
        },
        {
          "internalType": "uint256",
          "name": "addedValue",
          "type": "uint256"
        }
      ],
      "name": "increaseAllowance",
      "outputs": [
        {
          "internalType": "bool",
          "name": "",
          "type": "bool"
        }
      ],
      "stateMutability": "nonpayable",
      "type": "function"
    },
    {
      "inputs": [
        {
          "internalType": "address",
          "name": "_dst",
          "type": "address"
        },
        {
          "internalType": "uint256",
          "name": "_rawAmount",
          "type": "uint256"
        }
      ],
      "name": "mint",
      "outputs": [],
      "stateMutability": "nonpayable",
      "type": "function"
    },
    {
      "inputs": [],
      "name": "name",
      "outputs": [
        {
          "internalType": "string",
          "name": "",
          "type": "string"
        }
      ],
      "stateMutability": "view",
      "type": "function"
    },
    {
      "inputs": [
        {
          "internalType": "address",
          "name": "owner",
          "type": "address"
        }
      ],
      "name": "nonces",
      "outputs": [
        {
          "internalType": "uint256",
          "name": "",
          "type": "uint256"
        }
      ],
      "stateMutability": "view",
      "type": "function"
    },
    {
      "inputs": [
        {
          "internalType": "address",
          "name": "account",
          "type": "address"
        }
      ],
      "name": "numCheckpoints",
      "outputs": [
        {
          "internalType": "uint32",
          "name": "",
          "type": "uint32"
        }
      ],
      "stateMutability": "view",
      "type": "function"
    },
    {
      "inputs": [],
      "name": "owner",
      "outputs": [
        {
          "internalType": "address",
          "name": "",
          "type": "address"
        }
      ],
      "stateMutability": "view",
      "type": "function"
    },
    {
      "inputs": [
        {
          "internalType": "address",
          "name": "owner",
          "type": "address"
        },
        {
          "internalType": "address",
          "name": "spender",
          "type": "address"
        },
        {
          "internalType": "uint256",
          "name": "value",
          "type": "uint256"
        },
        {
          "internalType": "uint256",
          "name": "deadline",
          "type": "uint256"
        },
        {
          "internalType": "uint8",
          "name": "v",
          "type": "uint8"
        },
        {
          "internalType": "bytes32",
          "name": "r",
          "type": "bytes32"
        },
        {
          "internalType": "bytes32",
          "name": "s",
          "type": "bytes32"
        }
      ],
      "name": "permit",
      "outputs": [],
      "stateMutability": "nonpayable",
      "type": "function"
    },
    {
      "inputs": [],
      "name": "renounceOwnership",
      "outputs": [],
      "stateMutability": "nonpayable",
      "type": "function"
    },
    {
      "inputs": [],
      "name": "symbol",
      "outputs": [
        {
          "internalType": "string",
          "name": "",
          "type": "string"
        }
      ],
      "stateMutability": "view",
      "type": "function"
    },
    {
      "inputs": [],
      "name": "totalSupply",
      "outputs": [
        {
          "internalType": "uint256",
          "name": "",
          "type": "uint256"
        }
      ],
      "stateMutability": "view",
      "type": "function"
    },
    {
      "inputs": [
        {
          "internalType": "address",
          "name": "to",
          "type": "address"
        },
        {
          "internalType": "uint256",
          "name": "amount",
          "type": "uint256"
        }
      ],
      "name": "transfer",
      "outputs": [
        {
          "internalType": "bool",
          "name": "",
          "type": "bool"
        }
      ],
      "stateMutability": "nonpayable",
      "type": "function"
    },
    {
      "inputs": [
        {
          "internalType": "address",
          "name": "from",
          "type": "address"
        },
        {
          "internalType": "address",
          "name": "to",
          "type": "address"
        },
        {
          "internalType": "uint256",
          "name": "amount",
          "type": "uint256"
        }
      ],
      "name": "transferFrom",
      "outputs": [
        {
          "internalType": "bool",
          "name": "",
          "type": "bool"
        }
      ],
      "stateMutability": "nonpayable",
      "type": "function"
    },
    {
      "inputs": [
        {
          "internalType": "address",
          "name": "newOwner",
          "type": "address"
        }
      ],
      "name": "transferOwnership",
      "outputs": [],
      "stateMutability": "nonpayable",
      "type": "function"
    }
  ],
  "bytecode": {
    "object": "0x6101406040523480156200001257600080fd5b506040516200314438038062003144833981016040819052620000359162000875565b6040518060400160405280601081526020016f105b5c1a1bdc9848141c9bdd1bd8dbdb60821b81525080604051806040016040528060018152602001603160f81b8152506040518060400160405280601081526020016f105b5c1a1bdc9848141c9bdd1bd8dbdb60821b815250604051806040016040528060048152602001630829aa0960e31b8152508160039080519060200190620000d7929190620007d9565b508051620000ed906004906020840190620007d9565b5050825160209384012082519284019290922060e08390526101008190524660a0818152604080517f8b73c3c69bb8fe3d512ecc4cf759cc79239f7b179b0ffacaa9a75d522b39400f818901819052818301979097526060810194909452608080850193909352308483018190528151808603909301835260c09485019091528151919096012090529290925261012052506200018c905033620001ea565b6001600160a01b038216620001b457604051634db425ed60e01b815260040160405180910390fd5b60008111620001d657604051631ec7acbf60e11b815260040160405180910390fd5b620001e282826200023c565b505062000938565b600a80546001600160a01b038381166001600160a01b0319831681179093556040519116919082907f8be0079c531659141344cd1fd0a4f28419497f9722a3daafe3b4186f6b6457e090600090a35050565b620002538282620002f160201b62000e381760201c565b6001600160601b036200026560025490565b1115620002d25760405162461bcd60e51b815260206004820152603060248201527f4552433230566f7465733a20746f74616c20737570706c79207269736b73206f60448201526f766572666c6f77696e6720766f74657360801b60648201526084015b60405180910390fd5b620002eb600962000f33620003c260201b1783620003d7565b50505050565b6001600160a01b038216620003495760405162461bcd60e51b815260206004820152601f60248201527f45524332303a206d696e7420746f20746865207a65726f2061646472657373006044820152606401620002c9565b80600260008282546200035d9190620008c7565b90915550506001600160a01b038216600081815260208181526040808320805486019055518481527fddf252ad1be2c89b69c2b068fc378daa952ba7f163c4a11628f55a4df523b3ef910160405180910390a3620003be600083836200056e565b5050565b6000620003d08284620008c7565b9392505050565b8254600090819081811562000437576200040687620003f8600185620008e2565b600091825260209091200190565b60408051808201909152905463ffffffff8116825264010000000090046001600160e01b031660208201526200044c565b60408051808201909152600080825260208201525b905080602001516001600160e01b031693506200046a84868860201c565b9250600082118015620004835750805163ffffffff1643145b15620004da576200049f83620005ba60201b62000f3f1760201c565b620004b188620003f8600186620008e2565b80546001600160e01b03929092166401000000000263ffffffff9092169190911790556200055f565b866040518060400160405280620004fc436200062960201b62000ff11760201c565b63ffffffff1681526020016200051d86620005ba60201b62000f3f1760201c565b6001600160e01b0390811690915282546001810184556000938452602093849020835194909301519091166401000000000263ffffffff909316929092179101555b5050935093915050565b505050565b620005868383836200056960201b620010871760201c565b6001600160a01b03838116600090815260076020526040808220548584168352912054620005699291821691168362000690565b60006001600160e01b03821115620006255760405162461bcd60e51b815260206004820152602760248201527f53616665436173743a2076616c756520646f65736e27742066697420696e20326044820152663234206269747360c81b6064820152608401620002c9565b5090565b600063ffffffff821115620006255760405162461bcd60e51b815260206004820152602660248201527f53616665436173743a2076616c756520646f65736e27742066697420696e203360448201526532206269747360d01b6064820152608401620002c9565b816001600160a01b0316836001600160a01b031614158015620006b35750600081115b1562000569576001600160a01b0383161562000740576001600160a01b038316600090815260086020908152604082208291620006fd9190620007cb901b6200108c1785620003d7565b91509150846001600160a01b031660008051602062003124833981519152838360405162000735929190918252602082015260400190565b60405180910390a250505b6001600160a01b0382161562000569576001600160a01b038216600090815260086020908152604082208291620007849190620003c2901b62000f331785620003d7565b91509150836001600160a01b0316600080516020620031248339815191528383604051620007bc929190918252602082015260400190565b60405180910390a25050505050565b6000620003d08284620008e2565b828054620007e790620008fc565b90600052602060002090601f0160209004810192826200080b576000855562000856565b82601f106200082657805160ff191683800117855562000856565b8280016001018555821562000856579182015b828111156200085657825182559160200191906001019062000839565b50620006259291505b808211156200062557600081556001016200085f565b600080604083850312156200088957600080fd5b82516001600160a01b0381168114620008a157600080fd5b6020939093015192949293505050565b634e487b7160e01b600052601160045260246000fd5b60008219821115620008dd57620008dd620008b1565b500190565b600082821015620008f757620008f7620008b1565b500390565b600181811c908216806200091157607f821691505b6020821081036200093257634e487b7160e01b600052602260045260246000fd5b50919050565b60805160a05160c05160e051610100516101205161279c62000988600039600061162e0152600061167d01526000611658015260006115b1015260006115db01526000611605015261279c6000f3fe608060405234801561001057600080fd5b50600436106101c45760003560e01c8063782d6fe1116100f9578063a9059cbb11610097578063d505accf11610071578063d505accf14610433578063dd62ed3e14610446578063f1127ed81461048c578063f2fde38b146104de57600080fd5b8063a9059cbb146103fa578063b4b5ea571461040d578063c3cda5201461042057600080fd5b80638e539e8c116100d35780638e539e8c146103b957806395d89b41146103cc5780639ab24eb0146103d4578063a457c2d7146103e757600080fd5b8063782d6fe1146103585780637ecebe00146103885780638da5cb5b1461039b57600080fd5b80633a46b1a8116101665780635c19a95c116101405780635c19a95c146102df5780636fcfff45146102f257806370a082311461031a578063715018a61461035057600080fd5b80633a46b1a81461025957806340c10f191461026c578063587cde1e1461028157600080fd5b806323b872dd116101a257806323b872dd1461021c578063313ce5671461022f5780633644e5151461023e578063395093511461024657600080fd5b806306fdde03146101c9578063095ea7b3146101e757806318160ddd1461020a575b600080fd5b6101d16104f1565b6040516101de9190612377565b60405180910390f35b6101fa6101f5366004612413565b610583565b60405190151581526020016101de565b6002545b6040519081526020016101de565b6101fa61022a36600461243d565b61059b565b604051601281526020016101de565b61020e6105bf565b6101fa610254366004612413565b6105ce565b61020e610267366004612413565b61061a565b61027f61027a366004612413565b6106c0565b005b6102ba61028f366004612479565b73ffffffffffffffffffffffffffffffffffffffff9081166000908152600760205260409020541690565b60405173ffffffffffffffffffffffffffffffffffffffff90911681526020016101de565b61027f6102ed366004612479565b6106d6565b610305610300366004612479565b6106e3565b60405163ffffffff90911681526020016101de565b61020e610328366004612479565b73ffffffffffffffffffffffffffffffffffffffff1660009081526020819052604090205490565b61027f610718565b61036b610366366004612413565b61072c565b6040516bffffffffffffffffffffffff90911681526020016101de565b61020e610396366004612479565b610740565b600a5473ffffffffffffffffffffffffffffffffffffffff166102ba565b61020e6103c7366004612494565b61076b565b6101d16107e1565b61020e6103e2366004612479565b6107f0565b6101fa6103f5366004612413565b6108bb565b6101fa610408366004612413565b61098c565b61036b61041b366004612479565b61099a565b61027f61042e3660046124be565b6109a8565b61027f610441366004612516565b610b1f565b61020e610454366004612580565b73ffffffffffffffffffffffffffffffffffffffff918216600090815260016020908152604080832093909416825291909152205490565b61049f61049a3660046125b3565b610cde565b60408051825163ffffffff1681526020928301517bffffffffffffffffffffffffffffffffffffffffffffffffffffffff1692810192909252016101de565b61027f6104ec366004612479565b610d84565b606060038054610500906125f3565b80601f016020809104026020016040519081016040528092919081815260200182805461052c906125f3565b80156105795780601f1061054e57610100808354040283529160200191610579565b820191906000526020600020905b81548152906001019060200180831161055c57829003601f168201915b5050505050905090565b600033610591818585611098565b5060019392505050565b6000336105a985828561124b565b6105b4858585611322565b506001949350505050565b60006105c9611597565b905090565b33600081815260016020908152604080832073ffffffffffffffffffffffffffffffffffffffff87168452909152812054909190610591908290869061061590879061266f565b611098565b600043821061068a576040517f08c379a000000000000000000000000000000000000000000000000000000000815260206004820152601f60248201527f4552433230566f7465733a20626c6f636b206e6f7420796574206d696e65640060448201526064015b60405180910390fd5b73ffffffffffffffffffffffffffffffffffffffff831660009081526008602052604090206106b990836116cb565b9392505050565b6106c86117ec565b6106d2828261186d565b5050565b6106e03382611923565b50565b73ffffffffffffffffffffffffffffffffffffffff811660009081526008602052604081205461071290610ff1565b92915050565b6107206117ec565b61072a60006119c1565b565b60006106b961073b848461061a565b611a38565b73ffffffffffffffffffffffffffffffffffffffff8116600090815260056020526040812054610712565b60004382106107d6576040517f08c379a000000000000000000000000000000000000000000000000000000000815260206004820152601f60248201527f4552433230566f7465733a20626c6f636b206e6f7420796574206d696e6564006044820152606401610681565b6107126009836116cb565b606060048054610500906125f3565b73ffffffffffffffffffffffffffffffffffffffff811660009081526008602052604081205480156108935773ffffffffffffffffffffffffffffffffffffffff8316600090815260086020526040902061084c600183612687565b8154811061085c5761085c61269e565b60009182526020909120015464010000000090047bffffffffffffffffffffffffffffffffffffffffffffffffffffffff16610896565b60005b7bffffffffffffffffffffffffffffffffffffffffffffffffffffffff169392505050565b33600081815260016020908152604080832073ffffffffffffffffffffffffffffffffffffffff871684529091528120549091908381101561097f576040517f08c379a000000000000000000000000000000000000000000000000000000000815260206004820152602560248201527f45524332303a2064656372656173656420616c6c6f77616e63652062656c6f7760448201527f207a65726f0000000000000000000000000000000000000000000000000000006064820152608401610681565b6105b48286868403611098565b600033610591818585611322565b600061071261073b836107f0565b83421115610a12576040517f08c379a000000000000000000000000000000000000000000000000000000000815260206004820152601d60248201527f4552433230566f7465733a207369676e617475726520657870697265640000006044820152606401610681565b604080517fe48329057bfd03d55e49b547132e39cffd9c1820ad7b9d4c5307691425d15adf602082015273ffffffffffffffffffffffffffffffffffffffff8816918101919091526060810186905260808101859052600090610a9990610a919060a00160405160208183030381529060405280519060200120611ad6565b858585611b3f565b9050610aa481611b67565b8614610b0c576040517f08c379a000000000000000000000000000000000000000000000000000000000815260206004820152601960248201527f4552433230566f7465733a20696e76616c6964206e6f6e6365000000000000006044820152606401610681565b610b168188611923565b50505050505050565b83421115610b89576040517f08c379a000000000000000000000000000000000000000000000000000000000815260206004820152601d60248201527f45524332305065726d69743a206578706972656420646561646c696e650000006044820152606401610681565b60007f6e71edae12b1b97f4d1f60370fef10105fa2faae0126114a169c64845d6126c9888888610bb88c611b67565b60408051602081019690965273ffffffffffffffffffffffffffffffffffffffff94851690860152929091166060840152608083015260a082015260c0810186905260e0016040516020818303038152906040528051906020012090506000610c2082611ad6565b90506000610c3082878787611b3f565b90508973ffffffffffffffffffffffffffffffffffffffff168173ffffffffffffffffffffffffffffffffffffffff1614610cc7576040517f08c379a000000000000000000000000000000000000000000000000000000000815260206004820152601e60248201527f45524332305065726d69743a20696e76616c6964207369676e617475726500006044820152606401610681565b610cd28a8a8a611098565b50505050505050505050565b604080518082019091526000808252602082015273ffffffffffffffffffffffffffffffffffffffff83166000908152600860205260409020805463ffffffff8416908110610d2f57610d2f61269e565b60009182526020918290206040805180820190915291015463ffffffff8116825264010000000090047bffffffffffffffffffffffffffffffffffffffffffffffffffffffff16918101919091529392505050565b610d8c6117ec565b73ffffffffffffffffffffffffffffffffffffffff8116610e2f576040517f08c379a000000000000000000000000000000000000000000000000000000000815260206004820152602660248201527f4f776e61626c653a206e6577206f776e657220697320746865207a65726f206160448201527f64647265737300000000000000000000000000000000000000000000000000006064820152608401610681565b6106e0816119c1565b73ffffffffffffffffffffffffffffffffffffffff8216610eb5576040517f08c379a000000000000000000000000000000000000000000000000000000000815260206004820152601f60248201527f45524332303a206d696e7420746f20746865207a65726f2061646472657373006044820152606401610681565b8060026000828254610ec7919061266f565b909155505073ffffffffffffffffffffffffffffffffffffffff8216600081815260208181526040808320805486019055518481527fddf252ad1be2c89b69c2b068fc378daa952ba7f163c4a11628f55a4df523b3ef910160405180910390a36106d260008383611b9c565b60006106b9828461266f565b60007bffffffffffffffffffffffffffffffffffffffffffffffffffffffff821115610fed576040517f08c379a000000000000000000000000000000000000000000000000000000000815260206004820152602760248201527f53616665436173743a2076616c756520646f65736e27742066697420696e203260448201527f32342062697473000000000000000000000000000000000000000000000000006064820152608401610681565b5090565b600063ffffffff821115610fed576040517f08c379a000000000000000000000000000000000000000000000000000000000815260206004820152602660248201527f53616665436173743a2076616c756520646f65736e27742066697420696e203360448201527f32206269747300000000000000000000000000000000000000000000000000006064820152608401610681565b505050565b60006106b98284612687565b73ffffffffffffffffffffffffffffffffffffffff831661113a576040517f08c379a0000000000000000000000000000000000000000000000000000000008152602060048201526024808201527f45524332303a20617070726f76652066726f6d20746865207a65726f2061646460448201527f72657373000000000000000000000000000000000000000000000000000000006064820152608401610681565b73ffffffffffffffffffffffffffffffffffffffff82166111dd576040517f08c379a000000000000000000000000000000000000000000000000000000000815260206004820152602260248201527f45524332303a20617070726f766520746f20746865207a65726f20616464726560448201527f73730000000000000000000000000000000000000000000000000000000000006064820152608401610681565b73ffffffffffffffffffffffffffffffffffffffff83811660008181526001602090815260408083209487168084529482529182902085905590518481527f8c5be1e5ebec7d5bd14f71427d1e84f3dd0314c0f7b2291e5b200ac8c7c3b925910160405180910390a3505050565b73ffffffffffffffffffffffffffffffffffffffff8381166000908152600160209081526040808320938616835292905220547fffffffffffffffffffffffffffffffffffffffffffffffffffffffffffffffff811461131c578181101561130f576040517f08c379a000000000000000000000000000000000000000000000000000000000815260206004820152601d60248201527f45524332303a20696e73756666696369656e7420616c6c6f77616e63650000006044820152606401610681565b61131c8484848403611098565b50505050565b73ffffffffffffffffffffffffffffffffffffffff83166113c5576040517f08c379a000000000000000000000000000000000000000000000000000000000815260206004820152602560248201527f45524332303a207472616e736665722066726f6d20746865207a65726f20616460448201527f64726573730000000000000000000000000000000000000000000000000000006064820152608401610681565b73ffffffffffffffffffffffffffffffffffffffff8216611468576040517f08c379a000000000000000000000000000000000000000000000000000000000815260206004820152602360248201527f45524332303a207472616e7366657220746f20746865207a65726f206164647260448201527f65737300000000000000000000000000000000000000000000000000000000006064820152608401610681565b73ffffffffffffffffffffffffffffffffffffffff83166000908152602081905260409020548181101561151e576040517f08c379a000000000000000000000000000000000000000000000000000000000815260206004820152602660248201527f45524332303a207472616e7366657220616d6f756e742065786365656473206260448201527f616c616e636500000000000000000000000000000000000000000000000000006064820152608401610681565b73ffffffffffffffffffffffffffffffffffffffff848116600081815260208181526040808320878703905593871680835291849020805487019055925185815290927fddf252ad1be2c89b69c2b068fc378daa952ba7f163c4a11628f55a4df523b3ef910160405180910390a361131c848484611b9c565b60003073ffffffffffffffffffffffffffffffffffffffff7f0000000000000000000000000000000000000000000000000000000000000000161480156115fd57507f000000000000000000000000000000000000000000000000000000000000000046145b1561162757507f000000000000000000000000000000000000000000000000000000000000000090565b50604080517f00000000000000000000000000000000000000000000000000000000000000006020808301919091527f0000000000000000000000000000000000000000000000000000000000000000828401527f000000000000000000000000000000000000000000000000000000000000000060608301524660808301523060a0808401919091528351808403909101815260c0909201909252805191012090565b8154600090818160058111156117255760006116e684611bdb565b6116f09085612687565b600088815260209020909150869082015463ffffffff16111561171557809150611723565b61172081600161266f565b92505b505b808210156117725760006117398383611cc3565b600088815260209020909150869082015463ffffffff16111561175e5780915061176c565b61176981600161266f565b92505b50611725565b80156117c15761179586611787600184612687565b600091825260209091200190565b5464010000000090047bffffffffffffffffffffffffffffffffffffffffffffffffffffffff166117c4565b60005b7bffffffffffffffffffffffffffffffffffffffffffffffffffffffff169695505050505050565b600a5473ffffffffffffffffffffffffffffffffffffffff16331461072a576040517f08c379a000000000000000000000000000000000000000000000000000000000815260206004820181905260248201527f4f776e61626c653a2063616c6c6572206973206e6f7420746865206f776e65726044820152606401610681565b6118778282610e38565b6002546bffffffffffffffffffffffff1015611915576040517f08c379a000000000000000000000000000000000000000000000000000000000815260206004820152603060248201527f4552433230566f7465733a20746f74616c20737570706c79207269736b73206f60448201527f766572666c6f77696e6720766f746573000000000000000000000000000000006064820152608401610681565b61131c6009610f3383611cde565b73ffffffffffffffffffffffffffffffffffffffff8281166000818152600760208181526040808420805485845282862054949093528787167fffffffffffffffffffffffff00000000000000000000000000000000000000008416811790915590519190951694919391928592917f3134e8a2e6d97e929a7e54011ea5485d7d196dd5f0ba4d4ef95803e8e3fc257f9190a461131c828483611e86565b600a805473ffffffffffffffffffffffffffffffffffffffff8381167fffffffffffffffffffffffff0000000000000000000000000000000000000000831681179093556040519116919082907f8be0079c531659141344cd1fd0a4f28419497f9722a3daafe3b4186f6b6457e090600090a35050565b60006bffffffffffffffffffffffff821115610fed576040517f08c379a000000000000000000000000000000000000000000000000000000000815260206004820152602660248201527f53616665436173743a2076616c756520646f65736e27742066697420696e203960448201527f36206269747300000000000000000000000000000000000000000000000000006064820152608401610681565b6000610712611ae3611597565b836040517f19010000000000000000000000000000000000000000000000000000000000006020820152602281018390526042810182905260009060620160405160208183030381529060405280519060200120905092915050565b6000806000611b508787878761202b565b91509150611b5d8161211a565b5095945050505050565b73ffffffffffffffffffffffffffffffffffffffff811660009081526005602052604090208054600181018255905b50919050565b73ffffffffffffffffffffffffffffffffffffffff83811660009081526007602052604080822054858416835291205461108792918216911683611e86565b600081600003611bed57506000919050565b60006001611bfa846122cd565b901c6001901b90506001818481611c1357611c136126cd565b048201901c90506001818481611c2b57611c2b6126cd565b048201901c90506001818481611c4357611c436126cd565b048201901c90506001818481611c5b57611c5b6126cd565b048201901c90506001818481611c7357611c736126cd565b048201901c90506001818481611c8b57611c8b6126cd565b048201901c90506001818481611ca357611ca36126cd565b048201901c90506106b981828581611cbd57611cbd6126cd565b04612361565b6000611cd260028484186126fc565b6106b99084841661266f565b82546000908190818115611d4057611cfb87611787600185612687565b60408051808201909152905463ffffffff8116825264010000000090047bffffffffffffffffffffffffffffffffffffffffffffffffffffffff166020820152611d55565b60408051808201909152600080825260208201525b905080602001517bffffffffffffffffffffffffffffffffffffffffffffffffffffffff169350611d8a84868863ffffffff16565b9250600082118015611da25750805163ffffffff1643145b15611dfc57611db083610f3f565b611dbf88611787600186612687565b80547bffffffffffffffffffffffffffffffffffffffffffffffffffffffff929092166401000000000263ffffffff909216919091179055611e7c565b866040518060400160405280611e1143610ff1565b63ffffffff168152602001611e2586610f3f565b7bffffffffffffffffffffffffffffffffffffffffffffffffffffffff90811690915282546001810184556000938452602093849020835194909301519091166401000000000263ffffffff909316929092179101555b5050935093915050565b8173ffffffffffffffffffffffffffffffffffffffff168373ffffffffffffffffffffffffffffffffffffffff1614158015611ec25750600081115b156110875773ffffffffffffffffffffffffffffffffffffffff831615611f775773ffffffffffffffffffffffffffffffffffffffff831660009081526008602052604081208190611f179061108c85611cde565b915091508473ffffffffffffffffffffffffffffffffffffffff167fdec2bacdd2f05b59de34da9b523dff8be42e5e38e818c82fdb0bae774387a7248383604051611f6c929190918252602082015260400190565b60405180910390a250505b73ffffffffffffffffffffffffffffffffffffffff8216156110875773ffffffffffffffffffffffffffffffffffffffff821660009081526008602052604081208190611fc790610f3385611cde565b915091508373ffffffffffffffffffffffffffffffffffffffff167fdec2bacdd2f05b59de34da9b523dff8be42e5e38e818c82fdb0bae774387a724838360405161201c929190918252602082015260400190565b60405180910390a25050505050565b6000807f7fffffffffffffffffffffffffffffff5d576e7357a4501ddfe92f46681b20a08311156120625750600090506003612111565b6040805160008082526020820180845289905260ff881692820192909252606081018690526080810185905260019060a0016020604051602081039080840390855afa1580156120b6573d6000803e3d6000fd5b50506040517fffffffffffffffffffffffffffffffffffffffffffffffffffffffffffffffe0015191505073ffffffffffffffffffffffffffffffffffffffff811661210a57600060019250925050612111565b9150600090505b94509492505050565b600081600481111561212e5761212e612737565b036121365750565b600181600481111561214a5761214a612737565b036121b1576040517f08c379a000000000000000000000000000000000000000000000000000000000815260206004820152601860248201527f45434453413a20696e76616c6964207369676e617475726500000000000000006044820152606401610681565b60028160048111156121c5576121c5612737565b0361222c576040517f08c379a000000000000000000000000000000000000000000000000000000000815260206004820152601f60248201527f45434453413a20696e76616c6964207369676e6174757265206c656e677468006044820152606401610681565b600381600481111561224057612240612737565b036106e0576040517f08c379a000000000000000000000000000000000000000000000000000000000815260206004820152602260248201527f45434453413a20696e76616c6964207369676e6174757265202773272076616c60448201527f75650000000000000000000000000000000000000000000000000000000000006064820152608401610681565b600080608083901c156122e257608092831c92015b604083901c156122f457604092831c92015b602083901c1561230657602092831c92015b601083901c1561231857601092831c92015b600883901c1561232a57600892831c92015b600483901c1561233c57600492831c92015b600283901c1561234e57600292831c92015b600183901c156107125760010192915050565b600081831061237057816106b9565b5090919050565b600060208083528351808285015260005b818110156123a457858101830151858201604001528201612388565b818111156123b6576000604083870101525b50601f017fffffffffffffffffffffffffffffffffffffffffffffffffffffffffffffffe016929092016040019392505050565b803573ffffffffffffffffffffffffffffffffffffffff8116811461240e57600080fd5b919050565b6000806040838503121561242657600080fd5b61242f836123ea565b946020939093013593505050565b60008060006060848603121561245257600080fd5b61245b846123ea565b9250612469602085016123ea565b9150604084013590509250925092565b60006020828403121561248b57600080fd5b6106b9826123ea565b6000602082840312156124a657600080fd5b5035919050565b803560ff8116811461240e57600080fd5b60008060008060008060c087890312156124d757600080fd5b6124e0876123ea565b955060208701359450604087013593506124fc606088016124ad565b92506080870135915060a087013590509295509295509295565b600080600080600080600060e0888a03121561253157600080fd5b61253a886123ea565b9650612548602089016123ea565b95506040880135945060608801359350612564608089016124ad565b925060a0880135915060c0880135905092959891949750929550565b6000806040838503121561259357600080fd5b61259c836123ea565b91506125aa602084016123ea565b90509250929050565b600080604083850312156125c657600080fd5b6125cf836123ea565b9150602083013563ffffffff811681146125e857600080fd5b809150509250929050565b600181811c9082168061260757607f821691505b602082108103611b96577f4e487b7100000000000000000000000000000000000000000000000000000000600052602260045260246000fd5b7f4e487b7100000000000000000000000000000000000000000000000000000000600052601160045260246000fd5b6000821982111561268257612682612640565b500190565b60008282101561269957612699612640565b500390565b7f4e487b7100000000000000000000000000000000000000000000000000000000600052603260045260246000fd5b7f4e487b7100000000000000000000000000000000000000000000000000000000600052601260045260246000fd5b600082612732577f4e487b7100000000000000000000000000000000000000000000000000000000600052601260045260246000fd5b500490565b7f4e487b7100000000000000000000000000000000000000000000000000000000600052602160045260246000fdfea26469706673582212203a59e665fe203c2b776ed0b2f8b8a40187a21570cc776bcd8bee7f51534026d564736f6c634300080e0033dec2bacdd2f05b59de34da9b523dff8be42e5e38e818c82fdb0bae774387a724",
    "linkReferences": {}
  },
  "methodIdentifiers": {
    "DOMAIN_SEPARATOR()": "3644e515",
    "allowance(address,address)": "dd62ed3e",
    "approve(address,uint256)": "095ea7b3",
    "balanceOf(address)": "70a08231",
    "checkpoints(address,uint32)": "f1127ed8",
    "decimals()": "313ce567",
    "decreaseAllowance(address,uint256)": "a457c2d7",
    "delegate(address)": "5c19a95c",
    "delegateBySig(address,uint256,uint256,uint8,bytes32,bytes32)": "c3cda520",
    "delegates(address)": "587cde1e",
    "getCurrentVotes(address)": "b4b5ea57",
    "getPastTotalSupply(uint256)": "8e539e8c",
    "getPastVotes(address,uint256)": "3a46b1a8",
    "getPriorVotes(address,uint256)": "782d6fe1",
    "getVotes(address)": "9ab24eb0",
    "increaseAllowance(address,uint256)": "39509351",
    "mint(address,uint256)": "40c10f19",
    "name()": "06fdde03",
    "nonces(address)": "7ecebe00",
    "numCheckpoints(address)": "6fcfff45",
    "owner()": "8da5cb5b",
    "permit(address,address,uint256,uint256,uint8,bytes32,bytes32)": "d505accf",
    "renounceOwnership()": "715018a6",
    "symbol()": "95d89b41",
    "totalSupply()": "18160ddd",
    "transfer(address,uint256)": "a9059cbb",
    "transferFrom(address,address,uint256)": "23b872dd",
    "transferOwnership(address)": "f2fde38b"
  },
  "id": 67
}