{
  "abi": [
    {
      "inputs": [
        {
          "internalType": "address",
          "name": "_amph",
          "type": "address"
        }
      ],
      "stateMutability": "nonpayable",
      "type": "constructor"
    },
    {
      "inputs": [],
      "name": "GovernorCharlie_AlreadyVoted",
      "type": "error"
    },
    {
      "inputs": [],
      "name": "GovernorCharlie_ArityMismatch",
      "type": "error"
    },
    {
      "inputs": [],
      "name": "GovernorCharlie_DelayNotReached",
      "type": "error"
    },
    {
      "inputs": [],
      "name": "GovernorCharlie_ExpirationExceedsMax",
      "type": "error"
    },
    {
      "inputs": [],
      "name": "GovernorCharlie_InvalidProposalId",
      "type": "error"
    },
    {
      "inputs": [],
      "name": "GovernorCharlie_InvalidSignature",
      "type": "error"
    },
    {
      "inputs": [],
      "name": "GovernorCharlie_InvalidVoteType",
      "type": "error"
    },
    {
      "inputs": [],
      "name": "GovernorCharlie_MultipleActiveProposals",
      "type": "error"
    },
    {
      "inputs": [],
      "name": "GovernorCharlie_MultiplePendingProposals",
      "type": "error"
    },
    {
      "inputs": [],
      "name": "GovernorCharlie_NoActions",
      "type": "error"
    },
    {
      "inputs": [],
      "name": "GovernorCharlie_NotActive",
      "type": "error"
    },
    {
      "inputs": [],
      "name": "GovernorCharlie_NotGovernorCharlie",
      "type": "error"
    },
    {
      "inputs": [],
      "name": "GovernorCharlie_ProposalAboveThreshold",
      "type": "error"
    },
    {
      "inputs": [],
      "name": "GovernorCharlie_ProposalAlreadyExecuted",
      "type": "error"
    },
    {
      "inputs": [],
      "name": "GovernorCharlie_ProposalAlreadyQueued",
      "type": "error"
    },
    {
      "inputs": [],
      "name": "GovernorCharlie_ProposalNotQueued",
      "type": "error"
    },
    {
      "inputs": [],
      "name": "GovernorCharlie_ProposalNotSucceeded",
      "type": "error"
    },
    {
      "inputs": [],
      "name": "GovernorCharlie_TimelockNotReached",
      "type": "error"
    },
    {
      "inputs": [],
      "name": "GovernorCharlie_TooManyActions",
      "type": "error"
    },
    {
      "inputs": [],
      "name": "GovernorCharlie_TransactionReverted",
      "type": "error"
    },
    {
      "inputs": [],
      "name": "GovernorCharlie_TransactionStale",
      "type": "error"
    },
    {
      "inputs": [],
      "name": "GovernorCharlie_VotesBelowThreshold",
      "type": "error"
    },
    {
      "inputs": [],
      "name": "GovernorCharlie_VotingClosed",
      "type": "error"
    },
    {
      "inputs": [],
      "name": "GovernorCharlie_WhitelistedProposer",
      "type": "error"
    },
    {
      "anonymous": false,
      "inputs": [
        {
          "indexed": true,
          "internalType": "bytes32",
          "name": "_txHash",
          "type": "bytes32"
        },
        {
          "indexed": true,
          "internalType": "address",
          "name": "_target",
          "type": "address"
        },
        {
          "indexed": false,
          "internalType": "uint256",
          "name": "_value",
          "type": "uint256"
        },
        {
          "indexed": false,
          "internalType": "string",
          "name": "_signature",
          "type": "string"
        },
        {
          "indexed": false,
          "internalType": "bytes",
          "name": "_data",
          "type": "bytes"
        },
        {
          "indexed": false,
          "internalType": "uint256",
          "name": "_eta",
          "type": "uint256"
        }
      ],
      "name": "CancelTransaction",
      "type": "event"
    },
    {
      "anonymous": false,
      "inputs": [
        {
          "indexed": false,
          "internalType": "uint256",
          "name": "_oldEmergencyVotingPeriod",
          "type": "uint256"
        },
        {
          "indexed": false,
          "internalType": "uint256",
          "name": "_emergencyVotingPeriod",
          "type": "uint256"
        }
      ],
      "name": "EmergencyVotingPeriodSet",
      "type": "event"
    },
    {
      "anonymous": false,
      "inputs": [
        {
          "indexed": true,
          "internalType": "bytes32",
          "name": "_txHash",
          "type": "bytes32"
        },
        {
          "indexed": true,
          "internalType": "address",
          "name": "_target",
          "type": "address"
        },
        {
          "indexed": false,
          "internalType": "uint256",
          "name": "_value",
          "type": "uint256"
        },
        {
          "indexed": false,
          "internalType": "string",
          "name": "_signature",
          "type": "string"
        },
        {
          "indexed": false,
          "internalType": "bytes",
          "name": "_data",
          "type": "bytes"
        },
        {
          "indexed": false,
          "internalType": "uint256",
          "name": "_eta",
          "type": "uint256"
        }
      ],
      "name": "ExecuteTransaction",
      "type": "event"
    },
    {
      "anonymous": false,
      "inputs": [
        {
          "indexed": false,
          "internalType": "uint256",
          "name": "_oldTimelockDelay",
          "type": "uint256"
        },
        {
          "indexed": false,
          "internalType": "uint256",
          "name": "_proposalTimelockDelay",
          "type": "uint256"
        }
      ],
      "name": "NewDelay",
      "type": "event"
    },
    {
      "anonymous": false,
      "inputs": [
        {
          "indexed": false,
          "internalType": "uint256",
          "name": "_oldEmergencyTimelockDelay",
          "type": "uint256"
        },
        {
          "indexed": false,
          "internalType": "uint256",
          "name": "_emergencyTimelockDelay",
          "type": "uint256"
        }
      ],
      "name": "NewEmergencyDelay",
      "type": "event"
    },
    {
      "anonymous": false,
      "inputs": [
        {
          "indexed": false,
          "internalType": "uint256",
          "name": "_oldEmergencyQuorumVotes",
          "type": "uint256"
        },
        {
          "indexed": false,
          "internalType": "uint256",
          "name": "_emergencyQuorumVotes",
          "type": "uint256"
        }
      ],
      "name": "NewEmergencyQuorum",
      "type": "event"
    },
    {
      "anonymous": false,
      "inputs": [
        {
          "indexed": false,
          "internalType": "uint256",
          "name": "_oldQuorumVotes",
          "type": "uint256"
        },
        {
          "indexed": false,
          "internalType": "uint256",
          "name": "_quorumVotes",
          "type": "uint256"
        }
      ],
      "name": "NewQuorum",
      "type": "event"
    },
    {
      "anonymous": false,
      "inputs": [
        {
          "indexed": false,
          "internalType": "uint256",
          "name": "_oldOptimisticQuorumVotes",
          "type": "uint256"
        },
        {
          "indexed": false,
          "internalType": "uint256",
          "name": "_optimisticQuorumVotes",
          "type": "uint256"
        }
      ],
      "name": "OptimisticQuorumVotesSet",
      "type": "event"
    },
    {
      "anonymous": false,
      "inputs": [
        {
          "indexed": false,
          "internalType": "uint256",
          "name": "_oldOptimisticVotingDelay",
          "type": "uint256"
        },
        {
          "indexed": false,
          "internalType": "uint256",
          "name": "_optimisticVotingDelay",
          "type": "uint256"
        }
      ],
      "name": "OptimisticVotingDelaySet",
      "type": "event"
    },
    {
      "anonymous": false,
      "inputs": [
        {
          "indexed": false,
          "internalType": "uint256",
          "name": "_id",
          "type": "uint256"
        }
      ],
      "name": "ProposalCanceled",
      "type": "event"
    },
    {
      "anonymous": false,
      "inputs": [
        {
          "indexed": true,
          "internalType": "uint256",
          "name": "_id",
          "type": "uint256"
        }
      ],
      "name": "ProposalCanceledIndexed",
      "type": "event"
    },
    {
      "anonymous": false,
      "inputs": [
        {
          "indexed": false,
          "internalType": "uint256",
          "name": "_id",
          "type": "uint256"
        },
        {
          "indexed": false,
          "internalType": "address",
          "name": "_proposer",
          "type": "address"
        },
        {
          "indexed": false,
          "internalType": "address[]",
          "name": "_targets",
          "type": "address[]"
        },
        {
          "indexed": false,
          "internalType": "uint256[]",
          "name": "_values",
          "type": "uint256[]"
        },
        {
          "indexed": false,
          "internalType": "string[]",
          "name": "_signatures",
          "type": "string[]"
        },
        {
          "indexed": false,
          "internalType": "bytes[]",
          "name": "_calldatas",
          "type": "bytes[]"
        },
        {
          "indexed": false,
          "internalType": "uint256",
          "name": "_startBlock",
          "type": "uint256"
        },
        {
          "indexed": false,
          "internalType": "uint256",
          "name": "_endBlock",
          "type": "uint256"
        },
        {
          "indexed": false,
          "internalType": "string",
          "name": "_description",
          "type": "string"
        }
      ],
      "name": "ProposalCreated",
      "type": "event"
    },
    {
      "anonymous": false,
      "inputs": [
        {
          "indexed": true,
          "internalType": "uint256",
          "name": "_id",
          "type": "uint256"
        },
        {
          "indexed": true,
          "internalType": "address",
          "name": "_proposer",
          "type": "address"
        },
        {
          "indexed": false,
          "internalType": "address[]",
          "name": "_targets",
          "type": "address[]"
        },
        {
          "indexed": false,
          "internalType": "uint256[]",
          "name": "_values",
          "type": "uint256[]"
        },
        {
          "indexed": false,
          "internalType": "string[]",
          "name": "_signatures",
          "type": "string[]"
        },
        {
          "indexed": false,
          "internalType": "bytes[]",
          "name": "_calldatas",
          "type": "bytes[]"
        },
        {
          "indexed": true,
          "internalType": "uint256",
          "name": "_startBlock",
          "type": "uint256"
        },
        {
          "indexed": false,
          "internalType": "uint256",
          "name": "_endBlock",
          "type": "uint256"
        },
        {
          "indexed": false,
          "internalType": "string",
          "name": "_description",
          "type": "string"
        }
      ],
      "name": "ProposalCreatedIndexed",
      "type": "event"
    },
    {
      "anonymous": false,
      "inputs": [
        {
          "indexed": false,
          "internalType": "uint256",
          "name": "_id",
          "type": "uint256"
        }
      ],
      "name": "ProposalExecuted",
      "type": "event"
    },
    {
      "anonymous": false,
      "inputs": [
        {
          "indexed": true,
          "internalType": "uint256",
          "name": "_id",
          "type": "uint256"
        }
      ],
      "name": "ProposalExecutedIndexed",
      "type": "event"
    },
    {
      "anonymous": false,
      "inputs": [
        {
          "indexed": false,
          "internalType": "uint256",
          "name": "_id",
          "type": "uint256"
        },
        {
          "indexed": false,
          "internalType": "uint256",
          "name": "_eta",
          "type": "uint256"
        }
      ],
      "name": "ProposalQueued",
      "type": "event"
    },
    {
      "anonymous": false,
      "inputs": [
        {
          "indexed": true,
          "internalType": "uint256",
          "name": "_id",
          "type": "uint256"
        },
        {
          "indexed": false,
          "internalType": "uint256",
          "name": "_eta",
          "type": "uint256"
        }
      ],
      "name": "ProposalQueuedIndexed",
      "type": "event"
    },
    {
      "anonymous": false,
      "inputs": [
        {
          "indexed": false,
          "internalType": "uint256",
          "name": "_oldProposalThreshold",
          "type": "uint256"
        },
        {
          "indexed": false,
          "internalType": "uint256",
          "name": "_newProposalThreshold",
          "type": "uint256"
        }
      ],
      "name": "ProposalThresholdSet",
      "type": "event"
    },
    {
      "anonymous": false,
      "inputs": [
        {
          "indexed": true,
          "internalType": "bytes32",
          "name": "_txHash",
          "type": "bytes32"
        },
        {
          "indexed": true,
          "internalType": "address",
          "name": "_target",
          "type": "address"
        },
        {
          "indexed": false,
          "internalType": "uint256",
          "name": "_value",
          "type": "uint256"
        },
        {
          "indexed": false,
          "internalType": "string",
          "name": "_signature",
          "type": "string"
        },
        {
          "indexed": false,
          "internalType": "bytes",
          "name": "_data",
          "type": "bytes"
        },
        {
          "indexed": false,
          "internalType": "uint256",
          "name": "_eta",
          "type": "uint256"
        }
      ],
      "name": "QueueTransaction",
      "type": "event"
    },
    {
      "anonymous": false,
      "inputs": [
        {
          "indexed": true,
          "internalType": "address",
          "name": "_voter",
          "type": "address"
        },
        {
          "indexed": false,
          "internalType": "uint256",
          "name": "_proposalId",
          "type": "uint256"
        },
        {
          "indexed": false,
          "internalType": "uint8",
          "name": "_support",
          "type": "uint8"
        },
        {
          "indexed": false,
          "internalType": "uint256",
          "name": "_votes",
          "type": "uint256"
        },
        {
          "indexed": false,
          "internalType": "string",
          "name": "_reason",
          "type": "string"
        }
      ],
      "name": "VoteCast",
      "type": "event"
    },
    {
      "anonymous": false,
      "inputs": [
        {
          "indexed": true,
          "internalType": "address",
          "name": "_voter",
          "type": "address"
        },
        {
          "indexed": true,
          "internalType": "uint256",
          "name": "_proposalId",
          "type": "uint256"
        },
        {
          "indexed": false,
          "internalType": "uint8",
          "name": "_support",
          "type": "uint8"
        },
        {
          "indexed": false,
          "internalType": "uint256",
          "name": "_votes",
          "type": "uint256"
        },
        {
          "indexed": false,
          "internalType": "string",
          "name": "_reason",
          "type": "string"
        }
      ],
      "name": "VoteCastIndexed",
      "type": "event"
    },
    {
      "anonymous": false,
      "inputs": [
        {
          "indexed": false,
          "internalType": "uint256",
          "name": "_oldVotingDelay",
          "type": "uint256"
        },
        {
          "indexed": false,
          "internalType": "uint256",
          "name": "_newVotingDelay",
          "type": "uint256"
        }
      ],
      "name": "VotingDelaySet",
      "type": "event"
    },
    {
      "anonymous": false,
      "inputs": [
        {
          "indexed": false,
          "internalType": "uint256",
          "name": "_oldVotingPeriod",
          "type": "uint256"
        },
        {
          "indexed": false,
          "internalType": "uint256",
          "name": "_newVotingPeriod",
          "type": "uint256"
        }
      ],
      "name": "VotingPeriodSet",
      "type": "event"
    },
    {
      "anonymous": false,
      "inputs": [
        {
          "indexed": false,
          "internalType": "address",
          "name": "_account",
          "type": "address"
        },
        {
          "indexed": false,
          "internalType": "uint256",
          "name": "_expiration",
          "type": "uint256"
        }
      ],
      "name": "WhitelistAccountExpirationSet",
      "type": "event"
    },
    {
      "anonymous": false,
      "inputs": [
        {
          "indexed": false,
          "internalType": "address",
          "name": "_oldGuardian",
          "type": "address"
        },
        {
          "indexed": false,
          "internalType": "address",
          "name": "_newGuardian",
          "type": "address"
        }
      ],
      "name": "WhitelistGuardianSet",
      "type": "event"
    },
    {
      "inputs": [],
      "name": "BALLOT_TYPEHASH",
      "outputs": [
        {
          "internalType": "bytes32",
          "name": "",
          "type": "bytes32"
        }
      ],
      "stateMutability": "view",
      "type": "function"
    },
    {
      "inputs": [],
      "name": "DOMAIN_TYPEHASH",
      "outputs": [
        {
          "internalType": "bytes32",
          "name": "",
          "type": "bytes32"
        }
      ],
      "stateMutability": "view",
      "type": "function"
    },
    {
      "inputs": [],
      "name": "GRACE_PERIOD",
      "outputs": [
        {
          "internalType": "uint256",
          "name": "",
          "type": "uint256"
        }
      ],
      "stateMutability": "view",
      "type": "function"
    },
    {
      "inputs": [],
      "name": "NAME",
      "outputs": [
        {
          "internalType": "string",
          "name": "",
          "type": "string"
        }
      ],
      "stateMutability": "view",
      "type": "function"
    },
    {
      "inputs": [],
      "name": "PROPOSAL_MAX_OPERATIONS",
      "outputs": [
        {
          "internalType": "uint256",
          "name": "",
          "type": "uint256"
        }
      ],
      "stateMutability": "view",
      "type": "function"
    },
    {
      "inputs": [],
      "name": "amph",
      "outputs": [
        {
          "internalType": "contract IAMPH",
          "name": "",
          "type": "address"
        }
      ],
      "stateMutability": "view",
      "type": "function"
    },
    {
      "inputs": [
        {
          "internalType": "uint256",
          "name": "_proposalId",
          "type": "uint256"
        }
      ],
      "name": "cancel",
      "outputs": [],
      "stateMutability": "nonpayable",
      "type": "function"
    },
    {
      "inputs": [
        {
          "internalType": "uint256",
          "name": "_proposalId",
          "type": "uint256"
        },
        {
          "internalType": "uint8",
          "name": "_support",
          "type": "uint8"
        }
      ],
      "name": "castVote",
      "outputs": [],
      "stateMutability": "nonpayable",
      "type": "function"
    },
    {
      "inputs": [
        {
          "internalType": "uint256",
          "name": "_proposalId",
          "type": "uint256"
        },
        {
          "internalType": "uint8",
          "name": "_support",
          "type": "uint8"
        },
        {
          "internalType": "uint8",
          "name": "_v",
          "type": "uint8"
        },
        {
          "internalType": "bytes32",
          "name": "_r",
          "type": "bytes32"
        },
        {
          "internalType": "bytes32",
          "name": "_s",
          "type": "bytes32"
        }
      ],
      "name": "castVoteBySig",
      "outputs": [],
      "stateMutability": "nonpayable",
      "type": "function"
    },
    {
      "inputs": [
        {
          "internalType": "uint256",
          "name": "_proposalId",
          "type": "uint256"
        },
        {
          "internalType": "uint8",
          "name": "_support",
          "type": "uint8"
        },
        {
          "internalType": "string",
          "name": "_reason",
          "type": "string"
        }
      ],
      "name": "castVoteWithReason",
      "outputs": [],
      "stateMutability": "nonpayable",
      "type": "function"
    },
    {
      "inputs": [],
      "name": "delay",
      "outputs": [
        {
          "internalType": "uint256",
          "name": "_delay",
          "type": "uint256"
        }
      ],
      "stateMutability": "view",
      "type": "function"
    },
    {
      "inputs": [],
      "name": "emergencyQuorumVotes",
      "outputs": [
        {
          "internalType": "uint256",
          "name": "",
          "type": "uint256"
        }
      ],
      "stateMutability": "view",
      "type": "function"
    },
    {
      "inputs": [],
      "name": "emergencyTimelockDelay",
      "outputs": [
        {
          "internalType": "uint256",
          "name": "",
          "type": "uint256"
        }
      ],
      "stateMutability": "view",
      "type": "function"
    },
    {
      "inputs": [],
      "name": "emergencyVotingPeriod",
      "outputs": [
        {
          "internalType": "uint256",
          "name": "",
          "type": "uint256"
        }
      ],
      "stateMutability": "view",
      "type": "function"
    },
    {
      "inputs": [
        {
          "internalType": "uint256",
          "name": "_proposalId",
          "type": "uint256"
        }
      ],
      "name": "execute",
      "outputs": [],
      "stateMutability": "payable",
      "type": "function"
    },
    {
      "inputs": [
        {
          "internalType": "address",
          "name": "_target",
          "type": "address"
        },
        {
          "internalType": "uint256",
          "name": "_value",
          "type": "uint256"
        },
        {
          "internalType": "string",
          "name": "_signature",
          "type": "string"
        },
        {
          "internalType": "bytes",
          "name": "_data",
          "type": "bytes"
        },
        {
          "internalType": "uint256",
          "name": "_eta",
          "type": "uint256"
        }
      ],
      "name": "executeTransaction",
      "outputs": [],
      "stateMutability": "payable",
      "type": "function"
    },
    {
      "inputs": [
        {
          "internalType": "uint256",
          "name": "_proposalId",
          "type": "uint256"
        }
      ],
      "name": "getActions",
      "outputs": [
        {
          "internalType": "address[]",
          "name": "_targets",
          "type": "address[]"
        },
        {
          "internalType": "uint256[]",
          "name": "_values",
          "type": "uint256[]"
        },
        {
          "internalType": "string[]",
          "name": "_signatures",
          "type": "string[]"
        },
        {
          "internalType": "bytes[]",
          "name": "_calldatas",
          "type": "bytes[]"
        }
      ],
      "stateMutability": "view",
      "type": "function"
    },
    {
      "inputs": [
        {
          "internalType": "uint256",
          "name": "_proposalId",
          "type": "uint256"
        }
      ],
      "name": "getProposal",
      "outputs": [
        {
          "components": [
            {
              "internalType": "uint256",
              "name": "id",
              "type": "uint256"
            },
            {
              "internalType": "address",
              "name": "proposer",
              "type": "address"
            },
            {
              "internalType": "uint256",
              "name": "eta",
              "type": "uint256"
            },
            {
              "internalType": "address[]",
              "name": "targets",
              "type": "address[]"
            },
            {
              "internalType": "uint256[]",
              "name": "values",
              "type": "uint256[]"
            },
            {
              "internalType": "string[]",
              "name": "signatures",
              "type": "string[]"
            },
            {
              "internalType": "bytes[]",
              "name": "calldatas",
              "type": "bytes[]"
            },
            {
              "internalType": "uint256",
              "name": "startBlock",
              "type": "uint256"
            },
            {
              "internalType": "uint256",
              "name": "endBlock",
              "type": "uint256"
            },
            {
              "internalType": "uint256",
              "name": "forVotes",
              "type": "uint256"
            },
            {
              "internalType": "uint256",
              "name": "againstVotes",
              "type": "uint256"
            },
            {
              "internalType": "uint256",
              "name": "abstainVotes",
              "type": "uint256"
            },
            {
              "internalType": "bool",
              "name": "canceled",
              "type": "bool"
            },
            {
              "internalType": "bool",
              "name": "executed",
              "type": "bool"
            },
            {
              "internalType": "bool",
              "name": "emergency",
              "type": "bool"
            },
            {
              "internalType": "uint256",
              "name": "quorumVotes",
              "type": "uint256"
            },
            {
              "internalType": "uint256",
              "name": "delay",
              "type": "uint256"
            }
          ],
          "internalType": "struct Proposal",
          "name": "_proposal",
          "type": "tuple"
        }
      ],
      "stateMutability": "view",
      "type": "function"
    },
    {
      "inputs": [
        {
          "internalType": "uint256",
          "name": "_proposalId",
          "type": "uint256"
        },
        {
          "internalType": "address",
          "name": "_voter",
          "type": "address"
        }
      ],
      "name": "getReceipt",
      "outputs": [
        {
          "components": [
            {
              "internalType": "bool",
              "name": "hasVoted",
              "type": "bool"
            },
            {
              "internalType": "uint8",
              "name": "support",
              "type": "uint8"
            },
            {
              "internalType": "uint96",
              "name": "votes",
              "type": "uint96"
            }
          ],
          "internalType": "struct Receipt",
          "name": "_votingReceipt",
          "type": "tuple"
        }
      ],
      "stateMutability": "view",
      "type": "function"
    },
    {
      "inputs": [],
      "name": "initialProposalId",
      "outputs": [
        {
          "internalType": "uint256",
          "name": "",
          "type": "uint256"
        }
      ],
      "stateMutability": "view",
      "type": "function"
    },
    {
      "inputs": [
        {
          "internalType": "address",
          "name": "_account",
          "type": "address"
        }
      ],
      "name": "isWhitelisted",
      "outputs": [
        {
          "internalType": "bool",
          "name": "_isWhitelisted",
          "type": "bool"
        }
      ],
      "stateMutability": "view",
      "type": "function"
    },
    {
      "inputs": [
        {
          "internalType": "address",
          "name": "",
          "type": "address"
        }
      ],
      "name": "latestProposalIds",
      "outputs": [
        {
          "internalType": "uint256",
          "name": "",
          "type": "uint256"
        }
      ],
      "stateMutability": "view",
      "type": "function"
    },
    {
      "inputs": [],
      "name": "maxWhitelistPeriod",
      "outputs": [
        {
          "internalType": "uint256",
          "name": "",
          "type": "uint256"
        }
      ],
      "stateMutability": "view",
      "type": "function"
    },
    {
      "inputs": [],
      "name": "optimisticQuorumVotes",
      "outputs": [
        {
          "internalType": "uint256",
          "name": "",
          "type": "uint256"
        }
      ],
      "stateMutability": "view",
      "type": "function"
    },
    {
      "inputs": [],
      "name": "optimisticVotingDelay",
      "outputs": [
        {
          "internalType": "uint256",
          "name": "",
          "type": "uint256"
        }
      ],
      "stateMutability": "view",
      "type": "function"
    },
    {
      "inputs": [],
      "name": "proposalCount",
      "outputs": [
        {
          "internalType": "uint256",
          "name": "",
          "type": "uint256"
        }
      ],
      "stateMutability": "view",
      "type": "function"
    },
    {
      "inputs": [
        {
          "internalType": "uint256",
          "name": "",
          "type": "uint256"
        },
        {
          "internalType": "address",
          "name": "",
          "type": "address"
        }
      ],
      "name": "proposalReceipts",
      "outputs": [
        {
          "internalType": "bool",
          "name": "hasVoted",
          "type": "bool"
        },
        {
          "internalType": "uint8",
          "name": "support",
          "type": "uint8"
        },
        {
          "internalType": "uint96",
          "name": "votes",
          "type": "uint96"
        }
      ],
      "stateMutability": "view",
      "type": "function"
    },
    {
      "inputs": [],
      "name": "proposalThreshold",
      "outputs": [
        {
          "internalType": "uint256",
          "name": "",
          "type": "uint256"
        }
      ],
      "stateMutability": "view",
      "type": "function"
    },
    {
      "inputs": [],
      "name": "proposalTimelockDelay",
      "outputs": [
        {
          "internalType": "uint256",
          "name": "",
          "type": "uint256"
        }
      ],
      "stateMutability": "view",
      "type": "function"
    },
    {
      "inputs": [
        {
          "internalType": "uint256",
          "name": "",
          "type": "uint256"
        }
      ],
      "name": "proposals",
      "outputs": [
        {
          "internalType": "uint256",
          "name": "id",
          "type": "uint256"
        },
        {
          "internalType": "address",
          "name": "proposer",
          "type": "address"
        },
        {
          "internalType": "uint256",
          "name": "eta",
          "type": "uint256"
        },
        {
          "internalType": "uint256",
          "name": "startBlock",
          "type": "uint256"
        },
        {
          "internalType": "uint256",
          "name": "endBlock",
          "type": "uint256"
        },
        {
          "internalType": "uint256",
          "name": "forVotes",
          "type": "uint256"
        },
        {
          "internalType": "uint256",
          "name": "againstVotes",
          "type": "uint256"
        },
        {
          "internalType": "uint256",
          "name": "abstainVotes",
          "type": "uint256"
        },
        {
          "internalType": "bool",
          "name": "canceled",
          "type": "bool"
        },
        {
          "internalType": "bool",
          "name": "executed",
          "type": "bool"
        },
        {
          "internalType": "bool",
          "name": "emergency",
          "type": "bool"
        },
        {
          "internalType": "uint256",
          "name": "quorumVotes",
          "type": "uint256"
        },
        {
          "internalType": "uint256",
          "name": "delay",
          "type": "uint256"
        }
      ],
      "stateMutability": "view",
      "type": "function"
    },
    {
      "inputs": [
        {
          "internalType": "address[]",
          "name": "_targets",
          "type": "address[]"
        },
        {
          "internalType": "uint256[]",
          "name": "_values",
          "type": "uint256[]"
        },
        {
          "internalType": "string[]",
          "name": "_signatures",
          "type": "string[]"
        },
        {
          "internalType": "bytes[]",
          "name": "_calldatas",
          "type": "bytes[]"
        },
        {
          "internalType": "string",
          "name": "_description",
          "type": "string"
        }
      ],
      "name": "propose",
      "outputs": [
        {
          "internalType": "uint256",
          "name": "_proposalId",
          "type": "uint256"
        }
      ],
      "stateMutability": "nonpayable",
      "type": "function"
    },
    {
      "inputs": [
        {
          "internalType": "address[]",
          "name": "_targets",
          "type": "address[]"
        },
        {
          "internalType": "uint256[]",
          "name": "_values",
          "type": "uint256[]"
        },
        {
          "internalType": "string[]",
          "name": "_signatures",
          "type": "string[]"
        },
        {
          "internalType": "bytes[]",
          "name": "_calldatas",
          "type": "bytes[]"
        },
        {
          "internalType": "string",
          "name": "_description",
          "type": "string"
        }
      ],
      "name": "proposeEmergency",
      "outputs": [
        {
          "internalType": "uint256",
          "name": "_proposalId",
          "type": "uint256"
        }
      ],
      "stateMutability": "nonpayable",
      "type": "function"
    },
    {
      "inputs": [
        {
          "internalType": "uint256",
          "name": "_proposalId",
          "type": "uint256"
        }
      ],
      "name": "queue",
      "outputs": [],
      "stateMutability": "nonpayable",
      "type": "function"
    },
    {
      "inputs": [
        {
          "internalType": "bytes32",
          "name": "",
          "type": "bytes32"
        }
      ],
      "name": "queuedTransactions",
      "outputs": [
        {
          "internalType": "bool",
          "name": "",
          "type": "bool"
        }
      ],
      "stateMutability": "view",
      "type": "function"
    },
    {
      "inputs": [],
      "name": "quorumVotes",
      "outputs": [
        {
          "internalType": "uint256",
          "name": "",
          "type": "uint256"
        }
      ],
      "stateMutability": "view",
      "type": "function"
    },
    {
      "inputs": [
        {
          "internalType": "uint256",
          "name": "_proposalTimelockDelay",
          "type": "uint256"
        }
      ],
      "name": "setDelay",
      "outputs": [],
      "stateMutability": "nonpayable",
      "type": "function"
    },
    {
      "inputs": [
        {
          "internalType": "uint256",
          "name": "_emergencyTimelockDelay",
          "type": "uint256"
        }
      ],
      "name": "setEmergencyDelay",
      "outputs": [],
      "stateMutability": "nonpayable",
      "type": "function"
    },
    {
      "inputs": [
        {
          "internalType": "uint256",
          "name": "_newEmergencyQuorumVotes",
          "type": "uint256"
        }
      ],
      "name": "setEmergencyQuorumVotes",
      "outputs": [],
      "stateMutability": "nonpayable",
      "type": "function"
    },
    {
      "inputs": [
        {
          "internalType": "uint256",
          "name": "_newEmergencyVotingPeriod",
          "type": "uint256"
        }
      ],
      "name": "setEmergencyVotingPeriod",
      "outputs": [],
      "stateMutability": "nonpayable",
      "type": "function"
    },
    {
      "inputs": [
        {
          "internalType": "uint256",
          "name": "_second",
          "type": "uint256"
        }
      ],
      "name": "setMaxWhitelistPeriod",
      "outputs": [],
      "stateMutability": "nonpayable",
      "type": "function"
    },
    {
      "inputs": [
        {
          "internalType": "address",
          "name": "_token",
          "type": "address"
        }
      ],
      "name": "setNewToken",
      "outputs": [],
      "stateMutability": "nonpayable",
      "type": "function"
    },
    {
      "inputs": [
        {
          "internalType": "uint256",
          "name": "_newOptimisticVotingDelay",
          "type": "uint256"
        }
      ],
      "name": "setOptimisticDelay",
      "outputs": [],
      "stateMutability": "nonpayable",
      "type": "function"
    },
    {
      "inputs": [
        {
          "internalType": "uint256",
          "name": "_newOptimisticQuorumVotes",
          "type": "uint256"
        }
      ],
      "name": "setOptimisticQuorumVotes",
      "outputs": [],
      "stateMutability": "nonpayable",
      "type": "function"
    },
    {
      "inputs": [
        {
          "internalType": "uint256",
          "name": "_newProposalThreshold",
          "type": "uint256"
        }
      ],
      "name": "setProposalThreshold",
      "outputs": [],
      "stateMutability": "nonpayable",
      "type": "function"
    },
    {
      "inputs": [
        {
          "internalType": "uint256",
          "name": "_newQuorumVotes",
          "type": "uint256"
        }
      ],
      "name": "setQuorumVotes",
      "outputs": [],
      "stateMutability": "nonpayable",
      "type": "function"
    },
    {
      "inputs": [
        {
          "internalType": "uint256",
          "name": "_newVotingDelay",
          "type": "uint256"
        }
      ],
      "name": "setVotingDelay",
      "outputs": [],
      "stateMutability": "nonpayable",
      "type": "function"
    },
    {
      "inputs": [
        {
          "internalType": "uint256",
          "name": "_newVotingPeriod",
          "type": "uint256"
        }
      ],
      "name": "setVotingPeriod",
      "outputs": [],
      "stateMutability": "nonpayable",
      "type": "function"
    },
    {
      "inputs": [
        {
          "internalType": "address",
          "name": "_account",
          "type": "address"
        },
        {
          "internalType": "uint256",
          "name": "_expiration",
          "type": "uint256"
        }
      ],
      "name": "setWhitelistAccountExpiration",
      "outputs": [],
      "stateMutability": "nonpayable",
      "type": "function"
    },
    {
      "inputs": [
        {
          "internalType": "address",
          "name": "_account",
          "type": "address"
        }
      ],
      "name": "setWhitelistGuardian",
      "outputs": [],
      "stateMutability": "nonpayable",
      "type": "function"
    },
    {
      "inputs": [
        {
          "internalType": "uint256",
          "name": "_proposalId",
          "type": "uint256"
        }
      ],
      "name": "state",
      "outputs": [
        {
          "internalType": "enum ProposalState",
          "name": "_state",
          "type": "uint8"
        }
      ],
      "stateMutability": "view",
      "type": "function"
    },
    {
      "inputs": [],
      "name": "timelock",
      "outputs": [
        {
          "internalType": "address",
          "name": "_timelock",
          "type": "address"
        }
      ],
      "stateMutability": "view",
      "type": "function"
    },
    {
      "inputs": [],
      "name": "votingDelay",
      "outputs": [
        {
          "internalType": "uint256",
          "name": "",
          "type": "uint256"
        }
      ],
      "stateMutability": "view",
      "type": "function"
    },
    {
      "inputs": [],
      "name": "votingPeriod",
      "outputs": [
        {
          "internalType": "uint256",
          "name": "",
          "type": "uint256"
        }
      ],
      "stateMutability": "view",
      "type": "function"
    },
    {
      "inputs": [
        {
          "internalType": "address",
          "name": "",
          "type": "address"
        }
      ],
      "name": "whitelistAccountExpirations",
      "outputs": [
        {
          "internalType": "uint256",
          "name": "",
          "type": "uint256"
        }
      ],
      "stateMutability": "view",
      "type": "function"
    },
    {
      "inputs": [],
      "name": "whitelistGuardian",
      "outputs": [
        {
          "internalType": "address",
          "name": "",
          "type": "address"
        }
      ],
      "stateMutability": "view",
      "type": "function"
    }
  ],
  "bytecode": {
    "object": "0x60806040523480156200001157600080fd5b5060405162004d7c38038062004d7c8339810160408190526200003491620000c8565b600780546001600160a01b0319166001600160a01b0392909216919091179055619d8060035561335460025569d3c21bcecceda10000006004556202a300600b55600060068190556a084595161401484a00000090556a21165458500521280000006001556119aa600e5561a8c0600f556a01a784379d99db420000006011556164006012556301e13380601355620000fa565b600060208284031215620000db57600080fd5b81516001600160a01b0381168114620000f357600080fd5b9392505050565b614c72806200010a6000396000f3fe6080604052600436106103605760003560e01c80638075faec116101c6578063da95691a116100f7578063e837159c11610095578063ece40cc11161006f578063ece40cc114610c61578063f2b0653714610c81578063fc4eee4214610cb1578063fe0d94c114610cc757600080fd5b8063e837159c14610c0b578063e986ffb214610c21578063ea0217cf14610c4157600080fd5b8063deaaa7cc116100d1578063deaaa7cc14610aba578063ded0a63814610aee578063e177246e14610b0e578063e23a9a5214610b2e57600080fd5b8063da95691a14610a64578063ddf0b00914610a84578063de7bc12714610aa457600080fd5b8063c7a65e0411610164578063d33219b41161013e578063d33219b414610a05578063d468a8a814610a18578063d50572ee14610a38578063da35c66414610a4e57600080fd5b8063c7a65e04146109a2578063c7f758a8146109c2578063c9fb9e87146109ef57600080fd5b8063afa259d5116101a0578063afa259d5146108f6578063b58131b014610948578063c1a287e21461095e578063c5a8425d1461097557600080fd5b80638075faec1461086a578063a3f4df7e1461088a578063a6d8784a146108e057600080fd5b80633bccf4fd116102a05780636521e63a1161023e5780636f283761116102185780636f283761146107f457806370b0f660146108145780637b3c71d3146108345780637cae57bb1461085457600080fd5b80636521e63a1461073757806366176743146107575780636a42b8f8146107df57600080fd5b806348ddc5fe1161027a57806348ddc5fe146106b757806356781388146106d75780635ed411e5146106f757806362775f191461071757600080fd5b80633bccf4fd1461064a5780633e4f49e61461066a57806340e58ee51461069757600080fd5b806320606b701161030d57806336e7048a116102e757806336e7048a1461059d57806338bd0dda146105b25780633932abb1146105df5780633af32abf146105f557600080fd5b806320606b701461052357806324bc1a6414610557578063328dd9821461056d57600080fd5b80630825f38f1161033e5780630825f38f146104cd57806317977c61146104e057806318b626291461050d57600080fd5b8063013cf08b1461036557806302a251a31461048757806302ec8f9e146104ab575b600080fd5b34801561037157600080fd5b50610405610380366004613dde565b60086020819052600091825260409091208054600182015460028301546007840154948401546009850154600a860154600b870154600c880154600d890154600e90990154979973ffffffffffffffffffffffffffffffffffffffff909716989597949593949293919260ff808316936101008404821693620100009004909116918d565b604080519d8e5273ffffffffffffffffffffffffffffffffffffffff909c1660208e01529a8c019990995260608b019790975260808a019590955260a089019390935260c088019190915260e08701521515610100860152151561012085015215156101408401526101608301526101808201526101a0015b60405180910390f35b34801561049357600080fd5b5061049d60035481565b60405190815260200161047e565b3480156104b757600080fd5b506104cb6104c6366004613dde565b610cda565b005b6104cb6104db366004613f2c565b610d59565b3480156104ec57600080fd5b5061049d6104fb366004613fb2565b60096020526000908152604090205481565b34801561051957600080fd5b5061049d600e5481565b34801561052f57600080fd5b5061049d7f8cad95687ba82c2ce50e74f7b754645e5117c3a5bec8151c0726d5857980a86681565b34801561056357600080fd5b5061049d60005481565b34801561057957600080fd5b5061058d610588366004613dde565b611021565b60405161047e9493929190614124565b3480156105a957600080fd5b5061049d600a81565b3480156105be57600080fd5b5061049d6105cd366004613fb2565b600c6020526000908152604090205481565b3480156105eb57600080fd5b5061049d60025481565b34801561060157600080fd5b5061063a610610366004613fb2565b73ffffffffffffffffffffffffffffffffffffffff166000908152600c6020526040902054421090565b604051901515815260200161047e565b34801561065657600080fd5b506104cb61066536600461418d565b6112bf565b34801561067657600080fd5b5061068a610685366004613dde565b611640565b60405161047e919061420a565b3480156106a357600080fd5b506104cb6106b2366004613dde565b6117c1565b3480156106c357600080fd5b506104cb6106d2366004613dde565b611d1e565b3480156106e357600080fd5b506104cb6106f236600461424b565b611d95565b34801561070357600080fd5b506104cb610712366004613fb2565b611e68565b34801561072357600080fd5b506104cb610732366004613dde565b611ee8565b34801561074357600080fd5b5061049d6107523660046143e8565b611f26565b34801561076357600080fd5b506107b26107723660046144ba565b601060209081526000928352604080842090915290825290205460ff808216916101008104909116906201000090046bffffffffffffffffffffffff1683565b60408051931515845260ff90921660208401526bffffffffffffffffffffffff169082015260600161047e565b3480156107eb57600080fd5b50600b5461049d565b34801561080057600080fd5b506104cb61080f366004613fb2565b611f41565b34801561082057600080fd5b506104cb61082f366004613dde565b611ff9565b34801561084057600080fd5b506104cb61084f3660046144dd565b612070565b34801561086057600080fd5b5061049d600b5481565b34801561087657600080fd5b506104cb610885366004613dde565b612131565b34801561089657600080fd5b506108d36040518060400160405280601981526020017f416d70686f72612050726f746f636f6c20476f7665726e6f720000000000000081525081565b60405161047e9190614564565b3480156108ec57600080fd5b5061049d60135481565b34801561090257600080fd5b506007546109239073ffffffffffffffffffffffffffffffffffffffff1681565b60405173ffffffffffffffffffffffffffffffffffffffff909116815260200161047e565b34801561095457600080fd5b5061049d60045481565b34801561096a57600080fd5b5061049d6212750081565b34801561098157600080fd5b50600d546109239073ffffffffffffffffffffffffffffffffffffffff1681565b3480156109ae57600080fd5b506104cb6109bd366004613dde565b6121a8565b3480156109ce57600080fd5b506109e26109dd366004613dde565b61221f565b60405161047e9190614577565b3480156109fb57600080fd5b5061049d60115481565b348015610a1157600080fd5b5030610923565b348015610a2457600080fd5b506104cb610a33366004613dde565b6125ff565b348015610a4457600080fd5b5061049d60015481565b348015610a5a57600080fd5b5061049d60065481565b348015610a7057600080fd5b5061049d610a7f3660046143e8565b612676565b348015610a9057600080fd5b506104cb610a9f366004613dde565b612687565b348015610ab057600080fd5b5061049d600f5481565b348015610ac657600080fd5b5061049d7f150214d74d59b7d1e90c73fc22ef3d991dd0a76b046543d4d80ab92d2a50328f81565b348015610afa57600080fd5b506104cb610b093660046146eb565b612a82565b348015610b1a57600080fd5b506104cb610b29366004613dde565b612b5f565b348015610b3a57600080fd5b50610bd6610b493660046144ba565b604080516060810182526000808252602082018190529181019190915250600091825260106020908152604080842073ffffffffffffffffffffffffffffffffffffffff939093168452918152918190208151606081018352905460ff8082161515835261010082041693820193909352620100009092046bffffffffffffffffffffffff169082015290565b6040805182511515815260208084015160ff1690820152918101516bffffffffffffffffffffffff169082015260600161047e565b348015610c1757600080fd5b5061049d60125481565b348015610c2d57600080fd5b506104cb610c3c366004613dde565b612bd6565b348015610c4d57600080fd5b506104cb610c5c366004613dde565b612c4d565b348015610c6d57600080fd5b506104cb610c7c366004613dde565b612cc4565b348015610c8d57600080fd5b5061063a610c9c366004613dde565b600a6020526000908152604090205460ff1681565b348015610cbd57600080fd5b5061049d60055481565b6104cb610cd5366004613dde565b612d3b565b333014610d13576040517f53e8825500000000000000000000000000000000000000000000000000000000815260040160405180910390fd5b600080549082905560408051828152602081018490527fa74554b0f53da47d07ec571d712428b3720460f54f81375fbcf78f6b5f72e7ed91015b60405180910390a15050565b333014610d92576040517f53e8825500000000000000000000000000000000000000000000000000000000815260040160405180910390fd5b60008585858585604051602001610dad959493929190614715565b604080517fffffffffffffffffffffffffffffffffffffffffffffffffffffffffffffffe081840301815291815281516020928301206000818152600a90935291205490915060ff16610e2c576040517f49642b3400000000000000000000000000000000000000000000000000000000815260040160405180910390fd5b81421015610e66576040517fe65ce52b00000000000000000000000000000000000000000000000000000000815260040160405180910390fd5b610e73621275008361479e565b421115610eac576040517f09caec0000000000000000000000000000000000000000000000000000000000815260040160405180910390fd5b6000818152600a6020526040812080547fffffffffffffffffffffffffffffffffffffffffffffffffffffffffffffff00169055845160609103610ef1575082610f1d565b848051906020012084604051602001610f0b9291906147b6565b60405160208183030381529060405290505b60008773ffffffffffffffffffffffffffffffffffffffff168783604051610f4591906147fe565b60006040518083038185875af1925050503d8060008114610f82576040519150601f19603f3d011682016040523d82523d6000602084013e610f87565b606091505b5050905080610fc2576040517f10a0b13b00000000000000000000000000000000000000000000000000000000815260040160405180910390fd5b8773ffffffffffffffffffffffffffffffffffffffff16837fa560e3198060a2f10670c1ec5b403077ea6ae93ca8de1c32b451dc1a943cd6e78989898960405161100f949392919061481a565b60405180910390a35050505050505050565b606080606080600060086000878152602001908152602001600020905080600301816004018260050183600601838054806020026020016040519081016040528092919081815260200182805480156110b057602002820191906000526020600020905b815473ffffffffffffffffffffffffffffffffffffffff168152600190910190602001808311611085575b505050505093508280548060200260200160405190810160405280929190818152602001828054801561110257602002820191906000526020600020905b8154815260200190600101908083116110ee575b5050505050925081805480602002602001604051908101604052809291908181526020016000905b828210156111d657838290600052602060002001805461114990614857565b80601f016020809104026020016040519081016040528092919081815260200182805461117590614857565b80156111c25780601f10611197576101008083540402835291602001916111c2565b820191906000526020600020905b8154815290600101906020018083116111a557829003601f168201915b50505050508152602001906001019061112a565b50505050915080805480602002602001604051908101604052809291908181526020016000905b828210156112a957838290600052602060002001805461121c90614857565b80601f016020809104026020016040519081016040528092919081815260200182805461124890614857565b80156112955780601f1061126a57610100808354040283529160200191611295565b820191906000526020600020905b81548152906001019060200180831161127857829003601f168201915b5050505050815260200190600101906111fd565b5050505090509450945094509450509193509193565b604080518082018252601981527f416d70686f72612050726f746f636f6c20476f7665726e6f720000000000000060209182015281517f8cad95687ba82c2ce50e74f7b754645e5117c3a5bec8151c0726d5857980a866818301527fb6b3a9b278ec25b4b0ade32330b7e796dfca12e114dbbee175fc6eac32f1085c81840152466060820152306080808301919091528351808303909101815260a0820184528051908301207f150214d74d59b7d1e90c73fc22ef3d991dd0a76b046543d4d80ab92d2a50328f60c083015260e0820189905260ff88166101008084019190915284518084039091018152610120830185528051908401207f1901000000000000000000000000000000000000000000000000000000000000610140840152610142830182905261016280840182905285518085039091018152610182909301909452815191909201209091907f7fffffffffffffffffffffffffffffff5d576e7357a4501ddfe92f46681b20a0841115611466576040517f1b9620ec00000000000000000000000000000000000000000000000000000000815260040160405180910390fd5b6040805160008082526020820180845284905260ff891692820192909252606081018790526080810186905260019060a0016020604051602081039080840390855afa1580156114ba573d6000803e3d6000fd5b50506040517fffffffffffffffffffffffffffffffffffffffffffffffffffffffffffffffe0015191505073ffffffffffffffffffffffffffffffffffffffff8116611532576040517f1b9620ec00000000000000000000000000000000000000000000000000000000815260040160405180910390fd5b600061153f828b8b612f73565b9050898273ffffffffffffffffffffffffffffffffffffffff167f42851f56670da28a78dfd72ba2b8727dd3eab3f496616ffeba09d0e005aa4ef88b846040516115b592919060ff9290921682526bffffffffffffffffffffffff16602082015260606040820181905260009082015260800190565b60405180910390a3604080518b815260ff8b1660208201526bffffffffffffffffffffffff831681830152608060608201819052600090820152905173ffffffffffffffffffffffffffffffffffffffff8416917fb8e138887d0aa13bab447e82de9d5c1777041ecd21ca36ba824ff1e6c07ddda4919081900360a00190a250505050505050505050565b600081600654108061165457506005548211155b1561168b576040517fa1b2308500000000000000000000000000000000000000000000000000000000815260040160405180910390fd5b6000828152600860209081526040808320600181015473ffffffffffffffffffffffffffffffffffffffff168452600c928390529220549082015442919091109060ff16156116de575060029392505050565b816007015443116116f3575060009392505050565b81600801544311611708575060019392505050565b80801561171c575081600d015482600a0154115b80611738575080158015611738575081600a0154826009015411155b80611753575080158015611753575081600d01548260090154105b15611762575060039392505050565b8160020154600003611778575060049392505050565b600c820154610100900460ff1615611794575060079392505050565b6212750082600201546117a7919061479e565b42106117b7575060069392505050565b5060059392505050565b60076117cc82611640565b60078111156117dd576117dd6141db565b03611814576040517fe4821a5500000000000000000000000000000000000000000000000000000000815260040160405180910390fd5b6000818152600860205260409020600181015473ffffffffffffffffffffffffffffffffffffffff163314611abc57600181015473ffffffffffffffffffffffffffffffffffffffff166000908152600c60205260409020544210156119ad5760045460075460018381015473ffffffffffffffffffffffffffffffffffffffff9283169263782d6fe1929116906118ac90436148aa565b6040517fffffffff0000000000000000000000000000000000000000000000000000000060e085901b16815273ffffffffffffffffffffffffffffffffffffffff90921660048301526024820152604401602060405180830381865afa15801561191a573d6000803e3d6000fd5b505050506040513d601f19601f8201168201806040525081019061193e91906148c1565b6bffffffffffffffffffffffff161015806119715750600d5473ffffffffffffffffffffffffffffffffffffffff163314155b156119a8576040517f32644c5c00000000000000000000000000000000000000000000000000000000815260040160405180910390fd5b611abc565b60045460075460018381015473ffffffffffffffffffffffffffffffffffffffff9283169263782d6fe1929116906119e590436148aa565b6040517fffffffff0000000000000000000000000000000000000000000000000000000060e085901b16815273ffffffffffffffffffffffffffffffffffffffff90921660048301526024820152604401602060405180830381865afa158015611a53573d6000803e3d6000fd5b505050506040513d601f19601f82011682018060405250810190611a7791906148c1565b6bffffffffffffffffffffffff1610611abc576040517f84406a9800000000000000000000000000000000000000000000000000000000815260040160405180910390fd5b600c810180547fffffffffffffffffffffffffffffffffffffffffffffffffffffffffffffff0016600117905560005b6003820154811015611cc257611cb0826003018281548110611b1057611b106148ef565b60009182526020909120015460048401805473ffffffffffffffffffffffffffffffffffffffff9092169184908110611b4b57611b4b6148ef565b9060005260206000200154846005018481548110611b6b57611b6b6148ef565b906000526020600020018054611b8090614857565b80601f0160208091040260200160405190810160405280929190818152602001828054611bac90614857565b8015611bf95780601f10611bce57610100808354040283529160200191611bf9565b820191906000526020600020905b815481529060010190602001808311611bdc57829003601f168201915b5050505050856006018581548110611c1357611c136148ef565b906000526020600020018054611c2890614857565b80601f0160208091040260200160405190810160405280929190818152602001828054611c5490614857565b8015611ca15780601f10611c7657610100808354040283529160200191611ca1565b820191906000526020600020905b815481529060010190602001808311611c8457829003601f168201915b5050505050866002015461324d565b80611cba8161491e565b915050611aec565b5060405182907f2b98d3cfda1c1889d11d9ca9cf9b344b64c8e40500c9a3a9299ccbb1a4acd9fc90600090a26040518281527f789cf55be980739dad1d0699b93b58e806b51c9d96619bfa8fe0a28abaa7b30c90602001610d4d565b333014611d57576040517f53e8825500000000000000000000000000000000000000000000000000000000815260040160405180910390fd5b600f80549082905560408051828152602081018490527f2a61b867418a359864adca8bb250ea65ee8bd41dbfd0279198d8e7552d4a27c29101610d4d565b6000611da2338484612f73565b6040805160ff851681526bffffffffffffffffffffffff8316602082015260608183018190526000908201529051919250849133917f42851f56670da28a78dfd72ba2b8727dd3eab3f496616ffeba09d0e005aa4ef8919081900360800190a36040805184815260ff841660208201526bffffffffffffffffffffffff831681830152608060608201819052600090820152905133917fb8e138887d0aa13bab447e82de9d5c1777041ecd21ca36ba824ff1e6c07ddda4919081900360a00190a2505050565b333014611ea1576040517f53e8825500000000000000000000000000000000000000000000000000000000815260040160405180910390fd5b600780547fffffffffffffffffffffffff00000000000000000000000000000000000000001673ffffffffffffffffffffffffffffffffffffffff92909216919091179055565b333014611f21576040517f53e8825500000000000000000000000000000000000000000000000000000000815260040160405180910390fd5b601355565b6000611f3786868686866001613330565b9695505050505050565b333014611f7a576040517f53e8825500000000000000000000000000000000000000000000000000000000815260040160405180910390fd5b600d805473ffffffffffffffffffffffffffffffffffffffff8381167fffffffffffffffffffffffff000000000000000000000000000000000000000083168117909355604080519190921680825260208201939093527f80a07e73e552148844a9c216d9724212d609cfa54e9c1a2e97203bdd2c4ad3419101610d4d565b333014612032576040517f53e8825500000000000000000000000000000000000000000000000000000000815260040160405180910390fd5b600280549082905560408051828152602081018490527fc565b045403dc03c2eea82b81a0465edad9e2e7fc4d97e11421c209da93d7a939101610d4d565b600061207d338686612f73565b9050843373ffffffffffffffffffffffffffffffffffffffff167f42851f56670da28a78dfd72ba2b8727dd3eab3f496616ffeba09d0e005aa4ef8868487876040516120cc949392919061499f565b60405180910390a33373ffffffffffffffffffffffffffffffffffffffff167fb8e138887d0aa13bab447e82de9d5c1777041ecd21ca36ba824ff1e6c07ddda486868487876040516121229594939291906149d0565b60405180910390a25050505050565b33301461216a576040517f53e8825500000000000000000000000000000000000000000000000000000000815260040160405180910390fd5b601280549082905560408051828152602081018490527f519a192fe8db9e38785eb494c69f530ddb21b9e34322f8d08fe29bd3849749889101610d4d565b3330146121e1576040517f53e8825500000000000000000000000000000000000000000000000000000000815260040160405180910390fd5b601180549082905560408051828152602081018490527f8cb5451eee8feb516cec9cd600201bbc31a30886d70c841a085a3fa69a4294d19101610d4d565b6122c260405180610220016040528060008152602001600073ffffffffffffffffffffffffffffffffffffffff1681526020016000815260200160608152602001606081526020016060815260200160608152602001600081526020016000815260200160008152602001600081526020016000815260200160001515815260200160001515815260200160001515815260200160008152602001600081525090565b60008281526008602090815260409182902082516102208101845281548152600182015473ffffffffffffffffffffffffffffffffffffffff1681840152600282015481850152600382018054855181860281018601909652808652919492936060860193929083018282801561236f57602002820191906000526020600020905b815473ffffffffffffffffffffffffffffffffffffffff168152600190910190602001808311612344575b50505050508152602001600482018054806020026020016040519081016040528092919081815260200182805480156123c757602002820191906000526020600020905b8154815260200190600101908083116123b3575b5050505050815260200160058201805480602002602001604051908101604052809291908181526020016000905b828210156124a157838290600052602060002001805461241490614857565b80601f016020809104026020016040519081016040528092919081815260200182805461244090614857565b801561248d5780601f106124625761010080835404028352916020019161248d565b820191906000526020600020905b81548152906001019060200180831161247057829003601f168201915b5050505050815260200190600101906123f5565b50505050815260200160068201805480602002602001604051908101604052809291908181526020016000905b8282101561257a5783829060005260206000200180546124ed90614857565b80601f016020809104026020016040519081016040528092919081815260200182805461251990614857565b80156125665780601f1061253b57610100808354040283529160200191612566565b820191906000526020600020905b81548152906001019060200180831161254957829003601f168201915b5050505050815260200190600101906124ce565b50505090825250600782015460208201526008820154604082015260098201546060820152600a8201546080820152600b82015460a0820152600c82015460ff808216151560c08401526101008083048216151560e08501526201000090920416151590820152600d820154610120820152600e909101546101409091015292915050565b333014612638576040517f53e8825500000000000000000000000000000000000000000000000000000000815260040160405180910390fd5b600e80549082905560408051828152602081018490527f80a384652af83fc00bfd40ef94edda7ede83e7db39931b2c889821573f314e239101610d4d565b6000611f3786868686866000613330565b600461269282611640565b60078111156126a3576126a36141db565b146126da576040517ff800c26c00000000000000000000000000000000000000000000000000000000815260040160405180910390fd5b6000818152600860205260408120600e8101549091906126fa904261479e565b905060005b6003830154811015612a0757600a6000846003018381548110612724576127246148ef565b60009182526020909120015460048601805473ffffffffffffffffffffffffffffffffffffffff909216918590811061275f5761275f6148ef565b906000526020600020015486600501858154811061277f5761277f6148ef565b9060005260206000200187600601868154811061279e5761279e6148ef565b90600052602060002001876040516020016127bd959493929190614ade565b604080517fffffffffffffffffffffffffffffffffffffffffffffffffffffffffffffffe08184030181529181528151602092830120835290820192909252016000205460ff161561283b576040517fca69c86400000000000000000000000000000000000000000000000000000000815260040160405180910390fd5b6129f4836003018281548110612853576128536148ef565b60009182526020909120015460048501805473ffffffffffffffffffffffffffffffffffffffff909216918490811061288e5761288e6148ef565b90600052602060002001548560050184815481106128ae576128ae6148ef565b9060005260206000200180546128c390614857565b80601f01602080910402602001604051908101604052809291908181526020018280546128ef90614857565b801561293c5780601f106129115761010080835404028352916020019161293c565b820191906000526020600020905b81548152906001019060200180831161291f57829003601f168201915b5050505050866006018581548110612956576129566148ef565b90600052602060002001805461296b90614857565b80601f016020809104026020016040519081016040528092919081815260200182805461299790614857565b80156129e45780601f106129b9576101008083540402835291602001916129e4565b820191906000526020600020905b8154815290600101906020018083116129c757829003601f168201915b50505050508688600e0154613a3d565b50806129ff8161491e565b9150506126ff565b506002820181905560405181815283907f62df27acd953bf35acb5117c7966210ef45c0ca39b89e265cb287176ad5511d79060200160405180910390a260408051848152602081018390527f9a2e42fd6722813d69113e7d0079d3d940171428df7373df9c7f7617cfda2892910160405180910390a1505050565b333014612abb576040517f53e8825500000000000000000000000000000000000000000000000000000000815260040160405180910390fd5b42601354612ac9919061479e565b8110612b01576040517fc22d4b1600000000000000000000000000000000000000000000000000000000815260040160405180910390fd5b73ffffffffffffffffffffffffffffffffffffffff82166000818152600c6020908152604091829020849055815192835282018390527f4e7b7545bc5744d0e30425959f4687475774b6c7edad77d24cb51c7d967d45159101610d4d565b333014612b98576040517f53e8825500000000000000000000000000000000000000000000000000000000815260040160405180910390fd5b600b80549082905560408051828152602081018490527fed0229422af39d4d7d33f7a27d31d6f5cb20ec628293da58dd6e8a528ed466be9101610d4d565b333014612c0f576040517f53e8825500000000000000000000000000000000000000000000000000000000815260040160405180910390fd5b600180549082905560408051828152602081018490527fc2adf06da6765dba7faaccde4c0ce3f91c35dd3390e7f0b6bc2844202c9fa9529101610d4d565b333014612c86576040517f53e8825500000000000000000000000000000000000000000000000000000000815260040160405180910390fd5b600380549082905560408051828152602081018490527f7e3f7f0708a84de9203036abaa450dccc85ad5ff52f78c170f3edb55cf5e88289101610d4d565b333014612cfd576040517f53e8825500000000000000000000000000000000000000000000000000000000815260040160405180910390fd5b600480549082905560408051828152602081018490527fccb45da8d5717e6c4544694297c4ba5cf151d455c9bb0ed4fc7a38411bc054619101610d4d565b6005612d4682611640565b6007811115612d5757612d576141db565b14612d8e576040517f49642b3400000000000000000000000000000000000000000000000000000000815260040160405180910390fd5b6000818152600860205260408120600c810180547fffffffffffffffffffffffffffffffffffffffffffffffffffffffffffff00ff16610100179055905b6003820154811015612f17573073ffffffffffffffffffffffffffffffffffffffff16630825f38f836004018381548110612e0957612e096148ef565b9060005260206000200154846003018481548110612e2957612e296148ef565b60009182526020909120015460048601805473ffffffffffffffffffffffffffffffffffffffff9092169186908110612e6457612e646148ef565b9060005260206000200154866005018681548110612e8457612e846148ef565b90600052602060002001876006018781548110612ea357612ea36148ef565b9060005260206000200188600201546040518763ffffffff1660e01b8152600401612ed2959493929190614ade565b6000604051808303818588803b158015612eeb57600080fd5b505af1158015612eff573d6000803e3d6000fd5b50505050508080612f0f9061491e565b915050612dcc565b5060405182907fddc572f800a560ff9ddc999485046dbc4c9f200d5185fc44807186db4c44175790600090a26040518281527f712ae1383f79ac853f8d882153778e0260ef8f03b504e2866e0593e04d2b291f90602001610d4d565b60006001612f8084611640565b6007811115612f9157612f916141db565b14612fc8576040517f9651964500000000000000000000000000000000000000000000000000000000815260040160405180910390fd5b60028260ff161115613006576040517ff8fa0b9000000000000000000000000000000000000000000000000000000000815260040160405180910390fd5b60008381526008602090815260408083206010835281842073ffffffffffffffffffffffffffffffffffffffff89168552909252909120805460ff1615613079576040517ff5d212a700000000000000000000000000000000000000000000000000000000815260040160405180910390fd5b60078054908301546040517f782d6fe100000000000000000000000000000000000000000000000000000000815260009273ffffffffffffffffffffffffffffffffffffffff169163782d6fe1916130f6918b9160040173ffffffffffffffffffffffffffffffffffffffff929092168252602082015260400190565b602060405180830381865afa158015613113573d6000803e3d6000fd5b505050506040513d601f19601f8201168201806040525081019061313791906148c1565b90508460ff1660000361316c57806bffffffffffffffffffffffff1683600a0154613162919061479e565b600a8401556131ce565b8460ff1660010361319f57806bffffffffffffffffffffffff168360090154613195919061479e565b60098401556131ce565b8460ff166002036131ce57806bffffffffffffffffffffffff1683600b01546131c8919061479e565b600b8401555b81546bffffffffffffffffffffffff821662010000027fffffffffffffffffffffffffffffffffffff000000000000000000000000ffff60ff97909716610100027fffffffffffffffffffffffffffffffffffffffffffffffffffffffffffff0000909216919091176001179590951694909417905550909392505050565b60008585858585604051602001613268959493929190614715565b604080517fffffffffffffffffffffffffffffffffffffffffffffffffffffffffffffffe081840301815282825280516020918201206000818152600a90925291902080547fffffffffffffffffffffffffffffffffffffffffffffffffffffffffffffff00169055915073ffffffffffffffffffffffffffffffffffffffff87169082907f2fffc091a501fd91bfbff27141450d3acb40fb8e6d8382b243ec7a812a3aaf879061332090899089908990899061481a565b60405180910390a3505050505050565b6000805460000361336d576040517ff5619f8d00000000000000000000000000000000000000000000000000000000815260040160405180910390fd5b60045460075473ffffffffffffffffffffffffffffffffffffffff1663782d6fe13361339a6001436148aa565b6040517fffffffff0000000000000000000000000000000000000000000000000000000060e085901b16815273ffffffffffffffffffffffffffffffffffffffff90921660048301526024820152604401602060405180830381865afa158015613408573d6000803e3d6000fd5b505050506040513d601f19601f8201168201806040525081019061342c91906148c1565b6bffffffffffffffffffffffff161080156134565750336000908152600c60205260409020544210155b1561348d576040517fa18539d000000000000000000000000000000000000000000000000000000000815260040160405180910390fd5b855187511415806134a057508451875114155b806134ad57508351875114155b156134e4576040517f167065a100000000000000000000000000000000000000000000000000000000815260040160405180910390fd5b865160000361351f576040517f48eb161b00000000000000000000000000000000000000000000000000000000815260040160405180910390fd5b600a8751111561355b576040517f44f537da00000000000000000000000000000000000000000000000000000000815260040160405180910390fd5b33600090815260096020526040902054801561361657600061357c82611640565b90506001816007811115613592576135926141db565b036135c9576040517f0fa2028600000000000000000000000000000000000000000000000000000000815260040160405180910390fd5b60008160078111156135dd576135dd6141db565b03613614576040517f34fa482e00000000000000000000000000000000000000000000000000000000815260040160405180910390fd5b505b600680549060006136268361491e565b9190505550600060405180610220016040528060065481526020013373ffffffffffffffffffffffffffffffffffffffff168152602001600081526020018a81526020018981526020018881526020018781526020016002544361368a919061479e565b8152602001600354600254436136a0919061479e565b6136aa919061479e565b815260200160008152602001600081526020016000815260200160001515815260200160001515815260200185151581526020016000548152602001600b54815250905083801561370a5750336000908152600c60205260409020544210155b1561373c574360e08201819052600e546137239161479e565b6101008201526001546101e0820152600f546102008201525b336000908152600c602052604090205442101561378f576011546101e0820152601254613769904361479e565b60e082015260035460125461377e904361479e565b613788919061479e565b6101008201525b805160009081526008602090815260409182902083518155818401516001820180547fffffffffffffffffffffffff00000000000000000000000000000000000000001673ffffffffffffffffffffffffffffffffffffffff90921691909117905591830151600283015560608301518051849392613815926003850192910190613b68565b5060808201518051613831916004840191602090910190613bf2565b5060a0820151805161384d916005840191602090910190613c2d565b5060c08201518051613869916006840191602090910190613c86565b5060e0828101516007830155610100808401516008840155610120840151600980850191909155610140850151600a850155610160850151600b850155610180850151600c850180546101a08801516101c08901517fffffffffffffffffffffffffffffffffffffffffffffffffffffffffffff00009092169315157fffffffffffffffffffffffffffffffffffffffffffffffffffffffffffff00ff16939093179215158502929092177fffffffffffffffffffffffffffffffffffffffffffffffffffffffffff00ffff1662010000921515929092029190911790556101e0850151600d85015561020090940151600e90930192909255835160208086015173ffffffffffffffffffffffffffffffffffffffff16600090815294905260409384902055830151835191840151925190923392917f7f93b63ab984f18271e3350749b47f497a3a74f07ff3295a9fd6355d0c9d47b6916139d4918f918f918f918f918f90614b25565b60405180910390a47f7d84a6263ae0d98d3329bd7b46bb4e8d6f98cd35a7adb45c274c8b7fd5ebd5e08160000151338b8b8b8b8760e001518861010001518d604051613a2899989796959493929190614b99565b60405180910390a15198975050505050505050565b6000613a49824261479e565b831015613a82576040517f550bc90500000000000000000000000000000000000000000000000000000000815260040160405180910390fd5b8686868686604051602001613a9b959493929190614715565b604080517fffffffffffffffffffffffffffffffffffffffffffffffffffffffffffffffe081840301815282825280516020918201206000818152600a90925291902080547fffffffffffffffffffffffffffffffffffffffffffffffffffffffffffffff00166001179055915073ffffffffffffffffffffffffffffffffffffffff88169082907f76e2796dc3a81d57b0e8504b647febcbeeb5f4af818e164f11eef8131a6a763f90613b56908a908a908a908a9061481a565b60405180910390a39695505050505050565b828054828255906000526020600020908101928215613be2579160200282015b82811115613be257825182547fffffffffffffffffffffffff00000000000000000000000000000000000000001673ffffffffffffffffffffffffffffffffffffffff909116178255602090920191600190910190613b88565b50613bee929150613cdf565b5090565b828054828255906000526020600020908101928215613be2579160200282015b82811115613be2578251825591602001919060010190613c12565b828054828255906000526020600020908101928215613c7a579160200282015b82811115613c7a5782518051613c6a918491602090910190613cf4565b5091602001919060010190613c4d565b50613bee929150613d67565b828054828255906000526020600020908101928215613cd3579160200282015b82811115613cd35782518051613cc3918491602090910190613cf4565b5091602001919060010190613ca6565b50613bee929150613d84565b5b80821115613bee5760008155600101613ce0565b828054613d0090614857565b90600052602060002090601f016020900481019282613d225760008555613be2565b82601f10613d3b57805160ff1916838001178555613be2565b82800160010185558215613be25791820182811115613be2578251825591602001919060010190613c12565b80821115613bee576000613d7b8282613da1565b50600101613d67565b80821115613bee576000613d988282613da1565b50600101613d84565b508054613dad90614857565b6000825580601f10613dbd575050565b601f016020900490600052602060002090810190613ddb9190613cdf565b50565b600060208284031215613df057600080fd5b5035919050565b803573ffffffffffffffffffffffffffffffffffffffff81168114613e1b57600080fd5b919050565b7f4e487b7100000000000000000000000000000000000000000000000000000000600052604160045260246000fd5b604051601f82017fffffffffffffffffffffffffffffffffffffffffffffffffffffffffffffffe016810167ffffffffffffffff81118282101715613e9657613e96613e20565b604052919050565b600082601f830112613eaf57600080fd5b813567ffffffffffffffff811115613ec957613ec9613e20565b613efa60207fffffffffffffffffffffffffffffffffffffffffffffffffffffffffffffffe0601f84011601613e4f565b818152846020838601011115613f0f57600080fd5b816020850160208301376000918101602001919091529392505050565b600080600080600060a08688031215613f4457600080fd5b613f4d86613df7565b945060208601359350604086013567ffffffffffffffff80821115613f7157600080fd5b613f7d89838a01613e9e565b94506060880135915080821115613f9357600080fd5b50613fa088828901613e9e565b95989497509295608001359392505050565b600060208284031215613fc457600080fd5b613fcd82613df7565b9392505050565b600081518084526020808501945080840160005b8381101561401a57815173ffffffffffffffffffffffffffffffffffffffff1687529582019590820190600101613fe8565b509495945050505050565b600081518084526020808501945080840160005b8381101561401a57815187529582019590820190600101614039565b60005b83811015614070578181015183820152602001614058565b8381111561407f576000848401525b50505050565b6000815180845261409d816020860160208601614055565b601f017fffffffffffffffffffffffffffffffffffffffffffffffffffffffffffffffe0169290920160200192915050565b600081518084526020808501808196508360051b8101915082860160005b85811015614117578284038952614105848351614085565b988501989350908401906001016140ed565b5091979650505050505050565b6080815260006141376080830187613fd4565b82810360208401526141498187614025565b9050828103604084015261415d81866140cf565b9050828103606084015261417181856140cf565b979650505050505050565b803560ff81168114613e1b57600080fd5b600080600080600060a086880312156141a557600080fd5b853594506141b56020870161417c565b93506141c36040870161417c565b94979396509394606081013594506080013592915050565b7f4e487b7100000000000000000000000000000000000000000000000000000000600052602160045260246000fd5b6020810160088310614245577f4e487b7100000000000000000000000000000000000000000000000000000000600052602160045260246000fd5b91905290565b6000806040838503121561425e57600080fd5b8235915061426e6020840161417c565b90509250929050565b600067ffffffffffffffff82111561429157614291613e20565b5060051b60200190565b600082601f8301126142ac57600080fd5b813560206142c16142bc83614277565b613e4f565b82815260059290921b840181019181810190868411156142e057600080fd5b8286015b84811015614302576142f581613df7565b83529183019183016142e4565b509695505050505050565b600082601f83011261431e57600080fd5b8135602061432e6142bc83614277565b82815260059290921b8401810191818101908684111561434d57600080fd5b8286015b848110156143025780358352918301918301614351565b600082601f83011261437957600080fd5b813560206143896142bc83614277565b82815260059290921b840181019181810190868411156143a857600080fd5b8286015b8481101561430257803567ffffffffffffffff8111156143cc5760008081fd5b6143da8986838b0101613e9e565b8452509183019183016143ac565b600080600080600060a0868803121561440057600080fd5b853567ffffffffffffffff8082111561441857600080fd5b61442489838a0161429b565b9650602088013591508082111561443a57600080fd5b61444689838a0161430d565b9550604088013591508082111561445c57600080fd5b61446889838a01614368565b9450606088013591508082111561447e57600080fd5b61448a89838a01614368565b935060808801359150808211156144a057600080fd5b506144ad88828901613e9e565b9150509295509295909350565b600080604083850312156144cd57600080fd5b8235915061426e60208401613df7565b600080600080606085870312156144f357600080fd5b843593506145036020860161417c565b9250604085013567ffffffffffffffff8082111561452057600080fd5b818701915087601f83011261453457600080fd5b81358181111561454357600080fd5b88602082850101111561455557600080fd5b95989497505060200194505050565b602081526000613fcd6020830184614085565b6020815281516020820152600060208301516145ab604084018273ffffffffffffffffffffffffffffffffffffffff169052565b506040830151606083015260608301516102208060808501526145d2610240850183613fd4565b915060808501517fffffffffffffffffffffffffffffffffffffffffffffffffffffffffffffffe0808685030160a087015261460e8483614025565b935060a08701519150808685030160c087015261462b84836140cf565b935060c08701519150808685030160e08701525061464983826140cf565b60e0870151610100878101919091528701516101208088019190915287015161014080880191909152870151610160808801919091528701516101808088019190915287015190935090506101a06146a48187018315159052565b86015190506101c06146b98682018315159052565b86015190506101e06146ce8682018315159052565b860151610200868101919091529095015193019290925250919050565b600080604083850312156146fe57600080fd5b61470783613df7565b946020939093013593505050565b73ffffffffffffffffffffffffffffffffffffffff8616815284602082015260a06040820152600061474a60a0830186614085565b828103606084015261475c8186614085565b9150508260808301529695505050505050565b7f4e487b7100000000000000000000000000000000000000000000000000000000600052601160045260246000fd5b600082198211156147b1576147b161476f565b500190565b7fffffffff0000000000000000000000000000000000000000000000000000000083168152600082516147f0816004850160208701614055565b919091016004019392505050565b60008251614810818460208701614055565b9190910192915050565b8481526080602082015260006148336080830186614085565b82810360408401526148458186614085565b91505082606083015295945050505050565b600181811c9082168061486b57607f821691505b6020821081036148a4577f4e487b7100000000000000000000000000000000000000000000000000000000600052602260045260246000fd5b50919050565b6000828210156148bc576148bc61476f565b500390565b6000602082840312156148d357600080fd5b81516bffffffffffffffffffffffff81168114613fcd57600080fd5b7f4e487b7100000000000000000000000000000000000000000000000000000000600052603260045260246000fd5b60007fffffffffffffffffffffffffffffffffffffffffffffffffffffffffffffffff820361494f5761494f61476f565b5060010190565b8183528181602085013750600060208284010152600060207fffffffffffffffffffffffffffffffffffffffffffffffffffffffffffffffe0601f840116840101905092915050565b60ff851681526bffffffffffffffffffffffff84166020820152606060408201526000611f37606083018486614956565b85815260ff851660208201526bffffffffffffffffffffffff84166040820152608060608201526000614171608083018486614956565b8054600090600181811c9080831680614a2157607f831692505b60208084108203614a5b577f4e487b7100000000000000000000000000000000000000000000000000000000600052602260045260246000fd5b838852818015614a725760018114614aa457614ad2565b7fffffffffffffffffffffffffffffffffffffffffffffffffffffffffffffff008616828a0152604089019650614ad2565b876000528160002060005b86811015614aca5781548b8201850152908501908301614aaf565b8a0183019750505b50505050505092915050565b73ffffffffffffffffffffffffffffffffffffffff8616815284602082015260a060408201526000614b1360a0830186614a07565b828103606084015261475c8186614a07565b60c081526000614b3860c0830189613fd4565b8281036020840152614b4a8189614025565b90508281036040840152614b5e81886140cf565b90508281036060840152614b7281876140cf565b905084608084015282810360a0840152614b8c8185614085565b9998505050505050505050565b60006101208b835273ffffffffffffffffffffffffffffffffffffffff8b166020840152806040840152614bcf8184018b613fd4565b90508281036060840152614be3818a614025565b90508281036080840152614bf781896140cf565b905082810360a0840152614c0b81886140cf565b90508560c08401528460e0840152828103610100840152614c2c8185614085565b9c9b50505050505050505050505056fea2646970667358221220207f5eba1f854983f4f857445e01035dc55b590510ee6f074e395ff2d2154b7f64736f6c634300080e0033",
    "linkReferences": {}
  },
  "methodIdentifiers": {
    "BALLOT_TYPEHASH()": "deaaa7cc",
    "DOMAIN_TYPEHASH()": "20606b70",
    "GRACE_PERIOD()": "c1a287e2",
    "NAME()": "a3f4df7e",
    "PROPOSAL_MAX_OPERATIONS()": "36e7048a",
    "amph()": "afa259d5",
    "cancel(uint256)": "40e58ee5",
    "castVote(uint256,uint8)": "56781388",
    "castVoteBySig(uint256,uint8,uint8,bytes32,bytes32)": "3bccf4fd",
    "castVoteWithReason(uint256,uint8,string)": "7b3c71d3",
    "delay()": "6a42b8f8",
    "emergencyQuorumVotes()": "d50572ee",
    "emergencyTimelockDelay()": "de7bc127",
    "emergencyVotingPeriod()": "18b62629",
    "execute(uint256)": "fe0d94c1",
    "executeTransaction(address,uint256,string,bytes,uint256)": "0825f38f",
    "getActions(uint256)": "328dd982",
    "getProposal(uint256)": "c7f758a8",
    "getReceipt(uint256,address)": "e23a9a52",
    "initialProposalId()": "fc4eee42",
    "isWhitelisted(address)": "3af32abf",
    "latestProposalIds(address)": "17977c61",
    "maxWhitelistPeriod()": "a6d8784a",
    "optimisticQuorumVotes()": "c9fb9e87",
    "optimisticVotingDelay()": "e837159c",
    "proposalCount()": "da35c664",
    "proposalReceipts(uint256,address)": "66176743",
    "proposalThreshold()": "b58131b0",
    "proposalTimelockDelay()": "7cae57bb",
    "proposals(uint256)": "013cf08b",
    "propose(address[],uint256[],string[],bytes[],string)": "da95691a",
    "proposeEmergency(address[],uint256[],string[],bytes[],string)": "6521e63a",
    "queue(uint256)": "ddf0b009",
    "queuedTransactions(bytes32)": "f2b06537",
    "quorumVotes()": "24bc1a64",
    "setDelay(uint256)": "e177246e",
    "setEmergencyDelay(uint256)": "48ddc5fe",
    "setEmergencyQuorumVotes(uint256)": "e986ffb2",
    "setEmergencyVotingPeriod(uint256)": "d468a8a8",
    "setMaxWhitelistPeriod(uint256)": "62775f19",
    "setNewToken(address)": "5ed411e5",
    "setOptimisticDelay(uint256)": "8075faec",
    "setOptimisticQuorumVotes(uint256)": "c7a65e04",
    "setProposalThreshold(uint256)": "ece40cc1",
    "setQuorumVotes(uint256)": "02ec8f9e",
    "setVotingDelay(uint256)": "70b0f660",
    "setVotingPeriod(uint256)": "ea0217cf",
    "setWhitelistAccountExpiration(address,uint256)": "ded0a638",
    "setWhitelistGuardian(address)": "6f283761",
    "state(uint256)": "3e4f49e6",
    "timelock()": "d33219b4",
    "votingDelay()": "3932abb1",
    "votingPeriod()": "02a251a3",
    "whitelistAccountExpirations(address)": "38bd0dda",
    "whitelistGuardian()": "c5a8425d"
  },
  "id": 68
}