{
  "abi": [
    {
      "inputs": [
        {
          "internalType": "address",
          "name": "_vaultController",
          "type": "address"
        },
        {
          "internalType": "contract IERC20",
          "name": "_amph",
          "type": "address"
        },
        {
          "internalType": "contract IERC20",
          "name": "_cvx",
          "type": "address"
        },
        {
          "internalType": "contract IERC20",
          "name": "_crv",
          "type": "address"
        },
        {
          "internalType": "uint256",
          "name": "_cvxRewardFee",
          "type": "uint256"
        },
        {
          "internalType": "uint256",
          "name": "_crvRewardFee",
          "type": "uint256"
        }
      ],
      "stateMutability": "nonpayable",
      "type": "constructor"
    },
    {
      "anonymous": false,
      "inputs": [
        {
          "indexed": false,
          "internalType": "uint256",
          "name": "_newCrvReward",
          "type": "uint256"
        }
      ],
      "name": "ChangedCrvRewardFee",
      "type": "event"
    },
    {
      "anonymous": false,
      "inputs": [
        {
          "indexed": false,
          "internalType": "uint256",
          "name": "_newCvxReward",
          "type": "uint256"
        }
      ],
      "name": "ChangedCvxRewardFee",
      "type": "event"
    },
    {
      "anonymous": false,
      "inputs": [
        {
          "indexed": true,
          "internalType": "address",
          "name": "_newVaultController",
          "type": "address"
        }
      ],
      "name": "ChangedVaultController",
      "type": "event"
    },
    {
      "anonymous": false,
      "inputs": [
        {
          "indexed": true,
          "internalType": "address",
          "name": "_vaultClaimer",
          "type": "address"
        },
        {
          "indexed": false,
          "internalType": "uint256",
          "name": "_cvxTotalRewards",
          "type": "uint256"
        },
        {
          "indexed": false,
          "internalType": "uint256",
          "name": "_crvTotalRewards",
          "type": "uint256"
        },
        {
          "indexed": false,
          "internalType": "uint256",
          "name": "_amphAmount",
          "type": "uint256"
        }
      ],
      "name": "ClaimedAmph",
      "type": "event"
    },
    {
      "anonymous": false,
      "inputs": [
        {
          "indexed": true,
          "internalType": "address",
          "name": "previousOwner",
          "type": "address"
        },
        {
          "indexed": true,
          "internalType": "address",
          "name": "newOwner",
          "type": "address"
        }
      ],
      "name": "OwnershipTransferred",
      "type": "event"
    },
    {
      "anonymous": false,
      "inputs": [
        {
          "indexed": true,
          "internalType": "address",
          "name": "_token",
          "type": "address"
        },
        {
          "indexed": false,
          "internalType": "address",
          "name": "_receiver",
          "type": "address"
        },
        {
          "indexed": false,
          "internalType": "uint256",
          "name": "_amount",
          "type": "uint256"
        }
      ],
      "name": "RecoveredDust",
      "type": "event"
    },
    {
      "inputs": [],
      "name": "AMPH",
      "outputs": [
        {
          "internalType": "contract IERC20",
          "name": "",
          "type": "address"
        }
      ],
      "stateMutability": "view",
      "type": "function"
    },
    {
      "inputs": [],
      "name": "BASE_SUPPLY_PER_CLIFF",
      "outputs": [
        {
          "internalType": "uint256",
          "name": "",
          "type": "uint256"
        }
      ],
      "stateMutability": "view",
      "type": "function"
    },
    {
      "inputs": [],
      "name": "CRV",
      "outputs": [
        {
          "internalType": "contract IERC20",
          "name": "",
          "type": "address"
        }
      ],
      "stateMutability": "view",
      "type": "function"
    },
    {
      "inputs": [],
      "name": "CVX",
      "outputs": [
        {
          "internalType": "contract IERC20",
          "name": "",
          "type": "address"
        }
      ],
      "stateMutability": "view",
      "type": "function"
    },
    {
      "inputs": [],
      "name": "TOTAL_CLIFFS",
      "outputs": [
        {
          "internalType": "uint256",
          "name": "",
          "type": "uint256"
        }
      ],
      "stateMutability": "view",
      "type": "function"
    },
    {
      "inputs": [
        {
          "internalType": "uint256",
          "name": "_newFee",
          "type": "uint256"
        }
      ],
      "name": "changeCrvRewardFee",
      "outputs": [],
      "stateMutability": "nonpayable",
      "type": "function"
    },
    {
      "inputs": [
        {
          "internalType": "uint256",
          "name": "_newFee",
          "type": "uint256"
        }
      ],
      "name": "changeCvxRewardFee",
      "outputs": [],
      "stateMutability": "nonpayable",
      "type": "function"
    },
    {
      "inputs": [
        {
          "internalType": "address",
          "name": "_newVaultController",
          "type": "address"
        }
      ],
      "name": "changeVaultController",
      "outputs": [],
      "stateMutability": "nonpayable",
      "type": "function"
    },
    {
      "inputs": [
        {
          "internalType": "uint96",
          "name": "_vaultId",
          "type": "uint96"
        },
        {
          "internalType": "uint256",
          "name": "_cvxTotalRewards",
          "type": "uint256"
        },
        {
          "internalType": "uint256",
          "name": "_crvTotalRewards",
          "type": "uint256"
        },
        {
          "internalType": "address",
          "name": "_beneficiary",
          "type": "address"
        }
      ],
      "name": "claimAmph",
      "outputs": [
        {
          "internalType": "uint256",
          "name": "_cvxAmountToSend",
          "type": "uint256"
        },
        {
          "internalType": "uint256",
          "name": "_crvAmountToSend",
          "type": "uint256"
        },
        {
          "internalType": "uint256",
          "name": "_claimedAmph",
          "type": "uint256"
        }
      ],
      "stateMutability": "nonpayable",
      "type": "function"
    },
    {
      "inputs": [
        {
          "internalType": "address",
          "name": "_sender",
          "type": "address"
        },
        {
          "internalType": "uint96",
          "name": "_vaultId",
          "type": "uint96"
        },
        {
          "internalType": "uint256",
          "name": "_cvxTotalRewards",
          "type": "uint256"
        },
        {
          "internalType": "uint256",
          "name": "_crvTotalRewards",
          "type": "uint256"
        }
      ],
      "name": "claimable",
      "outputs": [
        {
          "internalType": "uint256",
          "name": "_cvxAmountToSend",
          "type": "uint256"
        },
        {
          "internalType": "uint256",
          "name": "_crvAmountToSend",
          "type": "uint256"
        },
        {
          "internalType": "uint256",
          "name": "_claimableAmph",
          "type": "uint256"
        }
      ],
      "stateMutability": "view",
      "type": "function"
    },
    {
      "inputs": [],
      "name": "crvRewardFee",
      "outputs": [
        {
          "internalType": "uint256",
          "name": "",
          "type": "uint256"
        }
      ],
      "stateMutability": "view",
      "type": "function"
    },
    {
      "inputs": [],
      "name": "cvxRewardFee",
      "outputs": [
        {
          "internalType": "uint256",
          "name": "",
          "type": "uint256"
        }
      ],
      "stateMutability": "view",
      "type": "function"
    },
    {
      "inputs": [],
      "name": "distributedAmph",
      "outputs": [
        {
          "internalType": "uint256",
          "name": "",
          "type": "uint256"
        }
      ],
      "stateMutability": "view",
      "type": "function"
    },
    {
      "inputs": [],
      "name": "owner",
      "outputs": [
        {
          "internalType": "address",
          "name": "",
          "type": "address"
        }
      ],
      "stateMutability": "view",
      "type": "function"
    },
    {
      "inputs": [
        {
          "internalType": "address",
          "name": "_token",
          "type": "address"
        },
        {
          "internalType": "uint256",
          "name": "_amount",
          "type": "uint256"
        }
      ],
      "name": "recoverDust",
      "outputs": [],
      "stateMutability": "nonpayable",
      "type": "function"
    },
    {
      "inputs": [],
      "name": "renounceOwnership",
      "outputs": [],
      "stateMutability": "nonpayable",
      "type": "function"
    },
    {
      "inputs": [
        {
          "internalType": "address",
          "name": "newOwner",
          "type": "address"
        }
      ],
      "name": "transferOwnership",
      "outputs": [],
      "stateMutability": "nonpayable",
      "type": "function"
    },
    {
      "inputs": [],
      "name": "vaultController",
      "outputs": [
        {
          "internalType": "contract IVaultController",
          "name": "",
          "type": "address"
        }
      ],
      "stateMutability": "view",
      "type": "function"
    }
  ],
  "bytecode": {
    "object": "0x60e06040523480156200001157600080fd5b506040516200168c3803806200168c8339810160408190526200003491620000e3565b6200003f336200007a565b600480546001600160a01b0319166001600160a01b0397881617905592851660805290841660a0529190921660c0526002556003556200015f565b600080546001600160a01b038381166001600160a01b0319831681178455604051919092169283917f8be0079c531659141344cd1fd0a4f28419497f9722a3daafe3b4186f6b6457e09190a35050565b6001600160a01b0381168114620000e057600080fd5b50565b60008060008060008060c08789031215620000fd57600080fd5b86516200010a81620000ca565b60208801519096506200011d81620000ca565b60408801519095506200013081620000ca565b60608801519094506200014381620000ca565b809350506080870151915060a087015190509295509295509295565b60805160a05160c0516114e1620001ab60003960008181610171015281816106c0015261098c015260008181610287015261067e01526000818161021c015261061c01526114e16000f3fe608060405234801561001057600080fd5b50600436106101365760003560e01c80637aadb0f1116100b2578063a351cae711610081578063ceaf55be11610066578063ceaf55be146102d2578063e4424ee8146102e5578063f2fde38b146102ee57600080fd5b8063a351cae7146102bc578063b08c7946146102c557600080fd5b80637aadb0f1146102515780638da5cb5b14610264578063945c9142146102825780639c90c9ef146102a957600080fd5b80635fc1f30811610109578063715018a6116100ee578063715018a61461020f578063759cb53b1461021757806378b140fc1461023e57600080fd5b80635fc1f308146101d857806370e0a7e4146101e157600080fd5b8063237d7c521461013b5780632ab7ff2f146101575780635cbac31b1461016c5780635f36b048146101b8575b600080fd5b61014460015481565b6040519081526020015b60405180910390f35b61016a6101653660046111ac565b610301565b005b6101937f000000000000000000000000000000000000000000000000000000000000000081565b60405173ffffffffffffffffffffffffffffffffffffffff909116815260200161014e565b6004546101939073ffffffffffffffffffffffffffffffffffffffff1681565b6101446103e881565b6101f46101ef366004611208565b610345565b6040805193845260208401929092529082015260600161014e565b61016a610366565b6101937f000000000000000000000000000000000000000000000000000000000000000081565b61016a61024c36600461124c565b61037a565b61016a61025f366004611278565b6104dd565b60005473ffffffffffffffffffffffffffffffffffffffff16610193565b6101937f000000000000000000000000000000000000000000000000000000000000000081565b61016a6102b73660046111ac565b610554565b61014460025481565b610144650746a528800081565b6101f46102e036600461129c565b610591565b61014460035481565b61016a6102fc366004611278565b610734565b6103096107f0565b60038190556040518181527f073b74fcc534f65ba737f94c0f973a618c6325e4fa19d74239ff8326799f02a3906020015b60405180910390a150565b600080600061035687878787610871565b9199909850909650945050505050565b61036e6107f0565b6103786000610af2565b565b6103826107f0565b8173ffffffffffffffffffffffffffffffffffffffff1663a9059cbb6103bd60005473ffffffffffffffffffffffffffffffffffffffff1690565b6040517fffffffff0000000000000000000000000000000000000000000000000000000060e084901b16815273ffffffffffffffffffffffffffffffffffffffff9091166004820152602481018490526044016020604051808303816000875af115801561042f573d6000803e3d6000fd5b505050506040513d601f19601f8201168201806040525081019061045391906112e4565b508173ffffffffffffffffffffffffffffffffffffffff167fbba61e0f348639431379e23492f9d8c5ddb2131f83acc50b4e4fb1484d756d696104ab60005473ffffffffffffffffffffffffffffffffffffffff1690565b6040805173ffffffffffffffffffffffffffffffffffffffff9092168252602082018590520160405180910390a25050565b6104e56107f0565b600480547fffffffffffffffffffffffff00000000000000000000000000000000000000001673ffffffffffffffffffffffffffffffffffffffff83169081179091556040517f0a14b3f9755774ac06a00db0764d3eb10c87407e87dd206bfedf501cb81fc89090600090a250565b61055c6107f0565b60028190556040518181527fc22c6eb0acae8d786e7f0f2b09849b982f3362141b58a0ade2d3e9fae9ba3e8d9060200161033a565b60008060006105a233888888610871565b9194509250905081158015906105b757508015155b156105e2576105cb64e8d4a5100082611335565b600160008282546105dc9190611370565b90915550505b6106443361060560005473ffffffffffffffffffffffffffffffffffffffff1690565b73ffffffffffffffffffffffffffffffffffffffff7f000000000000000000000000000000000000000000000000000000000000000016919086610b67565b6106a63361066760005473ffffffffffffffffffffffffffffffffffffffff1690565b73ffffffffffffffffffffffffffffffffffffffff7f000000000000000000000000000000000000000000000000000000000000000016919085610b67565b6106e773ffffffffffffffffffffffffffffffffffffffff7f0000000000000000000000000000000000000000000000000000000000000000168583610c49565b604080518481526020810184905290810182905233907fa5981c2d17090248cb3c3abdbb31abc3bb57dce4f6f54cb787b664cfed2324dc9060600160405180910390a29450945094915050565b61073c6107f0565b73ffffffffffffffffffffffffffffffffffffffff81166107e4576040517f08c379a000000000000000000000000000000000000000000000000000000000815260206004820152602660248201527f4f776e61626c653a206e6577206f776e657220697320746865207a65726f206160448201527f646472657373000000000000000000000000000000000000000000000000000060648201526084015b60405180910390fd5b6107ed81610af2565b50565b60005473ffffffffffffffffffffffffffffffffffffffff163314610378576040517f08c379a000000000000000000000000000000000000000000000000000000000815260206004820181905260248201527f4f776e61626c653a2063616c6c6572206973206e6f7420746865206f776e657260448201526064016107db565b600480546040517ff85616250000000000000000000000000000000000000000000000000000000081526bffffffffffffffffffffffff8616928101929092526000918291829173ffffffffffffffffffffffffffffffffffffffff9091169063f856162590602401602060405180830381865afa1580156108f7573d6000803e3d6000fd5b505050506040513d601f19601f8201168201806040525081019061091b9190611388565b73ffffffffffffffffffffffffffffffffffffffff168773ffffffffffffffffffffffffffffffffffffffff161461095b57506000915081905080610ae8565b6040517f70a082310000000000000000000000000000000000000000000000000000000081523060048201526000907f000000000000000000000000000000000000000000000000000000000000000073ffffffffffffffffffffffffffffffffffffffff16906370a0823190602401602060405180830381865afa1580156109e8573d6000803e3d6000fd5b505050506040513d601f19601f82011682018060405250810190610a0c91906113a5565b9050841580610a19575080155b15610a2f57600080600093509350935050610ae8565b6000610a3d87600254610ca4565b90506000610a4d87600354610ca4565b90506000610a5a82610cdc565b90506103e8610a8560015464e8d4a5100084610a769190611335565b610a809190611370565b610ded565b10610a9e57600080600096509650965050505050610ae8565b80600003610aba57600080600096509650965050505050610ae8565b808410610acf57829650819550809450610ae3565b600080600096509650965050505050610ae8565b505050505b9450945094915050565b6000805473ffffffffffffffffffffffffffffffffffffffff8381167fffffffffffffffffffffffff0000000000000000000000000000000000000000831681178455604051919092169283917f8be0079c531659141344cd1fd0a4f28419497f9722a3daafe3b4186f6b6457e09190a35050565b60405173ffffffffffffffffffffffffffffffffffffffff80851660248301528316604482015260648101829052610c439085907f23b872dd00000000000000000000000000000000000000000000000000000000906084015b604080517fffffffffffffffffffffffffffffffffffffffffffffffffffffffffffffffe08184030181529190526020810180517bffffffffffffffffffffffffffffffffffffffffffffffffffffffff167fffffffff0000000000000000000000000000000000000000000000000000000090931692909217909152610dff565b50505050565b60405173ffffffffffffffffffffffffffffffffffffffff8316602482015260448101829052610c9f9084907fa9059cbb0000000000000000000000000000000000000000000000000000000090606401610bc1565b505050565b600082600003610cb657506000610cd6565b670de0b6b3a7640000610cc983856113be565b610cd39190611335565b90505b92915050565b600081600003610cee57506000919050565b60015482906000905b8215610de557600080650746a5288000610d1084610ded565b610d1a91906113be565b90506000610d2784610f0b565b9050620f424064e8d4a51000610d3d88846113be565b610d479190611335565b610d519190611335565b9250600084610d66650746a528800085611370565b610d7091906113fb565b905083811015610db057925082600082610d9283670de0b6b3a76400006113be565b610d9c9190611335565b9050610da881896113fb565b975050610db5565b600096505b610dbf8486611370565b9450610dd08464e8d4a510006113be565b610dda9087611370565b955050505050610cf7565b509392505050565b6000610cd6650746a528800083611335565b6000610e61826040518060400160405280602081526020017f5361666545524332303a206c6f772d6c6576656c2063616c6c206661696c65648152508573ffffffffffffffffffffffffffffffffffffffff16610f8f9092919063ffffffff16565b805190915015610c9f5780806020019051810190610e7f91906112e4565b610c9f576040517f08c379a000000000000000000000000000000000000000000000000000000000815260206004820152602a60248201527f5361666545524332303a204552433230206f7065726174696f6e20646964206e60448201527f6f7420737563636565640000000000000000000000000000000000000000000060648201526084016107db565b600080610f1e83652d79883d2000610f9e565b610f33650746a52880006405d21dba006113be565b610f3d9190611335565b90506000610f556302faf080650746a52880006113be565b610f648564e8d4a510006113be565b610f6e9190611335565b9050610f7a81836113fb565b610f8790620f4240611370565b949350505050565b6060610f878484600085610fb4565b6000818311610fad5781610cd3565b5090919050565b606082471015611046576040517f08c379a000000000000000000000000000000000000000000000000000000000815260206004820152602660248201527f416464726573733a20696e73756666696369656e742062616c616e636520666f60448201527f722063616c6c000000000000000000000000000000000000000000000000000060648201526084016107db565b6000808673ffffffffffffffffffffffffffffffffffffffff16858760405161106f919061143e565b60006040518083038185875af1925050503d80600081146110ac576040519150601f19603f3d011682016040523d82523d6000602084013e6110b1565b606091505b50915091506110c2878383876110cd565b979650505050505050565b6060831561116357825160000361115c5773ffffffffffffffffffffffffffffffffffffffff85163b61115c576040517f08c379a000000000000000000000000000000000000000000000000000000000815260206004820152601d60248201527f416464726573733a2063616c6c20746f206e6f6e2d636f6e747261637400000060448201526064016107db565b5081610f87565b610f8783838151156111785781518083602001fd5b806040517f08c379a00000000000000000000000000000000000000000000000000000000081526004016107db919061145a565b6000602082840312156111be57600080fd5b5035919050565b73ffffffffffffffffffffffffffffffffffffffff811681146107ed57600080fd5b80356bffffffffffffffffffffffff8116811461120357600080fd5b919050565b6000806000806080858703121561121e57600080fd5b8435611229816111c5565b9350611237602086016111e7565b93969395505050506040820135916060013590565b6000806040838503121561125f57600080fd5b823561126a816111c5565b946020939093013593505050565b60006020828403121561128a57600080fd5b8135611295816111c5565b9392505050565b600080600080608085870312156112b257600080fd5b6112bb856111e7565b9350602085013592506040850135915060608501356112d9816111c5565b939692955090935050565b6000602082840312156112f657600080fd5b8151801515811461129557600080fd5b7f4e487b7100000000000000000000000000000000000000000000000000000000600052601160045260246000fd5b60008261136b577f4e487b7100000000000000000000000000000000000000000000000000000000600052601260045260246000fd5b500490565b6000821982111561138357611383611306565b500190565b60006020828403121561139a57600080fd5b8151611295816111c5565b6000602082840312156113b757600080fd5b5051919050565b6000817fffffffffffffffffffffffffffffffffffffffffffffffffffffffffffffffff04831182151516156113f6576113f6611306565b500290565b60008282101561140d5761140d611306565b500390565b60005b8381101561142d578181015183820152602001611415565b83811115610c435750506000910152565b60008251611450818460208701611412565b9190910192915050565b6020815260008251806020840152611479816040850160208701611412565b601f017fffffffffffffffffffffffffffffffffffffffffffffffffffffffffffffffe016919091016040019291505056fea26469706673582212204738e1dd43773e141b1bf3e06d44da226112258d2306b705eedafdf929c484d364736f6c634300080e0033",
    "linkReferences": {}
  },
  "methodIdentifiers": {
    "AMPH()": "5cbac31b",
    "BASE_SUPPLY_PER_CLIFF()": "b08c7946",
    "CRV()": "945c9142",
    "CVX()": "759cb53b",
    "TOTAL_CLIFFS()": "5fc1f308",
    "changeCrvRewardFee(uint256)": "2ab7ff2f",
    "changeCvxRewardFee(uint256)": "9c90c9ef",
    "changeVaultController(address)": "7aadb0f1",
    "claimAmph(uint96,uint256,uint256,address)": "ceaf55be",
    "claimable(address,uint96,uint256,uint256)": "70e0a7e4",
    "crvRewardFee()": "e4424ee8",
    "cvxRewardFee()": "a351cae7",
    "distributedAmph()": "237d7c52",
    "owner()": "8da5cb5b",
    "recoverDust(address,uint256)": "78b140fc",
    "renounceOwnership()": "715018a6",
    "transferOwnership(address)": "f2fde38b",
    "vaultController()": "5f36b048"
  },
  "id": 61
}