{
  "abi": [
    {
      "inputs": [
        {
          "internalType": "contract IBaseRewardPool",
          "name": "_baseRewardPool",
          "type": "address"
        },
        {
          "internalType": "contract IERC20",
          "name": "_rewardToken",
          "type": "address"
        },
        {
          "internalType": "uint256",
          "name": "_rewardsPerSecondPerToken",
          "type": "uint256"
        }
      ],
      "stateMutability": "nonpayable",
      "type": "constructor"
    },
    {
      "inputs": [
        {
          "internalType": "address",
          "name": "",
          "type": "address"
        }
      ],
      "name": "balances",
      "outputs": [
        {
          "internalType": "uint256",
          "name": "",
          "type": "uint256"
        }
      ],
      "stateMutability": "view",
      "type": "function"
    },
    {
      "inputs": [],
      "name": "baseRewardPool",
      "outputs": [
        {
          "internalType": "contract IBaseRewardPool",
          "name": "",
          "type": "address"
        }
      ],
      "stateMutability": "view",
      "type": "function"
    },
    {
      "inputs": [
        {
          "internalType": "address",
          "name": "_ad",
          "type": "address"
        }
      ],
      "name": "earned",
      "outputs": [
        {
          "internalType": "uint256",
          "name": "_reward",
          "type": "uint256"
        }
      ],
      "stateMutability": "view",
      "type": "function"
    },
    {
      "inputs": [],
      "name": "getReward",
      "outputs": [],
      "stateMutability": "nonpayable",
      "type": "function"
    },
    {
      "inputs": [
        {
          "internalType": "uint256",
          "name": "_rewards",
          "type": "uint256"
        }
      ],
      "name": "queueNewRewards",
      "outputs": [],
      "stateMutability": "nonpayable",
      "type": "function"
    },
    {
      "inputs": [],
      "name": "rewardToken",
      "outputs": [
        {
          "internalType": "contract IERC20",
          "name": "",
          "type": "address"
        }
      ],
      "stateMutability": "view",
      "type": "function"
    },
    {
      "inputs": [
        {
          "internalType": "address",
          "name": "",
          "type": "address"
        }
      ],
      "name": "rewards",
      "outputs": [
        {
          "internalType": "uint256",
          "name": "lastClaimTime",
          "type": "uint256"
        },
        {
          "internalType": "uint256",
          "name": "rewardsToPay",
          "type": "uint256"
        }
      ],
      "stateMutability": "view",
      "type": "function"
    },
    {
      "inputs": [],
      "name": "rewardsPerSecondPerToken",
      "outputs": [
        {
          "internalType": "uint256",
          "name": "",
          "type": "uint256"
        }
      ],
      "stateMutability": "view",
      "type": "function"
    },
    {
      "inputs": [
        {
          "internalType": "address",
          "name": "_user",
          "type": "address"
        },
        {
          "internalType": "uint256",
          "name": "_amount",
          "type": "uint256"
        }
      ],
      "name": "stake",
      "outputs": [],
      "stateMutability": "nonpayable",
      "type": "function"
    },
    {
      "inputs": [
        {
          "internalType": "address",
          "name": "_user",
          "type": "address"
        },
        {
          "internalType": "uint256",
          "name": "_amount",
          "type": "uint256"
        }
      ],
      "name": "unstake",
      "outputs": [],
      "stateMutability": "nonpayable",
      "type": "function"
    }
  ],
  "bytecode": {
    "object": "0x608060405234801561001057600080fd5b5060405161084738038061084783398101604081905261002f9161007f565b600080546001600160a01b039485166001600160a01b03199182161790915560018054939094169216919091179091556004556100c2565b6001600160a01b038116811461007c57600080fd5b50565b60008060006060848603121561009457600080fd5b835161009f81610067565b60208501519093506100b081610067565b80925050604084015190509250925092565b610776806100d16000396000f3fe608060405234801561001057600080fd5b50600436106100bd5760003560e01c8063590a41f511610076578063adc9772e1161005b578063adc9772e146101ad578063c2a672e0146101c0578063f7c618c1146101d357600080fd5b8063590a41f5146101935780636faee215146101a457600080fd5b806327e235e3116100a757806327e235e3146101245780633d18b91214610144578063475a91d11461014e57600080fd5b80628cc262146100c25780630700037d146100e8575b600080fd5b6100d56100d03660046105ea565b6101f3565b6040519081526020015b60405180910390f35b61010f6100f63660046105ea565b6003602052600090815260409020805460019091015482565b604080519283526020830191909152016100df565b6100d56101323660046105ea565b60026020526000908152604090205481565b61014c610237565b005b60005461016e9073ffffffffffffffffffffffffffffffffffffffff1681565b60405173ffffffffffffffffffffffffffffffffffffffff90911681526020016100df565b61014c6101a1366004610605565b50565b6100d560045481565b61014c6101bb36600461061e565b610315565b61014c6101ce36600461061e565b61042b565b60015461016e9073ffffffffffffffffffffffffffffffffffffffff1681565b60006101fe82610533565b73ffffffffffffffffffffffffffffffffffffffff83166000908152600360205260409020600101546102319190610677565b92915050565b600061024233610533565b3360009081526003602052604090206001015461025f9190610677565b6001546040517fa9059cbb0000000000000000000000000000000000000000000000000000000081523360048201526024810183905291925073ffffffffffffffffffffffffffffffffffffffff169063a9059cbb906044016020604051808303816000875af11580156102d7573d6000803e3d6000fd5b505050506040513d601f19601f820116820180604052508101906102fb919061068f565b505033600090815260036020526040812042815560010155565b60005473ffffffffffffffffffffffffffffffffffffffff16331461039b576040517f08c379a000000000000000000000000000000000000000000000000000000000815260206004820152601560248201527f4f6e6c7920626173652072657761726420706f6f6c000000000000000000000060448201526064015b60405180910390fd5b6103a482610533565b73ffffffffffffffffffffffffffffffffffffffff83166000908152600360205260409020600101546103d79190610677565b73ffffffffffffffffffffffffffffffffffffffff83166000908152600360209081526040808320600181019490945542909355600290529081208054839290610422908490610677565b90915550505050565b60005473ffffffffffffffffffffffffffffffffffffffff1633146104ac576040517f08c379a000000000000000000000000000000000000000000000000000000000815260206004820152601560248201527f4f6e6c7920626173652072657761726420706f6f6c00000000000000000000006044820152606401610392565b6104b582610533565b73ffffffffffffffffffffffffffffffffffffffff83166000908152600360205260409020600101546104e89190610677565b73ffffffffffffffffffffffffffffffffffffffff831660009081526003602090815260408083206001810194909455429093556002905290812080548392906104229084906106b1565b73ffffffffffffffffffffffffffffffffffffffff8116600090815260036020526040812054819061056590426106b1565b73ffffffffffffffffffffffffffffffffffffffff8416600090815260026020526040902054600454919250670de0b6b3a7640000916105a69084906106c8565b6105b091906106c8565b6105ba9190610705565b9392505050565b803573ffffffffffffffffffffffffffffffffffffffff811681146105e557600080fd5b919050565b6000602082840312156105fc57600080fd5b6105ba826105c1565b60006020828403121561061757600080fd5b5035919050565b6000806040838503121561063157600080fd5b61063a836105c1565b946020939093013593505050565b7f4e487b7100000000000000000000000000000000000000000000000000000000600052601160045260246000fd5b6000821982111561068a5761068a610648565b500190565b6000602082840312156106a157600080fd5b815180151581146105ba57600080fd5b6000828210156106c3576106c3610648565b500390565b6000817fffffffffffffffffffffffffffffffffffffffffffffffffffffffffffffffff048311821515161561070057610700610648565b500290565b60008261073b577f4e487b7100000000000000000000000000000000000000000000000000000000600052601260045260246000fd5b50049056fea2646970667358221220b523a46ae08ca4cdb70d166d659f2fa58bf57633107f821625aa9b5451f11c0e64736f6c634300080e0033",
    "linkReferences": {}
  },
  "methodIdentifiers": {
    "balances(address)": "27e235e3",
    "baseRewardPool()": "475a91d1",
    "earned(address)": "008cc262",
    "getReward()": "3d18b912",
    "queueNewRewards(uint256)": "590a41f5",
    "rewardToken()": "f7c618c1",
    "rewards(address)": "0700037d",
    "rewardsPerSecondPerToken()": "6faee215",
    "stake(address,uint256)": "adc9772e",
    "unstake(address,uint256)": "c2a672e0"
  },
  "id": 118
}